:1000000080311628EA34BB347E14803120007F080A
:10001000F0002100901E11282000901E1128B431FC
:100020007E2470082000FF007E100900803118280F
:1000300043308400A5308500F030860026308700EC
:100040000130FF000030B43172248031AB308400C5
:10005000B5308500C7308600003087000030FF00D3
:100060001630B43172248031220080310220803178
:10007000E700803103208031E80029308400B63069
:100080008500D1308600013087000030FF001C3031
:10009000B43172248031C1308400AB30850020300F
:1000A0008600023087000030FF004630B4317224F1
:1000B000803102308400A0308500CA3086000230D2
:1000C00087000030FF002630B431722480311930AF
:1000D0008400A9308500203086000330870000307E
:1000E000FF003730B4317224803188308400A93069
:1000F0008500A0308600033087000030FF003830D4
:10010000B4317224803150308400A9308500203011
:100110008600043087000030FF003830B43172248C
:100120008031F9308400A930850020308600053008
:1001300087000030FF003A30B43172248031FC0176
:10014000A0308400003085002730FE000030FF0022
:10015000B43166248031203084000130850047307E
:10016000FE000030FF00B43166248031A0308400EE
:10017000013085003130FE000030FF00B4316624CC
:100180008031A0308400023085002A30FE0000302B
:10019000FF00B43166248031A03084000430850033
:1001A0003D30FE000030FF00B43166248031A030C5
:1001B0008400053085002830FE000030FF00B43197
:1001C00066247E1020008631612E20005308E60050
:1001D0005208E50021003A033B0403191E29A83107
:1001E000822080312000D4005408E4006508860095
:1001F000660887005F310130C03F0030C13F6508AD
:10020000213E86000030663D87000130C03F00304F
:10021000C13F6508233E86000030663D87000130FF
:10022000C03F0030C13F6508253E86000030663D76
:1002300087000130C03F0030C13F0800A831822054
:1002400080312000D4005408E40065080B3EF10022
:100250000030663DF2000030F300F4001430F50089
:100260000030F600B531C1258031200065088600D8
:10027000660887004331403FD400413FD50000303D
:1002800055026430031954020318512A6608B3005A
:100290006508B200AB317B2380312030F1000330A0
:1002A000F200B6318026803172082000AC0071085F
:1002B000AB00AB313823803120002408D400D501B5
:1002C0005408AD005508AE00B731722780312000C8
:1002D0002B08D6006508073ED7000030663DD800E1
:1002E0005708860058088700560881002030F10022
:1002F0000330F200B6318026803172082000AC0055
:100300007108AB00AB313823803120002408D400C1
:10031000D5015408AD005508AE00B73172278031C1
:1003200020002B08D6006508083ED7000030663D47
:10033000D8005708860058088700560881002030EA
:10034000F1000330F200B6318026803172082000BF
:10035000AC007108AB00AB31382380312000240899
:10036000D400D5015408AD005508AE00B73172274E
:10037000803120002B08D6006508093ED7000030E8
:10038000663DD80057088600580887005608810047
:100390002030F1000330F200B6318026803172083F
:1003A0002000AC007108AB00AB3138238031200055
:1003B0002408D400D5015408AD005508AE00B7316B
:1003C0007227803120002B08D60065080A3ED7002E
:1003D0000030663DD8005708860058088700560848
:1003E000810065080B3EAF000030663DB0001C3058
:1003F000B100BB30B200650886006608870047314F
:100400000108203E8600033087000108D400D50192
:100410005408B3005508B4006508860066088700D4
:1004200048310108203E8600033087000108D600CD
:10043000D7015608B5005708B6006508860066085B
:10044000870049310108203E8600033087000108FB
:10045000D800D9015808B7005908B80065088600C7
:10046000660887004A310108203E86000330870075
:100470000108DA00DB015A08B9005B08BA009A31BA
:100480005F228031200065080B3EBA000030663DD7
:10049000BB000130BC000030BD00A131D221803151
:1004A000272E200065088600660887004331403FFC
:1004B000D400413FD50000305502C8300319540222
:1004C0000318472B6608B3006508B200AB317B23E5
:1004D00080312030F1000330F200B63180268031C7
:1004E00072082000AC007108AB00AB3138238031BA
:1004F00020002408D400D5015408AD005508AE00F2
:10050000B7317227803120002B08D6006508083EDD
:10051000D7000030663DD80057088600580887008D
:10052000560881002030F1000330F200B6318026F9
:10053000803172082000AC007108AB00AB31382369
:10054000803120002408D400D5015408AD0055089E
:10055000AE00B7317227803120002B08D600650825
:10056000093ED7000030663DD8005708860058087D
:100570008700560881002030F1000330F200B631C8
:100580008026803172082000AC007108AB00AB31CE
:100590003823803120002408D400D5015408AD0050
:1005A0005508AE00B7317227803120002B08D600E5
:1005B00065080A3ED7000030663DD800570886001F
:1005C000580887005608810065080B3EAF000030D0
:1005D000663DB0001C30B100BB30B2007C35D13E6E
:1005E000860001308700403FD400413FD5005408C9
:1005F0008400550885000008D600D7015608B300CE
:100600005708B4006508860066088700483101086D
:10061000203E8600033087000108D800D901580821
:10062000B5005908B600650886006608870049319C
:100630000108203E8600033087000108DA00DB0154
:100640005A08B7005B08B80065088600660887008E
:100650004A310108203E8600033087000108DC0093
:10066000DD015C08B9005D08BA009A315F22803173
:10067000200065080B3EBA000030663DBB0001302B
:10068000BC000030BD00A131D2218031272E2000D6
:1006900065088600660887004331403FD400413F2B
:1006A000D500013055022C300319540203181A2CBE
:1006B0006608B3006508B200AB317B23803120307F
:1006C000F1000330F200B63180268031720820003C
:1006D000AC007108AB00AB31382380312000240816
:1006E000D400D5015408AD005508AE00B7317227CB
:1006F000803120002B08D6006508093ED700003065
:10070000663DD800570886005808870056088100C3
:100710002030F1000330F200B631802680317208BB
:100720002000AC007108AB00AB31382380312000D1
:100730002408D400D5015408AD005508AE00B731E7
:100740007227803120002B08D60065080A3ED700AA
:100750000030663DD80057088600580887005608C4
:10076000810065080B3EAF000030663DB0001C30D4
:10077000B100BB30B2007C35D13E8600013087002D
:10078000403FD400413FD5005408840055088500FF
:100790000008D600D7015608B3005708B4007C35CE
:1007A000D13E860001308700403FD800413FD9004C
:1007B00001305807840059080318590A85000008B9
:1007C000DA00DB015A08B5005B08B6006508860050
:1007D0006608870049310108203E86000330870003
:1007E0000108DC00DD015C08B7005D08B8006508A1
:1007F0008600660887004A310108203E86000330E3
:1008000087000108DE00DF015E08B9005F08BA005A
:100810009A315F228031200065080B3EBA0000301B
:10082000663DBB000130BC000030BD00A131D221CB
:100830008031272E20006508860066088700433136
:10084000403FD400413FD50001305502903003199C
:1008500054020318CA2C6608B3006508B200AB3115
:100860007B2380312030F1000330F200B631802646
:10087000803172082000AC007108AB00AB31382326
:10088000803120002408D400D5015408AD0055085B
:10089000AE00B7317227803120002B08D6006508E2
:1008A0000A3ED7000030663DD80057088600580839
:1008B00087005608810065080B3EAF000030663D9A
:1008C000B0001C30B100BB30B2007C35D13E860098
:1008D00001308700403FD400413FD50054088400D8
:1008E000550885000008D600D7015608B300570800
:1008F000B4007C35D13E860001308700403FD800EF
:10090000413FD90001305807840059080318590A9B
:1009100085000008DA00DB015A08B5005B08B60064
:100920007C35D13E860001308700403FDC00413FEE
:10093000DD0002305C0784005D0803185D0A850055
:100940000008DE00DF015E08B7005F08B800650838
:100950008600660887004A310108203E8600033081
:1009600087000108E000E1016008B9006108BA00F1
:100970009A315F228031200065080B3EBA000030BA
:10098000663DBB000130BC000030BD00A131D2216A
:100990008031272E200065088600660887004331D5
:1009A000403FD400413FD50001305502F4300319D7
:1009B00054020318832D6608BE006508BD009031FF
:1009C0000120803132302000AB000030AC006508DF
:1009D0008600660887004331403FAD00413FAE00CE
:1009E000B73172278031003020002C021A300319F1
:1009F0002B0203180D2D65080B3EF1000030663DFB
:100A0000F2002030F3000030F4000430F500003034
:100A1000F600B531C1258031742D200065080B3EEC
:100A2000AF000030663DB0001C30B100BB30B200FA
:100A30007C35D13E860001308700403FD400413FE5
:100A4000D50054088400550885000008D600D70159
:100A50005608B3005708B4007C35D13E86000130FB
:100A60008700403FD800413FD9000130580784003B
:100A700059080318590A85000008DA00DB015A08F2
:100A8000B5005B08B6007C35D13E8600013087009A
:100A9000403FDC00413FDD0002305C0784005D0820
:100AA00003185D0A85000008DE00DF015E08B7005C
:100AB0005F08B8007C35D13E860001308700403F9A
:100AC000E000413FE1000330600784006108031843
:100AD000610A85000008E200E3016208B9006308CA
:100AE000BA009A315F228031200065080B3EBA00BF
:100AF0000030663DBB000130BC000030BD00A131BC
:100B0000D2218031272E20006608BE006508BD0076
:100B100090310120803132302000AB000030AC0039
:100B200065088600660887004331403FAD00413FBD
:100B3000AE00B73172278031003020002C021A300D
:100B400003192B020318B62D65080B3EF100003087
:100B5000663DF2002030F3000030F4000430F50070
:100B60000030F600B531C1258031CD2D200065085B
:100B70000B3EAF000030663DB0000230B100BC302B
:100B8000B2007C35DE3E860002308700403FB30075
:100B9000413FB4009A315F228031200065080B3E4E
:100BA000BA000030663DBB00650886006608870015
:100BB0004331403FBC00413FBD001430BE00003017
:100BC000BF00A1315F2180312000650886006608E2
:100BD000870043311600E83AD4001600033AD404E3
:100BE000031D272E2100BA01BB013D082000B000E3
:100BF00021003C082000AF00AD31802520006508B1
:100C00008600660887005F310130C03F0030C13F79
:100C10006508213E86000030663D87000130C03FF8
:100C20000030C13F6508233E86000030663D8700E6
:100C30000130C03F0030C13F6508253E86000030CE
:100C4000663D87000130C03F0030C13F08002000F2
:100C5000650886006608870043310130810741310D
:100C60000318810A65088600660887005F31003036
:100C7000C03FC13F6508213E86000030663D8700C9
:100C80000030C03FC13F6508233E86000030663D0E
:100C900087000030C03FC13F6508253E8600003018
:100CA000663D87000030C03FC13F6508273E860093
:100CB0000030663D87000130810741310318810A09
:100CC0000800B230AE3129268631A030B6310E266A
:100CD00086315A30A931C02186314D30A931C02129
:100CE00086314030A931C02186313330A931C0214D
:100CF00086312630A931C0218631C430A931C021C6
:100D00008631B2302000EE006E082900BF00B230FC
:100D10002000EE006E082500BC00B2302000EE007E
:100D20006E082B00A000B2302000EE006E082500F7
:100D3000AE00B2302000EE006E082500A000B230F8
:100D40002000EE006E082900A0002100C401C40AA2
:100D5000BF302200DC000430DD006430DE000730EC
:100D6000DF001930E2000830E3000030E00000301E
:100D7000E1000A30E4000030E500BC30CF00023072
:100D8000D0003B30D1002F30D2000930D5001E30CA
:100D9000D6000030D3000030D4000A30D700003035
:100DA000D800A030C2000530C3002830C400203075
:100DB000C500E530C8000030C9000030C600003072
:100DC000C7000A30CA000030CB00AE30B500023098
:100DD000B6009D30B7002F30B8002C30BB001C305F
:100DE000BC000030B9000030BA000A30BD0000304D
:100DF000BE00A030A8000230A9007E30AA002E302C
:100E0000AB004330AE002630AF000030AC00003005
:100E1000AD000A30B0000030B100A0302300C600A1
:100E20000430C7004730C8002330C900E330CC008D
:100E30001030CD000030CA000030CB000A30CE00A8
:100E40000030CF002100C501C6010230BA000030D9
:100E5000BB005A302000EE006E08BF00A030A23167
:100E6000492286314D302000EE006E08BF00A030D0
:100E7000A2314922863140302000EE006E08BF00CA
:100E8000A030A2314922863133302000EE006E08B6
:100E9000BF00A030A2314922863126302000EE006A
:100EA0006E08BF00A030A23149228631C430200034
:100EB000EE006E08BF00A030A23149228631A0307A
:100EC000A231C32286315F2F20003A08BC003908C6
:100ED000BB003B0886003C0887000108B431B624FB
:100EE000873120003B0886003C08870001088731D5
:100EF000FA27873120003B0886003C08870001085C
:100F0000B331DF23873120003B0886003C0887008F
:100F10000108B331D123873120003B0886003C080B
:100F2000870041312330C03F0030C13F3B0886007D
:100F30003C08870044310030C03FC13F3B08860079
:100F40003C0887004A310030C03FC13F3B08860063
:100F50003C0887004C310030C03FC13F3B08860051
:100F60003C0887004E310030C03FC13F3B0886003F
:100F70003C08870050310030C03FC13F3B0886002D
:100F80003C08870052310030C03FC13F3B0886001B
:100F90003C08870054310030C03FC13F3B08860009
:100FA0003C08870056310030C03FC13F3B088600F7
:100FB0003C0887005C310030C03FC13F2100B201D6
:100FC000B30120003B0886003C08870043318101C3
:100FD0002100A801A9011D30A6000030A700323071
:100FE000AE000030AF003230AC000030AD00B001D8
:100FF000B10108002000AB002B08B431992408008F
:10100000080021002435C73E86008701403FF300D9
:10101000413FF40024082504031912280130A402DA
:101020000030A53B73085904F10074085A04F2001B
:10103000080020005308DF005208DE0002302100C3
:101040003A063B040319C62820005E0886005F08A4
:1010500087004A310130C03F0030C13F5E08860042
:101060005F0887004C310130C03F0030C13F5E084F
:1010700086005F0887004E310130C03F0030C13F1D
:101080005E0886005F08870050310130C03F0030A5
:10109000C13F5E0886005F08870052310130C03FC3
:1010A0000030C13F5E0886005F0887005431013080
:1010B000C03F0030C13F5E0886005F0887005631A0
:1010C0000130C03F0030C13F08002100C501C6010A
:1010D00020005E0886005F08870044310030C03F72
:1010E000C13F5E08063ED40000305F3DD500540885
:1010F000860055088700053081005E0886005F087D
:1011000087004A310130C03F0030C13F5E08860091
:101110005F0887004C310130C03F0030C13F5E089E
:1011200086005F0887004E310130C03F0030C13F6C
:101130005E0886005F08870050310130C03F0030F4
:10114000C13F5E0886005F08870052310130C03F12
:101150000030C13F5E0886005F08870054310130CF
:10116000C03F0030C13F5E0886005F0887005631EF
:101170000130C03F0030C13F5E0886005F08870035
:101180005C310130C03F0030C13F080021004608FB
:10119000003A0319CC28C4294508003A0319C42988
:1011A000013A03196528C429C42920005E08860075
:1011B0005F088700413116000104031DB829210092
:1011C00033082000B100210032082000B000AA310D
:1011D000B522883101302100B2070030B33D200034
:1011E0005E0886005F08870041312330C03F003031
:1011F000C13F5E2A5E0886005F0887004131160005
:101200000104031DB829210033082000B10021008A
:1012100032082000B000AA31742288310130210048
:10122000B2070030B33D20005E0886005F088700EB
:1012300041310530C03F0030C13F5E2A5E08860064
:101240005F088700413116000104031DB729AC3146
:101250004E24883120005E0886005F0887004131F7
:1012600021002E08C03F2F08C13F5E2A5E0886007D
:101270005F088700413116000104031DB7290430BF
:10128000210033063204031D49293235B200330DE3
:10129000B30033082000B100210032082000B00064
:1012A000B331F0238831210032083304031D5D2956
:1012B0000130B2000030B3005E2A3235B200330D87
:1012C000B30020005E0886005F08870041312100DE
:1012D0002E08C03F2F08C13F5E2A5E0886005F08C7
:1012E0008700413116000104031DB729210033088E
:1012F0002000B100210032082000B000B5313F25A8
:10130000883101302100B2070030B33D20005E0873
:1013100086005F088700413121002E08C03F2F085A
:10132000C13F5E2A5E0886005F08870041311600D3
:101330000104031DB729210033082000B10021005A
:1013400032082000B000A0318C208831013021000B
:10135000B2070030B33D20005E0886005F088700BA
:10136000413121002E08C03F2F08C13F5E2A2000D6
:101370005E0886005F0887004131013081024131FB
:101380000030813B7F315E2A20005E0886005F08C6
:1013900087004331010884000630040203185E2AE6
:1013A000B0310435003E82005E2AE530B700BB3024
:1013B000B8005E0886005F0887000108B4310D247C
:1013C000883120005E0886005F0887000108B3317D
:1013D000CB238831522A5630AF000030B000FE30A7
:1013E000B100BB30B20021002B082000B400210066
:1013F0002A082000B3009A315F228831563020003D
:10140000B7000030B8005E0886005F08870001085A
:10141000B4310D24883120005E0886005F08870003
:101420000108B331CB23883120005E0886005F08B5
:10143000870044311600963AD4001600D404031DE8
:10144000532A5E0886005F08870044310030C03FA1
:10145000C13F5E08063ED40000305F3DD500540811
:1014600086005508870023308100532A21005C083C
:101470002000BB0021005B082000BA005E08860047
:101480005F0887004431403FBC00413FBD00A131AF
:10149000D2218831522A5F08CD005E08CC009A31F3
:1014A0000022883120005E0886005F0887004431F2
:1014B0000130810741310318810A722A20005E0839
:1014C00086005F08870046310108003A03194B2A5D
:1014D000023A0319D529013A0319EB29063A0319EF
:1014E000362A4B2AA831822088312000D400D50129
:1014F0005408DC005508DD00362F5E0886005F08C2
:101500008700523116000104031D8C2A5E088600F4
:101510005F088700463181015E0886005F0887000A
:101520004A310030C03FC13F5E0886005F08870037
:101530004C310030C03FC13F5E0886005F08870025
:101540004E310030C03FC13F5E0886005F08870013
:1015500050310030C03FC13F5E0886005F08870001
:1015600052310130810741310318810A5E0886003B
:101570005F08870054310030C03FC13F5E088600DD
:101580005F08870056310030C03FC13F5E088600CB
:101590005F08870058310030C03FC13F5E088600B9
:1015A0005F0887005A310030C03FC13F5E088600A7
:1015B0005F0887005C310030C03FC13FC92F5E0823
:1015C00086005F088700543116000104031DF82AC5
:1015D000033021002F02E93003192E02031CF42AE4
:1015E000E830AE000330AF000530AE070030AF3D4D
:1015F00020005E0886005F0887004A310030C03F47
:10160000C13F5E0886005F0887004C310030C03F54
:10161000C13F5E0886005F0887004E310030C03F42
:10162000C13F5E0886005F08870050310030C03F30
:10163000C13F5E0886005F08870052310030C03F1E
:10164000C13F5E0886005F08870054310130810782
:1016500041310318810A5E0886005F088700563111
:101660000030C03FC13F5E0886005F0887005831E8
:101670000030C03FC13F5E0886005F0887005A31D6
:101680000030C03FC13F5E0886005F0887005C31C4
:101690000030C03FC13FC92F5E0886005F08870049
:1016A000563116000104031D652B003021002F0266
:1016B000053003192E020318612B0530AE000030EF
:1016C000AF000530AE020030AF3B20005E08860060
:1016D0005F0887004A310030C03FC13F5E08860086
:1016E0005F0887004C310030C03FC13F5E08860074
:1016F0005F0887004E310130810741310318810AAC
:101700005E0886005F08870050310030C03FC13F4F
:101710005E0886005F08870052310030C03FC13F3D
:101720005E0886005F08870054310030C03FC13F2B
:101730005E0886005F08870056310130810741311D
:101740000318810A5E0886005F0887005831003060
:10175000C03FC13F5E0886005F0887005A310030F5
:10176000C03FC13F5E0886005F0887005C310030E3
:10177000C03FC13FC92F5E0886005F0887005A310D
:1017800016000104031DD82B210028082904031981
:10179000D82B00302D02973003192C02031CD42BB8
:1017A0009630AC000030AD000230AC070030AD3DEB
:1017B00020005E0886005F0887004A310030C03F85
:1017C000C13F5E0886005F0887004C310130810709
:1017D00041310318810A5E0886005F0887004E3198
:1017E0000030C03FC13F5E0886005F08870050316F
:1017F0000130810741310318810A5E0886005F08C5
:10180000870052310030C03FC13F5E0886005F084C
:10181000870054310030C03FC13F5E0886005F083A
:10182000870056310030C03FC13F5E0886005F0828
:10183000870058310030C03FC13F5E0886005F0816
:1018400087005A310130810741310318810A5E084F
:1018500086005F0887005C310030C03FC13FC92F60
:101860005E0886005F088700583116000104031DDA
:101870004D2C21002808290403194D2C00302D027D
:10188000053003192C020318492C0530AC00003038
:10189000AD000330AC020030AD3B20005E08860096
:1018A0005F0887004A310030C03FC13F5E088600B4
:1018B0005F0887004C310130810741310318810AEC
:1018C0005E0886005F0887004E3101308107413194
:1018D0000318810A5E0886005F08870050310030D7
:1018E000C03FC13F5E0886005F088700523100306C
:1018F000C03FC13F5E0886005F088700543100305A
:10190000C03FC13F5E0886005F0887005631003047
:10191000C03FC13F5E0886005F0887005831013034
:10192000810741310318810A5E0886005F0887003D
:101930005A310030C03FC13F5E0886005F08870013
:101940005C310030C03FC13FC92F5E0886005F0890
:101950008700503116000104031DFB2C5E08860031
:101960005F088700473116000104031DFB2C00307F
:10197000AD00AE005E0886005F0887000108B43144
:10198000E624883120005E0886005F088700443125
:101990000030C03FC13F5E0886005F0887004731C6
:1019A0006430C03F0030C13F5E0886005F0887009A
:1019B00041310530C03F0030C13F5E08033ED400D6
:1019C00000305F3DD500540886005508870001307F
:1019D00081005E08063ED40000305F3DD50054080B
:1019E000860055088700023081005E0886005F0887
:1019F0008700493181015E0886005F0887004A310F
:101A00000030C03FC13F5E0886005F0887004C3150
:101A10000030C03FC13F5E0886005F0887004E313E
:101A20000030C03FC13F5E0886005F08870050312C
:101A30000130810741310318810A5E0886005F0882
:101A4000870052310030C03FC13F5E0886005F080A
:101A5000870054310030C03FC13F5E0886005F08F8
:101A6000870056310030C03FC13F5E0886005F08E6
:101A7000870058310030C03FC13F5E0886005F08D4
:101A800087005A310030C03FC13F5E0886005F08C2
:101A900087005C310030C03FC13FC92F5E0886001F
:101AA0005F0887004C3116000104031D7C2D5E0881
:101AB00086005F0887004631810121002608FF3E2D
:101AC0002000D400FF302100273D2000D500210058
:101AD000290820005506031D712D2100280820002B
:101AE0005406031D772D2100A801A9017C2D01308A
:101AF0002100A8070030A93D20005E0886005F088D
:101B000087004A310030C03FC13F5E0886005F0851
:101B100087004C310130810741310318810A5E088A
:101B200086005F0887004E310030C03FC13F5E082D
:101B300086005F08870050310030C03FC13F5E081B
:101B400086005F08870052310030C03FC13F5E0809
:101B500086005F08870054310030C03FC13F5E08F7
:101B600086005F08870056310030C03FC13F5E08E5
:101B700086005F08870058310030C03FC13F5E08D3
:101B800086005F0887005A310030C03FC13F5E08C1
:101B900086005F0887005C310030C03FC13FC92F1D
:101BA0005E0886005F0887004A3116000104031DA5
:101BB0003E2E003021003102053003193002031C93
:101BC000E32DB001B10130083104031DF42D2000D4
:101BD0005E08033ED40000305F3DD5005408860007
:101BE0005508870004308100210030033104031DB3
:101BF000062E20005E08033ED40000305F3DD50075
:101C00005408860055088700023081000230210008
:101C100030063104031D192E20005E08033ED40057
:101C200000305F3DD500540886005508870003301A
:101C300081000330210030063104031D262E2000D0
:101C40005E0886005F08870043318101043021006F
:101C500030063104031D392E20005E08033ED400F7
:101C600000305F3DD50054088600550887000530D8
:101C7000810001302100B0070030B13D20005E0836
:101C800086005F0887004A3101308107413103181F
:101C9000810A5E0886005F0887004C310030C03F33
:101CA000C13F5E0886005F0887004E310030C03FAC
:101CB000C13F5E0886005F08870050310030C03F9A
:101CC000C13F5E0886005F08870052310030C03F88
:101CD000C13F5E0886005F08870054310030C03F76
:101CE000C13F5E0886005F08870056310030C03F64
:101CF000C13F5E0886005F08870058310030C03F52
:101D0000C13F5E0886005F0887005A310030C03F3F
:101D1000C13F5E0886005F0887005C310030C03F2D
:101D2000C13FC92F5E0886005F0887004A31003036
:101D3000C03FC13F5E0886005F0887004C3100301D
:101D4000C03FC13F5E0886005F0887004E3100300B
:101D5000C03FC13F5E0886005F08870050310030F9
:101D6000C03FC13F5E0886005F08870052310030E7
:101D7000C03FC13F5E0886005F08870054310030D5
:101D8000C03FC13F5E0886005F08870056310030C3
:101D9000C03FC13F5E0886005F08870058310030B1
:101DA000C03FC13F5E0886005F0887005A3100309F
:101DB000C03FC13F5E0886005F0887005C3101308C
:101DC000810741310318810AC92F5E0886005F0828
:101DD00087004A310030C03FC13F5E0886005F087F
:101DE00087004C310030C03FC13F5E0886005F086D
:101DF00087004E310030C03FC13F5E0886005F085B
:101E0000870050310030C03FC13F5E0886005F0848
:101E1000870052310030C03FC13F5E0886005F0836
:101E2000870054310030C03FC13F5E0886005F0824
:101E3000870056310030C03FC13F5E0886005F0812
:101E4000870058310030C03FC13F5E0886005F0800
:101E500087005A310030C03FC13F5E0886005F08EE
:101E600087005C310030C03FC13FC92F5D08003A98
:101E700003193B2FE52E5C08003A0319922E013A14
:101E80000319D02D033A03194E2D073A03194C2B91
:101E9000033A0319302C0E3A0319A52C013A031901
:101EA000DF2A033A0319BB2B063A03197D2AE52ED4
:101EB000C92F5E0886005F08870047311600643A24
:101EC000D4001600D404031D702F5E0886005F083E
:101ED00087000108B431A7248831B331B323883196
:101EE00020005E0886005F08870047311600633ACD
:101EF000D4001600D404031D892FB331B0238831D8
:101F000020005E0886005F0887000108B431432482
:101F1000883120005E0886005F0887004731160080
:101F20000104031DBD2F5E0886005F088700443151
:101F30000030C03FC13F5E0886005F088700413126
:101F40000530C03F0030C13F5E0886005F08870053
:101F5000433181015E0886005F08870046318101B8
:101F60005E08093ED40000305F3DD500540886006D
:101F70005508870001308100D62F5E0886005F0873
:101F8000870047310130810241310030813B7F3190
:101F9000D62F5E0886005F08870049310108003AA5
:101FA0000319592F013A0319D62FD62FB331BA236B
:101FB0008831003A0319080020005E0886005F0897
:101FC000870049310108031908005E0886005F0890
:101FD000870044310030C03FC13F01302100AA07D3
:101FE0000030AB3D20005E08063ED40000305F3D6F
:101FF000D50054088600550887000330810008008A
:1020020020003E08C2003D08C10041088600420887
:102012008700453116000104031D1C28AC314E24F3
:102022002000410886004208870045310A30C03F3F
:102032000030C13F08004108860042088700453150
:102042000130810241310030813B7F310800013093
:102052002000A3000030A400A801A901240829023D
:10206200031D3528230828020318E1281930A0008F
:102072002008F1002808B431F72490314D3E2000A9
:10208200A1002108A7001930A0002008F1002808AB
:10209200B431F7249031143E4D3E86000230870061
:1020A200010820002707A1002108860002308700CE
:1020B20001087906031DCA282708F1000230F20040
:1020C200B6318026903172082000A6007108A50062
:1020D2001930A0002008F1002808B431F72490310B
:1020E200143E4D3E860002308700013081074131A7
:1020F2000318810A19302000A0002008F1002808E6
:10210200B431F7249031143E4D3E860002308700F0
:10211200403F2000A100413FA20026082206031DE5
:10212200942825082106031DDB281930A000200869
:10213200F1002808B431F7249031143E4D3E860058
:10214200023087000030C03FC13F19302000A0009C
:102152002008F1002808B431F7249031173E4D3E93
:1021620086000230870019302000A1002108F1000A
:102172002808B431F724163E4D3E84000230850013
:10218200000884008501403F803F413F813F01308C
:10219200080019302000A0002008F1002808B431FE
:1021A200F7249031143E4D3E860002308700003005
:1021B200C03FC13F01302000A8070030A93D2F28B1
:1021C2000030080020005308DC005208DB00D9016F
:1021D200D8013230D4005408DA00043021003A0623
:1021E2003B0403191A2920005B0886005C0887005B
:1021F20049310130C03F0030C13F5B0886005C08B6
:1022020087004B310130C03F0030C13F5B08860080
:102212005C0887004D310130C03F0030C13F5B0890
:1022220086005C0887004F310130C03F0030C13F5B
:10223200080020005B0886005C088700413101032A
:10224200031D52295B0886005C0887004331160093
:102252000104031D4729210021082000B1002100AB
:1022620020082000B000A0318C20903101302100E4
:10227200A0070030A13D20005B0886005C088700B3
:1022820043310A30C03F0030C13F52295B0886000B
:102292005C08870043310130810241310030813BCB
:1022A2007F31A831822090312000D4005408D90017
:1022B200952F5B0886005C0887004931403FD400B7
:1022C200413FD5005A08D600D70155085706031DCD
:1022D2006C2954085606031D83295C08F8005B0824
:1022E200F7005908D4005408F900A4318824903129
:1022F2002000D5005508D8005B0886005C088700DE
:10230200423181015B0886005C0887004931013057
:10231200810741310318810A5B0886005C08870047
:102322004B310030C03FC13F5B0886005C0887002C
:102332004D310030C03FC13F5B0886005C0887001A
:102342004F310030C03FC13F5B0886005C08870008
:1023520051310030C03FC13F5B0886005C088700F6
:1023620053310030C03FC13F5B0886005C088700E4
:1023720055310030C03FC13F5B0886005C088700D2
:1023820057310030C03FC13F5B0886005C088700C0
:1023920059310030C03FC13F5B0886005C088700AE
:1023A2005B310030C03FC13F5B0886005C0887009C
:1023B2005D310030C03FC13F5B0886005C0887008A
:1023C20047312C30C03F0130C13FB62F5B08860039
:1023D2005C0887004B31403FD400413FD5005A088A
:1023E200D600D70155085706031DF9295408560689
:1023F200031D162A5C08F8005B08F7005908D40090
:102402005408F900A431882490312000D5005508E1
:10241200D8005B08023ED40000305C3DD500540871
:10242200860055088700023081005B0886005C0840
:10243200870049310030C03FC13F5B0886005C081D
:1024420087004B310130810741310318810A5B0853
:1024520086005C0887004D310030C03FC13F5B08F9
:1024620086005C0887004F310030C03FC13F5B08E7
:1024720086005C08870051310030C03FC13F5B08D5
:1024820086005C08870053310030C03FC13F5B08C3
:1024920086005C08870055310030C03FC13F5B08B1
:1024A20086005C08870057310030C03FC13F5B089F
:1024B20086005C08870059310030C03FC13F5B088D
:1024C20086005C0887005B310030C03FC13F5B087B
:1024D20086005C0887005D310030C03FC13F5B0869
:1024E20086005C08870047312C30C03F0130C13F75
:1024F200B62F5B0886005C0887004D31403FD40050
:10250200413FD5005A08D600D70155085706031D8A
:102512008C2A54085606031DA92A5C08F8005B0899
:10252200F7005908D4005408F900A43188249031E6
:102532002000D5005508D8005B08023ED4000030C8
:102542005C3DD500540886005508870003308100A1
:102552005B0886005C08870049310030C03FC13FFC
:102562005B0886005C0887004B310030C03FC13FEA
:102572005B0886005C0887004D31013081074131DC
:102582000318810A5B0886005C0887004F3100301F
:10259200C03FC13F5B0886005C08870051310030B4
:1025A200C03FC13F5B0886005C08870053310030A2
:1025B200C03FC13F5B0886005C0887005531003090
:1025C200C03FC13F5B0886005C088700573100307E
:1025D200C03FC13F5B0886005C088700593100306C
:1025E200C03FC13F5B0886005C0887005B3100305A
:1025F200C03FC13F5B0886005C0887005D31003048
:10260200C03FC13F5B0886005C08870047312C3021
:10261200C03F0130C13FB62F5B0886005C088700CF
:102622004F31403FD400413FD5005A08D600D70170
:1026320055085706031D1F2B54085606031D3C2B35
:102642005C08F8005B08F7005908D4005408F90048
:10265200A431882490312000D5005508D8005B08A9
:10266200023ED40000305C3DD50054088600550877
:102672008700013081005B0886005C0887004931D1
:102682000030C03FC13F5B0886005C0887004B31C9
:102692000030C03FC13F5B0886005C0887004D31B7
:1026A2000030C03FC13F5B0886005C0887004F31A5
:1026B2000130810741310318810A5B0886005C08FA
:1026C200870051310030C03FC13F5B0886005C0883
:1026D200870053310030C03FC13F5B0886005C0871
:1026E200870055310030C03FC13F5B0886005C085F
:1026F200870057310030C03FC13F5B0886005C084D
:10270200870059310030C03FC13F5B0886005C083A
:1027120087005B310030C03FC13F5B0886005C0828
:1027220087005D310030C03FC13F5B0886005C0816
:10273200870047312C30C03F0130C13FB62F5B08C4
:1027420086005C0887005131403FD400413FD500EC
:102752005A08D600D70155085706031DB22B540854
:102762005606031DCF2B5C08F8005B08F7000C30FF
:10277200D4005408F900A431882490312000D500F7
:102782005508D8005B08023ED40000305C3DD500FD
:102792005408860055088700083081005B088600CF
:1027A2005C08870049310030C03FC13F5B088600AA
:1027B2005C0887004B310030C03FC13F5B08860098
:1027C2005C0887004D310030C03FC13F5B08860086
:1027D2005C0887004F310030C03FC13F5B08860074
:1027E2005C08870051310130810741310318810AA9
:1027F2005B0886005C08870053310030C03FC13F50
:102802005B0886005C08870055310030C03FC13F3D
:102812005B0886005C08870057310030C03FC13F2B
:102822005B0886005C08870059310030C03FC13F19
:102832005B0886005C0887005B310030C03FC13F07
:102842005B0886005C0887005D310030C03FC13FF5
:102852005B0886005C08870047312C30C03F01309E
:10286200C13FB62F5B0886005C0887005331403FAA
:10287200D400413FD5005A08D600D7015508570663
:10288200031D452C54085606031D622C5C08F800F3
:102892005B08F7000930D4005408F900A4318824F9
:1028A20090312000D5005508D8005B08023ED400C4
:1028B20000305C3DD500540886005508870005307D
:1028C20081005B0886005C08870049310030C03F08
:1028D200C13F5B0886005C0887004B310030C03F77
:1028E200C13F5B0886005C0887004D310030C03F65
:1028F200C13F5B0886005C0887004F310030C03F53
:10290200C13F5B0886005C08870051310030C03F40
:10291200C13F5B0886005C088700533101308107A4
:1029220041310318810A5B0886005C088700553133
:102932000030C03FC13F5B0886005C08870057310A
:102942000030C03FC13F5B0886005C0887005931F8
:102952000030C03FC13F5B0886005C0887005B31E6
:102962000030C03FC13F5B0886005C0887005D31D4
:102972000030C03FC13F5B0886005C0887004731DA
:102982002C30C03F0130C13FB62F5B0886005C0887
:1029920087005531403FD400413FD5005A08D60048
:1029A200D70155085706031DD82C54085606031D97
:1029B200F52C5C08F8005B08F7000530D4005408D9
:1029C200F900A431882490312000D5005508D800A0
:1029D2005B08023ED40000305C3DD50054088600FE
:1029E20055088700043081005B0886005C08870078
:1029F20049310030C03FC13F5B0886005C08870058
:102A02004B310030C03FC13F5B0886005C08870045
:102A12004D310030C03FC13F5B0886005C08870033
:102A22004F310030C03FC13F5B0886005C08870021
:102A320051310030C03FC13F5B0886005C0887000F
:102A420053310030C03FC13F5B0886005C088700FD
:102A520055310130810741310318810A5B08860034
:102A62005C08870057310030C03FC13F5B088600D9
:102A72005C08870059310030C03FC13F5B088600C7
:102A82005C0887005B310030C03FC13F5B088600B5
:102A92005C0887005D310030C03FC13F5B088600A3
:102AA2005C08870047312C30C03F0130C13FB62F50
:102AB2005B0886005C0887005731403FD400413FE5
:102AC200D5005A08D600D70155085706031D6B2DAD
:102AD20054085606031D882D5C08F8005B08F700B1
:102AE2000630D4005408F900A43188249031200023
:102AF200D5005508D8005B08023ED40000305C3D8A
:102B0200D5005408860055088700073081005B080D
:102B120086005C08870049310030C03FC13F5B0836
:102B220086005C0887004B310030C03FC13F5B0824
:102B320086005C0887004D310030C03FC13F5B0812
:102B420086005C0887004F310030C03FC13F5B0800
:102B520086005C08870051310030C03FC13F5B08EE
:102B620086005C08870053310030C03FC13F5B08DC
:102B720086005C08870055310030C03FC13F5B08CA
:102B820086005C0887005731013081074131031804
:102B9200810A5B0886005C08870059310030C03F1B
:102BA200C13F5B0886005C0887005B310030C03F94
:102BB200C13F5B0886005C0887005D310030C03F82
:102BC200C13F5B0886005C08870047312C30C03F5C
:102BD2000130C13FB62F5B0886005C08870059317F
:102BE200403FD400413FD5005A08D600D7015508CE
:102BF2005706031DFE2D54085606031D1B2E5C08A6
:102C0200F8005B08F7000A30D4005408F900A43138
:102C1200882490312000D5005508D8005B08023E78
:102C2200D40000305C3DD50054088600550887006A
:102C3200093081005B0886005C088700493100305A
:102C4200C03FC13F5B0886005C0887004B31003003
:102C5200C03FC13F5B0886005C0887004D310030F1
:102C6200C03FC13F5B0886005C0887004F310030DF
:102C7200C03FC13F5B0886005C08870051310030CD
:102C8200C03FC13F5B0886005C08870053310030BB
:102C9200C03FC13F5B0886005C08870055310030A9
:102CA200C03FC13F5B0886005C0887005731003097
:102CB200C03FC13F5B0886005C0887005931013084
:102CC200810741310318810A5B0886005C0887008E
:102CD2005B310030C03FC13F5B0886005C08870063
:102CE2005D310030C03FC13F5B0886005C08870051
:102CF20047312C30C03F0130C13FB62F5B08860000
:102D02005C0887005B31403FD400413FD5005A0840
:102D1200D600D70155085706031D912E54085606B2
:102D2200031DAE2E5C08F8005B08F7000330D400E8
:102D32005408F900A431882490312000D5005508A8
:102D4200D8005B08023ED40000305C3DD500540838
:102D5200860055088700063081005B0886005C0803
:102D6200870049310030C03FC13F5B0886005C08E4
:102D720087004B310030C03FC13F5B0886005C08D2
:102D820087004D310030C03FC13F5B0886005C08C0
:102D920087004F310030C03FC13F5B0886005C08AE
:102DA200870051310030C03FC13F5B0886005C089C
:102DB200870053310030C03FC13F5B0886005C088A
:102DC200870055310030C03FC13F5B0886005C0878
:102DD200870057310030C03FC13F5B0886005C0866
:102DE200870059310030C03FC13F5B0886005C0854
:102DF20087005B310130810741310318810A5B088A
:102E020086005C0887005D310030C03FC13F5B082F
:102E120086005C08870047312C30C03F0130C13F3B
:102E2200B62F5B0886005C0887005D3101308107A0
:102E320041310318810A5B0886005C08870049312A
:102E42000030C03FC13F5B0886005C0887004B3101
:102E52000030C03FC13F5B0886005C0887004D31EF
:102E62000030C03FC13F5B0886005C0887004F31DD
:102E72000030C03FC13F5B0886005C0887005131CB
:102E82000030C03FC13F5B0886005C0887005331B9
:102E92000030C03FC13F5B0886005C0887005531A7
:102EA2000030C03FC13F5B0886005C088700573195
:102EB2000030C03FC13F5B0886005C088700593183
:102EC2000030C03FC13F5B0886005C0887005B3171
:102ED2000030C03FC13F58080319822F5B08023EF1
:102EE200D40000305C3DD5005408860055088700A8
:102EF2000B3081005B0886005C088700413181014C
:102F0200B62F5B0886005C088700473101308102DA
:102F120041310030813B7F315C08CD005B08CC0041
:102F2200A331E5239031B62F20005908013A031945
:102F32005A29033A0319E729013A03197F2E073A5E
:102F420003197A2A013A0319C62C033A0319592D97
:102F52000E3A03190D2B013A0319332C033A0319C4
:102F6200EC2D063A0319A02B122F20005808031942
:102F7200CC2F5B08023ED40000305C3DD5005408E3
:102F82008600550887000B3081005B0886005C08CC
:102F92008700413181015B0886005C08870042316D
:102FA2000B300106031D08005B0886005C088700E1
:102FB200433116000104031DF42F5B0886005C08F0
:102FC20087005D31403FB000413FB100AA31742219
:102FD20020005B0886005C08870043311430C03F44
:102FE2000030C13F08005B0886005C08870043315F
:102FF2000130810241310030813B7F3108000034D1
:10300200003400340034003400340034003400341E
:10301200003400340034003400340034003400340E
:1030220000340034003400340034003400340034FE
:1030320000340034003400340034013400340134EC
:1030420000340134003401340034013400340134DA
:1030520000340234003402340034023400340334C5
:1030620000340334003403340034043400340434B0
:10307200003404340034053400340534003406349A
:103082000034063400340734003407340034083482
:1030920000340834003409340034093400340A346A
:1030A20000340B3400340B3400340C3400340D344F
:1030B20000340E3400340E3400340F340034103433
:1030C2000034113400341234003413340034133415
:1030D20000341434003415340034163400341734F8
:1030E2000034193400341A3400341B3400341C34D4
:1030F20000341D3400341E340034203400342134B2
:10310200003422340034233400342534003426348D
:10311200003428340034293400342A3400342C3466
:1031220000342E3400342F3400343134003432343D
:103132000034343400343634003437340034393413
:1031420000343B3400343D3400343F3400344134E5
:1031520000344234003444340034463400344834B9
:1031620000344B3400344D3400344F340034513485
:1031720000345334003455340034583400345A3453
:1031820000345C3400345F3400346134003464341D
:10319200003466340034693400346B3400346E34E5
:1031A20000347034003473340034763400347934AB
:1031B20000347B3400347E3400348134003484346F
:1031C2000034873400348A3400348D34003490342F
:1031D200003493340034963400349A3400349D34ED
:1031E2000034A0340034A3340034A7340034AA34A9
:1031F2000034AE340034B1340034B5340034B83461
:103202000034BC340034BF340034C3340034C73417
:103212000034CA340034CE340034D2340034D634CC
:103222000034DA340034DE340034E2340034E6347C
:103232000034EA340034EE340034F3340034F7342A
:103242000034FB340034FF340034043401340834D5
:1032520001340D34013411340134163401341A347A
:1032620001341F34013424340134283401342D3420
:10327200013432340134373401343C3401344134C2
:103282000134463401344B34013450340134553462
:1032920001345A3401345F340134653401346A3400
:1032A20001346F340134753401347A34013480349A
:1032B2000134863401348B3401349134013497342F
:1032C20001349C340134A2340134A8340134AE34C4
:1032D2000134B4340134BA340134C0340134C63454
:1032E2000134CC340134D2340134D9340134DF34E2
:1032F2000134E5340134EC340134F2340134F9346C
:103302000134FF340134063402340D3402341334F0
:1033120002341A34023421340234283402342F3471
:103322000234363402343D340234443402344B34F1
:103332000234523402345A3402346134023468346E
:10334200023470340234773402347F3402348634E7
:1033520002348E340234953402349D340234A5345E
:103362000234AD340234B5340234BD340234C534CF
:103372000234CD340234D5340234DD340234E5343F
:103382000234ED340234F6340234FE3402340634AC
:1033920003340F340334183403342034033429340F
:1033A2000334313403343A340334433403344C3475
:1033B2000334553403345E340334673403347034D5
:1033C200033479340334823403348C340334953433
:1033D20003349E340334A8340334B1340334BB348D
:1033E2000334C5340334CE340334D8340334E234E2
:1033F2000334EC340334F6340334FF340334210051
:1034020028082904031D202A2835203E860005307D
:103412008700403F2000B700413FB8004C088600BB
:103422004D0887000108B4310D249A3120004C0860
:1034320086004D0887000108B331CB230800200025
:103442004C0886004D08870046310108031D482AB2
:1034520021002835203E860005308700403F2000AD
:10346200BA00413FBB004C0886004D0887005C3122
:10347200403FBC00413FBD0021002D082000BF009D
:1034820021002C082000BE00A1315F21080021008C
:103492002835203E860005308700403F2000BA00D4
:1034A200413FBB004C0886004D0887005C31403F1D
:1034B200BC00413FBD00A131D221080033302000C1
:1034C200BB003B08C3003208BC003108BB00B10A94
:1034D2000319B20A3B0884003C0885000008BD00BD
:1034E2003D08CA004A080319252C25304A0603194B
:1034F200852A2F088600300887004A08810001309B
:10350200AF070030B03D642AC801C901C0013108CB
:103512008400320885000008B4318B249A31031CE0
:103522003E2B2000C801C9010A30F1000030F20030
:1035320020004908F4004808F300B531F3259A3118
:1035420072082000C9007108C800310884003208DE
:1035520085000008D03EBB00FF3003180030BC00DD
:103562003B08C8073C08C93D0130B1070030B23DF5
:1035720031088400320885000008B4318B249A3166
:10358200031C3E2B952A2000430886008701403FFA
:10359200C100413FC2000230BB003B08C3074108E3
:1035A2004204031DD82A6E30C100BB30C200C601DE
:1035B200C7014108460784004208473D85001200C2
:1035C2000319E82A0130C6070030C73DDA2A490844
:1035D2004702031DEE2A480846020318F52A460848
:1035E200C8024708C93BF72AC801C901FF30C8070A
:1035F200FF30C93D480A0319490A03191F2B2F0836
:10360200860030088700203081000130AF0700308B
:10361200B03DF72A41088400420885000008BB003B
:103622002F088600300887003B0881000130C1075F
:103632000030C23D0130AF070030B03D0130C6025C
:103642000030C73B460A031D0B2B470A0319642AA5
:103652000B2B4308860087010108BB003B08CA0008
:103662000230BB003B08C3074A30C1000030C20031
:103672000130C6000030C700E82A20003208BC0032
:103682003108BB00B10A0319B20A3B0884003C08A6
:1036920085000008CA00003A0319252C633A031971
:1036A2002A2B073A03195C2B0D3A03195C2B1A3AA1
:1036B2000319C42A352B2000430886008701403FA6
:1036C200C400413FC5000230BB003B08C307C51F11
:1036D200732B0330BB003B08C004C409C509C40AEC
:1036E2000319C50ACA01CA0A05304A060319982BEA
:1036F2004A08BB00BC01BB35BC0D00303B0784004F
:10370200A8303C3D8500003FBD00013FBE003E08A1
:103712004502031D8E2B3D084402031C982B0130E9
:10372200BB003B08CA0705304A06031D792B48082F
:1037320049040319A42B400803390319A42BFF30B1
:10374200C807FF30C93D4A08BB00BC01BB1BBC0314
:103752003C08803ABD004908803A3D02031DB32B64
:1037620048083B020318C02B20004A08BB00BC01DA
:10377200BB1BBC033B08C8023C08C93BC32B20004F
:10378200C801C901480849040319D92B2F0886002A
:1037920030088700203081000130AF070030B03D93
:1037A200FF30C807FF30C93D48084904031DC72B35
:1037B200400803390319E72B2F08860030088700D9
:1037C2002D3081000130AF070030B03D4A08BB0008
:1037D2003B08BF00FF30BB003B08BF073F0A03198D
:1037E200642A0A30AB000030AC003F08BB00BC01C9
:1037F200BB35BC0D00303B078400A8303C3D850042
:10380200003FF100013FF2004508F4004408F300D4
:10381200A831E5209A3172082000AE007108AD008F
:10382200B73172279A3120002B08303EBD003D0887
:10383200CA002F088600300887004A08810001303C
:10384200AF070030B03DEB2B20002F088600300878
:1038520087008101080020005308D8005208D700D1
:10386200033021003A063B040319442D2000570877
:1038720086005808870043310130C03F0030C13F05
:10388200570886005808870045310130C03F003094
:10389200C13F570886005808870047310130C03FB2
:1038A2000030C13F5708860058088700493101306F
:1038B200C03F0030C13F08002100C4013D08200084
:1038C200B00021003C082000AF00AD3180259C31C2
:1038D200A5302000BA00BA30BB005708860058084D
:1038E20087004131403FBC00413FBD00A131D221A0
:1038F2009C314B302000AB000030AC0057088600F2
:10390200580887004131403FAD00413FAE00B7311A
:1039120072279C3120002B082C04031D9A2C88311D
:1039220001209C31210059087104A2005A08720436
:10393200A30020005708860058088700413116006E
:10394200773AD4001600013AD404031D0A2D570811
:103952000D3ED4000030583DD5005408860055086D
:1039620087000230810057088600580887004131DD
:103972000030C03FC13F582DA730BA00BA30BB005B
:1039820057088600580887004131403FBC00413F3C
:10399200BD00A131D2219C314B302000AB00003060
:1039A200AC0057088600580887004131403FAD00FF
:1039B200413FAE00B73172279C3120002B082C0406
:1039C200031DED2CB631FE269C31210059087104ED
:1039D200A2005A087204A300200057088600580863
:1039E200870041311600773AD4001600013AD40418
:1039F200031D0A2D57088600580887004D318101A2
:103A0200570886005808870041310030C03FC13F47
:103A1200582D570886005808870041310130810728
:103A220041310318810A582D2100C401E0302000E1
:103A3200BA00BB30BB0057088600580887004131E6
:103A4200403FBC00413FBD00A131D2219C31B53184
:103A52001A259C31582D2100C401C40ADB302000F4
:103A6200BA00BB30BB0057088600580887004131B6
:103A7200403FBC00413FBD00A131D2219C31B53154
:103A8200D9259C31582D20005708860058088700F8
:103A92004D310108003A03192C2D013A0319BD2CAE
:103AA200033A0319152D013A03195D2C582D2100F3
:103AB20023082000AE00210022082000AD00570894
:103AC2008600580887000108B431E6249C31A831E9
:103AD20082209C312000D4005408D600002E5808C1
:103AE200BA005708B900AA31F6222100BA01BB0177
:103AF2000800200057088600580887004931160040
:103B02000104031DAA2D5708860058088700413179
:103B12000030C03FC13F2100440803199D2D200001
:103B220057080D3ED4000030583DD5005408860099
:103B3200550887000330A92D200057080D3ED400F8
:103B42000030583DD50054088600550887000130E2
:103B52008100570886005808870043310030C03F73
:103B6200C13F570886005808870045310030C03FE2
:103B7200C13F570886005808870047310030C03FD0
:103B8200C13F570886005808870049310130810734
:103B920041310318810A57088600580887004B31C3
:103BA2000030C03FC13F0800570886005808870010
:103BB20043310030C03FC13F570886005808870094
:103BC20045310030C03FC13F570886005808870082
:103BD20047310030C03FC13F570886005808870070
:103BE20049310030C03FC13F57088600580887005E
:103BF2004B310130810741310318810A0800560810
:103C0200043A0319702D0C3A03197A2DD52D0800A8
:103C120020005308D8005208D70021003A083B047C
:103C220003198D2EA83182209E312000D400540821
:103C3200D600872E2100BA01BB0120005808BA0025
:103C42005708B900AC3107249E3121003D082000FD
:103C5200B00021003C082000AF00AD3180259E312C
:103C62002000570886005808870044310130C03FC1
:103C72000030C13F5708860058088700463101309E
:103C8200C03F0030C13F57088600580887004831BE
:103C92000130C03F0030C13F5708860058088700F6
:103CA2004A310130C03F0030C13F2100B601B701A7
:103CB20020005808CD005708CC00AE31D9260800A4
:103CC2002000570886005808870044310130C03F61
:103CD2000030C13F5708860058088700463101303E
:103CE200C03F0030C13F570886005808870048315E
:103CF2000130C03F0030C13F570886005808870096
:103D02004A310130C03F0030C13F080056080B3A2B
:103D120003191B2E612E0800A83182209E3120003B
:103D2200D4005408D600EE2F5708860058088700A2
:103D3200443116000104031DAE2E2100360837045B
:103D4200031DAA2E3408FF3EB600FF30353DB700F2
:103D5200AE2E0130B6020030B73B20005808CD002D
:103D62005708CC00AE31D9269E3120005708860074
:103D72005808870044310130810741310318810A14
:103D8200570886005808870046310030C03FC13FBF
:103D9200570886005808870048310030C03FC13FAD
:103DA20057088600580887004A310030C03FC13F9B
:103DB20057088600580887004C310030C03FC13F89
:103DC200080057088600580887004631160001048B
:103DD200031D0A2F21003408FF3E2000D400FF30CB
:103DE2002100353D2000D50021003708200055066E
:103DF200031DFF2E2100360820005406031D052F47
:103E02002100B601B7010A2F01302100B6070030A8
:103E1200B73D20005808CD005708CC00AE31D92656
:103E22009E31200057088600580887004431003030
:103E3200C03FC13F5708860058088700463101300D
:103E4200810741310318810A570886005808870004
:103E520048310030C03FC13F5708860058088700EC
:103E62004A310030C03FC13F5708860058088700DA
:103E72004C310030C03FC13F080057088600580847
:103E82008700483116000104031D532F5808BA0059
:103E92005708B900AC3107249E3102302100BA0024
:103EA2000030BB00200057088600580887004431C4
:103EB2000030C03FC13F570886005808870046318E
:103EC2000030C03FC13F570886005808870048317C
:103ED2000130810741310318810A570886005808CA
:103EE20087004A310030C03FC13F5708860058085A
:103EF20087004C310030C03FC13F080057088600A0
:103F0200580887004A3116000104031D8F2F5808F4
:103F1200BC005708BB00AC3196249E3120005708E4
:103F220086005808870044310030C03FC13F57081F
:103F320086005808870046310030C03FC13F57080D
:103F420086005808870048310030C03FC13F5708FB
:103F52008600580887004A31013081074131031831
:103F6200810A57088600580887004C310030C03F4C
:103F7200C13F08005808CD005708CC00AE31D92601
:103F82009E312000570886005808870044310030CF
:103F9200C03FC13F570886005808870046310030AD
:103FA200C03FC13F5708860058088700483100309B
:103FB200C03FC13F57088600580887004A31003089
:103FC200C03FC13F57088600580887004C31013076
:103FD200810741310318810A08005608013A031982
:103FE200952E033A0319E22E063A03193E2F0C3A94
:0E3FF20003197F2F033A0319BB2FBB2F0800C2
:104004008A34BB347534BB340134BB347C34BB34A4
:10401400A934BB34ED34BA349134BB342E34BB34BC
:104024008334BB343634BB344E34BB344634BB34B3
:104034000A34BB34E234BA34D734BA343E34BB34F1
:10404400BF34BA349834BA341334BB3420003A0839
:10405400BC003908BB003B0886003C088700010807
:10406400B431B624A03120003B0886003C08870008
:1040740001088731FA27A03120003B0886003C085C
:1040840087000108B331DF23A03120003B088600FC
:104094003C0887000108B331D123A03120003B083C
:1040A40086003C08870043310030C03FC13F3B08D5
:1040B40086003C0887005F310030C03FC13F3B08A9
:1040C400213E860000303C3D87000030C03FC13FA8
:1040D4003B08233E860000303C3D87000030C03F53
:1040E400C13F3B08253E860000303C3D8700003040
:1040F400C03FC13F3B08273E860000303C3D87005F
:104104000030C03FC13F3C08B0003B08AF00AD31B8
:10411400802508001E302000AB000030AC003108C0
:10412400AE003008AD00B7317227A03120002B0853
:104134002C04031DA22801302100B8060030B90662
:10414400013020003005B20000303105B3002100F9
:10415400390820003306031DB32821003808200045
:104164003206031DCF280E30B6000030B7003708E2
:10417400AC003608AB003108AE003008AD00B731F2
:104184007227A03120002B080907BC3E86000330AB
:104194008700403FB400413FE8280E30B6000030AD
:1041A400B7003708AC003608AB003108AE00300861
:1041B400AD00B7317227A03120002B080907A03EBB
:1041C400860003308700403FB400413FB500350806
:1041D400AE003408AD00B230B431E6240800FB016F
:1041E4002000B21F0229AF09B009B109B209AF0A10
:1041F4000319B00A0319B10A0319B20AFB01FB0A35
:10420400AE1F0F29AB09AC09AD09AE09AB0A0319FE
:10421400AC0A0319AD0A0319AE0A2E082D042C04A6
:104224002B0403194829FA01FA0AAE1B2529013087
:10423400AB35AC0DAD0DAE0D890B1A290130F9006B
:104244007908FA0717292E083202031D33292D088D
:104254003102031D33292C083002031D33292B0896
:104264002F02031C3D292B08AF022C08B03B2D085C
:10427400B13B2E08B23B0130AE36AD0CAC0CAB0CEE
:10428400890B3E290130FA02031D25297B080319F5
:104294005629AF09B009B109B209AF0A0319B00A26
:1042A4000319B10A0319B20A3208AE003108AD008D
:1042B4003008AC002F08AB00080020003B08F200D7
:1042C4003A08F100B6318026A13172082000C900F5
:1042D4007108C800E830860001308700413084004E
:1042E400003085000530C00016001A00C00B762986
:1042F4004908AC004808AB003F08F2003E08F10052
:104304003D08F4003C08F300A831E520A13172080F
:104314002000AE007108AD00B7317227A131200032
:104324002C08C7002B08C600CA01CB0100304B0281
:10433400043003194A020318C6294908AC00480886
:10434400AB004A084607AD004B08473DAE00B73105
:104354007227A13120003A082B0784003B082C3D2A
:1043640085000008C0004A08413E860087014008D5
:1043740081000130CA070030CB3D00304B020430CD
:1043840003194A02031C9F294130B7000030B800CA
:10439400B230B4310D24A131B230B331CB23080093
:1043A40032302000C4000030C5003B08F2003A0857
:1043B400F100B6318026A13172082000C9007108CD
:1043C400C800E3308600013087003F3084000030AD
:1043D40085000530BE0016001A00BE0BED29490801
:1043E400AC004808AB004508F2004408F1003D0861
:1043F400F4003C08F300A831E520A1317208200044
:10440400AE007108AD00B7317227A13120002C082D
:10441400C7002B08C600CA01CB0100304B02043090
:1044240003194A0203183D2A4908AC004808AB00A6
:104434004A084607AD004B08473DAE00B731722726
:10444400A13120003A082B0784003B082C3D85004D
:104454000008BE004A083F3E860087013E088100EE
:104464000130CA070030CB3D00304B020430031941
:104474004A02031C162A3F30B7000030B800B2309D
:10448400B4310D24A131B230B331CB230800200064
:10449400C600C701103047020318BB2A4608103E65
:1044A400860001308700403FC000413FC100013019
:1044B400C2000030C300470A612AC235C30D890B0C
:1044C4005F2A40084205C40041084305C50044086A
:1044D4004504031DB32A3F08C00047084607C1002E
:1044E4004108860001308700400881000130C00087
:1044F4000030C100470A802AC035C10D890B7E2ACD
:104504004608103E8600013087004008810441318E
:10451400410881043F08043E8600013087001600EC
:1045240001040319A82A3F08023E860001308700CF
:10453400403FB900413FBA003F08043E86000130C5
:104544008700413F8A00403F0A00A231200047080B
:10455400C0003F080C3E86000130870040088100FF
:1045640008000130C0004008C70710304702031C90
:10457400502A3F080C3E86000130870081018103E8
:1045840008002100E300E40110306402031808006D
:104594006308103E860001308700403F2000E80099
:1045A400413FE9000130EA000030EB002100640AD9
:1045B4002000DE2AEA35EB0D890BDC2A68086A053F
:1045C400EC0069086B05ED006C086D040319402BC1
:1045D400B6314526A23172082100DE007108DD00E3
:1045E400640863072000E80068088600013087003B
:1045F4000108860001308700403F2100DF00413F71
:10460400E0005F092000E800210060092000E900C3
:10461400E80A0319E90A21005D082000680721005F
:10462400E1005E082000693D2100E20064086307A0
:104634002000E800680886000130870001080A3E6F
:10464400860001308700403FE900413FEA006A08E4
:1046540021006202031D322B20006908210061023F
:10466400031C402B640863072000E80068088600E8
:10467400013087000108B631DD26A2310130200067
:10468400E80068082100E407C62A20003A08BE00B2
:104694003908BD003D0886003E0887000108B43192
:1046A400B624A33120003D0886003E088700010897
:1046B4008731FA27A33120003D0886003E08870091
:1046C4000108B331DF23A33120003D0886003E08F2
:1046D40087000108B331D123A33120003D08023EF5
:1046E400BB0000303E3DBC003B0886003C08870010
:1046F4000A3081003D08013EBB0000303E3DBC0055
:104704003B0886003C088700013081002100A0019D
:10471400A10120003D0886003E0887004931003091
:10472400C03FC13F3D0886003E0887004B31003042
:10473400C03FC13F3D0886003E0887004D31003030
:10474400C03FC13F3D0886003E0887004F3100301E
:10475400C03FC13F3D0886003E088700513100300C
:10476400C03FC13F3D0886003E08870053310030FA
:10477400C03FC13F3D0886003E08870055310030E8
:10478400C03FC13F3D0886003E08870057310030D6
:10479400C03FC13F3D0886003E08870059310030C4
:1047A400C03FC13F3D0886003E0887005B310030B2
:1047B400C03FC13F3D0886003E0887005D310030A0
:1047C400C03FC13F080021004403031D172C2F30B4
:1047D4002000BA00B830BB004C0886004D088700A2
:1047E4005D31403FBC00413FBD002830BE00003079
:1047F400BF00A1315F2120004C08023ECE000030F2
:104804004D3DCF004E0886004F0887000A308100D6
:104814004C08013ECE0000304D3DCF004E088600CE
:104824004F08870001308100080020004C088600F2
:104834004D08870042310B300106031D302C8D30AA
:10484400BA00B930BB004C0886004D0887005D31C2
:10485400403FBC00413FBD000F30622C20004C089B
:1048640086004D08870042310A3001060319532C93
:104874004C0886004D08870042310135CA3E860047
:1048840002308700403FBA00413FBB004C0886001D
:104894004D0887005D31403FBC00413FBD001430EE
:1048A400622CDD302000BA00B930BB004C08860011
:1048B4004D0887005D31403FBC00413FBD001E30C4
:1048C400BE000030BF00A1315F21A33120004C089D
:1048D40086004D088700473116000104031D0800B7
:1048E4004C0886004D08870042310B30010603193D
:1048F40008004C08023ECE0000304D3DCF004E086B
:1049040086004F0887000A3081000800013020002B
:10491400A3000030A400A801A90124082902031D52
:10492400952C230828020318412D1930A0002008D3
:10493400F1002808B431F724A431343E2000A1004A
:104944002108A7001930A0002008F1002808B4317C
:10495400F724A431143E343E860002308700010857
:1049640020002707A10021088600023087000108E3
:104974007906031D2A2D2708F1000230F200B63112
:104984008026A43172082000A6007108A500193001
:10499400A0002008F1002808B431F724A431143E03
:1049A400343E86000230870001308107413103180C
:1049B400810A19302000A0002008F1002808B43131
:1049C400F724A431143E343E860002308700403F71
:1049D4002000A100413FA20026082206031DF42C5A
:1049E40025082106031D3B2D1930A0002008F100E5
:1049F4002808B431F724A431143E343E8600023032
:104A040087000030C03FC13F19302000A0002008BB
:104A1400F1002808B431F724A431173E343E86004F
:104A24000230870019302000A1002108F100280875
:104A3400B431F724163E343E840002308500000869
:104A440084008501403F803F413F813F01300800A1
:104A540019302000A0002008F1002808B431F72400
:104A6400A431143E343E8600023087000030C03F3B
:104A7400C13F01302000A8070030A93D8F2C003031
:104A8400080000340034003420341034103420344E
:104A9400003410341034A5342134A5346034103477
:104AA4003034003412341034083420342034853443
:104AB4004534B134303410341034103410341034DC
:104AC40010341034103410341034103410341034C2
:104AD40010341034103410341034103410341034B2
:104AE40010341034103410341034103410341034A2
:104AF4001034103410341034103410341034103492
:104B0400103400340034C03440340034443410349D
:104B14001034B434353410341034103410340034B8
:104B2400043408340834023402341E341E34143479
:104B3400143440340034103410344034003402341B
:104B44000834A93463348034403431347034B0349C
:104B5400603490345134B0343134B134313480342D
:104B64006034B134713490347134103410341034EE
:104B74001034083408343034103402340234143419
:104B8400E134A534703491347134B13411342134A6
:104B94002134B13450342134313401343134B1341A
:104BA40021349134513424342434A134403409342C
:104BB40019342134013481344B3489344334A134DD
:104BC400613411347134A934613419347134B0341A
:104BD400313404342434A1344134033409348B345F
:104BE40041340A340A3404340A3422342834213453
:104BF4002134083402340A340034203400341034AC
:104C0400103491347134B134113431341034B1343A
:104C140050342134313401343134B13421349134B9
:104C2400513424342434A134403409341934213423
:104C3400013481344B3489344334A1346134113424
:104C44007134A934613419347134B03431340434D6
:104C54002434A1344134033409348B3441340A34C8
:104C64000A3404340A34223428340834083404342A
:104C740004340234023410341034FF34FF3400346A
:104C8400003420005308D9005208D800D601A831B6
:104C94008220A6312000D4005408D700E32F5808FE
:104CA400860059088700423116000104031D6B2E4B
:104CB400580886005908870042312C30C03F013023
:104CC400C13F5908F8005808F700F901903128202D
:104CD400A631200058088600590887004431003066
:104CE400C03FC13F5808860059088700463100304C
:104CF400C03FC13F5808860059088700483100303A
:104D0400C03FC13F58088600590887004A31003027
:104D1400C03FC13F58088600590887004C31013014
:104D2400810741310318810A580886005908870011
:104D340042310130810241310030813B7F31F52F16
:104D44005808860059088700443116000104031DE1
:104D5400BA2E5908F8005808F7005708D400540828
:104D6400F90090312820A6312000D5005508D6003E
:104D740058088600590887004431013081074131C1
:104D84000318810A58088600590887004631003004
:104D9400C03FC13F58088600590887004831003099
:104DA400C03FC13F58088600590887004A31003087
:104DB400C03FC13F58088600590887004C31003075
:104DC400C03FC13F580886005908870042312C3043
:104DD400C03F0130C13FF52F5808860059088700AD
:104DE400463116000104031D062F5908F80058081F
:104DF400F7005708D4005408F90090312820A63150
:104E04002000D5005508D6005808860059088700A8
:104E140044310030C03FC13F58088600590887001C
:104E240046310130810741310318810A5808860050
:104E34005908870048310030C03FC13F58088600F8
:104E4400590887004A310030C03FC13F58088600E6
:104E5400590887004C310030C03FC13F58088600D4
:104E64005908870042312C30C03F0130C13FF52F33
:104E74005808860059088700483116000104031DAC
:104E8400522F5908F8005808F7005708D40054085E
:104E9400F90090312820A6312000D5005508D6000D
:104EA400580886005908870044310030C03FC13F8C
:104EB400580886005908870046310030C03FC13F7A
:104EC400580886005908870048310130810741316C
:104ED4000318810A58088600590887004A310030AF
:104EE400C03FC13F58088600590887004C31003044
:104EF400C03FC13F580886005908870042312C3012
:104F0400C03F0130C13FF52F58088600590887007B
:104F14004A3116000104031D9E2F5908F800580851
:104F2400F7005708D4005408F90090312820A6311E
:104F34002000D5005508D600580886005908870077
:104F440044310030C03FC13F5808860059088700EB
:104F540046310030C03FC13F5808860059088700D9
:104F640048310030C03FC13F5808860059088700C7
:104F74004A310130810741310318810A58088600FB
:104F8400590887004C310030C03FC13F58088600A3
:104F94005908870042312C30C03F0130C13FF52F02
:104FA4005908F8005808F700F90190312820A63173
:104FB40020005908F2005808F100A831B320A631A6
:104FC400F52F20005708003A0319512E013A03190E
:104FD400A22E033A0319EE2E063A03193A2F0C3A7D
:104FE4000319862FD22F20005608031908005908E8
:104FF400F2005808F100A831B3200800013400344D
:105004000A34003464340034E8340334103427346C
:1050140049344D34203441344634523441344934D3
:105024004434203449342034433441344E345434E9
:1050340020344C3445345434203459344F345534AA
:10504400203444344F3420345434483441345434B8
:10505400203444344134563445342E342E342E34E2
:105064002034203449344D342034483445345234C7
:105074004534203454344F34203443344834453494
:105084005734203442345534423442344C34453459
:10509400473455344D34203441344E344434203470
:1050A4004B34493443344B34203441345334533433
:1050B4002E342E342E34203441344E3444342034AF
:1050C40049344D34203441344C344C3420344F343E
:1050D4005534543420344F34463420344234553417
:1050E400423442344C344534473455344D342034FE
:1050F400203420342034203420342034203400342C
:105104000F30F1007108F30020000E0E890C0139F4
:10511400FF3AF1007108F3050C0C890C01390907F9
:10512400FF3AF1007108F3050C0E0139F10001306A
:10513400F135FF3E031D9A287135FF3AF2007208DB
:10514400F3050C0E890C0139F1000230F135FF3EF4
:10515400031DA8287135FF3AF2007208F30573089D
:105164000800710886007208870042312C30C03F65
:105174000130C13F71088600720887004431003055
:10518400C03FC13F71088600720887004631003075
:10519400C03FC13F71088600720887004831003063
:1051A400C03FC13F71088600720887004A31003051
:1051B400C03FC13F71088600720887004C3100303F
:1051C400C03FC13F0800F701F801710872040319D8
:1051D4001429F601F60AF21BF9280130F135F20D13
:1051E400890BF0280130F5007508F607ED28013029
:1051F400F735F80D890BFA2872087402031D042987
:1052040071087302031C0B297108F3027208F43B42
:1052140077140130F236F10C890B0C290130F602B7
:10522400031DF9287808F2007708F10008004134DA
:10523400423443344434453446344734483449349E
:105244004A344B344C344D344E344F34503451344E
:1052540052345334543455345634573458345934FE
:105264005A343034313432343334343435343634DB
:105274003734383439343C343E34213424342534FE
:1052840026342D3423342A342B342D342E34403414
:105294003B343A34273422342F345C3480340034A1
:1052A400C0340034E0340034F0340034F8340034D2
:1052B400FC340034FE340034FF340034FE34003453
:1052C400FC340034F8340034F0340034E034003476
:1052D400C0340034803400348034013480340334E6
:1052E40080340B3480341B3480343B3480347B343E
:1052F4008034FB3480347B3480343B3480341B343E
:1053040080340B34803403348034013480340034EA
:105314004034003420340034103400340834003471
:1053240004340034023400340134003402340034D0
:10533400043400340834003410340034203400348D
:1053440040340034803400340034013400340234F6
:105354000034083400341034003420340034403431
:1053640000348034003440340034203400341034A9
:10537400003408340034023400340134F10071087C
:105384008600013087000030C03FC13F7108023EF3
:105394008600013087000030C03FC13F7108043EE1
:1053A4008600013087000030C03FC13F7108063ECF
:1053B4008600013087000030C03FC13F7108083EBD
:1053C4008600013087000030C03FC13F71080A3EAB
:1053D400860001308700FF30C03FFF30C13F7108B5
:1053E4000C3E860001308700810181030800EA3405
:1053F400BB342534BB345E34BB349734BB343234D1
:10540400BA340A34BA34C334B9345634BB34F434F9
:10541400B9347134B934B034B8341934B934543477
:10542400B934A834B9348834B8345734BA341F344E
:10543400BA343734B934CB34BA348934BA34D43482
:10544400B8347934BA34F734B8340A34A834683404
:10545400BA340034B834B234BA345D34B8347D3438
:10546400A8342000A7002008A200A301A235A30DA0
:10547400F030A4002630A500220824078600230863
:10548400253D8700403FA800413FA900211C552A23
:105494002908F2002808F100B7319F27720820007C
:1054A400A9007108A8002135FF3A013E083EA20078
:1054B4002208A6002908A20026082707A30023081B
:1054C400860001308700220881002808A2002608EF
:1054D400013E2707A3002308860001308700220825
:1054E400810008000E302000B6000030B7003708F5
:1054F400AC003608AB003108AE003008AD00B7315F
:105504007227AA3120002B0809073C3E860004308C
:105514008700403FB400413FB5000E30B600003074
:10552400B7003708AC003608AB003108AE003008CD
:10553400AD00B7317227AA3120002B080907203E9D
:10554400860004308700403FB200413FB300320878
:10555400B4043308B5043508AE003408AD00B230E5
:10556400B431E62408000E302000B6000030B70045
:105574003708AC003608AB003108AE003008AD0087
:10558400B7317227AA3120002B080907BC3E8600D8
:1055940003308700403FB400413FB5000E30B600F1
:1055A4000030B7003708AC003608AB003108AE0055
:1055B4003008AD00B7317227AA3120002B08090743
:1055C400A03E860003308700403FB200413FB30055
:1055D4003208B4043308B5043508AE003408AD000D
:1055E400B230B431E62408002000390886003A08B5
:1055F400870041310030C03FC13F390886003A0876
:10560400870043310030C03FC13F390886003A0863
:10561400870045310030C03FC13F390886003A0851
:10562400870047310030C03FC13F390886003A083F
:10563400870049310030C03FC13F390886003A082D
:1056440087004B310030C03FC13F390886003A081B
:10565400870001088731FA27AA312000390886001B
:105664003A0887000108B331D12308002100560805
:10567400F4005508F3005408F2005308F1004130D7
:10568400F800C630F7004E30F6006D30F500B73143
:10569400CE27AB3174082100D6007308D5007208F8
:1056A400D4007108D3003930D3073030D43D0030F2
:1056B400D53D0030D63D53082000A60021005408F3
:1056C4002000A700210055082000A800210056084A
:1056D4002000A9001030AA00A937A80CA70CA60C1A
:1056E400AA0B6E2BFF302605A4007F302705A500EA
:1056F400080020003308B7003208B60036088600D8
:1057040037088700453116000104031DB52B04300A
:10571400210058065704031D932B5735D700580D05
:10572400D80058082000B100210057082000B0001C
:10573400B331F023AB31210057085804031DA62BC5
:105744000130D7000030D8005735D700580DD800A5
:105754002000360886003708870045310A30C03FEC
:105764000030C13F080036088600370887004531FD
:105774000130810241310030813B7F310800003427
:105784000234003401348034003440340034203492
:105794000034EF34BB34A334BB34F734BA34663446
:1057A400BB349D34BB34013408340234043405342E
:1057B4000934033400340034003400340034003439
:1057C4000034003400340034003400340034003435
:1057D4000034C53401340034013401340234023459
:1057E4000134023401340234043408340034003403
:1057F4000034003400340034003400340034003405
:1058040000340034C53401340034200039088600E3
:105814003A08870042313230C03F0030C13F390876
:1058240086003A08870044310030C03FC13F390840
:1058340086003A08870046310030C03FC13F39082E
:1058440086003A08870048310030C03FC13F39081C
:1058540086003A0887004A310030C03FC13F39080A
:1058640086003A0887004C310030C03FC13F210018
:10587400B601B7012000390886003A0887000108FC
:105884008731FA27AC312000390886003A088700AE
:105894000108B331D123080000302000AE000030ED
:1058A400AD00FF30AC00FF30AB00AB313823AC317E
:1058B40020002408AF002508B000890D893B890920
:1058C400B100B200A031F120AC3120002C08BC00A2
:1058D4002B08BB00FF30B300FB30B4000030B50030
:1058E4000030B6003B08B7003C08B800B901BA0163
:1058F4003708B3043808B4043908B5043A08B604C0
:10590400330A031D8E2C340A35043604031D8E2CF1
:105914000030BB060430BC063C08AE003B08AD00BA
:10592400B230B431E6240800CB2C20003C08BA0085
:105934003B08B900AC31072401302100BA00003023
:10594400BB00080020003C08BA003B08B900AC3199
:10595400072403302100BA000030BB0008002000F7
:105964003C08BA003B08B900AC31072402302100DE
:10597400BA000030BB00080020003C08BA003B0815
:10598400B900AC31072404302100BA000030BB0058
:10599400080021003708003A0319D12CDF2C3608FF
:1059A400013A0319972C033A0319A42C013A031959
:1059B400BE2C073A0319B12CDF2C0800F700F801BC
:1059C4007208031908007708031D102D152D73089C
:1059D400031DF82C78087707F4007408860001305A
:1059E40087000108B331E723AC310C2D7808770721
:1059F400F40074088600013087000108B331E723FE
:105A0400AC31F50078087307F60076088600870144
:105A1400750881000130F4007408F80772087802F0
:105A240003180800E92C73080319080072087802A7
:105A3400031808000030B331E723AC31F4007808D0
:105A44007307F5007508860087017408810001302A
:105A5400F4007408F807182D2000AF002F0A860000
:105A6400013087000108AB002F0886000130870051
:105A74002B0881002F08023E8600013087000108B0
:105A8400AB002F0A8600013087002B0881002F0805
:105A9400033E8600013087000108AB002F08023E58
:105AA4008600013087002B0881002A08AB002F08EC
:105AB400033E8600013087002B088100AE01AE0151
:105AC40004302E02031808002E082F07AB002B0801
:105AD4008600013087000108AC002C08A0002E08C5
