:04000000803116280D
:1000060008007E14803120007F08F0002100901E39
:1000160011282000901E1128A53174257008200093
:10002600FF007E10090080311828003084009730C8
:100036008500F0308600263087000130FF00003052
:10004600A53168258031D5308400A5308500DE30A5
:100056008600003087000030FF000F30A53168258C
:1000660080318E308400A5308500593086000130FD
:1000760087000030FF000D30A53168258031C5307E
:10008600840098308500A03086000130870000305B
:10009600FF002F30A53168258031F5308400993076
:1000A6008500A0308600023087000030FF0038301F
:1000B600A53168258031BD30840099308500203017
:1000C6008600033087000030FF003830A5316825F0
:1000D60080310030840088308500BE3086000330D1
:1000E60087000030FF001C30A53168258031FC01F7
:1000F600A0308400003085003E30FE000030FF0056
:10010600A5315C25803120308400013085003930EE
:10011600FE000030FF00A5315C258031CF30840021
:10012600013085000E30FE000030FF00A5315C2551
:10013600803120308400023085004C30FE000030D3
:10014600FF00A5315C258031A03084000330850096
:100156001E30FE000030FF00A5315C257E10200019
:100166009631162E20005308D8005208D7002100D9
:100176003808390403192E299831F42080312000DB
:10018600D4005408D60028292100B801B90120005E
:100196005808BA005708B9009B31EC23803120007B
:1001A600570886005808870044310130C03F0030A8
:1001B600C13F570886005808870046310130C03FC6
:1001C6000030C13F57088600580887004831013083
:1001D600C03F0030C13F57088600580887004A31A3
:1001E6000130C03F0030C13F2100B401B5012000FD
:1001F6005808CD005708CC009E31D92608002000AB
:10020600570886005808870044310130C03F003047
:10021600C13F570886005808870046310130C03F65
:100226000030C13F57088600580887004831013022
:10023600C03F0030C13F57088600580887004A3142
:100246000130C03F0030C13F080056080B3A031981
:10025600C728022908009831F42080312000D400F4
:100266005408D6008F2A570886005808870044315C
:1002760016000104031D4F29210034083504031D0F
:100286004B293208FF3EB400FF30333DB5004F29FD
:100296000130B4020030B53B20005808CD005708A5
:1002A600CC009E31D9268031200057088600580898
:1002B600870044310130810741310318810A57080C
:1002C60086005808870046310030C03FC13F5708B6
:1002D60086005808870048310030C03FC13F5708A4
:1002E6008600580887004A310030C03FC13F570892
:1002F6008600580887004C310030C03FC13F0800D7
:100306005708860058088700463116000104031D69
:10031600AB2921003208FF3E2000D400FF30210027
:10032600333D2000D5002100350820005506031D69
:10033600A0292100340820005406031DA629210007
:10034600B401B501AB2901302100B4070030B53D39
:1003560020005808CD005708CC009E31D9268031A0
:100366002000570886005808870044310030C03FF7
:10037600C13F57088600580887004631013081077B
:1003860041310318810A570886005808870048310A
:100396000030C03FC13F57088600580887004A31E1
:1003A6000030C03FC13F57088600580887004C31CF
:1003B6000030C03FC13F0800570886005808870034
:1003C600483116000104031DF4295808BA005708DD
:1003D600B9009B31EC23803102302100B800003097
:1003E600B9002000570886005808870044310030BD
:1003F600C03FC13F57088600580887004631003085
:10040600C03FC13F57088600580887004831013071
:10041600810741310318810A57088600580887006A
:100426004A310030C03FC13F570886005808870050
:100436004C310030C03FC13F0800570886005808BD
:1004460087004A3116000104031D302A5808BC00F3
:100456005708BB009A312D228031200057088600AC
:100466005808870044310030C03FC13F5708860016
:100476005808870046310030C03FC13F5708860004
:100486005808870048310030C03FC13F57088600F2
:10049600580887004A310130810741310318810A23
:1004A60057088600580887004C310030C03FC13FCE
:1004B60008005808CD005708CC009E31D926803157
:1004C6002000570886005808870044310030C03F96
:1004D600C13F570886005808870046310030C03FA4
:1004E600C13F570886005808870048310030C03F92
:1004F600C13F57088600580887004A310030C03F80
:10050600C13F57088600580887004C3101308107E3
:1005160041310318810A08005608013A03193629A1
:10052600033A03198329063A0319DF290C3A0319FA
:10053600202A033A03195C2A5C2A08002000530883
:10054600D8005208D70003302100380639040319B1
:10055600A92B200057088600580887004331013030
:10056600C03F0030C13F5708860058088700453114
:100576000130C03F0030C13F570886005808870049
:1005860047310130C03F0030C13F57088600580848
:10059600870049310130C03F0030C13F0800FC01EF
:1005A600BC30BA00A830BB00570886005808870040
:1005B6004131403FBC00413FBD0093315023823161
:1005C6004B302000A0000030A100570886005808D4
:1005D60087004131403FA200413FA3009831692086
:1005E6008231200020082104031D032B98310120AD
:1005F6008231210067087104A00068087204A10016
:100606002000570886005808870041311600773ABF
:10061600D4001600013AD404031D732B57080D3E6F
:10062600D4000030583DD500540886005508870090
:100636000230810057088600580887004131003093
:10064600C03FC13FBD2BBE30BA00A830BB00570823
:100656008600580887004131403FBC00413FBD003D
:100666009331502382314B302000A0000030A1008E
:1006760057088600580887004131403FA200413F95
:10068600A300983169208231200020082104031D2F
:10069600562B98311A208231210067087104A00078
:1006A60068087204A10020005708860058088700D1
:1006B60041311600773AD4001600013AD404031DDE
:1006C600732B57088600580887004D31810157085B
:1006D60086005808870041310030C03FC13FBD2B1E
:1006E600570886005808870041310130810741319B
:1006F6000318810ABD2BFC010030BA00A930BB00EB
:1007060057088600580887004131403FBC00413FEA
:10071600BD00933150238231A63138268231BD2B5C
:10072600FC01FC0AFB30BA00A830BB005708860063
:10073600580887004131403FBC00413FBD0093311E
:1007460050238231A631ED268231BD2B2000570879
:100756008600580887004D310108003A0319932B8B
:10076600013A0319262B033A03197E2B013A031982
:10077600D22ABD2B210021082000AE00210020082E
:100786002000AD0057088600580887000108A531EB
:10079600812582319831F42082312000D40054081A
:1007A600D600622C5808BA005708B9009B31672357
:1007B6002100B801B9010800200057088600580832
:1007C6008700493116000104031D0C2C57088600CA
:1007D6005808870041310030C03FC13F7C080319EB
:1007E600002C57080D3ED4000030583DD500540863
:1007F60086005508870003300B2C57080D3ED400A1
:100806000030583DD5005408860055088700013051
:100816008100570886005808870043310030C03FE2
:10082600C13F570886005808870045310030C03F51
:10083600C13F570886005808870047310030C03F3F
:10084600C13F5708860058088700493101308107A3
:1008560041310318810A57088600580887004B3132
:100866000030C03FC13F080057088600580887007F
:1008760043310030C03FC13F570886005808870003
:1008860045310030C03FC13F5708860058088700F1
:1008960047310030C03FC13F5708860058088700DF
:1008A60049310030C03FC13F5708860058088700CD
:1008B6004B310130810741310318810A080056087F
:1008C600043A0319D52B0C3A0319DF2B372C0800F1
:1008D60020005308D9005208D800D6019831F420D8
:1008E60084312000D4005408D7000B2E5808860007
:1008F60059088700423116000104031D932C58083D
:1009060086005908870042312C30C03F0130C13F74
:100916005908F8005808F700F90195315B2584312C
:100926002000580886005908870044310030C03F2F
:10093600C13F580886005908870046310030C03F3D
:10094600C13F580886005908870048310030C03F2B
:10095600C13F58088600590887004A310030C03F19
:10096600C13F58088600590887004C31013081077D
:1009760041310318810A5808860059088700423118
:100986000130810241310030813B7F311D2E5808F4
:10099600860059088700443116000104031DE22C25
:1009A6005908F8005808F7005708D4005408F90009
:1009B60095315B2584312000D5005508D6005808AE
:1009C60086005908870044310130810741310318F8
:1009D600810A580886005908870046310030C03F12
:1009E600C13F580886005908870048310030C03F8B
:1009F600C13F58088600590887004A310030C03F79
:100A0600C13F58088600590887004C310030C03F66
:100A1600C13F580886005908870042312C30C03F34
:100A26000130C13F1D2E58088600590887004631FF
:100A360016000104031D2E2D5908F8005808F7006A
:100A46005708D4005408F90095315B2584312000FD
:100A5600D5005508D6005808860059088700443145
:100A66000030C03FC13F580886005908870046310C
:100A76000130810741310318810A58088600590858
:100A8600870048310030C03FC13F580886005908EA
:100A960087004A310030C03FC13F580886005908D8
:100AA60087004C310030C03FC13F580886005908C6
:100AB600870042312C30C03F0130C13F1D2E5808FF
:100AC600860059088700483116000104031D7A2D57
:100AD6005908F8005808F7005708D4005408F900D8
:100AE60095315B2584312000D5005508D60058087D
:100AF60086005908870044310030C03FC13F58087E
:100B060086005908870046310030C03FC13F58086B
:100B160086005908870048310130810741310318A2
:100B2600810A58088600590887004A310030C03FBC
:100B3600C13F58088600590887004C310030C03F35
:100B4600C13F580886005908870042312C30C03F03
:100B56000130C13F1D2E58088600590887004A31CA
:100B660016000104031DC62D5908F8005808F700A1
:100B76005708D4005408F90095315B2584312000CC
:100B8600D5005508D6005808860059088700443114
:100B96000030C03FC13F58088600590887004631DB
:100BA6000030C03FC13F58088600590887004831C9
:100BB6000030C03FC13F58088600590887004A31B7
:100BC6000130810741310318810A58088600590807
:100BD60087004C310030C03FC13F58088600590895
:100BE600870042312C30C03F0130C13F1D2E5908CD
:100BF600F8005808F700F90195315B25843120008B
:100C06005908F2005808F1009931572184311D2EF8
:100C160020005708003A0319792C013A0319CA2C07
:100C2600033A0319162D063A0319622D0C3A0319D5
:100C3600AE2DFA2D20005608031908005908F200B7
:100C46005808F1009931572108002000B1002630DC
:100C5600A8002808AC0020002508A9002408A80040
:100C6600A40A0319A50A2808840029088500000893
:100C7600AA002A08B40034080319732F2530340655
:100C86000319512E3408A800310886008701280868
:100C960081000130A8002808B1072E2EB201B30149
:100CA600AE0124088400250885000008A5319B258F
:100CB6008631031C8F2E2000B201B3010A30F100E9
:100CC6000030F20020003308F4003208F300A631A9
:100CD600D226863172082000B3007108B2002408BB
:100CE6008400250885000008D03EA800FF300318C0
:100CF6000030A9002808B2072908B33D0130A4072F
:100D06000030A53D24088400250885000008A5318B
:100D16009B2586310318612E20002508A90024088A
:100D2600A800A40A0319A50A280884002908850032
:100D36000008B400003A0319732F643A0319A72E6A
:100D46000D3A0319A72E2E2E20002C0886008701A7
:100D5600403FAF00413FB0000230A8002808AC0772
:100D6600B01FBE2E0330A8002808AE04AF09B00994
:100D7600AF0A0319B00AB401B40A053034060319E0
:100D8600E32E3408A800A901A835A90D00302807CC
:100D96008400A030293D8500003FAA00013FAB003A
:100DA6002B083002031DD92E2A082F02031CE32E1E
:100DB6000130A8002808B40705303406031DC42EE8
:100DC600320833040319EF2E2E0803390319EF2EC8
:100DD600FF30B207FF30B33D3408A800A901A81BB5
:100DE600A9032908803AAA003308803A2A02031D7B
:100DF600FE2E3208280203180B2F20003408A80004
:100E0600A901A81BA9032808B2022908B33B0E2F83
:100E16002000B201B301320833040319252F203014
:100E2600A800310886008701280881000130A80043
:100E36002808B107FF30B207FF30B33D320833044C
:100E4600031D122F2E0803390319342F2D30A80045
:100E5600310886008701280881000130A80028088B
:100E6600B1073408A8002808AD00FF30A8002808FC
:100E7600AD072D0A03192E2E0A30A0000030A1005E
:100E86002D08A800A901A835A90D0030280784005F
:100E9600A030293D8500003FF100013FF2003008F7
:100EA600F4002F08F3009931892186317208200059
:100EB600A3007108A200983169208631200020081D
:100EC600303EAA002A08B4003408A800310886007B
:100ED6008701280881000130A8002808B107382FAB
:100EE6002000310886008701810108002000C50026
:100EF600C601103046020318EE2F4508203E860034
:100F060002308700403FBF00413FC0000130C100B2
:100F16000030C200460A912FC135C20D890B8F2FB2
:100F26003F084105C30040084205C4004308440485
:100F3600031DE62F46354507BF003F0886000230F1
:100F460087003D08C03F3E08C13F0130BF0000306A
:100F5600C000460AB02FBF35C00D890BAE2F45081D
:100F6600203E8600023087003F0881044131400858
:100F760081043D0886003E088700443116000104BE
:100F86000319D82F3D0886003E0887004231403FAE
:100F9600B900413FBA003D0886003E08870044314B
:100FA600413F8A00403F0A00873120003D080C3E41
:100FB600BF0000303E3DC0003F0886004008870065
:100FC6004608810008000130BF003F08C607103000
:100FD6004602031C802F3D080C3EBF0000303E3DFC
:100FE600C0003F08860040088700FF3081000800E7
:100FF60020000D0E890C0139080080340034C034FD
:101006000034E0340034F0340034F8340034FC3476
:101016000034FE340034FF340034FE340034FC3433
:101026000034F8340034F0340034E0340034C03492
:10103600003420005308DF005208DE000230210091
:10104600380639040319C92820005E0886005F089F
:1010560087004A310130C03F0030C13F5E0886003C
:101066005F0887004C310130C03F0030C13F5E0849
:1010760086005F0887004E310130C03F0030C13F17
:101086005E0886005F08870050310130C03F00309F
:10109600C13F5E0886005F08870052310130C03FBD
:1010A6000030C13F5E0886005F088700543101307A
:1010B600C03F0030C13F5E0886005F08870056319A
:1010C6000130C03F0030C13F08002100DC01DD01D6
:1010D60020005E0886005F08870044310030C03F6C
:1010E600C13F5E08063ED40000305F3DD50054087F
:1010F600860055088700053081005E0886005F0877
:1011060087004A310130C03F0030C13F5E0886008B
:101116005F0887004C310130C03F0030C13F5E0898
:1011260086005F0887004E310130C03F0030C13F66
:101136005E0886005F08870050310130C03F0030EE
:10114600C13F5E0886005F08870052310130C03F0C
:101156000030C13F5E0886005F08870054310130C9
:10116600C03F0030C13F5E0886005F0887005631E9
:101176000130C03F0030C13F5E0886005F0887002F
:101186005C310130C03F0030C13F080021005D08DE
:10119600003A0319CF28C7295C08003A0319C72962
:1011A600013A03196828C729C72920005E08860066
:1011B6005F088700413116000104031DBB29210089
:1011C60031082000B100210030082000B0009B311A
:1011D6002623883101302100B0070030B13D2000C0
:1011E6005E0886005F08870041312330C03F00302B
:1011F600C13F5E2A5E0886005F08870041311600FF
:101206000104031DBB29210031082000B100210083
:1012160030082000B0009A31E522883101302100E3
:10122600B0070030B13D20005E0886005F088700E9
:1012360041310530C03F0030C13F5E2A5E0886005E
:101246005F088700413116000104031DBA299C314D
:101256003324883120005E0886005F08870041310C
:1012660021002C08C03F2D08C13F5E2A5E0886007B
:101276005F088700413116000104031DBA290430B6
:10128600210031063004031D4C293035B000310DE4
:10129600B10031082000B100210030082000B00064
:1012A600A431F0248831210030083104031D60295F
:1012B6000130B0000030B1005E2A3035B000310D8B
:1012C600B10020005E0886005F08870041312100DA
:1012D6002C08C03F2D08C13F5E2A5E0886005F08C5
:1012E6008700413116000104031DBA292100310887
:1012F6002000B100210030082000B000A6314B26A6
:10130600883101302100B0070030B13D20005E0871
:1013160086005F088700413121002C08C03F2D0858
:10132600C13F5E2A5E0886005F08870041311600CD
:101336000104031DBA29210031082000B100210053
:1013460030082000B00092310A2288310130210095
:10135600B0070030B13D20005E0886005F088700B8
:10136600413121002C08C03F2D08C13F5E2A2000D4
:101376005E0886005F0887004131013081024131F5
:101386000030813B7F315E2A20005E0886005F08C0
:1013960087004331010884000630040203185E2AE0
:1013A600A0310435803E82005E2A0530B700A930A0
:1013B600B8005E0886005F088700010892310022A7
:1013C600883120005E0886005F0887000108A43186
:1013D600C5248831522A1E30A400A930A500210058
:1013E60029082000A700210028082000A600563062
:1013F60086312826883156302000B7000030B800E4
:101406005E0886005F088700010892310022883155
:1014160020005E0886005F0887000108A431C52405
:10142600883120005E0886005F0887004431160078
:10143600963AD4001600D404031D532A5E0886008B
:101446005F08870044310030C03FC13F5E08063E5A
:10145600D40000305F3DD50054088600550887004B
:1014660023308100532A21006A082000BB00210096
:1014760069082000BA005E0886005F0887004431CC
:10148600403FBC00413FBD00933150238831522A72
:101496005F08CD005E08CC009E317A268831200098
:1014A6005E0886005F0887004431013081074131BC
:1014B6000318810A722A20005E0886005F088700EA
:1014C60046310108003A03194B2A023A0319D82972
:1014D600013A0319EE29063A0319362A4B2A98319E
:1014E600F42088312000D400D5015408DC005508CA
:1014F600DD00362F5E0886005F0887005231160031
:101506000104031D8C2A5E0886005F0887004631A9
:1015160081015E0886005F0887004A310030C03FBF
:10152600C13F5E0886005F0887004C310030C03F2F
:10153600C13F5E0886005F0887004E310030C03F1D
:10154600C13F5E0886005F08870050310030C03F0B
:10155600C13F5E0886005F0887005231013081076F
:1015660041310318810A5E0886005F0887005431FE
:101576000030C03FC13F5E0886005F0887005631D5
:101586000030C03FC13F5E0886005F0887005831C3
:101596000030C03FC13F5E0886005F0887005A31B1
:1015A6000030C03FC13F5E0886005F0887005C319F
:1015B6000030C03FC13FC92F5E0886005F08870024
:1015C600543116000104031DF82A033021002D02B0
:1015D600E93003192C02031CF42AE830AC0003306E
:1015E600AD000530AC070030AD3D20005E0886003A
:1015F6005F0887004A310030C03FC13F5E08860061
:101606005F0887004C310030C03FC13F5E0886004E
:101616005F0887004E310030C03FC13F5E0886003C
:101626005F08870050310030C03FC13F5E0886002A
:101636005F08870052310030C03FC13F5E08860018
:101646005F08870054310130810741310318810A50
:101656005E0886005F08870056310030C03FC13FF4
:101666005E0886005F08870058310030C03FC13FE2
:101676005E0886005F0887005A310030C03FC13FD0
:101686005E0886005F0887005C310030C03FC13FBE
:10169600C92F5E0886005F088700563116000104D0
:1016A600031D652B003021002D02053003192C0285
:1016B6000318612B0530AC000030AD000530AC02DC
:1016C6000030AD3B20005E0886005F0887004A3187
:1016D6000030C03FC13F5E0886005F0887004C317E
:1016E6000030C03FC13F5E0886005F0887004E316C
:1016F6000130810741310318810A5E0886005F08C0
:10170600870050310030C03FC13F5E0886005F0849
:10171600870052310030C03FC13F5E0886005F0837
:10172600870054310030C03FC13F5E0886005F0825
:10173600870056310130810741310318810A5E085E
:1017460086005F08870058310030C03FC13F5E0801
:1017560086005F0887005A310030C03FC13F5E08EF
:1017660086005F0887005C310030C03FC13FC92F4B
:101776005E0886005F0887005A3116000104031DC3
:10178600D82B2100260827040319D82B00302B025A
:10179600973003192A02031CD42B9630AA00003076
:1017A600AB000230AA070030AB3D20005E08860081
:1017B6005F0887004A310030C03FC13F5E0886009F
:1017C6005F0887004C310130810741310318810AD7
:1017D6005E0886005F0887004E310030C03FC13F7B
:1017E6005E0886005F08870050310130810741316D
:1017F6000318810A5E0886005F08870052310030B0
:10180600C03FC13F5E0886005F0887005431003044
:10181600C03FC13F5E0886005F0887005631003032
:10182600C03FC13F5E0886005F0887005831003020
:10183600C03FC13F5E0886005F0887005A3101300D
:10184600810741310318810A5E0886005F08870018
:101856005C310030C03FC13FC92F5E0886005F087B
:101866008700583116000104031D4D2C210026085F
:10187600270403194D2C00302B02053003192A02C8
:101886000318492C0530AA000030AB000330AA0229
:101896000030AB3B20005E0886005F0887004A31B7
:1018A6000030C03FC13F5E0886005F0887004C31AC
:1018B6000130810741310318810A5E0886005F08FE
:1018C60087004E310130810741310318810A5E08D5
:1018D60086005F08870050310030C03FC13F5E0878
:1018E60086005F08870052310030C03FC13F5E0866
:1018F60086005F08870054310030C03FC13F5E0854
:1019060086005F08870056310030C03FC13F5E0841
:1019160086005F088700583101308107413103187E
:10192600810A5E0886005F0887005A310030C03F92
:10193600C13F5E0886005F0887005C310030C03F0B
:10194600C13FC92F5E0886005F0887005031160028
:101956000104031DFB2C5E0886005F0887004731E3
:1019660016000104031DFB2C0030AD00AE005E081E
:1019760086005F0887000108A5318125883120008F
:101986005E0886005F08870044310030C03FC13FD3
:101996005E0886005F08870047316430C03F00302C
:1019A600C13F5E0886005F08870041310530C03FB1
:1019B6000030C13F5E08033ED40000305F3DD500D5
:1019C6005408860055088700013081005E08063EEF
:1019D600D40000305F3DD5005408860055088700C6
:1019E600023081005E0886005F0887004931810168
:1019F6005E0886005F0887004A310030C03FC13F5D
:101A06005E0886005F0887004C310030C03FC13F4A
:101A16005E0886005F0887004E310030C03FC13F38
:101A26005E0886005F08870050310130810741312A
:101A36000318810A5E0886005F088700523100306D
:101A4600C03FC13F5E0886005F0887005431003002
:101A5600C03FC13F5E0886005F08870056310030F0
:101A6600C03FC13F5E0886005F08870058310030DE
:101A7600C03FC13F5E0886005F0887005A310030CC
:101A8600C03FC13F5E0886005F0887005C310030BA
:101A9600C03FC13FC92F5E0886005F0887004C31F2
:101AA60016000104031D7C2D5E0886005F08870072
:101AB6004631810121002408FF3E2000D400FF307A
:101AC6002100253D2000D5002100270820005506CD
:101AD600031D712D2100260820005406031D772DB5
:101AE6002100A601A7017C2D01302100A6070030A8
:101AF600A73D20005E0886005F0887004A31003057
:101B0600C03FC13F5E0886005F0887004C31013048
:101B1600810741310318810A5E0886005F08870045
:101B26004E310030C03FC13F5E0886005F08870027
:101B360050310030C03FC13F5E0886005F08870015
:101B460052310030C03FC13F5E0886005F08870003
:101B560054310030C03FC13F5E0886005F088700F1
:101B660056310030C03FC13F5E0886005F088700DF
:101B760058310030C03FC13F5E0886005F088700CD
:101B86005A310030C03FC13F5E0886005F088700BB
:101B96005C310030C03FC13FC92F5E0886005F0838
:101BA60087004A3116000104031D3E2E0030210035
:101BB6002F02053003192E02031CE32DAE01AF01DF
:101BC6002E082F04031DF42D20005E08033ED400CA
:101BD60000305F3DD5005408860055088700043064
:101BE600810021002E032F04031D062E20005E080F
:101BF600033ED40000305F3DD500540886005508EA
:101C0600870002308100023021002E062F04031DBA
:101C1600192E20005E08033ED40000305F3DD5003B
:101C260054088600550887000330810003302100E0
:101C36002E062F04031D262E20005E0886005F0850
:101C4600870043318101043021002E062F04031D35
:101C5600392E20005E08033ED40000305F3DD500DB
:101C660054088600550887000530810001302100A0
:101C7600AE070030AF3D20005E0886005F08870093
:101C86004A310130810741310318810A5E08860016
:101C96005F0887004C310030C03FC13F5E088600B8
:101CA6005F0887004E310030C03FC13F5E088600A6
:101CB6005F08870050310030C03FC13F5E08860094
:101CC6005F08870052310030C03FC13F5E08860082
:101CD6005F08870054310030C03FC13F5E08860070
:101CE6005F08870056310030C03FC13F5E0886005E
:101CF6005F08870058310030C03FC13F5E0886004C
:101D06005F0887005A310030C03FC13F5E08860039
:101D16005F0887005C310030C03FC13FC92F5E08B5
:101D260086005F0887004A310030C03FC13F5E0829
:101D360086005F0887004C310030C03FC13F5E0817
:101D460086005F0887004E310030C03FC13F5E0805
:101D560086005F08870050310030C03FC13F5E08F3
:101D660086005F08870052310030C03FC13F5E08E1
:101D760086005F08870054310030C03FC13F5E08CF
:101D860086005F08870056310030C03FC13F5E08BD
:101D960086005F08870058310030C03FC13F5E08AB
:101DA60086005F0887005A310030C03FC13F5E0899
:101DB60086005F0887005C310130810741310318D6
:101DC600810AC92F5E0886005F0887004A31003005
:101DD600C03FC13F5E0886005F0887004C31003077
:101DE600C03FC13F5E0886005F0887004E31003065
:101DF600C03FC13F5E0886005F0887005031003053
:101E0600C03FC13F5E0886005F0887005231003040
:101E1600C03FC13F5E0886005F088700543100302E
:101E2600C03FC13F5E0886005F088700563100301C
:101E3600C03FC13F5E0886005F088700583100300A
:101E4600C03FC13F5E0886005F0887005A310030F8
:101E5600C03FC13F5E0886005F0887005C310030E6
:101E6600C03FC13FC92F5D08003A03193B2FE52E3D
:101E76005C08003A0319922E013A0319D02D033A51
:101E860003194E2D073A03194C2B033A0319302C2C
:101E96000E3A0319A52C013A0319DF2A033A03194E
:101EA600BB2B063A03197D2AE52EC92F5E0886004C
:101EB6005F08870047311600643AD4001600D40440
:101EC600031D702F5E0886005F0887000108A53194
:101ED600B7258831A431B224883120005E088600F7
:101EE6005F08870047311600633AD4001600D40411
:101EF600031D892FA431AF24883120005E08860097
:101F06005F0887000108A5313925883120005E0861
:101F160086005F088700473116000104031DBD2FA8
:101F26005E0886005F08870044310030C03FC13F2D
:101F36005E0886005F08870041310530C03F0030EB
:101F4600C13F5E0886005F088700433181015E0855
:101F560086005F088700463181015E08093ED4008D
:101F660000305F3DD50054088600550887000130D3
:101F76008100D62F5E0886005F0887004731013052
:101F8600810241310030813B7F31D62F5E088600C9
:101F96005F08870049310108003A0319592F013AB1
:101FA6000319D62FD62F8731FB278831003A03191C
:101FB600080020005E0886005F0887004931010896
:101FC600031908005E0886005F0887004431003068
:101FD600C03FC13F01302100A8070030A93D2000C5
:101FE6005E08063ED40000305F3DD50054088600EA
:101FF600550887000330810008000034003400349F
:10200600003400340034003400340034003400342A
:10201600003400340034003400340034003400341A
:10202600003400340034003400340034003400340A
:1020360000340034003401340034013400340134F7
:1020460000340134003401340034013400340234E5
:1020560000340234003402340034033400340334D0
:1020660000340334003404340034043400340434BB
:1020760000340534003405340034063400340634A4
:10208600003407340034073400340834003408348C
:10209600003409340034093400340A3400340B3473
:1020A60000340B3400340C3400340D3400340E3458
:1020B60000340E3400340F3400341034003411343C
:1020C600003412340034133400341334003414341E
:1020D60000341534003416340034173400341934FF
:1020E60000341A3400341B3400341C3400341D34DC
:1020F60000341E34003420340034213400342234B9
:102106000034233400342534003426340034283493
:102116000034293400342A3400342C3400342E346C
:1021260000342F3400343134003432340034343443
:1021360000343634003437340034393400343B3418
:1021460000343D3400343F340034413400344234EA
:1021560000344434003446340034483400344B34BC
:1021660000344D3400344F34003451340034533489
:10217600003455340034583400345A3400345C3456
:1021860000345F340034613400346434003466341F
:102196000034693400346B3400346E3400347034E7
:1021A60000347334003476340034793400347B34AC
:1021B60000347E340034813400348434003487346F
:1021C60000348A3400348D3400349034003493342F
:1021D6000034963400349A3400349D340034A034EC
:1021E6000034A3340034A7340034AA340034AE34A7
:1021F6000034B1340034B5340034B8340034BC345F
:102206000034BF340034C3340034C7340034CA3415
:102216000034CE340034D2340034D6340034DA34C8
:102226000034DE340034E2340034E6340034EA3478
:102236000034EE340034F3340034F7340034FB3425
:102246000034FF34003404340134083401340D34CE
:10225600013411340134163401341A3401341F3474
:10226600013424340134283401342D340134323419
:102276000134373401343C340134413401344634BA
:1022860001344B34013450340134553401345A345A
:1022960001345F340134653401346A3401346F34F7
:1022A6000134753401347A3401348034013486348F
:1022B60001348B34013491340134973401349C3425
:1022C6000134A2340134A8340134AE340134B434B8
:1022D6000134BA340134C0340134C6340134CC3448
:1022E6000134D2340134D9340134DF340134E534D5
:1022F6000134EC340134F2340134F9340134FF345E
:102306000134063402340D340234133402341A34E0
:10231600023421340234283402342F340234363461
:1023260002343D340234443402344B3402345234E1
:1023360002345A340234613402346834023470345C
:102346000234773402347F340234863402348E34D5
:102356000234953402349D340234A5340234AD344B
:102366000234B5340234BD340234C5340234CD34BB
:102376000234D5340234DD340234E5340234ED342B
:102386000234F6340234FE340234063403340F3495
:1023960003341834033420340334293403343134F9
:1023A60003343A340334433403344C34033455345D
:1023B60003345E34033467340334703403347934BD
:1023C6000334823403348C340334953403349E341A
:1023D6000334A8340334B1340334BB340334C53472
:1023E6000334CE340334D8340334E2340334EC34C7
:1023F6000334F6340334FF3403342000B9003808BC
:10240600B1003708B000390898313F2008001E3067
:102416002000A0000030A1003108A3003008A2006F
:10242600983169209231200020082104031D202ABA
:1024360001302100B6060030B70601302000300515
:10244600B20000303105B300210037082000330602
:10245600031D312A2100360820003206031D4D2AAD
:102466000E30B6000030B7003708A1003608A000CD
:102476003108A3003008A20098316920923120006B
:1024860020080907BC3E860002308700403FB400A2
:10249600413F662A0E30B6000030B7003708A1006B
:1024A6003608A0003108A3003008A2009831692040
:1024B60092312000200809073C3E86000330870041
:1024C600403FB400413FB5003508AE003408AD00CA
:1024D6002030A53181250800FB012000B21F802A8B
:1024E600AF09B009B109B209AF0A0319B00A031955
:1024F600B10A0319B20AFB01FB0AAE1F8D2AAB090A
:10250600AC09AD09AE09AB0A0319AC0A0319AD0A49
:102516000319AE0A2E082D042C042B040319C62A0F
:10252600FA01FA0AAE1BA32A0130AB35AC0DAD0D8C
:10253600AE0D890B982A0130F9007908FA07952A19
:102546002E083202031DB12A2D083102031DB12ABD
:102556002C083002031DB12A2B082F02031CBB2AAC
:102566002B08AF022C08B03B2D08B13B2E08B23B1E
:102576000130AE36AD0CAC0CAB0C890BBC2A01306D
:10258600FA02031DA32A7B080319D42AAF09B0094E
:10259600B109B209AF0A0319B00A0319B10A03193E
:1025A600B20A3208AE003108AD003008AC002F0880
:1025B600AB00080020003B08F2003A08F100A73102
:1025C6006027923172082000C9007108C800DE3009
:1025D60086000030870041308400003085000530D9
:1025E600C00016001A00C00BF42A4908A1004808CA
:1025F600A0003F08F2003E08F1003D08F4003C0848
:10260600F30099318921923172082000A3007108E4
:10261600A20098316920923120002108C7002008C5
:10262600C600CA01CB0100304B02043003194A022E
:102636000318442B4908A1004808A0004A08460789
:10264600A2004B08473DA300983169209231200033
:102656003A08200784003B08213D85000008C00099
:102666004A08413E86008701400881000130CA07BA
:102676000030CB3D00304B02043003194A02031CE4
:102686001D2B4130B7000030B800203092310022B7
:1026960092312030A431C524080032302000C40015
:1026A6000030C5003B08F2003A08F100A731602768
:1026B600933172082000C9007108C8006130860095
:1026C600013087003F308400003085000530BE00B1
:1026D60016001A00BE0B6B2B4908A1004808A00083
:1026E6004508F2004408F1003D08F4003C08F300F8
:1026F60099318921933172082000A3007108A20044
:1027060098316920933120002108C7002008C600AF
:10271600CA01CB0100304B02043003194A020318E8
:10272600BB2B4908A1004808A0004A084607A2009A
:102736004B08473DA30098316920933120003A08A1
:10274600200784003B08213D85000008BE004A089A
:102756003F3E860087013E0881000130CA070030EF
:10276600CB3D00304B02043003194A02031C942B64
:102776003F30B7000030B80020309231002293314C
:102786002030A431C52408002000EE00EF011030EF
:102796006F02031808006E08203E8600023087008C
:1027A600403FE200413FE3000130E4000030E50035
:1027B6006F0ADF2BE435E50D890BDD2B6208640516
:1027C600E60063086505E7006608670403193D2C03
:1027D600A7310827933172082000E9007108E80044
:1027E6006F356E07E2006208860002308700403FC0
:1027F600E300413FE4006308860064088700403F29
:10280600EA00413FEB006A09E2006B09E300E20AD5
:102816000319E30A68086207EC006908633DED00E6
:102826006F356E07E2006208860002308700403F7F
:10283600E300413FE40063088600640887004A31EC
:10284600403FE500413FE60066086D02031D2D2C62
:1028560065086C02031C3D2C6F356E07E2006208AA
:10286600860002308700403FE000413FE100A7318B
:102876009C27933101302000E2006208EF07CA2B43
:1028860020005308D7005208D60021003803390427
:102896000319782C9831F4202000D4005408D50070
:1028A600560886005708870044310130C03F003083
:1028B600C13F560886005708870046310130C03FA1
:1028C6000030C13F5608860057088700483101305E
:1028D600C03F0030C13F56088600570887004A317E
:1028E6000130C03F0030C13F08009831F4209431D8
:1028F6002000D4005408D500F630BA00A830BB003A
:1029060056088600570887004231403FBC00413FC9
:10291600BD00933150239431200056088600570895
:10292600870042310130810741310318810A560878
:1029360086005708870044310030C03FC13F560823
:1029460086005708870046310030C03FC13F560811
:1029560086005708870048310030C03FC13F5608FF
:102966008600570887004A310030C03FC13F5608ED
:102976008600570887004C31013081074131031822
:10298600810A080020003A08BC003908BB003B0851
:1029960086003C0887000108A531C6259431200031
:1029A6003B0886003C0887000108A431D1249431F5
:1029B60020003B0886003C0887000108A431DF247C
:1029C600943120003B0886003C0887000108A431AA
:1029D600CB24943120003B0886003C088700413117
:1029E6002330C03F0030C13F3B0886003C088700CB
:1029F60044310030C03FC13F3B0886003C08870099
:102A06004A310030C03FC13F3B0886003C08870082
:102A16004C310030C03FC13F3B0886003C08870070
:102A26004E310030C03FC13F3B0886003C0887005E
:102A360050310030C03FC13F3B0886003C0887004C
:102A460052310030C03FC13F3B0886003C0887003A
:102A560054310030C03FC13F3B0886003C08870028
:102A660056310030C03FC13F3B0886003C08870016
:102A76005C310030C03FC13F2100B001B1012000F0
:102A86003B0886003C088700433181012100A601EE
:102A9600A7010E30A4000030A5003230AC00003093
:102AA600AD003230AA000030AB00AE01AF01080025
:102AB60001302000A3000030A400A801A9012408C9
:102AC6002902031D682D230828020318142E193025
:102AD600A0002008F1002808A63115269531B63E3B
:102AE6002000A1002108A7001930A0002008F1004D
:102AF6002808A63115269531143EB63E86000130CB
:102B06008700010820002707A10021088600013060
:102B1600870001087906031DFD2D2708F100013005
:102B2600F200A7316027953172082000A6007108CF
:102B3600A5001930A0002008F1002808A6311526A6
:102B46009531143EB63E860001308700013081077C
:102B560041310318810A19302000A0002008F10035
:102B66002808A63115269531143EB63E860001305A
:102B76008700403F2000A100413FA2002608220610
:102B8600031DC72D25082106031D0E2E1930A00092
:102B96002008F1002808A63115269531143EB63EC8
:102BA6008600013087000030C03FC13F1930200049
:102BB600A0002008F1002808A63115269531173EF9
:102BC600B63E86000130870019302000A10021089A
:102BD600F1002808A6311526163EB63E84000130BF
:102BE6008500000884008501403F803F413F813FCA
:102BF6000130080019302000A0002008F100280844
:102C0600A63115269531143EB63E86000130870062
:102C16000030C03FC13F01302000A8070030A93D69
:102C2600622D0030080020309D317025963120300D
:102C3600A73125279631CF30F1000030F2009A31C6
:102C460067229631C230F1000030F2009A316722D5
:102C560096314C30F1000130F2009A3167229631FC
:102C66003F30F1000130F2009A316722963132305E
:102C7600F1000130F2009A316722963120302100AE
:102C8600ED006D082700A00020302100ED006D0842
:102C96002300CF0020302100ED006D082400DE0067
:102CA60020302100ED006D082400D00020302100E6
:102CB600ED006D082400C200FC01FC0AA0302100D2
:102CC600D1000330D200C530D3001430D4001C30FC
:102CD600D7000830D8000030D5000030D6000A30C2
:102CE600D9000030DA00CF30C4000130C5003B30D7
:102CF600C6001F30C700B530CA000030CB00003018
:102D0600C8000030C9000A30CC000030CD005E306B
:102D16002200CE000230CF00C530D0001D30D100D9
:102D26004330D4001430D5000030D2000030D30038
:102D36000A30D6000030D7005030C1000230C20041
:102D46009D30C3001F30C400A130C7000230C80048
:102D56000030C5000030C6000A30C9000030CA0085
:102D66004230B4000230B5001F30B6001E30B70046
:102D76006B30BA000430BB000030B8000030B90038
:102D86000A30BC000030BD002100DC01DD0102304C
:102D9600B8000030B900CF302000BD000030BE00C2
:102DA6002030873179279631C2302000BD000030AF
:102DB600BE0020308731792796314C302000BD0087
:102DC6000130BE0020308731792796313F30200010
:102DD600BD000130BE002030873179279631323070
:102DE6002000BD000130BE002030873179279631A2
:102DF60020309331C7239631FB2E00340034003443
:102E060020341034103420340034A5342134A53451
:102E16006034003412341034083420342034B13491
:102E26003034853445341034303410341034103492
:102E3600103410341034103410341034103410346C
:102E4600103410341034103410341034103410345C
:102E5600103410341034103410341034103410344C
:102E6600103410341034103410341034103410343C
:102E76001034103410341034103400340034C0349C
:102E860040340034443410341034B43435341034FF
:102E96001034103410340034043408340834023446
:102EA60002341E341E3414341434403400341034C6
:102EB60010344034003402340834A9346334803486
:102EC600403431347034B034603490345134B034DA
:102ED6003134B134313480346034B13471349034A7
:102EE600713410341034103410340834083430344B
:102EF6001034023402341434E13410341034913472
:102F06007134B134113421342134B1345034213484
:102F1600313401343134B1342134913451342434D0
:102F26002434A13440340934193421340134813431
:102F36004B3489344334A134613411347134A934A7
:102F4600613419347134B034313404342434A13446
:102F56004134033409348B3441340A340A3404349A
:102F66000A342234283421342134083402340A3411
:102F76000034203400341034103491347134B134B8
:102F8600113431341034B1345034213431340134F5
:102F96003134B13421349134513424342434A134BD
:102FA6004034093419342134013481344B348934A2
:102FB6004334A134613411347134A9346134193481
:102FC6007134B034313404342434A13441340334FC
:102FD60009348B3441340A340A3404340A34223432
:102FE60028340834083404340434023402341034E7
:0A2FF6001034FF34FF3400340034BF
:1030020021002235A03E860001308700403FF300B8
:10301200413FF40022082304031913280130A202BD
:103022000030A33B73086704F10074086804F200DF
:1030320008000630F5000030F60021002235A03EDF
:10304200860001308700403FF700413FF8007508D5
:10305200FF3EF300FF30763DF40074082302031DA7
:1030620034287308220203183A280130A2070030DC
:10307200A33D7808F2007708F10008002000B500AF
:10308200B6013108B3003008B200360832078400B6
:1030920033080318330A85001200031908003108A7
:1030A200B3003008B2003608320784003308031830
:1030B200330A85000008B4003408AA0035089C31A0
:1030C200C924983101302000B2003208B6074228E4
:1030D20020002008210403199128FA01FA0AA11BF1
:1030E2007C280130A035A10D890B73280130F9002D
:1030F2007908FA07702821082302031D8228200874
:103102002202031C88282008A2022108A33B0130C6
:10311200A136A00C890B89280130FA02031D7C28F4
:103122002308A1002208A00008007208F300730817
:10313200F9007108F3007308F800FA01FB01073087
:103142007B020318B52879080139F3007308FA04E1
:103152000310F90C0310FA0D0130F3007308FB079A
:1031620007307B02031CA4287A08F300F4017808D4
:10317200F500F6017508F600F50173087504F10013
:1031820074087604F200080000340034203400345D
:1031920060340034E0340034E0340134E034033489
:1031A20000340234003401348034003440340034BA
:1031B2002034003401340134023402340134023444
:1031C200013402340434083400340034003400344E
:1031D200003400340034003400340034003400344D
:1031E200DC34013400340F30F1007108F3002000A8
:1031F2000E0E890C0139FF3AF1007108F3050C0C2F
:10320200890C01390907FF3AF1007108F3050C0E28
:103212000139F1000130F135FF3E031D0C297135F2
:10322200FF3AF2007208F3050C0E890C0139F10025
:103232000230F135FF3E031D1A297135FF3AF200C3
:103242007208F3057308080000302000A300003064
:10325200A2000030A1000030A000711C39297508BD
:103262002000A0077608A13D7708A23D7808A33D7B
:103272000130F535F60DF70DF80D890B3A290130BD
:10328200F436F30CF20CF10C890B41297408730427
:1032920072047104031D2E2920002308F400220861
:1032A200F3002108F2002008F100080071088600EE
:1032B2007208870042312C30C03F0130C13F710893
:1032C20086007208870044310030C03FC13F710858
:1032D20086007208870046310030C03FC13F710846
:1032E20086007208870048310030C03FC13F710834
:1032F2008600720887004A310030C03FC13F710822
:103302008600720887004C310030C03FC13F080080
:10331200F701F801710872040319B829F601F60AD7
:10332200F21B9D290130F135F20D890B94290130F0
:10333200F5007508F60791290130F735F80D890B6C
:103342009E2972087402031DA82971087302031CC6
:10335200AF297108F3027208F43B77140130F23698
:10336200F10C890BB0290130F602031D9D29780862
:10337200F2007708F1000800803400348034013410
:103382008034033480340B3480341B3480343B3437
:1033920080347B348034FB3480347B3480343B345F
:1033A20080341B3480340B34803403348034013451
:1033B200803400344034003420340034103400347B
:1033C200083400340434003402340034013400344C
:1033D200023400340434003408340034103400342D
:1033E20020340034403400340A34A934D334A834AD
:1033F200DC34A834E434A8349734A8348234A834B2
:103402003934A8346C34A8345D34A0340034A83480
:103412005334A8341E34A8343534A0340A34A034CA
:10342200803400340034013400340234003408346F
:1034320000341034003420340034403400348034FA
:103442000034403400342034003410340034083462
:103452000034023400340134552A20003C08BA00FA
:103462003B08B9009B31EC2301302100B800003049
:10347200B900080020003C08BA003B08B9009B31A3
:10348200EC2303302100B8000030B900080020000E
:103492003C08BA003B08B9009B31EC230230210002
:1034A200B8000030B900080021003508003A0319BD
:1034B2005B2A662A3408013A03192E2A033A0319B1
:1034C2003B2A013A0319482A662A08007108860035
:1034D200720887000030C03FC13F71088600720841
:1034E200870042310030C03FC13F71088600720838
:1034F200870044310030C03FC13F71088600720826
:10350200870046310030C03FC13F71088600720813
:10351200870048310030C03FC13F71088600720801
:1035220087004A31FF30C03FFF30C13F71080C3E77
:10353200F3000030723DF4007308860074088700BF
:10354200FF30810008002000A7002008A200A3018C
:10355200A235A30DF030A4002630A50022082407CE
:1035620086002308253D8700403FA800413FA9006F
:10357200211CC62A2908F2002808F1009831962059
:1035820072082000A9007108A8002135FF3A013E07
:10359200083EA2002208A6002908A2002608270742
:1035A200A300230886000130870022088100280832
:1035B200A2002608013E2707A30023088600013047
:1035C20087002208810008000E302000B60000307B
:1035D200B7003708A1003608A0003108A300300860
:1035E200A200983169209A31200020080907203E64
:1035F200860003308700403FB400413FB5000E30E3
:10360200B6000030B7003708A1003608A000310824
:10361200A3003008A200983169209A3120002008C6
:103622000907BE3E860003308700403FB200413F9B
:10363200B3003208B4043308B5043508AE003408C8
:10364200AD002030A531812508000E302000B600E3
:103652000030B7003708A1003608A0003108A300E7
:103662003008A200983169209B3120002008090708
:10367200BC3E860002308700403FB400413FB500A7
:103682000E30B6000030B7003708A1003608A0009F
:103692003108A3003008A200983169209B31200034
:1036A200200809073C3E860003308700403FB200F5
:1036B200413FB3003208B4043308B5043508AE0004
:1036C2003408AD002030A5318125080020003908DA
:1036D20086003A08870041310030C03FC13F3908B7
:1036E20086003A08870043310030C03FC13F3908A5
:1036F20086003A08870045310030C03FC13F390893
:1037020086003A08870047310030C03FC13F390880
:1037120086003A08870049310030C03FC13F39086E
:1037220086003A0887004B310030C03FC13F39085C
:1037320086003A0887000108A431D1249B31200079
:10374200390886003A0887000108A431CB24080012
:1037520021006608F4006508F3006408F2006308BB
:10376200F1004130F800C630F7004E30F6006D30FF
:10377200F500993125219B3174082100E600730878
:10378200E5007208E4007108E3003930E3073030E5
:10379200E43D0030E53D0030E63D63082000A60030
:1037A200210064082000A700210065082000A8006D
:1037B200210066082000A9001030AA00A937A80C31
:1037C200A70CA60CAA0BDF2BFF302605A4007F3026
:1037D2002705A50008002000390886003A0887005E
:1037E20042313230C03F0030C13F390886003A08CA
:1037F200870044310030C03FC13F390886003A0893
:10380200870046310030C03FC13F390886003A0880
:10381200870048310030C03FC13F390886003A086E
:1038220087004A310030C03FC13F390886003A085C
:1038320087004C310030C03FC13F2100B401B501C7
:103842002000390886003A0887000108A431D124F3
:103852009B312000390886003A0887000108A4310C
:10386200CB24080000302000AE000030AD00FF3055
:10387200AC00FF30AB009B31A9239C31200024080F
:10388200AF002508B000890D893B8909B100B2005B
:1038920092316F229C3120002C08BC002B08BB0007
:1038A200FF30B300FB30B4000030B5000030B6008A
:1038B2003B08B7003C08B800B901BA013708B304A5
:1038C2003808B4043908B5043A08B604330A031DAB
:1038D200732C340A35043604031D732C0030BB06E6
:1038E2000430BC063C08AE003B08AD002030A531D8
:1038F20081250800F700F80172080319080077080B
:10390200031DAB2CB02C7308031D932C780877078A
:10391200F40074088600013087000108A431E7240E
:103922009C31A72C78087707F400740886000130D0
:1039320087000108A431E7249C31F5007808730759
:10394200F600760886008701750881000130F400D0
:103952007408F8077208780203180800842C7308A8
:103962000319080072087802031808000030A43115
:10397200E7249C31F40078087307F5007508860087
:103982008701740881000130F4007408F807B32C31
:103992002000AF002F0A8600013087000108AB002B
:1039A2002F088600013087002B0881002F08023E75
:1039B2008600013087000108AB002F0A8600013023
:1039C20087002B0881002F08033E86000130870004
:1039D2000108AB002F08023E8600013087002B0849
:1039E20081002A08AB002F08033E860001308700C1
:1039F2002B088100AE01AE0104302E02031808002C
:103A02002E082F07AB002B08860001308700010823
:103A1200AC002C08A0002E08AD002D08A1002F0834
:103A2200073E9A31A4229C3101302000AB002B08C2
:103A3200AE07FD2C22008C0180308D001A308E00E2
:103A4200373021008C0030308D0060308E004030E5
:103A520023008E008D0103308C0024008D018C0127
:103A62008E0125008C018D018E0100308B1B0130EF
:103A7200F1008B1355303C008F00AA308F000F10DD
:103A82003D002108E0390D38A1003C002108E03951
:103A92000C38A1002008E0390E38A0003D002408AF
:103AA200E0390238A4002008E0390C38A0002308CD
:103AB200E0390338A3001E08E03918389E002208B6
:103AC200E0391938A20055303C008F00AA308F002F
:103AD2000F14711C6E2D8B1708008B130800200029
:103AE200AC00A731BC279D31A431F9249D31A73107
:103AF20042279D31A53103259D31A5312E259D31CA
:103B02009D311B259D31A53118259D31A5312325D8
:103B12009D31A53144259D31A53150259D31A431DA
:103B2200D7249D318030F1000030F200A6315F26AB
:103B32009D3122008D17C030F1000030F200A63115
:103B420075269D310030840091308500003FF100E0
:103B5200013FF200A6318B269D3100308400913066
:103B62008500003FF100013FF200A631A1269D3100
:103B720020002C08A731DD2720002C08113E8600EA
:103B8200013087008101080020003A08BC00390892
:103B9200BB003B0886003C0887000108A531C6250A
:103BA2009D3120003B0886003C0887000108A431B3
:103BB200D1249D3120003B0886003C088700010883
:103BC200A431DF249D3120003B0886003C08870099
:103BD2000108A431CB249D3120003B0886003C081B
:103BE200870042310030C03FC13F3B0886003C089D
:103BF200870044310030C03FC13F3B0886003C088B
:103C0200870046310030C03FC13F3B0886003C0878
:103C1200870048310030C03FC13F3B0886003C0866
:103C220087004A310030C03FC13F3B0886003C0854
:103C320087004C310030C03FC13F080020003A08E5
:103C4200BC003908BB003B0886003C08870001081D
:103C5200A531C6259E3120003B0886003C0887001E
:103C62000108A431D1249E3120003B0886003C0883
:103C720087000108A431DF249E3120003B08860022
:103C82003C0887000108A431CB249E3120003B0868
:103C920086003C08870042312C30C03F0130C13FD2
:103CA2003B0886003C08870044310030C03FC13FDA
:103CB2003B0886003C08870046310030C03FC13FC8
:103CC2003B0886003C08870048310030C03FC13FB6
:103CD2003B0886003C0887004A310030C03FC13FA4
:103CE2003B0886003C0887004C310030C03FC13F92
:103CF2000800210026082704031D9A2E2635A03E1F
:103D0200860002308700403F2000B700413FB800E4
:103D12004C0886004D0887000108923100229E312E
:103D220020004C0886004D0887000108A431C524F4
:103D3200080020004C0886004D0887004631010823
:103D4200031DC22E21002635A03E860002308700C8
:103D5200403F2000BA00413FBB004C0886004D089E
:103D620087005C31403FBC00413FBD0021002B0871
:103D72002000BF0021002A082000BE009231DD226F
:103D8200080021002635A03E860002308700403F11
:103D92002000BA00413FBB004C0886004D08870056
:103DA2005C31403FBC00413FBD00933150230800CD
:103DB20005302000CE000030CF004F08A1004E0891
:103DC200A000210035082000A300210034082000B3
:103DD200A200983169209E31200020080907AC3EDC
:103DE200860001308700403FD000413FD10051089A
:103DF200AE005008AD004C0886004D08870001084F
:103E0200A53181259E31210034083504031D242F5C
:103E12003435593E860001308700403F2000B7000C
:103E2200413FB8004C0886004D08870001089231D6
:103E320000229E3120004C0886004D0887000108B0
:103E4200A431C524080021003435593E86000130D2
:103E52008700403F2000BA00413FBB004C0886006B
:103E62004D0887004C31403FBC00413FBD009331BB
:103E72005023080020003A08BC003908BB003B0868
:103E820086003C0887000108A531C6259F31200025
:103E92003B0886003C0887000108A431D1249F31E9
:103EA20020003B0886003C0887000108A431DF247B
:103EB2009F3120003B0886003C0887000108A4319E
:103EC200CB249F3120003B0886003C08870042310A
:103ED2003230C03F0030C13F3B0886003C088700BB
:103EE20044310030C03FC13F3B0886003C08870098
:103EF20046310030C03FC13F3B0886003C08870086
:103F020048310030C03FC13F3B0886003C08870073
:103F12004A310030C03FC13F3B0886003C08870061
:103F22004C310030C03FC13F2100B401B501043023
:103F3200B2000030B300080020003A08BC00390883
:103F4200BB003B0886003C0887000108A531C62556
:103F52009F3120003B0886003C0887000108A431FD
:103F6200D1249F3120003B0886003C0887000108CD
:103F7200A431DF249F3120003B0886003C088700E3
:103F82000108A431CB249F31A631ED269F312000B8
:103F92003B0886003C0887004D3181013B088600C2
:103FA2003C08870041310030C03FC13F3B088600DA
:103FB2003C08870043310030C03FC13F3B088600C8
:103FC2003C08870045310030C03FC13F3B088600B6
:103FD2003C08870047310030C03FC13F3B088600A4
:103FE2003C08870049310030C03FC13F3B08860092
:103FF2003C0887004B310030C03FC13F080001340C
:1040020000340A34003464340034E83403341034A5
:104012002734483454345434503453343A342F34DB
:104022002F344734493454344834553442342E34CE
:1040320043344F344D342F344E3455344C344C3495
:104042004934423441344434473445342F344434BF
:104052004534463443344F344E34323435342034CC
:104062002034203420340034473455345934533406
:1040720020344934203448344134563445342034D1
:10408200413420344734523445344134543420349A
:10409200493444344534413420342D344D34493488
:1040A2004B34453420344B342E34203420342034E5
:1040B200203420342034003441344C344C34203405
:1040C20059344F3455342034423441345334453416
:1040D20020344134523445342034423445344C3453
:1040E2004F344E344734203454344F342034553412
:1040F20053342034203420342034203400348831A6
:10410200D8288831FD2889312129893139298931F5
:0641120070298931952996
:10494C0020009717080020001F15080028001715D5
:10495C00080022008D17080022008D130800163065
:10496C0021009700080072082100BB007108BA00F2
:10497C000800FB007B08073EA63104260800200037
:10498C00AB002B08A431BF2408002000B800380865
:10499C00A531F42508002000AB002B08A531A92572
:1049AC000800403024009400223095000130920021
:1049BC000800F1007108113E8600013087000114D7
:1049CC000800F1002400951371089100141CEC2CC4
:1049DC001108080020003108AE003008AD0020306E
:1049EC00A53181250800320099019B019D010630FB
:1049FC009F009E011C180800002D013020009F0014
:104A0C004A309E009D019110A431A9240800210078
:104A1C003A083B04031908003B088A003A080A00CC
:104A2C00A53108008F30250093009201953091003C
:104A3C001F08FC3901389F0008008F3025009700B3
:104A4C009601E03095001F08F33904389F000800E8
:104A5C007B3028009700FF309600950120009210C3
:104A6C00A431AC240800F200FB30F1007208113EB6
:104A7C0086000130870071088105080090302C00F9
:104A8C0099007F309800C03097001F08FC3902381D
:104A9C009F00080090302C009C007F309B00C030A1
:104AAC009A001F08F33908389F0008006400800141
:104ABC0001310130FE020030FF3B7F087E040319F8
:104ACC0000345D2DFE0012001E000130FE0200308D
:104ADC00FF3B7F087E0403190034692D20009012DF
:104AEC0021003D082000960021003C082000950084
:104AFC00A5310D2508002000AF007C08031D2E15E4
:104B0C002E08AC002D08AB002F08A7317E2708001B
:104B1C000F34A934F034A834C934A834EA34A83496
:104B2C0020342034203420340034F200F1013A30A7
:104B3C0072020318A72D30307202031CA72DF1014D
:104B4C00F10A710C0800FB000030F100F2007B0848
:104B5C00073EA6312626A5317B08073EA631042642
:104B6C000800F1007108113E8600013087008118A1
:104B7C0008007108113E86000130870001150800FD
:104B8C00F1007108113E8600013087000118080001
:104B9C007108113E86000130870081140800203412
:104BAC0020342034203400340134003400340034F8
:104BBC001F34F834AA34A8340A34A934FB0000306A
:104BCC00F100F2000A30F3000030F4007B08A6314B
:104BDC00B726A5317B08A631042608002000B700B3
:104BEC005830B000A030B100370898313F20A531C3
:104BFC0020003708073EA631042608002000AA0032
:104C0C000A30F9007908F2002030FA007A08F30033
:104C1C002A089C317B2422008E178E130800F40086
:104C2C00F301741C1D2E7108F2007208F3070310B7
:104C3C00F10D0310F40C7408031D172E73080800F3
:104C4C00F4007208F30074088600013087007308C2
:104C5C0081007108F300740A860001308700730824
:104C6C00810008002100A201A3012235A03E86008C
:104C7C0001308700403FF100413FF20067087104AA
:104C8C00A00068087204A10008002000301C562EF9
:104C9C005530AD00A930AE002030A531812508007B
:104CAC00AA302000AD005230AE002030A531812555
:104CBC000800FF30F1050330F2052500131E702E9D
:104CCC000630F135F20D890B672E720892007108CF
:104CDC009100080072089200710891000800FF30E2
:104CEC00F1050330F2052500171E862E0630F1352E
:104CFC00F20D890B7D2E7208960071089500080044
:104D0C00720896007108950008007208F40071088A
:104D1C00F300F436F30CF436F30C73082C00980003
:104D2C0071080339F3000530F335FF3E031D9A2E4D
:104D3C007335970008007208F4007108F300F4361C
:104D4C00F30CF436F30C73082C009B007108033938
:104D5C00F3000530F335FF3E031DB02E73359A007A
:104D6C000800F7007708F5007508F6000130F3022B
:104D7C000030F43B730A0319740A03190800710814
:104D8C00F500760886000130870075088100013037
:104D9C00F5007508F607BC2EF501F601711CDA2E2C
:104DAC007308F5077408F63D0130F335F40D890BE3
:104DBC00DB2E0130F236F10C890BE02E71087204F7
:104DCC00031DD42E7608F2007508F1000800063099
:104DDC00F3000030F4007308FF3E2100A200FF3006
:104DEC00743DA3002235A03E860001308700403F71
:104DFC00F100413FF20067087104A00068087204DA
:104E0C00A100080020001508F3007308FA0016082A
:104E1C00F3007308FB007A08F300F4017B08F5003B
:104E2C00F6017508F600F50173087507F8007408AB
:104E3C00763DF9007908F2007808F1000800F200DC
:104E4C007208203E8600023087000030C03FC13F10
:104E5C00F301103073020318080073357207F10068
:104E6C0071088600023087000030C03FC13F01301E
:104E7C00F1007108F3072F2F1030200097004D30F0
:104E8C009800FF309600FF30950016082100BD00F9
:104E9C00200015082100BC00200090122100901663
:104EAC000330F1000030F200A431B924A731A43151
:104EBC00A62408007208F6007108F5007508840035
:104ECC007608850012000319702F0130F5070030A9
:104EDC00F63D642F7109F3007209F400F30A03190B
:104EEC00F40A75087307F1007608743DF2000800A7
:104EFC00FB007B08053E86000130870020002B0854
:104F0C00C03F2C08C13F7B08053E8600013087005E
:104F1C00403FF100413FF2007B08073EA6312626B8
:104F2C00A7317B08073EA631042608002000600844
:104F3C008600610887004231403FD200413FD300D8
:104F4C0060088600610887004831413F8A00403F75
:104F5C000A00A731A73108272000600886006108E5
:104F6C0087007108C03F7208C13F08009D311B25A6
:104F7C00A731A431F924A731A431B524A731A43128
:104F8C00D724A731A5315025A731A5311825A73134
:104F9C00A5312325A731A5312E25A731A531032510
:104FAC00A731A5314425A731A7314227080020009D
:104FBC00AB002B08073EA531E425A7312030F100CA
:104FCC000030F2000430F3000030F40020002B0815
:104FDC00A631B72620002B08043E8600013087003E
:104FEC0081012B08053E8600013087000030C03F50
:104FFC00C13F080044344F344534533420344434D6
:10500C004534563441344E342034483441345334CE
:10501C0020344834493453342034503448344F34D9
:10502C004E3445343F342034203420342034003482
:10503C004E344F345434483449344E34473420348D
:10504C0054344F34203453344534453420344834AC
:10505C004534523445342E342E342E3420342034FE
:10506C0020342034003448345434543450342034F4
:10507C003434313438342034493427344D342034EA
:10508C004134203454344534413450344F34543446
:10509C002034203420342034003459344F345534E7
:1050AC0020344A3455345334543420344834413445
:1050BC0056344534203454344F342034423445343F
:1050CC004C34493445345634453400344934203456
:1050DC0041344D3420344A34553453345434203410
:1050EC004134203442344134443447344534203440
:1050FC002034203420340034573449344C344C346C
:10510C0020344834413443344B34203446344F3407
:10511C005234203441342F3443342034203420345E
:10512C0000344834413443344B3420345434483400
:10513C004534203450344C3441344E34453454349A
:10514C002034203420340034053407340734083438
:10515C002D342D34203420342D342D34093407349F
:10516C000734063420340B342034003455344E3498
:10517C004C344F3443344B3449344E3447342E344E
:10518C002E342E3400345034413453345334573489
:10519C004F3452344434203400344E3455344C346F
:1051AC004C34493446345934203400344434453476
:1051BC00463443344F344E34203400344834413474
:1051CC005834203420340034453458344934543461
:1051DC002034003453344C344F34543420340034A1
:1051EC00243424342434203400344C344F344334A9
:1051FC004B3400344F34503445344E340034503436
:10520C0045345734203400344E3455344C344C34FB
:10521C0000344D3445344E345534003444344F341A
:10522C0057344E3400342034203455345034003448
:08523C002534343464340034DD
:020000040001F9
:08000E008CFFF3FFFFFFFFFF71
:00000001FF
