:04000000803116280D
:1000060008007E14803120007F08F0002100901E39
:1000160011282000901E1128A631D826700820002D
:10002600FF007E10090080311828003084009730C8
:100036008500F0308600263087000130FF00003052
:10004600A631CC26803167308400A6308500DC30AE
:100056008600003087000030FF000A30A631CC262B
:1000660080317F308400A73085005930860001300A
:1000760087000030FF001230A631CC268031FD30DB
:1000860084009C308500A030860001308700003057
:10009600FF004330A631CC268031063084009B30E9
:1000A6008500A0308600023087000030FF0038301F
:1000B600A631CC268031CE3084009A30850020309F
:1000C6008600033087000030FF003830A631CC268A
:1000D6008031FC01A0308400003085003C30FE00F9
:1000E6000030FF00A631C026803120308400013068
:1000F60085003930FE000030FF00A631C026803171
:1001060020308400023085004C30FE000030FF00B5
:10011600A631C0268031D8308400023085000E30EA
:10012600FE000030FF00A631C0268031A0308400DA
:10013600033085001E30FE000030FF00A631C026C9
:100146007E1020009631162E20005308D800520843
:10015600D700210036083704031920299A310522D1
:1001660080312000D4005408D6001A292100B60197
:10017600B70120005808BA005708B9008831042092
:100186008031200057088600580887004431013026
:10019600C03F0030C13F57088600580887004631E7
:1001A6000130C03F0030C13F57088600580887001D
:1001B60048310130C03F0030C13F5708860058081B
:1001C60087004A310130C03F0030C13F2100B401F1
:1001D600B50120005808CD005708CC009F319E2756
:1001E600080020005708860058088700443101306F
:1001F600C03F0030C13F5708860058088700463187
:100206000130C03F0030C13F5708860058088700BC
:1002160048310130C03F0030C13F570886005808BA
:1002260087004A310130C03F0030C13F0800560800
:100236000B3A0319B928F42808009A3105228031AF
:100246002000D4005408D600812A57088600580892
:100256008700443116000104031D4129210034089A
:100266003504031D3D293208FF3EB400FF30333DFF
:10027600B50041290130B4020030B53B20005808D2
:10028600CD005708CC009F319E27803120005708AB
:100296008600580887004431013081074131031830
:1002A600810A570886005808870046310030C03F4B
:1002B600C13F570886005808870048310030C03FC4
:1002C600C13F57088600580887004A310030C03FB2
:1002D600C13F57088600580887004C310030C03FA0
:1002E600C13F0800570886005808870046311600A7
:1002F6000104031D9D2921003208FF3E2000D40081
:10030600FF302100333D2000D500210035082000B4
:100316005506031D92292100340820005406031DAA
:1003260098292100B401B5019D2901302100B407A7
:100336000030B53D20005808CD005708CC009F314D
:100346009E278031200057088600580887004431D0
:100356000030C03FC13F5708860058088700463125
:100366000130810741310318810A57088600580871
:10037600870048310030C03FC13F57088600580803
:1003860087004A310030C03FC13F570886005808F1
:1003960087004C310030C03FC13F08005708860037
:1003A60058088700483116000104031DE62958083D
:1003B600BA005708B9008831042080310230210084
:1003C600B6000030B700200057088600580887009E
:1003D60044310030C03FC13F5708860058088700A7
:1003E60046310030C03FC13F570886005808870095
:1003F60048310130810741310318810A57088600C8
:10040600580887004A310030C03FC13F5708860070
:10041600580887004C310030C03FC13F08005708DC
:100426008600580887004A3116000104031D222A57
:100436005808BC005708BB009B313E238031200082
:10044600570886005808870044310030C03FC13F36
:10045600570886005808870046310030C03FC13F24
:10046600570886005808870048310030C03FC13F12
:1004760057088600580887004A3101308107413104
:100486000318810A57088600580887004C31003047
:10049600C03FC13F08005808CD005708CC009F3127
:1004A6009E2780312000570886005808870044316F
:1004B6000030C03FC13F57088600580887004631C4
:1004C6000030C03FC13F57088600580887004831B2
:1004D6000030C03FC13F57088600580887004A31A0
:1004E6000030C03FC13F57088600580887004C318E
:1004F6000130810741310318810A08005608013A84
:1005060003192829033A03197529063A0319D1292B
:100516000C3A0319122A033A03194E2A4E2A0800E6
:1005260020005308D8005208D700033021003606B1
:10053600370403199B2B20005708860058088700AC
:1005460043310130C03F0030C13F5708860058088C
:10055600870045310130C03F0030C13F5708860053
:100566005808870047310130C03F0030C13F570867
:1005760086005808870049310130C03F0030C13F2E
:100586000800FC013A30BA00A830BB0057088600C4
:10059600580887004131403FBC00413FBD009331C0
:1005A600502382314B302000A0000030A1005708B4
:1005B6008600580887004131403FA200413FA30012
:1005C6009931A9218231200020082104031DF52A32
:1005D600A731E7278231210060087104A000610875
:1005E6007204A10020005708860058088700413190
:1005F6001600773AD4001600013AD404031D652B81
:1006060057080D3ED4000030583DD50054088600EA
:100616005508870002308100570886005808870071
:1006260041310030C03FC13FAF2B3C30BA00A8304B
:10063600BB0057088600580887004131403FBC0080
:10064600413FBD009331502382314B302000A00042
:100656000030A10057088600580887004131403F06
:10066600A200413FA3009931A92182312000200830
:100676002104031D482B99315A218231210060083B
:100686007104A00061087204A100200057088600CA
:100696005808870041311600773AD4001600013A0F
:1006A600D404031D652B57088600580887004D3172
:1006B6008101570886005808870041310030C03F45
:1006C600C13FAF2B570886005808870041310130DB
:1006D600810741310318810AAF2BFC017E30BA0035
:1006E600A830BB0057088600580887004131403FB4
:1006F600BC00413FBD009331502382318731ED2745
:100706008231AF2BFC01FC0A7930BA00A830BB005D
:1007160057088600580887004131403FBC00413FDA
:10072600BD00933150238231983147208231AF2B5F
:10073600200057088600580887004D310108003A06
:100746000319852B013A0319182B033A0319702B49
:10075600013A0319C42AAF2B210021082000AE005C
:10076600210020082000AD005708860058088700A1
:100776000108A631E52682319A3105228231200010
:10078600D4005408D600542C5808BA005708B900AB
:100796009C3178242100B601B701080020005708D3
:1007A600860058088700493116000104031DFE2BF8
:1007B600570886005808870041310030C03FC13FC6
:1007C6007C080319F22B57080D3ED4000030583D23
:1007D600D50054088600550887000330FD2B5708BE
:1007E6000D3ED4000030583DD5005408860055080B
:1007F600870001308100570886005808870043317A
:100806000030C03FC13F5708860058088700453171
:100816000030C03FC13F570886005808870047315F
:100826000030C03FC13F570886005808870049314D
:100836000130810741310318810A5708860058089C
:1008460087004B310030C03FC13F08005708860083
:100856005808870043310030C03FC13F5708860023
:100866005808870045310030C03FC13F5708860011
:100876005808870047310030C03FC13F57088600FF
:100886005808870049310030C03FC13F57088600ED
:10089600580887004B310130810741310318810A1E
:1008A60008005608043A0319C72B0C3A0319D12B32
:1008B600292C080020005308D9005208D800D60178
:1008C6009A31052284312000D4005408D700FD2D2A
:1008D6005808860059088700423116000104031D96
:1008E600852C580886005908870042312C30C03FB5
:1008F6000130C13F5908F8005808F700F901953151
:100906005B25843120005808860059088700443149
:100916000030C03FC13F580886005908870046315D
:100926000030C03FC13F580886005908870048314B
:100936000030C03FC13F58088600590887004A3139
:100946000030C03FC13F58088600590887004C3127
:100956000130810741310318810A58088600590879
:10096600870042310130810241310030813B7F31C5
:100976000F2E5808860059088700443116000104D6
:10098600031DD42C5908F8005808F7005708D4005E
:100996005408F90095315B2584312000D5005508AF
:1009A600D60058088600590887004431013081076F
:1009B60041310318810A58088600590887004631D4
:1009C6000030C03FC13F58088600590887004831AB
:1009D6000030C03FC13F58088600590887004A3199
:1009E6000030C03FC13F58088600590887004C3187
:1009F6000030C03FC13F5808860059088700423181
:100A06002C30C03F0130C13F0F2E580886005908D0
:100A16008700463116000104031D202D5908F800F1
:100A26005808F7005708D4005408F90095315B259B
:100A360084312000D5005508D6005808860059088C
:100A4600870044310030C03FC13F5808860059082E
:100A5600870046310130810741310318810A580861
:100A660086005908870048310030C03FC13F58080A
:100A76008600590887004A310030C03FC13F5808F8
:100A86008600590887004C310030C03FC13F5808E6
:100A960086005908870042312C30C03F0130C13FE3
:100AA6000F2E5808860059088700483116000104A1
:100AB600031D6C2D5908F8005808F7005708D40094
:100AC6005408F90095315B2584312000D50055087E
:100AD600D600580886005908870044310030C03FC8
:100AE600C13F580886005908870046310030C03F8C
:100AF600C13F5808860059088700483101308107F0
:100B060041310318810A58088600590887004A317E
:100B16000030C03FC13F58088600590887004C3155
:100B26000030C03FC13F580886005908870042314F
:100B36002C30C03F0130C13F0F2E5808860059089F
:100B460087004A3116000104031DB82D5908F80024
:100B56005808F7005708D4005408F90095315B256A
:100B660084312000D5005508D6005808860059085B
:100B7600870044310030C03FC13F580886005908FD
:100B8600870046310030C03FC13F580886005908EB
:100B9600870048310030C03FC13F580886005908D9
:100BA60087004A310130810741310318810A58080C
:100BB6008600590887004C310030C03FC13F5808B5
:100BC60086005908870042312C30C03F0130C13FB2
:100BD6000F2E5908F8005808F700F90195315B25E2
:100BE600843120005908F2005808F1009A31682231
:100BF60084310F2E20005708003A03196B2C013A56
:100C06000319BC2C033A0319082D063A0319542D6F
:100C16000C3A0319A02DEC2D2000560803190800E4
:100C26005908F2005808F1009A316822080020009D
:100C3600B1002630A8002808AC0020002508A9002D
:100C46002408A800A40A0319A50A2808840029086C
:100C560085000008AA002A08B40034080319652F85
:100C6600253034060319432E3408A80031088600BF
:100C76008701280881000130A8002808B107202E26
:100C8600B201B301AE0124088400250885000008DE
:100C9600A631F2268631031C812E2000B201B30153
:100CA6000A30F1000030F20020003308F400320868
:100CB600F30098312C20863172082000B3007108A9
:100CC600B20024088400250885000008D03EA8004C
:100CD600FF3003180030A9002808B2072908B33DE1
:100CE6000130A4070030A53D2408840025088500AE
:100CF6000008A631F22686310318532E2000250857
:100D0600A9002408A800A40A0319A50A2808840033
:100D1600290885000008B400003A0319652F643AD3
:100D26000319992E0D3A0319992E202E20002C080E
:100D360086008701403FAF00413FB0000230A80067
:100D46002808AC07B01FB02E0330A8002808AE0450
:100D5600AF09B009AF0A0319B00AB401B40A0530E5
:100D660034060319D52E3408A800A901A835A90D03
:100D7600003028078400A030293D8500003FAA00E6
:100D8600013FAB002B083002031DCB2E2A082F0291
:100D9600031CD52E0130A8002808B40705303406F8
:100DA600031DB62E320833040319E12E2E0803392B
:100DB6000319E12EFF30B207FF30B33D3408A80017
:100DC600A901A81BA9032908803AAA003308803A7A
:100DD6002A02031DF02E320828020318FD2E2000D9
:100DE6003408A800A901A81BA9032808B2022908EB
:100DF600B33B002F2000B201B301320833040319BC
:100E0600172F2030A80031088600870128088100A6
:100E16000130A8002808B107FF30B207FF30B33D04
:100E260032083304031D042F2E0803390319262F15
:100E36002D30A8003108860087012808810001307E
:100E4600A8002808B1073408A8002808AD00FF301C
:100E5600A8002808AD072D0A0319202E0A30A00085
:100E66000030A1002D08A800A901A835A90D003061
:100E760028078400A030293D8500003FF100013F8E
:100E8600F2003008F4002F08F3009A319A228631D6
:100E960072082000A3007108A2009931A9218631A9
:100EA60020002008303EAA002A08B4003408A80012
:100EB600310886008701280881000130A80028082B
:100EC600B1072A2F2000310886008701810108001A
:100ED6002000C500C601103046020318E02F450861
:100EE600203E860002308700403FBF00413FC000E1
:100EF6000130C1000030C200460A832FC135C20D41
:100F0600890B812F3F084105C30040084205C400F4
:100F160043084404031DD82F46354507BF003F0844
:100F26008600023087003D08C03F3E08C13F0130C1
:100F3600BF000030C000460AA22FBF35C00D890B86
:100F4600A02F4508203E8600023087003F08810416
:100F56004131400881043D0886003E08870044313F
:100F6600160001040319CA2F3D0886003E088700B3
:100F76004231403FB900413FBA003D0886003E0875
:100F860087004431413F8A00403F0A0087312000F4
:100F96003D080C3EBF0000303E3DC0003F088600C5
:100FA600400887004608810008000130BF003F085E
:100FB600C60710304602031C722F3D080C3EBF00C8
:100FC60000303E3DC0003F08860040088700FF30E5
:100FD600810008002100A201A3012235B43E86004B
:100FE60001308700403FF100413FF2006008710484
:100FF600A00061087204A1000800163021009700C5
:1010060008002000390886003A088700423132304D
:10101600C03F0030C13F390886003A088700443196
:101026000030C03FC13F390886003A088700463184
:101036000030C03FC13F390886003A088700483172
:101046000030C03FC13F390886003A0887004A3160
:101056000030C03FC13F390886003A0887004C314E
:101066000030C03FC13F2100B401B501200039085E
:1010760086003A0887000108A6312126883120001B
:10108600390886003A0887000108A6311B260800A1
:1010960020005308DF005208DE0002302100360629
:1010A60037040319F82820005E0886005F088700C9
:1010B6004A310130C03F0030C13F5E0886005F08FC
:1010C60087004C310130C03F0030C13F5E088600CA
:1010D6005F0887004E310130C03F0030C13F5E08D7
:1010E60086005F08870050310130C03F0030C13FA5
:1010F6005E0886005F08870052310130C03F00302D
:10110600C13F5E0886005F08870054310130C03F4A
:101116000030C13F5E0886005F0887005631013007
:10112600C03F0030C13F08002100DA01DB0120008A
:101136005E0886005F08870044310030C03FC13F2B
:101146005E08063ED40000305F3DD5005408860098
:1011560055088700053081005E0886005F08870015
:101166004A310130C03F0030C13F5E0886005F084B
:1011760087004C310130C03F0030C13F5E08860019
:101186005F0887004E310130C03F0030C13F5E0826
:1011960086005F08870050310130C03F0030C13FF4
:1011A6005E0886005F08870052310130C03F00307C
:1011B600C13F5E0886005F08870054310130C03F9A
:1011C6000030C13F5E0886005F0887005631013057
:1011D600C03F0030C13F5E0886005F0887005C3173
:1011E6000130C03F0030C13F080021005B08003AD3
:1011F6000319FE28DA295A08003A0319DA29013AAE
:1012060003199728DA29DA2920005E0886005F0884
:101216008700413116000104031DCE292100310843
:101226002000B100210030082000B0009C31372496
:10123600883101302100B0070030B13D20005E0842
:1012460086005F08870041312330C03F0030C13F30
:10125600712A5E0886005F08870041311600010486
:10126600031DCE29210031082000B10021003008DD
:101276002000B0009B31F623883101302100B007F1
:101286000030B13D20005E0886005F0887004131CE
:101296000530C03F0030C13F712A5E0886005F08F6
:1012A6008700413116000104031DCD29A7313C27D3
:1012B600883120005E0886005F08870041312100E2
:1012C6002C08C03F2D08C13F712A5E0886005F08C2
:1012D6008700413116000104031DCD290430210089
:1012E60031063004031D7B293035B000310DB100C5
:1012F60031082000B100210030082000B000A631DE
:1013060040268831210030083104031D8F29013021
:10131600B0000030B100712A3035B000310DB10097
:1013260020005E0886005F088700413121002C08F6
:10133600C03F2D08C13F712A5E0886005F088700FE
:10134600413116000104031DCD292100310820007A
:10135600B100210030082000B000A7319127883164
:1013660001302100B0070030B13DFF303102FB30C3
:1013760003193002031CC129B001B10120005E0827
:1013860086005F088700413121002C08C03F2D08E8
:10139600C13F712A20005E0886005F088700413140
:1013A6000130810241310030813B7F31712A2000BA
:1013B6005E0886005F088700433101088400053017
:1013C60004020318712AA0310435933E8200712A63
:1013D6008330B700A830B8005E0886005F08870033
:1013E6000108A6315D26883120005E0886005F0868
:1013F60087000108A63115268831652A9C30A4008D
:10140600A830A500210029082000A70021002808EF
:101416002000A600563086311A2688315630200024
:10142600B7000030B8005E0886005F088700010834
:10143600A6315D26883120005E0886005F08870099
:101446000108A6311526883120005E0886005F084F
:10145600870044311600963AD4001600D404031DC2
:10146600662A5E0886005F08870044310030C03F68
:10147600C13F5E08063ED40000305F3DD5005408EB
:1014860086005508870023308100662A21006308FC
:101496002000BB00210062082000BA005E0886001A
:1014A6005F0887004431403FBC00413FBD00933197
:1014B60050238831652A5F08CD005E08CC009F3135
:1014C6003F27883120005E0886005F088700443188
:1014D6000130810741310318810A852A20005E0800
:1014E60086005F08870046310108003A03195E2A24
:1014F600023A0319EB29013A0319012A063A03199C
:10150600492A5E2A9A31052288312000D400D50165
:101516005408DC005508DD00362F5E0886005F089B
:101526008700523116000104031D9F2A5E088600BB
:101536005F088700463181015E0886005F088700E4
:101546004A310030C03FC13F5E0886005F08870011
:101556004C310030C03FC13F5E0886005F088700FF
:101566004E310030C03FC13F5E0886005F088700ED
:1015760050310030C03FC13F5E0886005F088700DB
:1015860052310130810741310318810A5E08860015
:101596005F08870054310030C03FC13F5E088600B7
:1015A6005F08870056310030C03FC13F5E088600A5
:1015B6005F08870058310030C03FC13F5E08860093
:1015C6005F0887005A310030C03FC13F5E08860081
:1015D6005F0887005C310030C03FC13FC92F5E08FD
:1015E60086005F088700543116000104031D0B2B8B
:1015F600033021002D02E93003192C02031C072BAE
:10160600E830AC000330AD000530AC070030AD3D2E
:1016160020005E0886005F0887004A310030C03F20
:10162600C13F5E0886005F0887004C310030C03F2E
:10163600C13F5E0886005F0887004E310030C03F1C
:10164600C13F5E0886005F08870050310030C03F0A
:10165600C13F5E0886005F08870052310030C03FF8
:10166600C13F5E0886005F0887005431013081075C
:1016760041310318810A5E0886005F0887005631EB
:101686000030C03FC13F5E0886005F0887005831C2
:101696000030C03FC13F5E0886005F0887005A31B0
:1016A6000030C03FC13F5E0886005F0887005C319E
:1016B6000030C03FC13FC92F5E0886005F08870023
:1016C600563116000104031D782B003021002D022F
:1016D600053003192C020318742B0530AC000030BA
:1016E600AD000530AC020030AD3B20005E08860040
:1016F6005F0887004A310030C03FC13F5E08860060
:101706005F0887004C310030C03FC13F5E0886004D
:101716005F0887004E310130810741310318810A85
:101726005E0886005F08870050310030C03FC13F29
:101736005E0886005F08870052310030C03FC13F17
:101746005E0886005F08870054310030C03FC13F05
:101756005E0886005F0887005631013081074131F7
:101766000318810A5E0886005F088700583100303A
:10177600C03FC13F5E0886005F0887005A310030CF
:10178600C03FC13F5E0886005F0887005C310030BD
:10179600C03FC13FC92F5E0886005F0887005A31E7
:1017A60016000104031DEB2B21002608270403194C
:1017B600EB2B00302B02973003192A02031CE72B70
:1017C6009630AA000030AB000230AA070030AB3DCD
:1017D60020005E0886005F0887004A310030C03F5F
:1017E600C13F5E0886005F0887004C3101308107E3
:1017F60041310318810A5E0886005F0887004E3172
:101806000030C03FC13F5E0886005F088700503148
:101816000130810741310318810A5E0886005F089E
:10182600870052310030C03FC13F5E0886005F0826
:10183600870054310030C03FC13F5E0886005F0814
:10184600870056310030C03FC13F5E0886005F0802
:10185600870058310030C03FC13F5E0886005F08F0
:1018660087005A310130810741310318810A5E0829
:1018760086005F0887005C310030C03FC13FC92F3A
:101886005E0886005F088700583116000104031DB4
:10189600602C2100260827040319602C00302B0237
:1018A600053003192A0203185C2C0530AA00003003
:1018B600AB000330AA020030AB3B20005E08860076
:1018C6005F0887004A310030C03FC13F5E0886008E
:1018D6005F0887004C310130810741310318810AC6
:1018E6005E0886005F0887004E310130810741316E
:1018F6000318810A5E0886005F08870050310030B1
:10190600C03FC13F5E0886005F0887005231003045
:10191600C03FC13F5E0886005F0887005431003033
:10192600C03FC13F5E0886005F0887005631003021
:10193600C03FC13F5E0886005F088700583101300E
:10194600810741310318810A5E0886005F08870017
:101956005A310030C03FC13F5E0886005F088700ED
:101966005C310030C03FC13FC92F5E0886005F086A
:101976008700503116000104031D0E2D5E088600F7
:101986005F088700473116000104031D0E2D003045
:10199600AD00AE005E0886005F0887000108A6312C
:1019A600E526883120005E0886005F0887004431FE
:1019B6000030C03FC13F5E0886005F0887004731A0
:1019C6006430C03F0030C13F5E0886005F08870074
:1019D60041310530C03F0030C13F5E08033ED400B0
:1019E60000305F3DD5005408860055088700013059
:1019F60081005E08063ED40000305F3DD5005408E5
:101A0600860055088700023081005E0886005F0860
:101A16008700493181015E0886005F0887004A31E8
:101A26000030C03FC13F5E0886005F0887004C312A
:101A36000030C03FC13F5E0886005F0887004E3118
:101A46000030C03FC13F5E0886005F088700503106
:101A56000130810741310318810A5E0886005F085C
:101A6600870052310030C03FC13F5E0886005F08E4
:101A7600870054310030C03FC13F5E0886005F08D2
:101A8600870056310030C03FC13F5E0886005F08C0
:101A9600870058310030C03FC13F5E0886005F08AE
:101AA60087005A310030C03FC13F5E0886005F089C
:101AB60087005C310030C03FC13FC92F5E088600F9
:101AC6005F0887004C3116000104031D8F2D5E0848
:101AD60086005F0887004631810121002408FF3E09
:101AE6002000D400FF302100253D2000D500210034
:101AF600270820005506031D842D210026082000F6
:101B06005406031D8A2D2100A601A7018F2D013041
:101B16002100A6070030A73D20005E0886005F086A
:101B260087004A310030C03FC13F5E0886005F082B
:101B360087004C310130810741310318810A5E0864
:101B460086005F0887004E310030C03FC13F5E0807
:101B560086005F08870050310030C03FC13F5E08F5
:101B660086005F08870052310030C03FC13F5E08E3
:101B760086005F08870054310030C03FC13F5E08D1
:101B860086005F08870056310030C03FC13F5E08BF
:101B960086005F08870058310030C03FC13F5E08AD
:101BA60086005F0887005A310030C03FC13F5E089B
:101BB60086005F0887005C310030C03FC13FC92FF7
:101BC6005E0886005F0887004A3116000104031D7F
:101BD6003E2E003021002F02043003192E02031C72
:101BE600F62DAE01AF012E082F04031D072E20008F
:101BF6005E08033ED40000305F3DD50054088600E1
:101C0600550887000430810021002E032F04031D90
:101C1600192E20005E08033ED40000305F3DD5003B
:101C260054088600550887000230810002302100E2
:101C36002E062F04031D2C2E20005E08033ED40022
:101C460000305F3DD50054088600550887000330F4
:101C56008100033021002E062F04031D392E20009B
:101C66005E0886005F08870043318101013021004C
:101C7600AE070030AF3D20005E0886005F08870093
:101C86004A310130810741310318810A5E08860016
:101C96005F0887004C310030C03FC13F5E088600B8
:101CA6005F0887004E310030C03FC13F5E088600A6
:101CB6005F08870050310030C03FC13F5E08860094
:101CC6005F08870052310030C03FC13F5E08860082
:101CD6005F08870054310030C03FC13F5E08860070
:101CE6005F08870056310030C03FC13F5E0886005E
:101CF6005F08870058310030C03FC13F5E0886004C
:101D06005F0887005A310030C03FC13F5E08860039
:101D16005F0887005C310030C03FC13FC92F5E08B5
:101D260086005F0887004A310030C03FC13F5E0829
:101D360086005F0887004C310030C03FC13F5E0817
:101D460086005F0887004E310030C03FC13F5E0805
:101D560086005F08870050310030C03FC13F5E08F3
:101D660086005F08870052310030C03FC13F5E08E1
:101D760086005F08870054310030C03FC13F5E08CF
:101D860086005F08870056310030C03FC13F5E08BD
:101D960086005F08870058310030C03FC13F5E08AB
:101DA60086005F0887005A310030C03FC13F5E0899
:101DB60086005F0887005C310130810741310318D6
:101DC600810AC92F5E0886005F0887004A31003005
:101DD600C03FC13F5E0886005F0887004C31003077
:101DE600C03FC13F5E0886005F0887004E31003065
:101DF600C03FC13F5E0886005F0887005031003053
:101E0600C03FC13F5E0886005F0887005231003040
:101E1600C03FC13F5E0886005F088700543100302E
:101E2600C03FC13F5E0886005F088700563100301C
:101E3600C03FC13F5E0886005F088700583100300A
:101E4600C03FC13F5E0886005F0887005A310030F8
:101E5600C03FC13F5E0886005F0887005C310030E6
:101E6600C03FC13FC92F5D08003A03193B2FE52E3D
:101E76005C08003A0319922E013A0319E32D033A3E
:101E86000319612D073A03195F2B033A0319432CF3
:101E96000E3A0319B82C013A0319F22A033A031928
:101EA600CE2B063A0319902AE52EC92F5E08860026
:101EB6005F08870047311600643AD4001600D40440
:101EC600031D702F5E0886005F0887000108A73192
:101ED6000E278831A6310126883120005E0886004B
:101EE6005F08870047311600633AD4001600D40411
:101EF600031D892FA531FE25883120005E08860046
:101F06005F0887000108A6319D26883120005E08FB
:101F160086005F088700473116000104031DBD2FA8
:101F26005E0886005F08870044310030C03FC13F2D
:101F36005E0886005F08870041310530C03F0030EB
:101F4600C13F5E0886005F088700433181015E0855
:101F560086005F088700463181015E08093ED4008D
:101F660000305F3DD50054088600550887000130D3
:101F76008100D62F5E0886005F0887004731013052
:101F8600810241310030813B7F31D62F5E088600C9
:101F96005F08870049310108003A0319592F013AB1
:101FA6000319D62FD62FA63104268831003A0319F5
:101FB600080020005E0886005F0887004931010896
:101FC600031908005E0886005F0887004431003068
:101FD600C03FC13F01302100A8070030A93D2000C5
:101FE6005E08063ED40000305F3DD50054088600EA
:101FF600550887000330810008000034003400349F
:10200600003400340034003400340034003400342A
:10201600003400340034003400340034003400341A
:10202600003400340034003400340034003400340A
:1020360000340034003401340034013400340134F7
:1020460000340134003401340034013400340234E5
:1020560000340234003402340034033400340334D0
:1020660000340334003404340034043400340434BB
:1020760000340534003405340034063400340634A4
:10208600003407340034073400340834003408348C
:10209600003409340034093400340A3400340B3473
:1020A60000340B3400340C3400340D3400340E3458
:1020B60000340E3400340F3400341034003411343C
:1020C600003412340034133400341334003414341E
:1020D60000341534003416340034173400341934FF
:1020E60000341A3400341B3400341C3400341D34DC
:1020F60000341E34003420340034213400342234B9
:102106000034233400342534003426340034283493
:102116000034293400342A3400342C3400342E346C
:1021260000342F3400343134003432340034343443
:1021360000343634003437340034393400343B3418
:1021460000343D3400343F340034413400344234EA
:1021560000344434003446340034483400344B34BC
:1021660000344D3400344F34003451340034533489
:10217600003455340034583400345A3400345C3456
:1021860000345F340034613400346434003466341F
:102196000034693400346B3400346E3400347034E7
:1021A60000347334003476340034793400347B34AC
:1021B60000347E340034813400348434003487346F
:1021C60000348A3400348D3400349034003493342F
:1021D6000034963400349A3400349D340034A034EC
:1021E6000034A3340034A7340034AA340034AE34A7
:1021F6000034B1340034B5340034B8340034BC345F
:102206000034BF340034C3340034C7340034CA3415
:102216000034CE340034D2340034D6340034DA34C8
:102226000034DE340034E2340034E6340034EA3478
:102236000034EE340034F3340034F7340034FB3425
:102246000034FF34003404340134083401340D34CE
:10225600013411340134163401341A3401341F3474
:10226600013424340134283401342D340134323419
:102276000134373401343C340134413401344634BA
:1022860001344B34013450340134553401345A345A
:1022960001345F340134653401346A3401346F34F7
:1022A6000134753401347A3401348034013486348F
:1022B60001348B34013491340134973401349C3425
:1022C6000134A2340134A8340134AE340134B434B8
:1022D6000134BA340134C0340134C6340134CC3448
:1022E6000134D2340134D9340134DF340134E534D5
:1022F6000134EC340134F2340134F9340134FF345E
:102306000134063402340D340234133402341A34E0
:10231600023421340234283402342F340234363461
:1023260002343D340234443402344B3402345234E1
:1023360002345A340234613402346834023470345C
:102346000234773402347F340234863402348E34D5
:102356000234953402349D340234A5340234AD344B
:102366000234B5340234BD340234C5340234CD34BB
:102376000234D5340234DD340234E5340234ED342B
:102386000234F6340234FE340234063403340F3495
:1023960003341834033420340334293403343134F9
:1023A60003343A340334433403344C34033455345D
:1023B60003345E34033467340334703403347934BD
:1023C6000334823403348C340334953403349E341A
:1023D6000334A8340334B1340334BB340334C53472
:1023E6000334CE340334D8340334E2340334EC34C7
:0A23F6000334F6340334FF340334DB
:102404007208F4007108F300F436F30CF436F30C9C
:1024140073082C009B0071080339F3000530F33571
:10242400FF3E031D112A73359A00080020003A0864
:10243400BC003908BB003B0886003C088700010843
:10244400A7311D27923120003B0886003C088700F5
:102454000108A6312126923120003B0886003C0861
:1024640087000108A6312F26923120003B08860000
:102474003C0887000108A6311B26923120003B0846
:1024840086003C08870042313230C03F0030C13FF3
:102494003B0886003C08870044310030C03FC13F00
:1024A4003B0886003C08870046310030C03FC13FEE
:1024B4003B0886003C08870048310030C03FC13FDC
:1024C4003B0886003C0887004A310030C03FC13FCA
:1024D4003B0886003C0887004C310030C03FC13FB8
:1024E4002100B401B5010430B2000030B30008008B
:1024F40020003A08BC003908BB003B0886003C08B1
:1025040087000108A7311D27923120003B0886006F
:102514003C0887000108A6312126923120003B089F
:1025240086003C0887000108A6312F26923120003E
:102534003B0886003C0887000108A6311B2692311F
:1025440098314720923120003B0886003C088700E0
:102554004D3181013B0886003C0887004131003041
:10256400C03FC13F3B0886003C0887004331003030
:10257400C03FC13F3B0886003C088700453100301E
:10258400C03FC13F3B0886003C088700473100300C
:10259400C03FC13F3B0886003C08870049310030FA
:1025A400C03FC13F3B0886003C0887004B310030E8
:1025B400C03FC13F080020003B08F2003A08F10088
:1025C4009831BA20923172082000C9007108C800FD
:1025D4006630860001308700413084000030850079
:1025E4000530C00016001A00C00BF42A4908A100E7
:1025F4004808A0003F08F2003E08F1003D08F4003E
:102604003C08F3009A319A22923172082000A30008
:102614007108A2009931A921923120002108C70034
:102624002008C600CA01CB0100304B020430031954
:102634004A020318442B4908A1004808A0004A088C
:102644004607A2004B08473DA3009931A9219231C6
:1026540020003A08200784003B08213D850000083B
:10266400C0004A08413E86008701400881000130CD
:10267400CA070030CB3D00304B02043003194A0234
:10268400031C1D2B4130B7000030B8002030A631A8
:102694005D2692312030A631152608003230200004
:1026A400C4000030C5003B08F2003A08F10098313C
:1026B400BA20933172082000C9007108C800613043
:1026C4008600013087003F308400003085000530EB
:1026D400BE0016001A00BE0B6B2B4908A100480867
:1026E400A0004508F2004408F1003D08F4003C084D
:1026F400F3009A319A22933172082000A3007108E2
:10270400A2009931A921933120002108C700200893
:10271400C600CA01CB0100304B02043003194A023F
:102724000318BB2B4908A1004808A0004A08460723
:10273400A2004B08473DA3009931A9219331200001
:102744003A08200784003B08213D85000008BE00AC
:102754004A083F3E860087013E0881000130CA07CF
:102764000030CB3D00304B02043003194A02031CF5
:10277400942B3F30B7000030B8002030A6315D26DE
:1027840093312030A631152608002000EE00EF0119
:1027940010306F02031808006E08203E86000230D5
:1027A4008700403FE200413FE3000130E400003095
:1027B400E5006F0ADF2BE435E50D890BDD2B62089C
:1027C4006405E60063086505E70066086704031905
:1027D4003D2C98316220933172082000E900710881
:1027E400E8006F356E07E200620886000230870059
:1027F400403FE300413FE40063088600640887002B
:10280400403FEA00413FEB006A09E2006B09E30044
:10281400E20A0319E30A68086207EC006908633DE9
:10282400ED006F356E07E200620886000230870013
:10283400403FE300413FE4006308860064088700EA
:102844004A31403FE500413FE60066086D02031D42
:102854002D2C65086C02031C3D2C6F356E07E200BD
:102864006208860002308700403FE000413FE100FB
:102874009831F620933101302000E2006208EF071E
:10288400CA2B20005308D7005208D6002100360373
:1028940037040319782C9A3105222000D4005408F7
:1028A400D500560886005708870044310130C03FE0
:1028B4000030C13F56088600570887004631013072
:1028C400C03F0030C13F5608860057088700483192
:1028D4000130C03F0030C13F5608860057088700CA
:1028E4004A310130C03F0030C13F08009A3105220F
:1028F40094312000D4005408D5007430BA00A830B4
:10290400BB0056088600570887004231403FBC0090
:10291400413FBD0093315023943120005608860076
:102924005708870042310130810741310318810A79
:10293400560886005708870044310030C03FC13F25
:10294400560886005708870046310030C03FC13F13
:10295400560886005708870048310030C03FC13F01
:1029640056088600570887004A310030C03FC13FEF
:1029740056088600570887004C31013081074131E1
:102984000318810A080020003A08BC003908BB007B
:102994003B0886003C0887000108A7311D279431B5
:1029A40020003B0886003C0887000108A631212648
:1029B400943120003B0886003C0887000108A631BA
:1029C4002F26943120003B0886003C08870001082C
:1029D400A6311B26943120003B0886003C08870062
:1029E40041312330C03F0030C13F3B0886003C08E2
:1029F400870044310030C03FC13F3B0886003C089B
:102A040087004A310030C03FC13F3B0886003C0884
:102A140087004C310030C03FC13F3B0886003C0872
:102A240087004E310030C03FC13F3B0886003C0860
:102A3400870050310030C03FC13F3B0886003C084E
:102A4400870052310030C03FC13F3B0886003C083C
:102A5400870054310030C03FC13F3B0886003C082A
:102A6400870056310030C03FC13F3B0886003C0818
:102A740087005C310030C03FC13F2100B001B1018B
:102A840020003B0886003C08870043318101210077
:102A9400A601A7010A30A4000030A5003230AC0022
:102AA4000030AD003230AA000030AB00AE01AF01FF
:102AB400080001302000A3000030A400A801A901EF
:102AC40024082902031D682D230828020318142E44
:102AD4001930A0002008F100280898310020953111
:102AE400CA3E2000A1002108A7001930A000200838
:102AF400F1002808983100209531143ECA3E860022
:102B040001308700010820002707A1002108860062
:102B14000130870001087906031DFD2D2708F10007
:102B24000130F2009831BA20953172082000A600D5
:102B34007108A5001930A0002008F1002808983178
:102B440000209531143ECA3E8600013087000130D2
:102B5400810741310318810A19302000A0002008A0
:102B6400F1002808983100209531143ECA3E8600B1
:102B740001308700403F2000A100413FA200260809
:102B84002206031DC72D25082106031D0E2E19300C
:102B9400A0002008F1002808983100209531143E47
:102BA400CA3E8600013087000030C03FC13F193063
:102BB4002000A0002008F100280898310020953159
:102BC400173ECA3E86000130870019302000A1005C
:102BD4002108F100280898310020163ECA3E8400DE
:102BE40001308500000884008501403F803F413F5B
:102BF400813F0130080019302000A0002008F100B6
:102C04002808983100209531143ECA3E86000130D0
:102C140087000030C03FC13F01302000A8070030CA
:102C2400A93D622D0030080020309E3135269631B2
:102C3400203098317F209631CD30F1000030F20001
:102C44009B3178239631C030F1000030F2009B3183
:102C5400782396314C30F1000130F2009B31782317
:102C640096313F30F1000130F2009B3178239631E8
:102C74003230F1000130F2009B317823963120305C
:102C84002100E60066082700A00020302100E600AD
:102C940066082400DE0020302100E60066082400D7
:102CA400D00020302100E60066082400C200203055
:102CB4002100E60066082500D800FC01FC0AA030CB
:102CC4002100CF000330D000C530D1001430D20031
:102CD4004B30D5000830D6000030D3000030D4008B
:102CE4000A30D7000030D8005E30C2000230C30082
:102CF4001830C4001230C500A730C8000030C90025
:102D04000030C6000030C7000A30CA000030CB00D3
:102D140050302200CE000230CF008A30D0001E3066
:102D2400D1004330D4001430D5000030D20000303C
:102D3400D3000A30D6000030D7004230C100023040
:102D4400C2007A30C3001230C4009330C70002308E
:102D5400C8000030C5000030C6000A30C900003089
:102D6400CA00D830B4000230B500E430B6001E30DA
:102D7400B7005D30BA000430BB000030B80000304A
:102D8400B9000A30BC000030BD002100DA01DB01CB
:102D94000230B6000030B700CD302000BD00003056
:102DA400BE00203087316B279631C0302000BD0033
:102DB4000030BE00203087316B2796314C30200024
:102DC400BD000130BE00203087316B2796313F3083
:102DD4002000BD000130BE00203087316B279631C2
:102DE40032302000BD000130BE00203087316B2717
:102DF400963120309331C7239631FB2E00340034B2
:102E0400003420341034103420340034103410349E
:102E1400A5342134A53460341034303400341234F1
:102E2400103408342034203485344534B1343034FB
:102E3400103410341034103410341034103410346E
:102E4400103410341034103410341034103410345E
:102E5400103410341034103410341034103410344E
:102E6400103410341034103410341034103410343E
:102E7400103410341034103410341034003400344E
:102E8400C03440340034443410341034B434353451
:102E9400103410341034103400340434083408343A
:102EA400023402341E341E341434143440340034D6
:102EB400103410344034003402340834A9346334F8
:102EC4008034403431347034B0346034903451340C
:102ED400B0343134B134313480346034B134713489
:102EE40090347134103410341034103408340834ED
:102EF40030341034023402341434E134A5347034E0
:102F040091347134B134113421342134B134503416
:102F14002134313401343134B134213491345134D5
:102F240024342434A1344034093419342134013490
:102F340081344B3489344334A134613411347134D1
:102F4400A934613419347134B03431340434243440
:102F5400A1344134033409348B3441340A340A34FF
:102F640004340A3422342834213421340834023419
:102F7400A03460340A340034203400341034103463
:102F840091347134B134113431341034B134503497
:102F94002134313401343134B13421349134513455
:102FA40024342434A1344034093419342134013410
:102FB40081344B3489344334A13461341134713451
:102FC400A934613419347134B034313404342434C0
:102FD400A1344134033409348B3441340A340A347F
:102FE40004340A34223428341034103404340434BD
:102FF4001034103410341034FF34FF34F400F3016F
:10300400741C08287108F2007208F3070310F10D0C
:103014000310F40C7408031D022873080800F70059
:103024007708F5007508F6000130F3020030F43B30
:10303400730A0319740A031908007108F500760865
:10304400860001308700750881000130F50075089D
:10305400F6071628F501F601711C34287308F507E4
:103064007408F63D0130F335F40D890B3528013031
:10307400F236F10C890B3A2871087204031D2E28CC
:103084007608F2007508F10008000630F3000030FD
:10309400F4007308FF3E2100A200FF30743DA3003A
:1030A4002235B43E860001308700403FF100413FA5
:1030B400F20060087104A00061087204A100080015
:1030C40020001508F3007308FA001608F3007308CB
:1030D400FB007A08F300F4017B08F500F60175089B
:1030E400F600F50173087507F8007408763DF900D9
:1030F4007908F2007808F1000800F2007208203E16
:103104008600023087000030C03FC13FF301103019
:1031140073020318080073357207F1007108860002
:10312400023087000030C03FC13F0130F100710818
:10313400F30789281030200097004D309800FF30A5
:103144009600FF30950016082100BB0020001508EA
:103154002100BA0020009012210090160330F100E3
:103164000030F200A63109269831A531F525080072
:103174007208F6007108F500750884007608850069
:1031840012000319CA280130F5070030F63DBE28A5
:103194007109F3007209F400F30A0319F40A7508BB
:1031A4007307F1007608743DF2000800FB007B0809
:1031B400053E86000130870020002B08C03F2C0804
:1031C400C13F7B08053E860001308700403FF10087
:1031D400413FF2007B08073EA7316D2798317B08F9
:1031E400073EA7315C2708002000600886006108BC
:1031F40087004231403FD200413FD300600886003F
:10320400610887004831413F8A00403F0A009931F4
:1032140098316220200060088600610887007108E8
:10322400C03F7208C13F08009D31E0259931A631A5
:1032340049269931883100209931A63127269931C0
:10324400A631B4269931A6317C269931A631872638
:103254009931A63192269931A63153269931A63156
:10326400A826993198319C2008002000AB002B0837
:10327400073EA7312C2799312030F1000030F200AD
:103284000430F3000030F40020002B0898311120A2
:1032940020002B08043E86000130870081012B08A2
:1032A400053E8600013087000030C03FC13F080062
:1032B4000630F5000030F60021002235B43E8600C9
:1032C40001308700403FF700413FF8007508FF3E9A
:1032D400F300FF30763DF40074082302031D7429C3
:1032E4007308220203187A290130A2070030A33D93
:1032F4007808F2007708F10008002000B500B60154
:103304003108B3003008B2003608320784003308AD
:103314000318330A85001200031908003108B300AA
:103324003008B20036083207840033080318330A21
:1033340085000008B4003408AA0035089D318E25A4
:10334400993101302000B2003208B60782292000EA
:10335400200821040319D129FA01FA0AA11BBC2966
:103364000130A035A10D890BB3290130F90079088A
:10337400FA07B02921082302031DC22920082202CA
:10338400031CC8292008A2022108A33B0130A1364E
:10339400A00C890BC9290130FA02031DBC2923089A
:1033A400A1002208A00008007208F3007308F900C5
:1033B4007108F3007308F800FA01FB0107307B027F
:1033C4000318F52979080139F3007308FA04031086
:1033D400F90C0310FA0D0130F3007308FB070730F2
:1033E4007B02031CE4297A08F300F4017808F50051
:1033F400F6017508F600F50173087504F100740808
:103404007604F20008000F30F1007108F300200088
:103414000E0E890C0139FF3AF1007108F3050C0C0A
:10342400890C01390907FF3AF1007108F3050C0E04
:103434000139F1000130F135FF3E031D1D2A7135BC
:10344400FF3AF2007208F3050C0E890C0139F10001
:103454000230F135FF3E031D2B2A7135FF3AF2008D
:103464007208F3057308080000302000A300003040
:10347400A2000030A1000030A000711C4A2A750887
:103484002000A0077608A13D7708A23D7808A33D57
:103494000130F535F60DF70DF80D890B4B2A013087
:1034A400F436F30CF20CF10C890B522A74087304F1
:1034B40072047104031D3F2A20002308F40022082B
:1034C400F3002108F2002008F100080071088600CA
:1034D4007208870042312C30C03F0130C13F71086F
:1034E40086007208870044310030C03FC13F710834
:1034F40086007208870046310030C03FC13F710822
:1035040086007208870048310030C03FC13F71080F
:103514008600720887004A310030C03FC13F7108FD
:103524008600720887004C310030C03FC13F08005C
:10353400F701F801710872040319C92AF601F60AA1
:10354400F21BAE2A0130F135F20D890BA52A0130A8
:10355400F5007508F607A22A0130F735F80D890B36
:10356400AF2A72087402031DB92A71087302031C7E
:10357400C02A7108F3027208F43B77140130F23662
:10358400F10C890BC12A0130F602031DAE2A78081A
:10359400F2007708F100080080340034C0340034AD
:1035A400E0340034F0340034F8340034FC340034B3
:1035B400FE340034FF340034FE340034FC34003470
:1035C400F8340034F0340034E0340034C0340034CF
:1035D40080340034803401348034033480340B3438
:1035E40080341B3480343B3480347B348034FB346B
:1035F40080347B3480343B3480341B3480340B344B
:103604008034033480340134803400344034003452
:1036140020340034103400340834003404340034CA
:1036240002340034013400340234003404340034ED
:10363400083400341034003420340034403400346E
:10364400803400340034013400340234003408344B
:1036540000341034003420340034403400348034D6
:10366400003440340034203400341034003408343E
:103674000034023400340134662B20003C08BA00C4
:103684003B08B9008831042001302100B600003025
:10369400B700080020003C08BA003B08B900883194
:1036A400042003302100B6000030B70008002000D9
:1036B4003C08BA003B08B9008831042002302100DC
:1036C400B6000030B700080021003508003A03199D
:1036D4006C2B772B3408013A03193F2B033A031957
:1036E4004C2B013A0319592B772B080071088600DB
:1036F400720887000030C03FC13F7108860072081D
:10370400870042310030C03FC13F71088600720813
:10371400870044310030C03FC13F71088600720801
:10372400870046310030C03FC13F710886007208EF
:10373400870048310030C03FC13F710886007208DD
:1037440087004A31FF30C03FFF30C13F71080C3E53
:10375400F3000030723DF40073088600740887009B
:10376400FF30810008002000A7002008A200A30168
:10377400A235A30DF030A4002630A50022082407AA
:1037840086002308253D8700403FA800413FA9004B
:10379400211CD72B2908F2002808F1009931D621E1
:1037A40072082000A9007108A8002135FF3A013EE3
:1037B400083EA2002208A6002908A200260827071E
:1037C400A30023088600013087002208810028080E
:1037D400A2002608013E2707A30023088600013023
:1037E40087002208810008000E302000B600003057
:1037F400B7003708A1003608A0003108A30030083C
:10380400A2009931A9219B312000200809073C3EE0
:10381400860003308700403FB400413FB5000E30BE
:10382400B6000030B7003708A1003608A000310800
:10383400A3003008A2009931A9219B31200020085F
:103844000907203E860003308700403FB200413F15
:10385400B3003208B4043308B5043508AE003408A4
:10386400AD002030A631E52608000E302000B60059
:103874000030B7003708A1003608A0003108A300C3
:103884003008A2009931A9219C31200020080907A1
:10389400BC3E860002308700403FB400413FB50083
:1038A4000E30B6000030B7003708A1003608A0007B
:1038B4003108A3003008A2009931A9219C312000CD
:1038C40020080907A03E860002308700403FB2006E
:1038D400413FB3003208B4043308B5043508AE00E0
:1038E4003408AD002030A631E52608002000390850
:1038F40086003A08870041310030C03FC13F390893
:1039040086003A08870043310030C03FC13F390880
:1039140086003A08870045310030C03FC13F39086E
:1039240086003A08870047310030C03FC13F39085C
:1039340086003A08870049310030C03FC13F39084A
:1039440086003A0887004B310030C03FC13F390838
:1039540086003A0887000108A63121269C31200000
:10396400390886003A0887000108A6311B2608009A
:1039740021005F08F4005E08F3005D08F2005C08B3
:10398400F1004130F800C630F7004E30F6006D30DB
:10399400F5009A3136229C3174082100DF00730847
:1039A400DE007208DD007108DC003930DC073030DD
:1039B400DD3D0030DE3D0030DF3D5C082000A60028
:1039C40021005D082000A70021005E082000A80057
:1039D40021005F082000A9001030AA00A937A80C14
:1039E400A70CA60CAA0BF02CFF302605A4007F30F0
:1039F4002705A50008008834A8345134A8345A3463
:103A0400A8346234A8341534A8340034A834773484
:103A1400A0345534A0343134A0340A34A0340034F2
:103A240000342034003460340034E0340034E034B2
:103A34000134E0340334003402340034013480347B
:103A4400003440340034203400340134013402346E
:103A540002340134023401340234043408340034AE
:103A640000340034003400340034003400340034B2
:103A7400003400340034DA3401340034F700F8013F
:103A84007208031908007708031D702D752D73083B
:103A9400031D582D78087707F40074088600013058
:103AA40087000108A63137269D316C2D78087707E9
:103AB400F40074088600013087000108A631372617
:103AC4009D31F50078087307F600760886008701B3
:103AD400750881000130F4007408F8077208780250
:103AE40003180800492D73080319080072087802A6
:103AF400031808000030A63137269D31F4007808F9
:103B04007307F50075088600870174088100013089
:103B1400F4007408F807782D2000AF002F0A8600FF
:103B2400013087000108AB002F08860001308700B0
:103B34002B0881002F08023E86000130870001080F
:103B4400AB002F0A8600013087002B0881002F0864
:103B5400033E8600013087000108AB002F08023EB7
:103B64008600013087002B0881002A08AB002F084B
:103B7400033E8600013087002B088100AE01AE01B0
:103B840004302E02031808002E082F07AB002B0860
:103B94008600013087000108AC002C08A0002E0824
:103BA400AD002D08A1002F08073E9B31B5239D31A0
:103BB40001302000AB002B08AE07C22D22008C017F
:103BC40080308D001A308E00373021008C00303068
:103BD4008D0060308E00403023008E008D01033054
:103BE4008C0024008D018C018E0125008C018D0137
:103BF4008E0100308B1B0130F1008B1355303C00DB
:103C04008F00AA308F000F103D002108E0390D38D5
:103C1400A1003C002108E0390C38A1002008E0395B
:103C24000E38A0003D002408E0390238A400200822
:103C3400E0390C38A0002308E0390338A3001E083B
:103C4400E03918389E002208E0391938A2005530AE
:103C54003C008F00AA308F000F14711C332E8B1779
:103C640008008B1308002000AC00993116219E3106
:103C7400A63149269E3198319C209E31A631532687
:103C84009E31A63192269E319D31E0259E31A6318A
:103C94007C269E31A63187269E31A631A8269E31E8
:103CA400A631B4269E31A63127269E318030F100FC
:103CB4000030F200A731A5279E3122008D17C030B5
:103CC400F1000030F200A731BB279E3100308400A0
:103CD40091308500003FF100013FF200A731D12768
:103CE4009E310030840091308500003FF100013F97
:103CF400F200923102229E3120002C0899313721A2
:103D040020002C08113E8600013087008101080044
:103D140020003A08BC003908BB003B0886003C0878
:103D240087000108A7311D279E3120003B0886002B
:103D34003C0887000108A63121269E3120003B085B
:103D440086003C0887000108A6312F269E312000FA
:103D54003B0886003C0887000108A6311B269E31DB
:103D640020003B0886003C08870042310030C03FF9
:103D7400C13F3B0886003C08870044310030C03F07
:103D8400C13F3B0886003C08870046310030C03FF5
:103D9400C13F3B0886003C08870048310030C03FE3
:103DA400C13F3B0886003C0887004A310030C03FD1
:103DB400C13F3B0886003C0887004C310030C03FBF
:103DC400C13F080020003A08BC003908BB003B088A
:103DD40086003C0887000108A7311D279E3120007A
:103DE4003B0886003C0887000108A63121269E3145
:103DF40020003B0886003C0887000108A6312F26D6
:103E04009E3120003B0886003C0887000108A6314B
:103E14001B269E3120003B0886003C088700423167
:103E24002C30C03F0130C13F3B0886003C0887006E
:103E340044310030C03FC13F3B0886003C08870046
:103E440046310030C03FC13F3B0886003C08870034
:103E540048310030C03FC13F3B0886003C08870022
:103E64004A310030C03FC13F3B0886003C08870010
:103E74004C310030C03FC13F080021002608270410
:103E8400031D5F2F2635A03E860001308700403F8A
:103E94002000B700413FB8004C0886004D08870059
:103EA4000108A6315D269F3120004C0886004D088C
:103EB40087000108A6311526080020004C0886005A
:103EC4004D08870046310108031D872F2100263540
:103ED400A03E860001308700403F2000BA00413FE9
:103EE400BB004C0886004D0887005C31403FBC0095
:103EF400413FBD0021002B082000BF0021002A08FB
:103F04002000BE009231DD22080021002635A03EAB
:103F1400860001308700403F2000BA00413FBB00CB
:103F24004C0886004D0887005C31403FBC00413F8F
:103F3400BD0093315023080005302000CE0000302E
:103F4400CF004F08A1004E08A00021003508200032
:103F5400A300210034082000A2009931A9219F3137
:103F6400200020080907C03E860001308700403F3A
:103F7400D000413FD1005108AE005008AD004C08BC
:103F840086004D0887000108A631E5269F312100EF
:103F940034083504031DE92F3435593E86000130B9
:103FA4008700403F2000B700413FB8004C0886001E
:103FB4004D0887000108A6315D269F3120004C087A
:103FC40086004D0887000108A63115260800210047
:103FD4003435593E860001308700403F2000BA0046
:103FE400413FBB004C0886004D0887004C31403FE0
:103FF400BC00413FBD00933150230800013400341C
:104004000A34003464340034E8340334103427347C
:104014004E346F347434683469346E346734203405
:1040240074346F3420347334653465342034683424
:10403400653472346534203420346D346F3476340E
:104044006534203461346C346F346E3467342E3408
:104054002E342E342034203420342034003461347F
:104064006C346C34203479346F34753472342034C5
:1040740062346134733465342034613472346534A9
:104084002034623465346C346F346E3467342034D5
:1040940074346F3420347534733420342034203431
:1040A4002034203400344934203461346D342034D5
:1040B40061342034623461346434673465342C34BC
:1040C400203461346E34643420347434683461349C
:1040D40074342734733420346934743420342034F1
:1040E40020342034203420340034483454345434BC
:1040F400503420343434313438342034493427347F
:104104006D34203461342034743465346134703453
:104114006F34743420342034203420342034203458
:1041240000348931072989312C2989315029893171
:06413400682989319F2972
:104BEA0020009717080020001F1508002800171535
:104BFA00080022008D17080022008D1308002000EB
:104C0A000D0E890C0139080072082100B9007108DB
:104C1A00B8000800FB007B08073EA7315C270800A4
:104C2A002000AB002B08A6310F2608002000B80090
:104C3A003808A7314C2708002000AB002B08A73101
:104C4A0000270800403024009400223095000130EB
:104C5A0092000800F1007108113E860001308700B9
:104C6A0001140800F1002400951371089100141C26
:104C7A003C2E1108080020003108AE003008AD00B3
:104C8A002030A631E5260800320099019B019D01DA
:104C9A0006309F009E011C180800502E013020008B
:104CAA009F004A309E009D019110A531F825080009
:104CBA002000B9003808B1003708B0003908993126
:104CCA007F21080001340034003400341F34F834E2
:104CDA002834A8348834A834210038083904031940
:104CEA00080039088A0038080A00A63108008F30FF
:104CFA00250093009201953091001F08FC39013874
:104D0A009F0008008F30250097009601E03095003B
:104D1A001F08F33904389F0008007B3028009700E9
:104D2A00FF309600950120009210A531FB2508005E
:104D3A00F200FB30F1007208113E86000130870054
:104D4A0071088105080090302C0099007F30980086
:104D5A00C03097001F08FC3902389F0008009030C5
:104D6A002C009C007F309B00C0309A001F08F3394A
:104D7A0008389F0008006400800101310130FE02FA
:104D8A000030FF3B7F087E0403190034C12EFE0069
:104D9A0012001E000130FE020030FF3B7F087E0435
:104DAA0003190034CD2E2000901221003B08200068
:104DBA00960021003A0820009500A63171260800C5
:104DCA002000AF007C08031D2E152E08AC002D080C
:104DDA00AB002F089831D8200800F200F1013A30D0
:104DEA0072020318FE2E30307202031CFE2EF101ED
:104DFA00F10A710C0800FB000030F100F2007B0898
:104E0A00073EA7316D27A7317B08073EA7315C27EC
:104E1A000800F1007108113E8600013087008118F0
:104E2A0008007108113E860001308700011508004C
:104E3A00F1007108113E8600013087000118080050
:104E4A007108113E86000130870081140800FB00BA
:104E5A000030F100F2000A30F3000030F4007B0861
:104E6A0098311120A7317B08A7315C2708009C31B3
:104E7A00BA24A73120002508B1002408B00031085F
:104E8A00AE003008AD002030A631E526080020002B
:104E9A00B7007230B000A030B100370899317F21D5
:104EAA00A73120003708073EA7315C2708002000F9
:104EBA00AA000A30F9007908F2002030FA007A08CC
:104ECA00F3002A089D31402522008E178E13080010
:104EDA00F4007208F3007408860001308700730832
:104EEA0081007108F300740A860001308700730894
:104EFA00810008008D34A8346E34A8344734A834AD
:104F0A006834A83420342034203420340034203447
:104F1A0020342034203400342000301C9C2F55309B
:104F2A00AD00A930AE002030A631E5260800AA302F
:104F3A002000AD005230AE002030A631E526080030
:104F4A00FF30F1050330F2052500131EB62F063097
:104F5A00F135F20D890BAD2F72089200710891009C
:104F6A00080072089200710891000800FF30F105EC
:104F7A000330F2052500171ECC2F0630F135F20D4D
:104F8A00890BC32F720896007108950008007208F1
:104F9A0096007108950008007208F4007108F30081
:104FAA00F436F30CF436F30C73082C0098007108ED
:104FBA000339F3000530F335FF3E031DE02F733547
:104FCA009700080021002235B43E86000130870090
:104FDA00403FF300413FF400220823040319F92F4C
:104FEA000130A2020030A33B73086004F100740888
:104FFA006104F2000800773469346C346C3420346C
:10500A004834413443344B34203466346F34723478
:10501A00203441342F3443342034203420340034B3
:10502A006834613463346B342034743468346534DE
:10503A00203450344C3441344E34453454342034C2
:10504A0020342034003405340734073408342D342E
:10505A002D34203420342D342D34093407340734C8
:10506A00063420340B342034003455344E344C3456
:10507A004F3443344B3449344E3447342E342E346F
:10508A002E340034503441345334533457344F346B
:10509A0052344434203400344E3455344C344C3475
:1050AA00493446345934203400344434453446347F
:1050BA0043344F344E342034003448344134583465
:1050CA00203420340034453458344934543420349C
:1050DA00003453344C344F345434203400342434A0
:1050EA0024342434203400344C344F3443344B3485
:1050FA0000344F34503445344E340034503445343F
:10510A005734203400344E3455344C344C34003443
:10511A004D3445344E345534003444344F345734C6
:10512A004E3400342034203455345034003425347D
:06513A003434643400343B
:020000040001F9
:08000E008CFFF3FFFFFFFFFF71
:00000001FF
