:10000000803116282F34B1347E14803120007F08CF
:10001000F0002100901E11282000901E1128AE3102
:10002000B02670082000FF007E10090080311828DB
:100030004930840086308500F03086002630870005
:100040000130FF0000309831002080317C30840086
:10005000A0308500C7308600003087000030FF00E8
:100060001C30983100208031220080310220803104
:10007000E100803103208031E200A2308400A13011
:100080008500A0308600013087000030FF00283056
:1000900098310020803100308400883085004A305B
:1000A0008600023087000030FF00193098310020B0
:1000B000803119308400A6308500A03086000230DF
:1000C00087000030FF0049309831002080315130E6
:1000D0008400A33085002030860003308700003084
:1000E000FF00383098310020803119308400A3306F
:1000F0008500A0308600033087000030FF003830D4
:1001000098310020803160308400A03085003E307E
:100110008600043087000030FF001C30983100203A
:100120008031FC01A0308400003085002730FE00C3
:100130000030FF00AE31A426803120308400013031
:1001400085004130FE000030FF00AE31A426803132
:10015000C8308400013085002430FE000030FF00EC
:10016000AE31A426803120308400023085002A3050
:10017000FE000030FF00AE31A42680312030840024
:10018000043085001E30FE000030FF00AE31A42692
:100190008031A0308400043085002830FE0000301B
:1001A000FF00AE31A4267E1020009D31682D200076
:1001B0005308E6005208E50021003803390403190A
:1001C0001029A231502280312000D4005408E400CC
:1001D00065088600660887005F310130C03F003047
:1001E000C13F6508213E86000030663D8700013032
:1001F000C03F0030C13F6508233E86000030663DA9
:1002000087000130C03F0030C13F6508253E8600B1
:100210000030663D87000130C03F0030C13F08001C
:10022000A231502280312000D4005408E400650837
:100230000B3EF1000030663DF2000030F300F400A8
:100240001430F5000030F600AF31CF2780312000A8
:1002500065088600660887004331403FD400413F6F
:10026000D500003055026430031954020318432AA4
:100270006608B3006508B200A53144258031B2306C
:10028000F1000230F200A031D3208031720820004A
:10029000AC007108AB00A531012580312000240895
:1002A000D400D5015408AD005508AE00A131F421A9
:1002B000803120002B08D6006508073ED7000030AB
:1002C000663DD80057088600580887005608810008
:1002D000B230F1000230F200A031D3208031720838
:1002E0002000AC007108AB00A53101258031200051
:1002F0002408D400D5015408AD005508AE00A13142
:10030000F421803120002B08D6006508083ED70074
:100310000030663DD8005708860058088700560808
:100320008100B230F1000230F200A031D3208031E0
:1003300072082000AC007108AB00A53101258031A6
:1003400020002408D400D5015408AD005508AE00A3
:10035000A131F421803120002B08D6006508093E28
:10036000D7000030663DD80057088600580887003F
:1003700056088100B230F1000230F200A031D320E3
:10038000803172082000AC007108AB00A531012556
:10039000803120002408D400D5015408AD00550850
:1003A000AE00A131F421803120002B08D600650871
:1003B0000A3ED7000030663DD8005708860058082E
:1003C00087005608810065080B3EAF000030663D8F
:1003D000B000A830B100B030B200650886006608F1
:1003E000870047310108B23E8600023087000108CD
:1003F000D400D5015408B3005508B4006508860040
:100400006608870048310108B23E86000230870046
:100410000108D600D7015608B5005708B600650890
:1004200086006608870049310108B23E8600023026
:1004300087000108D800D9015808B7005908B8004A
:1004400065088600660887004A310108B23E8600CA
:10045000023087000108DA00DB015A08B9005B08A6
:10046000BA0092315F228031200065080B3EBA004D
:100470000030663DBB000130BC000030BD009B3148
:10048000382380310F2E200065088600660887001B
:100490004331403FD400413FD50000305502C830C1
:1004A000031954020318382B6608B3006508B2001C
:1004B000A53144258031B230F1000230F200A03184
:1004C000D320803172082000AC007108AB00A53148
:1004D0000125803120002408D400D5015408AD0046
:1004E0005508AE00A131F421803120002B08D60040
:1004F0006508083ED7000030663DD80057088600E2
:100500005808870056088100B230F1000230F2002E
:10051000A031D320803172082000AC007108AB00FC
:10052000A5310125803120002408D400D5015408CC
:10053000AD005508AE00A131F421803120002B0818
:10054000D6006508093ED7000030663DD800570840
:1005500086005808870056088100B230F10002304A
:10056000F200A031D320803172082000AC00710865
:10057000AB00A5310125803120002408D400D5012D
:100580005408AD005508AE00A131F421803120009F
:100590002B08D60065080A3ED7000030663DD8001B
:1005A00057088600580887005608810065080B3EEA
:1005B000AF000030663DB000A830B100B030B200EE
:1005C0007C35C73E86008701403FD400413FD500BF
:1005D00054088400550885000008D600D701560845
:1005E000B3005708B40065088600660887004831E4
:1005F0000108B23E8600023087000108D800D90108
:100600005808B5005908B6006508860066088700D6
:1006100049310108B23E8600023087000108DA0045
:10062000DB015A08B7005B08B80065088600660859
:1006300087004A310108B23E860002308700010877
:10064000DC00DD015C08B9005D08BA0092315F2270
:100650008031200065080B3EBA000030663DBB00CB
:100660000130BC000030BD009B31382380310F2E9B
:10067000200065088600660887004331403FD400AB
:10068000413FD500013055022C30031954020318A4
:10069000092C6608B3006508B200A53144258031F5
:1006A000B230F1000230F200A031D3208031720864
:1006B0002000AC007108AB00A5310125803120007D
:1006C0002408D400D5015408AD005508AE00A1316E
:1006D000F421803120002B08D6006508093ED700A0
:1006E0000030663DD8005708860058088700560835
:1006F0008100B230F1000230F200A031D32080310D
:1007000072082000AC007108AB00A53101258031D2
:1007100020002408D400D5015408AD005508AE00CF
:10072000A131F421803120002B08D60065080A3E53
:10073000D7000030663DD80057088600580887006B
:100740005608810065080B3EAF000030663DB000E2
:10075000A830B100B030B2007C35C73E86008701BA
:10076000403FD400413FD50054088400550885001F
:100770000008D600D7015608B3005708B4007C35EE
:10078000C73E86008701403FD800413FD900013075
:100790005807840059080318590A85000008DA0030
:1007A000DB015A08B5005B08B600650886006608DC
:1007B000870049310108B23E8600023087000108F7
:1007C000DC00DD015C08B7005D08B8006508860044
:1007D000660887004A310108B23E86000230870071
:1007E0000108DE00DF015E08B9005F08BA0092313F
:1007F0005F228031200065080B3EBA000030663D64
:10080000BB000130BC000030BD009B31382380317B
:100810000F2E200065088600660887004331403FA0
:10082000D400413FD50001305502903003195402E5
:100830000318B62C6608B3006508B200A53144253C
:100840008031B230F1000230F200A031D32080318B
:1008500072082000AC007108AB00A5310125803181
:1008600020002408D400D5015408AD005508AE007E
:10087000A131F421803120002B08D60065080A3E02
:10088000D7000030663DD80057088600580887001A
:100890005608810065080B3EAF000030663DB00091
:1008A000A830B100B030B2007C35C73E8600870169
:1008B000403FD400413FD5005408840055088500CE
:1008C0000008D600D7015608B3005708B4007C359D
:1008D000C73E86008701403FD800413FD900013024
:1008E0005807840059080318590A85000008DA00DF
:1008F000DB015A08B5005B08B6007C35C73E8600B0
:100900008701403FDC00413FDD0002305C0784008E
:100910005D0803185D0A85000008DE00DF015E083F
:10092000B7005F08B80065088600660887004A318E
:100930000108B23E8600023087000108E000E101B4
:100940006008B9006108BA0092315F22803120004E
:1009500065080B3EBA000030663DBB000130BC00AC
:100960000030BD009B31382380310F2E20006508F8
:100970008600660887004331403FD400413FD500E0
:1009800001305502F4300319540203186B2D660828
:10099000BE006508BD00A1317B21803132302000CE
:1009A000AB000030AC006508860066088700433164
:1009B000403FAD00413FAE00A131F4218031003015
:1009C00020002C021A3003192B020318F92C650899
:1009D0000B3EF1000030663DF2002030F3000030A5
:1009E000F4000430F5000030F600AF31CF2780313D
:1009F0005C2D200065080B3EAF000030663DB00066
:100A0000A830B100B030B2007C35C73E8600870107
:100A1000403FD400413FD50054088400550885006C
:100A20000008D600D7015608B3005708B4007C353B
:100A3000C73E86008701403FD800413FD9000130C2
:100A40005807840059080318590A85000008DA007D
:100A5000DB015A08B5005B08B6007C35C73E86004E
:100A60008701403FDC00413FDD0002305C0784002D
:100A70005D0803185D0A85000008DE00DF015E08DE
:100A8000B7005F08B8007C35C73E86008701403F4D
:100A9000E000413FE1000330600784006108031873
:100AA000610A85000008E200E3016208B9006308FA
:100AB000BA0092315F228031200065080B3EBA00F7
:100AC0000030663DBB000130BC000030BD009B31F2
:100AD000382380310F2E20006608BE006508BD0057
:100AE000A1317B21803132302000AB000030AC00DE
:100AF00065088600660887004331403FAD00413FEE
:100B0000AE00A131F4218031003020002C021A30D7
:100B100003192B0203189E2D65080B3EF1000030CF
:100B2000663DF2002030F3000030F4000430F500A0
:100B30000030F600AF31CF278031B52D2000650899
:100B40000B3EAF000030663DB0004730B100B13021
:100B5000B2007C35A03E860002308700403FB300E3
:100B6000413FB40092315F228031200065080B3E86
:100B7000BA000030663DBB00650886006608870045
:100B80004331403FBC00413FBD001430BE00003047
:100B9000BF009A31C52280312000650886006608B2
:100BA000870043311600E83AD4001600033AD40413
:100BB000031D0F2E2100B801B9013B082000B00031
:100BC00021003A082000AF00A73102272000650865
:100BD0008600660887005F310130C03F0030C13FAA
:100BE0006508213E86000030663D87000130C03F29
:100BF0000030C13F6508233E86000030663D870017
:100C00000130C03F0030C13F6508253E86000030FE
:100C1000663D87000130C03F0030C13F0800200022
:100C2000650886006608870043310130810741313D
:100C30000318810A65088600660887005F31003066
:100C4000C03FC13F6508213E86000030663D8700F9
:100C50000030C03FC13F6508233E86000030663D3E
:100C600087000030C03FC13F6508253E8600003048
:100C7000663D87000030C03FC13F6508273E8600C3
:100C80000030663D87000130810741310318810A39
:100C90000800003400340034203410341034203480
:100CA000003410341034A5342134A53460341034A9
:100CB0003034003412341034083420342034853475
:100CC0004534B1343034103410341034103410340E
:100CD00010341034103410341034103410341034F4
:100CE00010341034103410341034103410341034E4
:100CF00010341034103410341034103410341034D4
:100D000010341034103410341034103410341034C3
:100D1000103400340034C0344034003444341034CF
:100D20001034B434353410341034103410340034EA
:100D3000043408340834023402341E341E341434AB
:100D4000143440340034103410344034003402344D
:100D50000834A93463348034403431347034B034CE
:100D6000603490345134B0343134B134313480345F
:100D70006034B13471349034713410341034103420
:100D8000103408340834303410340234023414344B
:100D9000E134A534703491347134B13411342134D8
:100DA0002134B13450342134313401343134B1344C
:100DB00021349134513424342434A134403409345E
:100DC00019342134013481344B3489344334A1340F
:100DD000613411347134A934613419347134B0344C
:100DE000313404342434A1344134033409348B3491
:100DF00041340A340A3404340A3422342834213485
:100E0000213408340234A03460340A3400342034ED
:100E100000341034103491347134B134113431341D
:100E20001034B13450342134313401343134B134DC
:100E300021349134513424342434A13440340934DD
:100E400019342134013481344B3489344334A1348E
:100E5000613411347134A934613419347134B034CB
:100E6000313404342434A1344134033409348B3410
:100E700041340A340A3404340A3422342834103415
:100E80001034043404341034103410341034FF346B
:100E9000FF3420003A08BC003908BB003B0886003C
:100EA0003C0887000108A0310020873120003B0862
:100EB00086003C0887000108AE310F2687312000EC
:100EC0003B0886003C0887000108AE311D268731AB
:100ED00020003B0886003C0887000108AE31092647
:100EE000873120003B0886003C08870041312330D1
:100EF000C03F0030C13F3B0886003C0887004431BA
:100F00000030C03FC13F3B0886003C0887004A31A3
:100F10000030C03FC13F3B0886003C0887004C3191
:100F20000030C03FC13F3B0886003C0887004E317F
:100F30000030C03FC13F3B0886003C08870050316D
:100F40000030C03FC13F3B0886003C08870052315B
:100F50000030C03FC13F3B0886003C088700543149
:100F60000030C03FC13F3B0886003C088700563137
:100F70000030C03FC13F3B0886003C0887005C3121
:100F80000030C03FC13F2100B001B10120003B084B
:100F900086003C088700433181012100A601A7019A
:100FA0000E30A4000030A5003230AC000030AD009F
:100FB0003230AA000030AB00AE01AF0108002000C3
:100FC000E7006708023E860001308700403FD200FC
:100FD000413FD3006708083E860001308700413F4B
:100FE0008A00403F0A008731A0319820200067081E
:100FF0008600013087007108C03F7208C13F0800B9
:101000000134013402340234013402340134023434
:101010000434083400340034003400340034003424
:10102000003400340034003400340034C53401345A
:10103000003420005308DF005208DE000230210097
:10104000380639040319C62820005E0886005F08A8
:1010500087004A310130C03F0030C13F5E08860042
:101060005F0887004C310130C03F0030C13F5E084F
:1010700086005F0887004E310130C03F0030C13F1D
:101080005E0886005F08870050310130C03F0030A5
:10109000C13F5E0886005F08870052310130C03FC3
:1010A0000030C13F5E0886005F0887005431013080
:1010B000C03F0030C13F5E0886005F0887005631A0
:1010C0000130C03F0030C13F08002100C501C6010A
:1010D00020005E0886005F08870044310030C03F72
:1010E000C13F5E08063ED40000305F3DD500540885
:1010F000860055088700053081005E0886005F087D
:1011000087004A310130C03F0030C13F5E08860091
:101110005F0887004C310130C03F0030C13F5E089E
:1011200086005F0887004E310130C03F0030C13F6C
:101130005E0886005F08870050310130C03F0030F4
:10114000C13F5E0886005F08870052310130C03F12
:101150000030C13F5E0886005F08870054310130CF
:10116000C03F0030C13F5E0886005F0887005631EF
:101170000130C03F0030C13F5E0886005F08870035
:101180005C310130C03F0030C13F080021004608FB
:10119000003A0319CC28C4294508003A0319C42988
:1011A000013A03196528C429C42920005E08860075
:1011B0005F088700413116000104031DB829210092
:1011C00031082000B100210030082000B000A43117
:1011D0007E24883101302100B0070030B13D20006D
:1011E0005E0886005F08870041312330C03F003031
:1011F000C13F5E2A5E0886005F0887004131160005
:101200000104031DB829210031082000B10021008C
:1012100030082000B000A4313D2488310130210085
:10122000B0070030B13D20005E0886005F088700EF
:1012300041310530C03F0030C13F5E2A5E08860064
:101240005F088700413116000104031DB729A5314D
:10125000D125883120005E0886005F088700413173
:1012600021002C08C03F2D08C13F5E2A5E08860081
:101270005F088700413116000104031DB7290430BF
:10128000210031063004031D49293035B000310DED
:10129000B10031082000B100210030082000B0006A
:1012A000AE312E268831210030083104031D5D291E
:1012B0000130B0000030B1005E2A3035B000310D91
:1012C000B10020005E0886005F08870041312100E0
:1012D0002C08C03F2D08C13F5E2A5E0886005F08CB
:1012E0008700413116000104031DB7292100310890
:1012F0002000B100210030082000B000AF3163278A
:10130000883101302100B0070030B13D20005E0877
:1013100086005F088700413121002C08C03F2D085E
:10132000C13F5E2A5E0886005F08870041311600D3
:101330000104031DB729210031082000B10021005C
:1013400030082000B0009931F221883101302100AD
:10135000B0070030B13D20005E0886005F088700BE
:10136000413121002C08C03F2D08C13F5E2A2000DA
:101370005E0886005F0887004131013081024131FB
:101380000030813B7F315E2A20005E0886005F08C6
:1013900087004331010884000630040203185E2AE6
:1013A000A8310435EC3E82005E2A2A30B700B13005
:1013B000B8005E0886005F0887000108AE314B2642
:1013C000883120005E0886005F0887000108AE3182
:1013D00003268831522A5630AF000030B000433027
:1013E000B100B130B200210029082000B400210072
:1013F00028082000B30092315F2288315630200047
:10140000B7000030B8005E0886005F08870001085A
:10141000AE314B26883120005E0886005F088700C9
:101420000108AE310326883120005E0886005F087F
:10143000870044311600963AD4001600D404031DE8
:10144000532A5E0886005F08870044310030C03FA1
:10145000C13F5E08063ED40000305F3DD500540811
:1014600086005508870023308100532A2100620836
:101470002000BB00210061082000BA005E08860041
:101480005F0887004431403FBC00413FBD009B31B5
:1014900038238831522A5F08CD005E08CC00923193
:1014A0000022883120005E0886005F0887004431F2
:1014B0000130810741310318810A722A20005E0839
:1014C00086005F08870046310108003A03194B2A5D
:1014D000023A0319D529013A0319EB29063A0319EF
:1014E000362A4B2AA231502288312000D400D5015F
:1014F0005408DC005508DD00362F5E0886005F08C2
:101500008700523116000104031D8C2A5E088600F4
:101510005F088700463181015E0886005F0887000A
:101520004A310030C03FC13F5E0886005F08870037
:101530004C310030C03FC13F5E0886005F08870025
:101540004E310030C03FC13F5E0886005F08870013
:1015500050310030C03FC13F5E0886005F08870001
:1015600052310130810741310318810A5E0886003B
:101570005F08870054310030C03FC13F5E088600DD
:101580005F08870056310030C03FC13F5E088600CB
:101590005F08870058310030C03FC13F5E088600B9
:1015A0005F0887005A310030C03FC13F5E088600A7
:1015B0005F0887005C310030C03FC13FC92F5E0823
:1015C00086005F088700543116000104031DF82AC5
:1015D000033021002D02E93003192C02031CF42AE8
:1015E000E830AC000330AD000530AC070030AD3D55
:1015F00020005E0886005F0887004A310030C03F47
:10160000C13F5E0886005F0887004C310030C03F54
:10161000C13F5E0886005F0887004E310030C03F42
:10162000C13F5E0886005F08870050310030C03F30
:10163000C13F5E0886005F08870052310030C03F1E
:10164000C13F5E0886005F08870054310130810782
:1016500041310318810A5E0886005F088700563111
:101660000030C03FC13F5E0886005F0887005831E8
:101670000030C03FC13F5E0886005F0887005A31D6
:101680000030C03FC13F5E0886005F0887005C31C4
:101690000030C03FC13FC92F5E0886005F08870049
:1016A000563116000104031D652B003021002D0268
:1016B000053003192C020318612B0530AC000030F3
:1016C000AD000530AC020030AD3B20005E08860066
:1016D0005F0887004A310030C03FC13F5E08860086
:1016E0005F0887004C310030C03FC13F5E08860074
:1016F0005F0887004E310130810741310318810AAC
:101700005E0886005F08870050310030C03FC13F4F
:101710005E0886005F08870052310030C03FC13F3D
:101720005E0886005F08870054310030C03FC13F2B
:101730005E0886005F08870056310130810741311D
:101740000318810A5E0886005F0887005831003060
:10175000C03FC13F5E0886005F0887005A310030F5
:10176000C03FC13F5E0886005F0887005C310030E3
:10177000C03FC13FC92F5E0886005F0887005A310D
:1017800016000104031DD82B210026082704031985
:10179000D82B00302B02973003192A02031CD42BBC
:1017A0009630AA000030AB000230AA070030AB3DF3
:1017B00020005E0886005F0887004A310030C03F85
:1017C000C13F5E0886005F0887004C310130810709
:1017D00041310318810A5E0886005F0887004E3198
:1017E0000030C03FC13F5E0886005F08870050316F
:1017F0000130810741310318810A5E0886005F08C5
:10180000870052310030C03FC13F5E0886005F084C
:10181000870054310030C03FC13F5E0886005F083A
:10182000870056310030C03FC13F5E0886005F0828
:10183000870058310030C03FC13F5E0886005F0816
:1018400087005A310130810741310318810A5E084F
:1018500086005F0887005C310030C03FC13FC92F60
:101860005E0886005F088700583116000104031DDA
:101870004D2C21002608270403194D2C00302B0283
:10188000053003192A020318492C0530AA0000303C
:10189000AB000330AA020030AB3B20005E0886009C
:1018A0005F0887004A310030C03FC13F5E088600B4
:1018B0005F0887004C310130810741310318810AEC
:1018C0005E0886005F0887004E3101308107413194
:1018D0000318810A5E0886005F08870050310030D7
:1018E000C03FC13F5E0886005F088700523100306C
:1018F000C03FC13F5E0886005F088700543100305A
:10190000C03FC13F5E0886005F0887005631003047
:10191000C03FC13F5E0886005F0887005831013034
:10192000810741310318810A5E0886005F0887003D
:101930005A310030C03FC13F5E0886005F08870013
:101940005C310030C03FC13FC92F5E0886005F0890
:101950008700503116000104031DFB2C5E08860031
:101960005F088700473116000104031DFB2C00307F
:10197000AD00AE005E0886005F0887000108AF3149
:101980000927883120005E0886005F0887004431FF
:101990000030C03FC13F5E0886005F0887004731C6
:1019A0006430C03F0030C13F5E0886005F0887009A
:1019B00041310530C03F0030C13F5E08033ED400D6
:1019C00000305F3DD500540886005508870001307F
:1019D00081005E08063ED40000305F3DD50054080B
:1019E000860055088700023081005E0886005F0887
:1019F0008700493181015E0886005F0887004A310F
:101A00000030C03FC13F5E0886005F0887004C3150
:101A10000030C03FC13F5E0886005F0887004E313E
:101A20000030C03FC13F5E0886005F08870050312C
:101A30000130810741310318810A5E0886005F0882
:101A4000870052310030C03FC13F5E0886005F080A
:101A5000870054310030C03FC13F5E0886005F08F8
:101A6000870056310030C03FC13F5E0886005F08E6
:101A7000870058310030C03FC13F5E0886005F08D4
:101A800087005A310030C03FC13F5E0886005F08C2
:101A900087005C310030C03FC13FC92F5E0886001F
:101AA0005F0887004C3116000104031D7C2D5E0881
:101AB00086005F0887004631810121002408FF3E2F
:101AC0002000D400FF302100253D2000D50021005A
:101AD000270820005506031D712D2100260820002F
:101AE0005406031D772D2100A601A7017C2D01308E
:101AF0002100A6070030A73D20005E0886005F0891
:101B000087004A310030C03FC13F5E0886005F0851
:101B100087004C310130810741310318810A5E088A
:101B200086005F0887004E310030C03FC13F5E082D
:101B300086005F08870050310030C03FC13F5E081B
:101B400086005F08870052310030C03FC13F5E0809
:101B500086005F08870054310030C03FC13F5E08F7
:101B600086005F08870056310030C03FC13F5E08E5
:101B700086005F08870058310030C03FC13F5E08D3
:101B800086005F0887005A310030C03FC13F5E08C1
:101B900086005F0887005C310030C03FC13FC92F1D
:101BA0005E0886005F0887004A3116000104031DA5
:101BB0003E2E003021002F02053003192E02031C97
:101BC000E32DAE01AF012E082F04031DF42D2000DC
:101BD0005E08033ED40000305F3DD5005408860007
:101BE000550887000430810021002E032F04031DB7
:101BF000062E20005E08033ED40000305F3DD50075
:101C00005408860055088700023081000230210008
:101C10002E062F04031D192E20005E08033ED4005B
:101C200000305F3DD500540886005508870003301A
:101C30008100033021002E062F04031D262E2000D4
:101C40005E0886005F08870043318101043021006F
:101C50002E062F04031D392E20005E08033ED400FB
:101C600000305F3DD50054088600550887000530D8
:101C7000810001302100AE070030AF3D20005E083A
:101C800086005F0887004A3101308107413103181F
:101C9000810A5E0886005F0887004C310030C03F33
:101CA000C13F5E0886005F0887004E310030C03FAC
:101CB000C13F5E0886005F08870050310030C03F9A
:101CC000C13F5E0886005F08870052310030C03F88
:101CD000C13F5E0886005F08870054310030C03F76
:101CE000C13F5E0886005F08870056310030C03F64
:101CF000C13F5E0886005F08870058310030C03F52
:101D0000C13F5E0886005F0887005A310030C03F3F
:101D1000C13F5E0886005F0887005C310030C03F2D
:101D2000C13FC92F5E0886005F0887004A31003036
:101D3000C03FC13F5E0886005F0887004C3100301D
:101D4000C03FC13F5E0886005F0887004E3100300B
:101D5000C03FC13F5E0886005F08870050310030F9
:101D6000C03FC13F5E0886005F08870052310030E7
:101D7000C03FC13F5E0886005F08870054310030D5
:101D8000C03FC13F5E0886005F08870056310030C3
:101D9000C03FC13F5E0886005F08870058310030B1
:101DA000C03FC13F5E0886005F0887005A3100309F
:101DB000C03FC13F5E0886005F0887005C3101308C
:101DC000810741310318810AC92F5E0886005F0828
:101DD00087004A310030C03FC13F5E0886005F087F
:101DE00087004C310030C03FC13F5E0886005F086D
:101DF00087004E310030C03FC13F5E0886005F085B
:101E0000870050310030C03FC13F5E0886005F0848
:101E1000870052310030C03FC13F5E0886005F0836
:101E2000870054310030C03FC13F5E0886005F0824
:101E3000870056310030C03FC13F5E0886005F0812
:101E4000870058310030C03FC13F5E0886005F0800
:101E500087005A310030C03FC13F5E0886005F08EE
:101E600087005C310030C03FC13FC92F5D08003A98
:101E700003193B2FE52E5C08003A0319922E013A14
:101E80000319D02D033A03194E2D073A03194C2B91
:101E9000033A0319302C0E3A0319A52C013A031901
:101EA000DF2A033A0319BB2B063A03197D2AE52ED4
:101EB000C92F5E0886005F08870047311600643A24
:101EC000D4001600D404031D702F5E0886005F083E
:101ED00087000108AE31D9268831AD31EB25883134
:101EE00020005E0886005F08870047311600633ACD
:101EF000D4001600D404031D892FAD31E8258831A4
:101F000020005E0886005F0887000108AE31812648
:101F1000883120005E0886005F0887004731160080
:101F20000104031DBD2F5E0886005F088700443151
:101F30000030C03FC13F5E0886005F088700413126
:101F40000530C03F0030C13F5E0886005F08870053
:101F5000433181015E0886005F08870046318101B8
:101F60005E08093ED40000305F3DD500540886006D
:101F70005508870001308100D62F5E0886005F0873
:101F8000870047310130810241310030813B7F3190
:101F9000D62F5E0886005F08870049310108003AA5
:101FA0000319592F013A0319D62FD62FAD31F22537
:101FB0008831003A0319080020005E0886005F0897
:101FC000870049310108031908005E0886005F0890
:101FD000870044310030C03FC13F01302100A807D5
:101FE0000030A93D20005E08063ED40000305F3D71
:101FF000D50054088600550887000330810008008A
:102000000034003400340034003400340034003430
:102010000034003400340034003400340034003420
:102020000034003400340034003400340034003410
:1020300000340034003400340034003401340034FF
:1020400001340034013400340134003401340034EC
:1020500001340034023400340234003402340034D9
:1020600003340034033400340334003404340034C3
:1020700004340034043400340534003405340034AE
:102080000634003406340034073400340734003496
:10209000083400340834003409340034093400347E
:1020A0000A3400340B3400340B3400340C34003464
:1020B0000D3400340E3400340E3400340F34003448
:1020C000103400341134003412340034133400342A
:1020D000133400341434003415340034163400340E
:1020E00017340034193400341A3400341B340034EB
:1020F0001C3400341D3400341E34003420340034C9
:1021000021340034223400342334003425340034A4
:102110002634003428340034293400342A3400347E
:102120002C3400342E3400342F3400343134003455
:10213000323400343434003436340034373400342C
:10214000393400343B3400343D3400343F340034FF
:1021500041340034423400344434003446340034D2
:10216000483400344B3400344D3400344F340034A0
:10217000513400345334003455340034583400346E
:102180005A3400345C3400345F3400346134003439
:102190006434003466340034693400346B34003401
:1021A0006E340034703400347334003476340034C8
:1021B000793400347B3400347E340034813400348C
:1021C00084340034873400348A3400348D3400344D
:1021D0009034003493340034963400349A3400340C
:1021E0009D340034A0340034A3340034A7340034C8
:1021F000AA340034AE340034B1340034B534003481
:10220000B8340034BC340034BF340034C334003438
:10221000C7340034CA340034CE340034D2340034ED
:10222000D6340034DA340034DE340034E23400349E
:10223000E6340034EA340034EE340034F33400344D
:10224000F7340034FB340034FF34003404340134F8
:10225000083401340D34013411340134163401349E
:102260001A3401341F340134243401342834013445
:102270002D34013432340134373401343C340134E8
:1022800041340134463401344B3401345034013488
:10229000553401345A3401345F3401346534013427
:1022A0006A3401346F340134753401347A340134C2
:1022B00080340134863401348B3401349134013458
:1022C000973401349C340134A2340134A8340134ED
:1022D000AE340134B4340134BA340134C03401347E
:1022E000C6340134CC340134D2340134D93401340D
:1022F000DF340134E5340134EC340134F234013498
:10230000F9340134FF340134063402340D3402341C
:10231000133402341A34023421340234283402349F
:102320002F340234363402343D340234443402341F
:102330004B340234523402345A340234613402349D
:102340006834023470340234773402347F34023417
:10235000863402348E340234953402349D3402348F
:10236000A5340234AD340234B5340234BD34023401
:10237000C5340234CD340234D5340234DD34023471
:10238000E5340234ED340234F6340234FE340234DF
:10239000063403340F340334183403342034033444
:1023A00029340334313403343A34033443340334AA
:1023B0004C340334553403345E340334673403340B
:1023C0007034033479340334823403348C3403346A
:1023D000953403349E340334A8340334B1340334C5
:1023E000BB340334C5340334CE340334D83403341B
:1023F000E2340334EC340334F6340334FF3403346E
:10240000210026082704031D202A2635203E8600A9
:1024100003308700403F2000B700413FB8004C0820
:1024200086004D0887000108AE314B26923120000E
:102430004C0886004D0887000108AE3103260800CD
:1024400020004C0886004D08870046310108031D16
:10245000482A21002635203E860003308700403F71
:102460002000BA00413FBB004C0886004D088700A1
:102470005C31403FBC00413FBD0021002B082000E3
:10248000BF0021002A082000BE009A31C5220800A2
:1024900021002635203E860003308700403F200083
:1024A000BA00413FBB004C0886004D0887005C31F4
:1024B000403FBC00413FBD009B3138230800333012
:1024C0002000BB003B08C3003208BC003108BB0041
:1024D000B10A0319B20A3B0884003C0885000008D1
:1024E000BD003D08CA004A080319252C25304A06BC
:1024F0000319852A2F088600300887004A088100C2
:102500000130AF070030B03D642AC801C901C001E5
:1025100031088400320885000008AE31BD269231B2
:10252000031C3E2B2000C801C9010A30F100003015
:10253000F20020004908F4004808F300A0310F2001
:10254000923172082000C9007108C8003108840067
:10255000320885000008D03EBB00FF300318003071
:10256000BC003B08C8073C08C93D0130B10700303A
:10257000B23D31088400320885000008AE31BD2626
:102580009231031C3E2B952A2000430886008701C8
:10259000403FC100413FC2000230BB003B08C307BF
:1025A00041084204031DD82ADA30C100B030C2000D
:1025B000C601C7014108460784004208473D85001F
:1025C00012000319E82A0130C6070030C73DDA2A95
:1025D00049084702031DEE2A480846020318F52A57
:1025E0004608C8024708C93BF72AC801C901FF309D
:1025F000C807FF30C93D480A0319490A03191F2BB0
:102600002F08860030088700203081000130AF0796
:102610000030B03DF72A41088400420885000008D8
:10262000BB002F088600300887003B08810001307E
:10263000C1070030C23D0130AF070030B03D01306E
:10264000C6020030C73B460A031D0B2B470A03197D
:10265000642A0B2B4308860087010108BB003B0856
:10266000CA000230BB003B08C3074A30C10000303B
:10267000C2000130C6000030C700E82A200032083E
:10268000BC003108BB00B10A0319B20A3B08840040
:102690003C0885000008CA00003A0319252C633A5B
:1026A00003192A2B073A03195C2B0D3A03195C2BEB
:1026B0001A3A0319C42A352B2000430886008701E3
:1026C000403FC400413FC5000230BB003B08C30788
:1026D000C51F732B0330BB003B08C004C409C509E8
:1026E000C40A0319C50ACA01CA0A05304A060319F1
:1026F000982B4A08BB00BC01BB35BC0D00303B0722
:102700008400A8303C3D8500003FBD00013FBE0075
:102710003E084502031D8E2B3D084402031C982BE6
:102720000130BB003B08CA0705304A06031D792B60
:10273000480849040319A42B400803390319A42BA2
:10274000FF30C807FF30C93D4A08BB00BC01BB1BB6
:10275000BC033C08803ABD004908803A3D02031D95
:10276000B32B48083B020318C02B20004A08BB00CB
:10277000BC01BB1BBC033B08C8023C08C93BC32BC4
:102780002000C801C901480849040319D92B2F08A2
:10279000860030088700203081000130AF0700300C
:1027A000B03DFF30C807FF30C93D48084904031D4C
:1027B000C72B400803390319E72B2F088600300880
:1027C00087002D3081000130AF070030B03D4A084E
:1027D000BB003B08BF00FF30BB003B08BF073F0A00
:1027E0000319642A0A30AB000030AC003F08BB007C
:1027F000BC01BB35BC0D00303B078400A8303C3D1C
:102800008500003FF100013FF2004508F400440854
:10281000F300A231E522923172082000AE00710867
:10282000AD00A131F421923120002B08303EBD00D3
:102830003D08CA002F088600300887004A0881003A
:102840000130AF070030B03DEB2B20002F08860091
:10285000300887008101080020005308D800520882
:10286000D70003302100380639040319442D200015
:10287000570886005808870043310130C03F0030B8
:10288000C13F570886005808870045310130C03FD6
:102890000030C13F57088600580887004731013093
:1028A000C03F0030C13F57088600580887004931B3
:1028B0000130C03F0030C13F08002100C4013B0887
:1028C0002000B00021003A082000AF00A731022705
:1028D00094315D302000BA00B030BB00570886004C
:1028E000580887004131403FBC00413FBD009B314B
:1028F000382394314B302000AB000030AC00570837
:102900008600580887004131403FAD00413FAE008E
:10291000A131F421943120002B082C04031D9A2CA2
:10292000AF31E727943121005F087104A0006008EF
:102930007204A10020005708860058088700413122
:102940001600773AD4001600013AD404031D0A2D6C
:1029500057080D3ED4000030583DD500540886007D
:102960005508870002308100570886005808870004
:1029700041310030C03FC13F582D5F30BA00B03008
:10298000BB0057088600580887004131403FBC0013
:10299000413FBD009B31382394314B302000AB00C8
:1029A0000030AC0057088600580887004131403F8E
:1029B000AD00413FAE00A131F421943120002B083D
:1029C0002C04031DED2CA1313021943121005F082E
:1029D0007104A00060087204A1002000570886005E
:1029E0005808870041311600773AD4001600013AA2
:1029F000D404031D0A2D57088600580887004D315E
:102A00008101570886005808870041310030C03FD7
:102A1000C13F582D570886005808870041310130C2
:102A2000810741310318810A582D2100C401253046
:102A30002000BA00B130BB00570886005808870054
:102A40004131403FBC00413FBD009B3138239431B0
:102A5000AF3150279431582D2100C401C40A2030D1
:102A60002000BA00B130BB00570886005808870024
:102A70004131403FBC00413FBD009B313823943180
:102A8000A0312A209431582D20005708860058087C
:102A900087004D310108003A03192C2D013A031922
:102AA000BD2C033A0319152D013A03195D2C582D3D
:102AB000210021082000AE00210020082000AD00E8
:102AC00057088600580887000108AF31092794315C
:102AD000A231502294312000D4005408D600002E98
:102AE0005808BA005708B900A431BF242100B80122
:102AF000B9010800200057088600580887004931AE
:102B000016000104031DAA2D5708860058088700E7
:102B100041310030C03FC13F2100440803199D2DC1
:102B2000200057080D3ED4000030583DD500540811
:102B30008600550887000330A92D200057080D3E58
:102B4000D4000030583DD500540886005508870051
:102B50000130810057088600580887004331003053
:102B6000C03FC13F570886005808870045310030F4
:102B7000C03FC13F570886005808870047310030E2
:102B8000C03FC13F570886005808870049310130CF
:102B9000810741310318810A5708860058088700C9
:102BA0004B310030C03FC13F08005708860058082D
:102BB000870043310030C03FC13F570886005808A6
:102BC000870045310030C03FC13F57088600580894
:102BD000870047310030C03FC13F57088600580882
:102BE000870049310030C03FC13F57088600580870
:102BF00087004B310130810741310318810A0800F9
:102C00005608043A0319702D0C3A03197A2DD52D64
:102C1000080020005308D8005208D70021003808C7
:102C2000390403198D2EA231502296312000D40090
:102C30005408D600872E2100B801B9012000580899
:102C4000BA005708B900A5318A25963121003B0802
:102C50002000B00021003A082000AF00A731022771
:102C6000963120005708860058088700443101300B
:102C7000C03F0030C13F57088600580887004631E2
:102C80000130C03F0030C13F570886005808870018
:102C900048310130C03F0030C13F57088600580816
:102CA00087004A310130C03F0030C13F2100B401EC
:102CB000B50120005808CD005708CC009831672096
:102CC000080020005708860058088700443101306A
:102CD000C03F0030C13F5708860058088700463182
:102CE0000130C03F0030C13F5708860058088700B8
:102CF00048310130C03F0030C13F570886005808B6
:102D000087004A310130C03F0030C13F08005608FB
:102D10000B3A03191B2E612E0800A2315022963166
:102D20002000D4005408D600EE2F5708860058081B
:102D30008700443116000104031DAE2E2100340823
:102D40003504031DAA2E3208FF3EB400FF30333D88
:102D5000B500AE2E0130B4020030B53B200058085B
:102D6000CD005708CC0098316720963120005708D5
:102D7000860058088700443101308107413103182B
:102D8000810A570886005808870046310030C03F46
:102D9000C13F570886005808870048310030C03FBF
:102DA000C13F57088600580887004A310030C03FAD
:102DB000C13F57088600580887004C310030C03F9B
:102DC000C13F0800570886005808870046311600A2
:102DD0000104031D0A2F21003208FF3E2000D40009
:102DE000FF302100333D2000D500210035082000B0
:102DF0005506031DFF2E2100340820005406031D34
:102E0000052F2100B401B5010A2F01302100B407BC
:102E10000030B53D20005808CD005708CC0098314F
:102E200067209631200057088600580887004431F3
:102E30000030C03FC13F5708860058088700463120
:102E40000130810741310318810A5708860058086C
:102E5000870048310030C03FC13F570886005808FE
:102E600087004A310030C03FC13F570886005808EC
:102E700087004C310030C03FC13F08005708860032
:102E800058088700483116000104031D532F5808C5
:102E9000BA005708B900A5318A25963102302100C1
:102EA000B8000030B9002000570886005808870095
:102EB00044310030C03FC13F5708860058088700A2
:102EC00046310030C03FC13F570886005808870090
:102ED00048310130810741310318810A57088600C3
:102EE000580887004A310030C03FC13F570886006C
:102EF000580887004C310030C03FC13F08005708D8
:102F00008600580887004A3116000104031D8F2FE0
:102F10005808BC005708BB00A331C22396312000DB
:102F2000570886005808870044310030C03FC13F31
:102F3000570886005808870046310030C03FC13F1F
:102F4000570886005808870048310030C03FC13F0D
:102F500057088600580887004A31013081074131FF
:102F60000318810A57088600580887004C31003042
:102F7000C03FC13F08005808CD005708CC00983129
:102F80006720963120005708860058088700443192
:102F90000030C03FC13F57088600580887004631BF
:102FA0000030C03FC13F57088600580887004831AD
:102FB0000030C03FC13F57088600580887004A319B
:102FC0000030C03FC13F57088600580887004C3189
:102FD0000130810741310318810A08005608013A7F
:102FE0000319952E033A0319E22E063A03193E2FD0
:102FF0000C3A03197F2F033A0319BB2FBB2F08008C
:10300000FE0012001E000130FE020030FF3B7F0870
:103010007E0403190034012820003A08BC00390856
:10302000BB003B0886003C0887000108A031002057
:10303000983120003B0886003C0887000108AE312B
:103040000F26983120003B0886003C0887000108C5
:10305000AE311D26983120003B0886003C088700D1
:103060000108AE310926983120003B0886003C0853
:10307000870042312C30C03F0130C13F3B08860001
:103080003C08870044310030C03FC13F3B08860008
:103090003C08870046310030C03FC13F3B088600F6
:1030A0003C08870048310030C03FC13F3B088600E4
:1030B0003C0887004A310030C03FC13F3B088600D2
:1030C0003C0887004C310030C03FC13F080005304C
:1030D0002000CE000030CF004F08AC004E08AB00FF
:1030E000210035082000AE00210034082000AD008A
:1030F000A131F421983120002B080907AC3E86004D
:1031000001308700403FD000413FD1005108AE0060
:103110005008AD004C0886004D0887000108AF310B
:1031200009279831210034083504031DB2283435AD
:10313000B63E860001308700403F2000B700413F87
:10314000B8004C0886004D0887000108AE314B26B8
:10315000983120004C0886004D0887000108AE31E8
:103160000326080021003435B63E86000130870072
:10317000403F2000BA00413FBB004C0886004D088C
:1031800087004C31403FBC00413FBD009B3138239C
:10319000080020003A08BC003908BB003B08860044
:1031A0003C0887000108A0310020983120003B082E
:1031B00086003C0887000108AE310F2698312000B8
:1031C0003B0886003C0887000108AE311D26983177
:1031D00020003B0886003C0887000108AE31092624
:1031E000983120003B0886003C088700423132308D
:1031F000C03F0030C13F3B0886003C088700443197
:103200000030C03FC13F3B0886003C088700463184
:103210000030C03FC13F3B0886003C088700483172
:103220000030C03FC13F3B0886003C0887004A3160
:103230000030C03FC13F3B0886003C0887004C314E
:103240000030C03FC13F2100B401B5010430B200DD
:103250000030B300080020003A08BC003908BB0069
:103260003B0886003C0887000108A0310020993106
:1032700020003B0886003C0887000108AE310F267D
:10328000993120003B0886003C0887000108AE31D8
:103290001D26993120003B0886003C088700010864
:1032A000AE3109269931A0312A20993120003B08FE
:1032B00086003C0887004D3181013B0886003C08B0
:1032C000870041310030C03FC13F3B0886003C08C9
:1032D000870043310030C03FC13F3B0886003C08B7
:1032E000870045310030C03FC13F3B0886003C08A5
:1032F000870047310030C03FC13F3B0886003C0893
:10330000870049310030C03FC13F3B0886003C0880
:1033100087004B310030C03FC13F080020003A0811
:10332000BC003908BB003B0886003C088700010848
:10333000A0310020993120003B0886003C0887001E
:103340000108AE310F26993120003B0886003C0869
:1033500087000108AE311D26993120003B08860008
:103360003C0887000108AE310926993120003B084E
:1033700086003C08870043310030C03FC13F3B0816
:1033800086003C0887005F310030C03FC13F3B08EA
:10339000213E860000303C3D87000030C03FC13FE9
:1033A0003B08233E860000303C3D87000030C03F94
:1033B000C13F3B08253E860000303C3D8700003081
:1033C000C03FC13F3B08273E860000303C3D8700A0
:1033D0000030C03FC13F3C08B0003B08AF00A73100
:1033E000022708001E302000AB000030AC0031087E
:1033F000AE003008AD00A131F421993120002B0836
:103400002C04031D082A01302100B6060030B7063F
:10341000013020003005B20000303105B30021003A
:10342000370820003306031D192A21003608200022
:103430003206031D352A0E30B6000030B7003708BB
:10344000AC003608AB003108AE003008AD00A13149
:10345000F421993120002B0809073C3E86000330F7
:103460008700403FB400413F4E2A0E30B600003086
:10347000B7003708AC003608AB003108AE003008A2
:10348000AD00A131F421993120002B080907BC3E81
:10349000860003308700403FB400413FB500350847
:1034A000AE003408AD00DA30AF3109270800FB0167
:1034B0002000B21F682AAF09B009B109B209AF0AEA
:1034C0000319B00A0319B10A0319B20AFB01FB0A76
:1034D000AE1F752AAB09AC09AD09AE09AB0A0319D9
:1034E000AC0A0319AD0A0319AE0A2E082D042C04E8
:1034F0002B040319AE2AFA01FA0AAE1B8B2A0130FB
:10350000AB35AC0DAD0DAE0D890B802A0130F90045
:103510007908FA077D2A2E083202031D992A2D0800
:103520003102031D992A2C083002031D992A2B0809
:103530002F02031CA32A2B08AF022C08B03B2D0836
:10354000B13B2E08B23B0130AE36AD0CAC0CAB0C2F
:10355000890BA42A0130FA02031D8B2A7B08031968
:10356000BC2AAF09B009B109B209AF0A0319B00A00
:103570000319B10A0319B20A3208AE003108AD00CE
:103580003008AC002F08AB00080020003B08F20018
:103590003A08F100A031D3209A3172082000C90006
:1035A0007108C800C33086000130870041308400B4
:1035B000003085000530C00016001A00C00BDC2A60
:1035C0004908AC004808AB003F08F2003E08F10093
:1035D0003D08F4003C08F300A231E5229A3172085C
:1035E0002000AE007108AD00A131F4219A31200015
:1035F0002C08C7002B08C600CA01CB0100304B02C3
:10360000043003194A0203182C2B4908AC0048085F
:10361000AB004A084607AD004B08473DAE00A1315C
:10362000F4219A3120003A082B0784003B082C3DF6
:1036300085000008C0004A08413E86008701400816
:1036400081000130CA070030CB3D00304B0204300E
:1036500003194A02031C052B4130B7000030B800A3
:10366000DA30AE314B269A31DA30AE31032608001B
:1036700032302000C4000030C5003B08F2003A0898
:10368000F100A031D3209B3172082000C9007108DD
:10369000C800BE308600013087003F308400003013
:1036A00085000530BE0016001A00BE0B532B4908DA
:1036B000AC004808AB004508F2004408F1003D08A2
:1036C000F4003C08F300A231E5229B31720820008F
:1036D000AE007108AD00A131F4219B3120002C080F
:1036E000C7002B08C600CA01CB0100304B020430D2
:1036F00003194A020318A32B4908AC004808AB0081
:103700004A084607AD004B08473DAE00A131F42101
:103710009B3120003A082B0784003B082C3D850094
:103720000008BE004A083F3E860087013E0881002F
:103730000130CA070030CB3D00304B020430031982
:103740004A02031C7C2B3F30B7000030B800DA304F
:10375000AE314B269B31DA30AE3103260800200013
:10376000C400C501103045020318212C4408103E46
:10377000860001308700403FBE00413FBF0001305E
:10378000C0000030C100450AC72BC035C10D890BF0
:10379000C52B3E084005C2003F084105C300420852
:1037A0004304031D192C3D08BE0045084407BF0013
:1037B0003F088600013087003E0881000130BE00CE
:1037C0000030BF00450AE62BBE35BF0D890BE42B48
:1037D0004408103E8600013087003E0881044131D4
:1037E0003F0881043D08043E860001308700160032
:1037F000010403190E2C3D08023E860001308700AB
:10380000403FB900413FBA003D08043E8600013008
:103810008700413F8A00403F0A009C312000450854
:10382000BE003D080C3E8600013087003E08810046
:1038300008000130BE003E08C50710304502031CD9
:10384000B62B3D080C3E86000130870081018103C4
:1038500008002100E900EA0110306A02031808009C
:103860006908103E860001308700403F2000E800D4
:10387000413FE9000130EA000030EB0021006A0A14
:103880002000442CEA35EB0D890B422C68086A05B0
:10389000EC0069086B05ED006C086D040319A62C9B
:1038A000A03198209C3172082100E4007108E300E7
:1038B0006A0869072000E800680886000130870070
:1038C0000108860001308700403F2100E500413FAC
:1038D000E60065092000E800210066092000E900F3
:1038E000E80A0319E90A210063082000680721009B
:1038F000E70064082000693D2100E8006A086907C4
:103900002000E800680886000130870001080A3EB0
:10391000860001308700403FE900413FEA006A0825
:1039200021006802031D982C20006908210067020D
:10393000031CA62C6A0869072000E80068088600B6
:103940000130870001088731DF279C3101302000DA
:10395000E80068082100EA072C2C01302000A300B1
:103960000030A400A801A90124082902031DBA2CD3
:10397000230828020318662D1930A0002008F10042
:103980002808AF311A279C314A3E2000A1002108A7
:10399000A7001930A0002008F1002808AF311A272D
:1039A0009C31143E4A3E8600023087000108200008
:1039B0002707A10021088600023087000108790648
:1039C000031D4F2D2708F1000230F200A031D32053
:1039D0009C3172082000A6007108A5001930A000D3
:1039E0002008F1002808AF311A279C31143E4A3EC6
:1039F0008600023087000130810741310318810AB7
:103A000019302000A0002008F1002808AF311A2743
:103A10009C31143E4A3E860002308700403F200021
:103A2000A100413FA20026082206031D192D2508EA
:103A30002106031D602D1930A0002008F100280880
:103A4000AF311A279C31143E4A3E8600023087006F
:103A50000030C03FC13F19302000A0002008F10015
:103A60002808AF311A279C31173E4A3E86000230A3
:103A7000870019302000A1002108F1002808AF318B
:103A80001A27163E4A3E8400023085000008840052
:103A90008501403F803F413F813F013008001930A0
:103AA0002000A0002008F1002808AF311A279C311F
:103AB000143E4A3E8600023087000030C03FC13FBE
:103AC00001302000A8070030A93DB42C00300800C8
:103AD000DA30A731AB279D31C830A03145209D3168
:103AE0005430A33189239D314730A33189239D313F
:103AF0003A30A33189239D312D30A33189239D3163
:103B00002030A33189239D31DA302000EE006E0889
:103B10002800A000DA302000EE006E082400BC006F
:103B2000DA302000EE006E082900A000DA30200014
:103B3000EE006E082400AE00DA302000EE006E08C1
:103B40002400A0002100C401C40A20302200D600B5
:103B50000430D7004930D8000730D9001930DC00D4
:103B60000830DD000030DA000030DB000A30DE0013
:103B70000030DF003C30C9000230CA00C930CB0041
:103B80001830CC000930CF001630D0000030CD0006
:103B90000030CE000A30D1000030D200A030BC008E
:103BA0000430BD008E30BE001930BF00D730C200D7
:103BB0000030C3000030C0000030C1000A30C40033
:103BC0000030C5002E30AF000230B0002B30B10005
:103BD0001930B2002C30B5001430B6000030B300FC
:103BE0000030B4000A30B7000030B8002030A20026
:103BF0000230A3000C30A4001830A5004330A80008
:103C00001E30A9000030A6000030A7000A30AA002C
:103C10000030AB002100C501C6010230B800003001
:103C2000B90054302000EE006E08BD00C8309B3152
:103C3000AF239D3147302000EE006E08BD00C83034
:103C40009B31AF239D313A302000EE006E08BD005D
:103C5000C8309B31AF239D312D302000EE006E081F
:103C6000BD00C8309B31AF239D3120302000EE00D5
:103C70006E08BD00C8309B31AF239D31C8309C31E8
:103C800029249D313E2E20005308D9005208D80027
:103C9000D601A23150229E312000D4005408D70012
:103CA000E32F5808860059088700423116000104A6
:103CB000031D6B2E580886005908870042312C30AE
:103CC000C03F0130C13F5908F8005808F700F9011A
:103CD0009C31AD249E312000580886005908870089
:103CE00044310030C03FC13F580886005908870062
:103CF00046310030C03FC13F580886005908870050
:103D000048310030C03FC13F58088600590887003D
:103D10004A310030C03FC13F58088600590887002B
:103D20004C310130810741310318810A580886005F
:103D30005908870042310130810241310030813B16
:103D40007F31F52F58088600590887004431160046
:103D50000104031DBA2E5908F8005808F700570847
:103D6000D4005408F9009C31AD249E312000D500C8
:103D70005508D6005808860059088700443101309C
:103D8000810741310318810A5808860059088700C5
:103D900046310030C03FC13F5808860059088700AF
:103DA00048310030C03FC13F58088600590887009D
:103DB0004A310030C03FC13F58088600590887008B
:103DC0004C310030C03FC13F580886005908870079
:103DD00042312C30C03F0130C13FF52F58088600DA
:103DE00059088700463116000104031D062F5908A3
:103DF000F8005808F7005708D4005408F9009C311F
:103E0000AD249E312000D5005508D6005808860004
:103E10005908870044310030C03FC13F5808860030
:103E20005908870046310130810741310318810A62
:103E3000580886005908870048310030C03FC13F0C
:103E400058088600590887004A310030C03FC13FFA
:103E500058088600590887004C310030C03FC13FE8
:103E6000580886005908870042312C30C03F013085
:103E7000C13FF52F580886005908870048311600C1
:103E80000104031D522F5908F8005808F70057087D
:103E9000D4005408F9009C31AD249E312000D50097
:103EA0005508D6005808860059088700443100306C
:103EB000C03FC13F5808860059088700463100308E
:103EC000C03FC13F5808860059088700483101307B
:103ED000810741310318810A580886005908870074
:103EE0004A310030C03FC13F58088600590887005A
:103EF0004C310030C03FC13F580886005908870048
:103F000042312C30C03F0130C13FF52F58088600A8
:103F1000590887004A3116000104031D9E2F5908D5
:103F2000F8005808F7005708D4005408F9009C31ED
:103F3000AD249E312000D5005508D60058088600D3
:103F40005908870044310030C03FC13F58088600FF
:103F50005908870046310030C03FC13F58088600ED
:103F60005908870048310030C03FC13F58088600DB
:103F7000590887004A310130810741310318810A0D
:103F800058088600590887004C310030C03FC13FB7
:103F9000580886005908870042312C30C03F013054
:103FA000C13FF52F5908F8005808F700F9019C3176
:103FB000AD249E3120005908F2005808F100A231CA
:103FC000B3229E31F52F20005708003A0319512ED5
:103FD000013A0319A22E033A0319EE2E063A0319E9
:103FE0003A2F0C3A0319862FD22F200056080319B6
:103FF00008005908F2005808F100A231B322080065
:10400000F1007108113E8600013087000118080098
:104010007108113E86000130870081140800F50107
:10402000F601711C17287308F5077408F63D013076
:10403000F335F40D890B18280130F236F10C890B99
:104040001D2871087204031D11287608F2007508F6
:10405000F10008000630F3000030F4007308FF3E62
:104060002100A200FF30743DA3002235A03E86004F
:1040700001308700403FF100413FF2005F087104CA
:10408000A00060087204A1000800F2007208103E4F
:104090008600013087000030C03FC13FF30110307F
:1040A00073020318080073087207F1007108860094
:1040B0000130870081010130F1007108F3074F28BA
:1040C00080340034C0340034E0340034F034003440
:1040D000F8340034FC340034FE340034FF3400344F
:1040E000FE340034FC340034F8340034F03400344E
:1040F000E0340034C03400341634B1340C34B134FC
:10410000F334B0341B34B134F834B0340234B13445
:104110000734B134FD34B0341134B13401340034D7
:1041200000340034013400341F34F8343E34B034E9
:1041300020001508F3007308FA001608F30073084E
:10414000FB007A08F300F4017B08F500F60175081E
:10415000F600F50173087507F8007408763DF9005C
:104160007908F2007808F10008001030200097006C
:104170004D309800FF309600FF3095001608210062
:10418000BF00200015082100BE0020009012210071
:104190009016DE30F1002D30F200AD31F725A03160
:1041A000AD31DF2508007208F6007108F5007508CA
:1041B00084007608850012000319E3280130F50712
:1041C0000030F63DD7287109F3007209F400F30AB4
:1041D0000319F40A75087307F1007608743DF200BC
:1041E0000800FB007B08053E8600013087002000A8
:1041F0002B08C03F2C08C13F7B08053E86000130DC
:104200008700403FF100413FF2007B08073EAF319D
:104210002B27A0317B08073EAE31F8260800A731D6
:104220005627A131AE313726A131AD31EE25A1316E
:10423000AE311526A131AE319826A131AE316026BE
:10424000A131AE316B26A131AE317626A131AE312E
:104250004126A131AE318C26A131A031B520080014
:104260000630F5000030F60021002235A03E860021
:1042700001308700403FF700413FF8007508FF3EDE
:10428000F300FF30763DF40074082302031D4A2931
:1042900073082202031850290130A2070030A33D01
:1042A0007808F2007708F10008002000AB002B0826
:1042B000073EAF313D27A13120002B08F10001302E
:1042C000F2002030F3000030F4000430F50000303C
:1042D000F600AF31CF2720002B08043E86000130C6
:1042E000870081012B08053E8600013087000030E1
:1042F000C03FC13F080020003E08C2003D08C10089
:104300004108860042088700453116000104031D5C
:104310009629A531D1252000410886004208870052
:1043200045310A30C03F0030C13F080041088600D7
:104330004208870045310130810241310030813B24
:104340007F310800003400342034003460340034FD
:10435000E0340034E0340134E03403340034023417
:1043600000340134803400344034003420340034CC
:104370003434B134ED34B0348C34B034E734B03448
:1043800020342034203420340034203420342034AD
:10439000203400342000B500B6013108B3003008E5
:1043A000B20036083207840033080318330A850048
:1043B0001200031908003108B3003008B2003608B3
:1043C0003207840033080318330A85000008B4005C
:1043D0003408AA003508A631B026A13101302000EA
:1043E000B2003208B607CD2920002B082C0403198F
:1043F0001C2AFA01FA0AAC1B072A0130AB35AC0DB6
:10440000890BFE290130F9007908FA07FB292C08ED
:104410002E02031D0D2A2B082D02031C132A2B0824
:10442000AD022C08AE3B0130AC36AB0C890B142A24
:104430000130FA02031D072A2E08AC002D08AB003C
:1044400008007208F3007308F9007108F30073089C
:10445000F800FA01FB0107307B020318402A7908B3
:104460000139F3007308FA040310F90C0310FA0D74
:104470000130F3007308FB0707307B02031C2F2A6F
:104480007A08F300F4017808F500F6017508F600E3
:10449000F50173087504F10074087604F200080051
:1044A0000F30F1007108F30020000E0E890C013965
:1044B000FF3AF1007108F3050C0C890C013909076A
:1044C000FF3AF1007108F3050C0E0139F1000130DB
:1044D000F135FF3E031D682A7135FF3AF20072087C
:1044E000F3050C0E890C0139F1000230F135FF3E65
:1044F000031D762A7135FF3AF2007208F30573083E
:10450000080000302000A3000030A2000030A1000D
:104510000030A000711C952A75082000A0077608BD
:10452000A13D7708A23D7808A33D0130F535F60D91
:10453000F70DF80D890B962A0130F436F30CF20CC6
:10454000F10C890B9D2A7408730472047104031D15
:104550008A2A20002308F4002208F3002108F20030
:104560002008F100080071088600720887004231B7
:104570002C30C03F0130C13F7108860072088700AF
:1045800044310030C03FC13F710886007208870087
:1045900046310030C03FC13F710886007208870075
:1045A00048310030C03FC13F710886007208870063
:1045B0004A310030C03FC13F710886007208870051
:1045C0004C310030C03FC13F0800F701F8017108CD
:1045D00072040319142BF601F60AF21BF92A0130B2
:1045E000F135F20D890BF02A0130F5007508F60758
:1045F000ED2A0130F735F80D890BFA2A720874029A
:10460000031D042B71087302031C0B2B7108F302AA
:104610007208F43B77140130F236F10C890B0C2B45
:104620000130F602031DF92A7808F2007708F1003C
:104630000800803400348034013480340334803402
:104640000B3480341B3480343B3480347B348034EE
:10465000FB3480347B3480343B3480341B348034EE
:104660000B348034033480340134803400344034DB
:10467000003420340034103400340834003404345E
:104680000034023400340134003402340034043481
:104690000034083400341034003420340034403402
:1046A00000342F34B134B134B034D234B034E134C6
:1046B000B0342B34B0341634B034B934A8340034A8
:1046C000B0345D34A8348034A834D334A8349E3454
:1046D000A8343534A8340A34A83480340034003483
:1046E000013400340234003408340034103400340F
:1046F00020340034403400348034003440340034FA
:1047000020340034103400340834003402340034CF
:104710000134F10071088600013087000030C03F8D
:10472000C13F7108023E8600013087000030C03F63
:10473000C13F7108043E8600013087000030C03F51
:10474000C13F7108063E8600013087000030C03F3F
:10475000C13F7108083E8600013087000030C03F2D
:10476000C13F71080A3E860001308700FF30C03F1C
:10477000FF30C13F71080C3E860001308700810187
:1047800081030800EA2B20003C08BA003B08B9006E
:10479000A5318A2501302100B8000030B900080099
:1047A00020003C08BA003B08B900A5318A25033037
:1047B0002100B8000030B900080020003C08BA0011
:1047C0003B08B900A5318A2502302100B80000302D
:1047D000B900080021003508003A0319F02BFB2B23
:1047E0003408013A0319C32B033A0319D02B013AB9
:1047F0000319DD2BFB2B08002000A7002008A200D6
:10480000A301A235A30DF030A4002630A500220894
:10481000240786002308253D8700403FA800413F2C
:10482000A900211C1E2C2908F2002808F100A23141
:10483000212272082000A9007108A8002135FF3A42
:10484000013E083EA2002208A6002908A200260870
:104850002707A30023088600013087002208810073
:104860002808A2002608013E2707A3002308860087
:10487000013087002208810008000E302000B600B9
:104880000030B7003708AC003608AB003108AE0086
:104890003008AD00A131F421A43120002B08090714
:1048A000A03E860003308700403FB400413FB50082
:1048B0000E30B6000030B7003708AC003608AB0049
:1048C0003108AE003008AD00A131F421A431200040
:1048D0002B0809073E3E860004308700403FB200A7
:1048E000413FB3003208B4043308B5043508AE00C4
:1048F0003408AD00DA30AF31092708000E3020004F
:10490000B6000030B7003708AC003608AB003108FD
:10491000AE003008AD00A131F421A43120002B08F5
:1049200009073C3E860003308700403FB400413F0A
:10493000B5000E30B6000030B7003708AC003608BE
:10494000AB003108AE003008AD00A131F421A43134
:1049500020002B080907BC3E860003308700403F3B
:10496000B200413FB3003208B4043308B50435083F
:10497000AE003408AD00DA30AF310927080020005E
:10498000390886003A08870041310030C03FC13FF6
:10499000390886003A08870043310030C03FC13FE4
:1049A000390886003A08870045310030C03FC13FD2
:1049B000390886003A08870047310030C03FC13FC0
:1049C000390886003A08870049310030C03FC13FAE
:1049D000390886003A0887004B310030C03FC13F9C
:1049E000390886003A0887000108AE310F26A43145
:1049F0002000390886003A0887000108AE310926F0
:104A0000080021005C08F4005B08F3005A08F2007B
:104A10005908F1004130F800C630F7004E30F6007A
:104A20006D30F500A2318122A53174082100DC002F
:104A30007308DB007208DA007108D9003930D90731
:104A40003030DA3D0030DB3D0030DC3D59082000DD
:104A5000A60021005A082000A70021005B082000C2
:104A6000A80021005C082000A9001030AA00A93786
:104A7000A80CA70CA60CAA0B372DFF302605A40006
:104A80007F302705A500080020003308B700320852
:104A9000B600360886003708870045311600010445
:104AA000031D7E2D043021005E065D04031D5C2D78
:104AB0005D35DD005E0DDE005E082000B1002100E6
:104AC0005D082000B000AE312E26A53121005D0822
:104AD0005E04031D6F2D0130DD000030DE005D350A
:104AE000DD005E0DDE0020003608860037088700F6
:104AF00045310A30C03F0030C13F0800360886000B
:104B00003708870045310130810241310030813B57
:104B10007F3108002000390886003A0887004231BA
:104B20003230C03F0030C13F390886003A08870064
:104B300044310030C03FC13F390886003A08870041
:104B400046310030C03FC13F390886003A0887002F
:104B500048310030C03FC13F390886003A0887001D
:104B60004A310030C03FC13F390886003A0887000B
:104B70004C310030C03FC13F2100B401B5012000DD
:104B8000390886003A0887000108AE310F26A531A2
:104B90002000390886003A0887000108AE3109264E
:104BA000080000302000AE000030AD00FF30AC0047
:104BB000FF30AB00A5310125A53120002408AF004E
:104BC0002508B000890D893B8909B100B2009A31EE
:104BD0005722A53120002C08BC002B08BB00FF3059
:104BE000B300FB30B4000030B5000030B6003B0825
:104BF000B7003C08B800B901BA013708B304380857
:104C0000B4043908B5043A08B604330A031D112E5A
:104C1000340A35043604031D112E0030BB0604305F
:104C2000BC063C08AE003B08AD00DA30AF310927C6
:104C30000800CA34B034C234B0349634B03481344D
:104C4000B0347634B034BA34B0346A34B03450341A
:104C5000B0349F34B0344134423443344434453466
:104C600046344734483449344A344B344C344D3458
:104C70004E344F3450345134523453345434553408
:104C800056345734583459345A3430343134323439
:104C900033343434353436343734383439343C34BE
:104CA0003E3421342434253426342D3423342A341C
:104CB0002B342D342E3440343B343A3427342234D0
:104CC0002F345C34F700F8017208031908007708E4
:104CD000031D922E972E7308031D7A2E78087707EE
:104CE000F40074088600013087000108AE312526E3
:104CF000A6318E2E78087707F400740886000130FC
:104D000087000108AE312526A631F5007808730723
:104D1000F600760886008701750881000130F400EE
:104D20007408F80772087802031808006B2E7308DD
:104D30000319080072087802031808000030AE3129
:104D40002526A631F40078087307F500750886005B
:104D50008701740881000130F4007408F8079A2E66
:104D60002000AF002F0A8600013087000108AB0049
:104D70002F088600013087002B0881002F08023E93
:104D80008600013087000108AB002F0A8600013041
:104D900087002B0881002F08033E86000130870022
:104DA0000108AB002F08023E8600013087002B0867
:104DB00081002A08AB002F08033E860001308700DF
:104DC0002B088100AE01AE0104302E02031808004A
:104DD0002E082F07AB002B08860001308700010842
:104DE000AC002C08A0002E08AD002D08A1002F0853
:104DF000073EA331FC23A63101302000AB002B0875
:104E0000AE07E42E20003008B5002F08B4003508A6
:104E10002100BB00200034082100BA002000340823
:104E200086003508870043310030C03FC13F340859
:104E300086003508870045310030C03FC13F340847
:104E40000B3EF1000030353DF2000030F300F4007D
:104E50001430F5000030F600AF31CF27A731210024
:104E60004408031D4B2F09302000AB000030AC007C
:104E7000A5310125A73120002408B100B201310875
:104E8000AD003208AE00A131F421A73120002B087B
:104E9000B30033084F2F08302000B1003108FC0068
:104EA00001302100DD000030DE00080022008C010E
:104EB00080308D001A308E00373021008C00303069
:104EC0008D0060308E00403023008E008D01033055
:104ED0008C0024008D018C018E0125008C018D0138
:104EE0008E0100308B1B0130F1008B1355303C00DC
:104EF0008F00AA308F000F103D002108E0390D38D7
:104F0000A1003C002108E0390C38A1002008E0395C
:104F10000E38A0003D002408E0390238A400200823
:104F2000E0390C38A0002308E0390338A3001E083C
:104F3000E03918389E002208E0391938A2005530AF
:104F40003C008F00AA308F000F14711CA92F8B1703
:104F500008008B1308002000AC00A1310F21A731FD
:104F6000AE313726A731A031B520A731AE31412669
:104F7000A731AE317626A731A7315627A731AE31FA
:104F80006026A731AE316B26A731AE318C26A73112
:104F9000AE319826A731AE311526A7318030F10009
:104FA0000030F200AF317727A73122008D17C030D3
:104FB000F1000030F200AF318D27A73100308400BE
:104FC00091308500003FF100013FF200AF31A3278F
:104FD000A7310030840091308500003FF100013F8F
:104FE000F200AF31B927A73120002C08A13155219B
:104FF00020002C08113E8600013087008101080046
:10500000013400340A34003464340034E8340334A6
:1050100010342734483454345434503453343A34EC
:105020002F342F34473449345434483455344234BF
:105030002E3443344F344D342F344E3455344C34A5
:105040004C344934423441344434473445342F34A9
:1050500044344534463443344F344E34323435349A
:10506000203420342034203400344734553459342B
:105070005334203449342034483441345634453490
:10508000203441342034473452344534413454348C
:105090002034493444344534413420342D344D34A3
:1050A00049344B34453420344B342E3420342034AE
:1050B0002034203420342034003441344C344C34F7
:1050C000203459344F34553420344234413453342D
:1050D000453420344134523445342034423445344C
:1050E0004C344F344E344734203454344F3420340D
:1050F00055345334203420342034203420340034C8
:1051000044344F34453453342034443445345634D5
:1051100041344E34203448344134533420344834FC
:10512000493453342034503448344F344E344534A9
:105130003F34203420342034203400344E344F3473
:105140005434483449344E344734203454344F3482
:1051500020345334453445342034483445345234B3
:1051600045342E342E342E34203420342034203450
:1051700000344834543454345034203434343134CA
:1051800038342034493427344D34203441342034E9
:1051900054344534413450344F3454342034203462
:1051A00020342034003459344F34553420344A34B8
:1051B000553453345434203448344134563445340F
:1051C000203454344F342034423445344C34493440
:1051D00045345634453400348831D5288831FA288E
:1051E00089311E298931362989316D2989319229E0
:105BBC00080020009717080020001F150800280077
:105BCC001715080022008D17080022008D130800FD
:105BDC00163021009700080020000D0E890C0139A9
:105BEC00080072082100BD007108BC000800FB0011
:105BFC007B08073EAE31F82608002000AB002B08CE
:105C0C00AD31FD2508002000B8003808AE31E8267B
:105C1C0008002000AB002B08AE31CB26080040302A
:105C2C002400940022309500013092000800F1000D
:105C3C007108113E86000130870001140800F10044
:105C4C002400951371089100141C2A2E11080800C9
:105C5C0020003108AE003008AD00DA30AF31092732
:105C6C000800320099019B019D0106309F009E01A6
:105C7C001C1808003E2E013020009F004A309E0068
:105C8C009D019110AD31E22508002000B9003808C3
:105C9C00B1003708B0003908A131CA210800210031
:105CAC003C083D04031908003D088A003C080A0022
:105CBC00AE3108008F302500930092019530910091
:105CCC001F08FC3901389F0008008F302500970011
:105CDC009601E03095001F08F33904389F00080046
:105CEC007B3028009700FF30960095012000921021
:105CFC00AD31E5250800F200FB30F1007208113ED1
:105D0C0086000130870071088105080090302C0056
:105D1C0099007F309800C03097001F08FC3902387A
:105D2C009F00080090302C009C007F309B00C030FE
:105D3C009A001F08F33908389F000800640080019E
:105D4C0001310130FE020030FF3B7F087E04031955
:105D5C000034A52E2000901221003F082000960050
:105D6C0021003E0820009500AE3155260800F200B7
:105D7C00F1013A3072020318C92E30307202031C42
:105D8C00C92EF101F10A710C0800FB000030F10082
:105D9C00F2007B08073EAF312B27AE317B08073E64
:105DAC00AE31F8260800F1007108113E8600013072
:105DBC008700811808007108113E860001308700A9
:105DCC00011508002000B7005830B000A830B10011
:105DDC003708A131CA21AE3120003708073EAE3159
:105DEC00F82608002000AA000A30F9007908F20011
:105DFC002030FA007A08F3002A08A6316226220025
:105E0C008E178E1308002000AF00210044080319E0
:105E1C00112F20002E1520002E08AC002D08AB00F1
:105E2C002F08A031F1200800F400F301741C222F7C
:105E3C007108F2007208F3070310F10D0310F40C53
:105E4C007408031D1C2F73080800F4007208F3007B
:105E5C007408860001308700730881007108F30014
:105E6C00740A860001308700730881000800FB006B
:105E7C007B08F1000130F2000030F300F4000A302E
:105E8C00F5000030F600AF31CF27AF317B08AE31D3
:105E9C00F82608002100A201A3012235A03E8600AD
:105EAC0001308700403FF100413FF2005F08710470
:105EBC00A00060087204A10008002000301C6E2FA6
:105ECC005530AD00A930AE00DA30AF3109270800EB
:105EDC00AA302000AD005230AE00DA30AF310927C5
:105EEC000800FF30F1050330F2052500131E882F42
:105EFC000630F135F20D890B7F2F72089200710874
:105F0C009100080072089200710891000800FF309F
:105F1C00F1050330F2052500171E9E2F0630F135D2
:105F2C00F20D890B952F72089600710895000800E8
:105F3C00720896007108950008007208F400710848
:105F4C00F300F436F30CF436F30C73082C009800C1
:105F5C0071080339F3000530F335FF3E031DB22FF2
:105F6C007335970008007208F4007108F300F436DA
:105F7C00F30CF436F30C73082C009B0071080339F6
:105F8C00F3000530F335FF3E031DC82F73359A001F
:105F9C0008007208F8007108F7000130F5020030B3
:105FAC00F63B750A0319760A031908007708860070
:105FBC0078088700730881000130F7070030F83D3E
:105FCC00D32F21002235A03E860001308700403FB0
:105FDC00F300413FF400220823040319F92F013088
:105FEC00A2020030A33B73085F04F1007408600444
:105FFC00F20008004934203441344D3420344A3402
:10600C0055345334543420344134203442344134E4
:10601C004434473445342034203420342034003484
:10602C00573449344C344C342034483441344334A0
:10603C004B34203446344F345234203441342F34D2
:10604C004334203420342034003448344134433435
:10605C004B342034543448344534203450344C348C
:10606C0041344E34453454342034203420340034FC
:10607C0005340734073408342D342D3420342034BF
:10608C002D342D34093407340734063420340B34C2
:10609C0020340034463449345234453420344234AC
:1060AC0041344C344C3420342034203400345534B6
:1060BC004E344C344F3443344B3449344E344734DF
:1060CC002E342E342E34003452344534443420349F
:1060DC00423455344C344C34203420342034003485
:1060EC00543445345134553449344C3441342034CF
:1060FC0020342034003457344834493453344B342E
:10610C004534593420342034203400345034413454
:10611C005334533457344F345234443420340034D1
:10612C0056344F3444344B344134203420342034EE
:10613C0000345734413454344534523420342034F0
:10614C0020340034253463342534633425346334EB
:10615C002534633400344E3455344C344C34493487
:10616C00463459342034003443344834553447349D
:10617C0020342034203400344234453445345234F5
:10618C002034203420340034533448344F345434C5
:10619C0020342034203400344434453446344334E1
:1061AC004F344E342034003428346E3475346C340F
:1061BC006C3429340034483441345834203420347D
:1061CC000034453458344934543420340034533476
:1061DC004C344F34543420340034563444344B341F
:1061EC0041340034543451344C344134003446344A
:1061FC0049345234453400344334483455344734EC
:10620C0000345234453442344C3400344234453436
:10621C0045345234003457344134543452340034FD
:10622C00533448344F3454340034573453344B348F
:10623C00593400344C344F3443344B3400344F34E1
:10624C00503445344E3400345034453457342034B3
:10625C0000344E3455344C344C3400344D344534C5
:10626C004E345534003444344F3457344E340034A7
:10627C0020342034553450340034253434346434D0
:08628C000034253473340034A2
:020000040001F9
:08000E008CFFF3FFFFFFFFFF71
:00000001FF
