:04000000803116280D
:100008007E14803120007F08F0002100901E112806
:100018002000901E1128A731472770082000FF00F4
:100028007E10090080311828003084009730850040
:10003800F0308600263087000130FF000030A731FD
:100048003B278031D6308400A6308500DA30860020
:10005800003087000030FF000A30A7313B2780318D
:10006800FE308400993085004730860001308700D3
:100078000030FF002630A7313B278031B63084009E
:1000880099308500A0308600013087000030FF00DD
:100098002330A7313B278031AB3084009B3085006B
:1000A800A0308600023087000030FF003830A731CA
:1000B8003B278031733084009B30850020308600D8
:1000C800033087000030FF003830A7313B278031EC
:1000D800FC01A0308400003085003A30FE0000307A
:1000E800FF00A7312F2780312030840001308500A0
:1000F8002730FE000030FF00A7312F278031C330A2
:100108008400013085002030FE000030FF00A73158
:100118002F27803120308400023085004C30FE00CB
:100128000030FF00A7312F278031A0308400033032
:1001380085001E30FE000030FF00A7312F277E10FB
:1001480020009631162E20005308D8005208D700F8
:10015800210034083504031920299A31AA22803154
:100168002000D4005408D6001A292100B401B50192
:1001780020005808BA005708B9009231052280318A
:100188002000570886005808870044310130C03FD6
:100198000030C13F570886005808870046310130B3
:1001A800C03F0030C13F57088600580887004831D3
:1001B8000130C03F0030C13F57088600580887000B
:1001C8004A310130C03F0030C13F2100B201B301C4
:1001D80020005808CD005708CC0092314C22080066
:1001E8002000570886005808870044310130C03F76
:1001F8000030C13F57088600580887004631013053
:10020800C03F0030C13F5708860058088700483172
:100218000130C03F0030C13F5708860058088700AA
:100228004A310130C03F0030C13F080056080B3A40
:100238000319B928F42808009A31AA22803120002D
:10024800D4005408D600812A570886005808870029
:10025800443116000104031D4129210032083304EA
:10026800031D3D293008FF3EB200FF30313DB30089
:1002780041290130B2020030B33B20005808CD00BC
:100288005708CC0092314C22803120005708860054
:100298005808870044310130810741310318810A29
:1002A800570886005808870046310030C03FC13FD4
:1002B800570886005808870048310030C03FC13FC2
:1002C80057088600580887004A310030C03FC13FB0
:1002D80057088600580887004C310030C03FC13F9E
:1002E80008005708860058088700463116000104A0
:1002F800031D9D2921003008FF3E2000D400FF3057
:100308002100313D2000D50021003308200055068A
:10031800031D92292100320820005406031D982944
:100328002100B201B3019D2901302100B20700303C
:10033800B33D20005808CD005708CC0092314C221C
:100348008031200057088600580887004431003063
:10035800C03FC13F57088600580887004631013022
:10036800810741310318810A570886005808870019
:1003780048310030C03FC13F570886005808870001
:100388004A310030C03FC13F5708860058088700EF
:100398004C310030C03FC13F08005708860058085C
:1003A8008700483116000104031DE6295808BA00E1
:1003B8005708B90092310522803102302100B4007B
:1003C8000030B500200057088600580887004431DF
:1003D8000030C03FC13F57088600580887004631A3
:1003E8000030C03FC13F5708860058088700483191
:1003F8000130810741310318810A570886005808DF
:1004080087004A310030C03FC13F5708860058086E
:1004180087004C310030C03FC13F080057088600B4
:10042800580887004A3116000104031D222A58087B
:10043800BC005708BB009B31E323803120005708DC
:1004480086005808870044310030C03FC13F570834
:1004580086005808870046310030C03FC13F570822
:1004680086005808870048310030C03FC13F570810
:100478008600580887004A31013081074131031846
:10048800810A57088600580887004C310030C03F61
:10049800C13F08005808CD005708CC0092314C22C3
:1004A8008031200057088600580887004431003002
:1004B800C03FC13F570886005808870046310030C2
:1004C800C03FC13F570886005808870048310030B0
:1004D800C03FC13F57088600580887004A3100309E
:1004E800C03FC13F57088600580887004C3101308B
:1004F800810741310318810A08005608013A031997
:100508002829033A03197529063A0319D1290C3AFF
:100518000319122A033A03194E2A4E2A080020000A
:100528005308D8005208D700033021003406350498
:1005380003199B2B20005708860058088700433171
:100548000130C03F0030C13F570886005808870077
:1005580045310130C03F0030C13F57088600580878
:10056800870047310130C03F0030C13F570886003F
:100578005808870049310130C03F0030C13F0800AA
:10058800FC010030BA00A830BB00570886005808A4
:1005980087004131403FBC00413FBD009331E62315
:1005A80082314B302000A0000030A100570886009F
:1005B800580887004131403FA200413FA3009A31CB
:1005C8004E228231200020082104031DF52A98318B
:1005D8005420823121005E087104A0005F08720473
:1005E800A1002000570886005808870041311600EE
:1005F800773AD4001600013AD404031D652B570836
:100608000D3ED4000030583DD500540886005508EA
:10061800870002308100570886005808870041315A
:100628000030C03FC13FAF2B0230BA00A830BB003A
:1006380057088600580887004131403FBC00413FB9
:10064800BD009331E62382314B302000A0000030FA
:10065800A10057088600580887004131403FA20092
:10066800413FA3009A314E22823120002008210404
:10067800031D482B9931D921823121005E0871046C
:10068800A0005F087204A1002000570886005808DF
:10069800870041311600773AD4001600013AD40495
:1006A800031D652B57088600580887004D318101C6
:1006B800570886005808870041310030C03FC13FC5
:1006C800AF2B570886005808870041310130810751
:1006D80041310318810AAF2BFC014430BA00A8301D
:1006E800BB0057088600580887004131403FBC00CE
:1006F800413FBD009331E6238231A731ED27823196
:10070800AF2BFC01FC0A3F30BA00A830BB005708E9
:100718008600580887004131403FBC00413FBD007A
:100728009331E62382319831A3208231AF2B200008
:1007380057088600580887004D310108003A031908
:10074800852B013A0319182B033A0319702B013A28
:100758000319C42AAF2B210021082000AE00210074
:1007680020082000AD0057088600580887000108B7
:10077800A731542782319A31AA2282312000D4002D
:100788005408D600542C5808BA005708B9009D31AF
:100798001D252100B401B501080020005708860076
:1007A80058088700493116000104031DFE2B57081D
:1007B80086005808870041310030C03FC13F7C089F
:1007C8000319F22B57080D3ED4000030583DD500D0
:1007D80054088600550887000330FD2B57080D3E46
:1007E800D4000030583DD5005408860055088700CD
:1007F80001308100570886005808870043310030CF
:10080800C03FC13F5708860058088700453100306F
:10081800C03FC13F5708860058088700473100305D
:10082800C03FC13F5708860058088700493101304A
:10083800810741310318810A570886005808870044
:100848004B310030C03FC13F0800570886005808A8
:10085800870043310030C03FC13F57088600580821
:10086800870045310030C03FC13F5708860058080F
:10087800870047310030C03FC13F570886005808FD
:10088800870049310030C03FC13F570886005808EB
:1008980087004B310130810741310318810A080074
:1008A8005608043A0319C72B0C3A0319D12B292CE3
:1008B800080020005308D9005208D800D6019A3100
:1008C800AA2284312000D4005408D700FD2D5808EE
:1008D800860059088700423116000104031D852C43
:1008E800580886005908870042312C30C03F013033
:1008F800C13F5908F8005808F700F90195315B2500
:100908008431200058088600590887004431003097
:10091800C03FC13F5808860059088700463100305B
:10092800C03FC13F58088600590887004831003049
:10093800C03FC13F58088600590887004A31003037
:10094800C03FC13F58088600590887004C31013024
:10095800810741310318810A580886005908870021
:1009680042310130810241310030813B7F310F2E0D
:100978005808860059088700443116000104031DF1
:10098800D42C5908F8005808F7005708D400540820
:10099800F90095315B2584312000D5005508D60033
:1009A80058088600590887004431013081074131D1
:1009B8000318810A58088600590887004631003014
:1009C800C03FC13F580886005908870048310030A9
:1009D800C03FC13F58088600590887004A31003097
:1009E800C03FC13F58088600590887004C31003085
:1009F800C03FC13F580886005908870042312C3053
:100A0800C03F0130C13F0F2E5808860059088700A3
:100A1800463116000104031D202D5908F800580816
:100A2800F7005708D4005408F90095315B25843144
:100A38002000D5005508D6005808860059088700B8
:100A480044310030C03FC13F58088600590887002C
:100A580046310130810741310318810A5808860060
:100A68005908870048310030C03FC13F5808860008
:100A7800590887004A310030C03FC13F58088600F6
:100A8800590887004C310030C03FC13F58088600E4
:100A98005908870042312C30C03F0130C13F0F2E2A
:100AA8005808860059088700483116000104031DBC
:100AB8006C2D5908F8005808F7005708D400540856
:100AC800F90095315B2584312000D5005508D60002
:100AD800580886005908870044310030C03FC13F9C
:100AE800580886005908870046310030C03FC13F8A
:100AF800580886005908870048310130810741317C
:100B08000318810A58088600590887004A310030BE
:100B1800C03FC13F58088600590887004C31003053
:100B2800C03FC13F580886005908870042312C3021
:100B3800C03F0130C13F0F2E580886005908870072
:100B48004A3116000104031DB82D5908F800580849
:100B5800F7005708D4005408F90095315B25843113
:100B68002000D5005508D600580886005908870087
:100B780044310030C03FC13F5808860059088700FB
:100B880046310030C03FC13F5808860059088700E9
:100B980048310030C03FC13F5808860059088700D7
:100BA8004A310130810741310318810A580886000B
:100BB800590887004C310030C03FC13F58088600B3
:100BC8005908870042312C30C03F0130C13F0F2EF9
:100BD8005908F8005808F700F90195315B25843168
:100BE80020005908F2005808F1009B310D23843188
:100BF8000F2E20005708003A03196B2C013A0319ED
:100C0800BC2C033A0319082D063A0319542D0C3A43
:100C18000319A02DEC2D20005608031908005908C7
:100C2800F2005808F1009B310D2308002000B100A4
:100C38002630A8002808AC0020002508A9002408B0
:100C4800A800A40A0319A50A280884002908850011
:100C58000008AA002A08B40034080319652F2530B3
:100C680034060319432E3408A8003108860087018A
:100C7800280881000130A8002808B107202EB201F9
:100C8800B301AE0124088400250885000008A731B7
:100C980061278631031C812E2000B201B3010A307E
:100CA800F1000030F20020003308F4003208F300AD
:100CB80098318820863172082000B3007108B2008C
:100CC80024088400250885000008D03EA800FF30CD
:100CD80003180030A9002808B2072908B33D0130DD
:100CE800A4070030A53D24088400250885000008D5
:100CF800A731612786310318532E20002508A90043
:100D08002408A800A40A0319A50A280884002908A9
:100D180085000008B400003A0319652F643A0319E6
:100D2800992E0D3A0319992E202E20002C088600A2
:100D38008701403FAF00413FB0000230A8002808BB
:100D4800AC07B01FB02E0330A8002808AE04AF09C6
:100D5800B009AF0A0319B00AB401B40A0530340661
:100D68000319D52E3408A800A901A835A90D00300B
:100D780028078400A030293D8500003FAA00013FD4
:100D8800AB002B083002031DCB2E2A082F02031CB0
:100D9800D52E0130A8002808B40705303406031DF5
:100DA800B62E320833040319E12E2E08033903192D
:100DB800E12EFF30B207FF30B33D3408A800A90187
:100DC800A81BA9032908803AAA003308803A2A02F6
:100DD800031DF02E320828020318FD2E20003408C7
:100DE800A800A901A81BA9032808B2022908B33B37
:100DF800002F2000B201B301320833040319172F62
:100E08002030A800310886008701280881000130B9
:100E1800A8002808B107FF30B207FF30B33D3208F9
:100E28003304031D042F2E0803390319262F2D30F0
:100E3800A800310886008701280881000130A80031
:100E48002808B1073408A8002808AD00FF30A8001A
:100E58002808AD072D0A0319202E0A30A0000030FB
:100E6800A1002D08A800A901A835A90D0030280760
:100E78008400A030293D8500003FF100013FF200C9
:100E88003008F4002F08F3009B313F2386317208A5
:100E98002000A3007108A2009A314E22863120005A
:100EA8002008303EAA002A08B4003408A8003108F7
:100EB80086008701280881000130A8002808B107AA
:100EC8002A2F2000310886008701810108002000B0
:100ED8003A08BC003908BB003B0886003C0887007C
:100EE8000108A7318C27873120003B0886003C0881
:100EF80087000108A6319026873120003B0886002C
:100F08003C0887000108A6319E26873120003B084F
:100F180086003C0887000108A6318A268731200010
:100F28003B0886003C08870041312330C03F003031
:100F3800C13F3B0886003C08870044310030C03F71
:100F4800C13F3B0886003C0887004A310030C03F5B
:100F5800C13F3B0886003C0887004C310030C03F49
:100F6800C13F3B0886003C0887004E310030C03F37
:100F7800C13F3B0886003C08870050310030C03F25
:100F8800C13F3B0886003C08870052310030C03F13
:100F9800C13F3B0886003C08870054310030C03F01
:100FA800C13F3B0886003C08870056310030C03FEF
:100FB800C13F3B0886003C0887005C310030C03FD9
:100FC800C13F2100AE01AF0120003B0886003C086C
:100FD8008700433181012100A601A7010430A40044
:100FE8000030A5003230AC000030AD003230AA002D
:080FF8000030AB000800080006
:101004007208F4007108F300F436F30CF436F30CB0
:1010140073082C009B0071080339F3000530F33585
:10102400FF3E031D112873359A0008002000C500F7
:10103400C6011030460203188D284508203E86005C
:1010440002308700403FBF00413FC0000130C10073
:101054000030C200460A3028C135C20D890B2E2843
:101064003F084105C30040084205C4004308440446
:10107400031D852846354507BF003F08860002301A
:1010840087003D08C03F3E08C13F0130BF0000302B
:10109400C000460A4F28BF35C00D890B4D284508AE
:1010A400203E8600023087003F0881044131400819
:1010B40081043D0886003E0887004431160001047F
:1010C400031977283D0886003E0887004231403FD7
:1010D400B900413FBA003D0886003E08870044310C
:1010E400413F8A00403F0A00883120003D080C3E01
:1010F400BF0000303E3DC0003F0886004008870026
:101104004608810008000130BF003F08C6071030C0
:101114004602031C1F283D080C3EBF0000303E3D24
:10112400C0003F08860040088700FF3081000800A7
:1011340020005308DF005208DE000230210034068C
:1011440035040319472920005E0886005F088700DC
:101154004A310130C03F0030C13F5E0886005F085D
:1011640087004C310130C03F0030C13F5E0886002B
:101174005F0887004E310130C03F0030C13F5E0838
:1011840086005F08870050310130C03F0030C13F06
:101194005E0886005F08870052310130C03F00308E
:1011A400C13F5E0886005F08870054310130C03FAC
:1011B4000030C13F5E0886005F0887005631013069
:1011C400C03F0030C13F08002100D801D9012000F0
:1011D4005E0886005F08870044310030C03FC13F8D
:1011E4005E08063ED40000305F3DD50054088600FA
:1011F40055088700053081005E0886005F08870077
:101204004A310130C03F0030C13F5E0886005F08AC
:1012140087004C310130C03F0030C13F5E0886007A
:101224005F0887004E310130C03F0030C13F5E0887
:1012340086005F08870050310130C03F0030C13F55
:101244005E0886005F08870052310130C03F0030DD
:10125400C13F5E0886005F08870054310130C03FFB
:101264000030C13F5E0886005F08870056310130B8
:10127400C03F0030C13F5E0886005F0887005C31D4
:101284000130C03F0030C13F080021005908003A36
:1012940003194D29082A5808003A0319082A013A63
:1012A4000319E628082A082A20005E0886005F0839
:1012B4008700413116000104031DFC2921002F0879
:1012C4002000B10021002E082000B0009C31DC2455
:1012D400883101302100AE070030AF3D20005E08A8
:1012E40086005F08870041312330C03F0030C13F92
:1012F400A32A5E0886005F088700413116000104B6
:10130400031DFC2921002F082000B10021002E0814
:101314002000B0009C319B24883101302100AE07AD
:101324000030AF3D20005E0886005F088700413131
:101334000530C03F0030C13FA32A5E0886005F0825
:101344008700413116000104031DB729A731AB27DB
:10135400883120005E0886005F0887004131210043
:101364002C08C03F2D08C13FC32920005E08860019
:101374005F08870041310130810241310030813BF7
:101384007F3120005E0886005F0887004131160027
:101394000104031DFB29043021002F062E04031D24
:1013A400D7292E35AE002F0DAF002F082000B10035
:1013B40021002E082000B000A631AF26883121007C
:1013C4002E082F04031DEB290130AE000030AF00BE
:1013D400A32A2E35AE002F0DAF0020005E08860034
:1013E4005F088700413121002C08C03F2D08C13F10
:1013F400A32A20005E0886005F088700413101307F
:10140400810241310030813B7F31A32A20005E08F4
:1014140086005F08870043310108003A0319562902
:10142400013A03197B29033A03199F29013A031945
:10143400C329A32AA32A4930B700A830B8005E08FC
:1014440086005F0887000108A631CC268831200079
:101454005E0886005F0887000108A631842688316B
:10146400972A6730A400A830A5002100290820008D
:10147400A700210028082000A600563086311A262D
:10148400883156302000B7000030B8005E0886006E
:101494005F0887000108A631CC26883120005E0849
:1014A40086005F0887000108A63184268831200061
:1014B4005E0886005F08870044311600963AD4001F
:1014C4001600D404031D982A5E0886005F0887006E
:1014D40044310030C03FC13F5E08063ED4000030B6
:1014E4005F3DD500540886005508870023308100ED
:1014F400982A210061082000BB0021006008200018
:10150400BA005E0886005F0887004431403FBC0093
:10151400413FBD009331E6238831972A5F08CD000F
:101524005E08CC009F31A127883120005E08860028
:101534005F08870044310130810741310318810A73
:10154400B72A20005E0886005F088700463101083C
:10155400003A0319902A023A03191D2A013A031981
:10156400332A063A03197B2A902A9A31AA2288310F
:101574002000D400D5015408DC005508DD00362FC6
:101584005E0886005F088700523116000104031DBF
:10159400D12A5E0886005F088700463181015E0813
:1015A40086005F0887004A310030C03FC13F5E08B3
:1015B40086005F0887004C310030C03FC13F5E08A1
:1015C40086005F0887004E310030C03FC13F5E088F
:1015D40086005F08870050310030C03FC13F5E087D
:1015E40086005F08870052310130810741310318BA
:1015F400810A5E0886005F08870054310030C03FCE
:10160400C13F5E0886005F08870056310030C03F46
:10161400C13F5E0886005F08870058310030C03F34
:10162400C13F5E0886005F0887005A310030C03F22
:10163400C13F5E0886005F0887005C310030C03F10
:10164400C13FC92F5E0886005F0887005431160029
:101654000104031D3D2B033021002D02E930031941
:101664002C02031C392BE830AC000330AD000530EC
:10167400AC070030AD3D20005E0886005F0887009F
:101684004A310030C03FC13F5E0886005F088700D2
:101694004C310030C03FC13F5E0886005F088700C0
:1016A4004E310030C03FC13F5E0886005F088700AE
:1016B40050310030C03FC13F5E0886005F0887009C
:1016C40052310030C03FC13F5E0886005F0887008A
:1016D40054310130810741310318810A5E088600C4
:1016E4005F08870056310030C03FC13F5E08860066
:1016F4005F08870058310030C03FC13F5E08860054
:101704005F0887005A310030C03FC13F5E08860041
:101714005F0887005C310030C03FC13FC92F5E08BD
:1017240086005F088700563116000104031DAA2BAA
:10173400003021002D02053003192C020318A62BBA
:101744000530AC000030AD000530AC020030AD3BDC
:1017540020005E0886005F0887004A310030C03FE1
:10176400C13F5E0886005F0887004C310030C03FEF
:10177400C13F5E0886005F0887004E310130810753
:1017840041310318810A5E0886005F0887005031E2
:101794000030C03FC13F5E0886005F0887005231B9
:1017A4000030C03FC13F5E0886005F0887005431A7
:1017B4000030C03FC13F5E0886005F088700563195
:1017C4000130810741310318810A5E0886005F08F1
:1017D400870058310030C03FC13F5E0886005F0873
:1017E40087005A310030C03FC13F5E0886005F0861
:1017F40087005C310030C03FC13FC92F5E088600BE
:101804005F0887005A3116000104031D1D2C2100B6
:101814002608270403191D2C00302B0297300319C6
:101824002A02031C192C9630AA000030AB000230A7
:10183400AA070030AB3D20005E0886005F088700E1
:101844004A310030C03FC13F5E0886005F08870010
:101854004C310130810741310318810A5E0886004A
:101864005F0887004E310030C03FC13F5E088600EC
:101874005F08870050310130810741310318810A24
:101884005E0886005F08870052310030C03FC13FC8
:101894005E0886005F08870054310030C03FC13FB6
:1018A4005E0886005F08870056310030C03FC13FA4
:1018B4005E0886005F08870058310030C03FC13F92
:1018C4005E0886005F0887005A3101308107413184
:1018D4000318810A5E0886005F0887005C310030C7
:1018E400C03FC13FC92F5E0886005F08870058319A
:1018F40016000104031D922C210026082704031955
:10190400922C00302B02053003192A0203188E2C66
:101914000530AA000030AB000330AA020030AB3B14
:1019240020005E0886005F0887004A310030C03F0F
:10193400C13F5E0886005F0887004C310130810793
:1019440041310318810A5E0886005F0887004E3122
:101954000130810741310318810A5E0886005F085F
:10196400870050310030C03FC13F5E0886005F08E9
:10197400870052310030C03FC13F5E0886005F08D7
:10198400870054310030C03FC13F5E0886005F08C5
:10199400870056310030C03FC13F5E0886005F08B3
:1019A400870058310130810741310318810A5E08EC
:1019B40086005F0887005A310030C03FC13F5E088F
:1019C40086005F0887005C310030C03FC13FC92FEB
:1019D4005E0886005F088700503116000104031D6D
:1019E400402D5E0886005F08870047311600010419
:1019F400031D402D0030AD00AE005E0886005F0878
:101A040087000108A7315427883120005E0886002A
:101A14005F08870044310030C03FC13F5E08860044
:101A24005F08870047316430C03F0030C13F5E0823
:101A340086005F08870041310530C03F0030C13F58
:101A44005E08033ED40000305F3DD5005408860094
:101A540055088700013081005E08063ED40000303E
:101A64005F3DD50054088600550887000230810088
:101A74005E0886005F088700493181015E088600A0
:101A84005F0887004A310030C03FC13F5E088600CE
:101A94005F0887004C310030C03FC13F5E088600BC
:101AA4005F0887004E310030C03FC13F5E088600AA
:101AB4005F08870050310130810741310318810AE2
:101AC4005E0886005F08870052310030C03FC13F86
:101AD4005E0886005F08870054310030C03FC13F74
:101AE4005E0886005F08870056310030C03FC13F62
:101AF4005E0886005F08870058310030C03FC13F50
:101B04005E0886005F0887005A310030C03FC13F3D
:101B14005E0886005F0887005C310030C03FC13F2B
:101B2400C92F5E0886005F0887004C311600010447
:101B3400031DC12D5E0886005F08870046318101C0
:101B440021002408FF3E2000D400FF302100253D61
:101B54002000D5002100270820005506031DB62DBE
:101B64002100260820005406031DBC2D2100A601D7
:101B7400A701C12D01302100A6070030A73D200098
:101B84005E0886005F0887004A310030C03FC13FCD
:101B94005E0886005F0887004C31013081074131BF
:101BA4000318810A5E0886005F0887004E31003002
:101BB400C03FC13F5E0886005F0887005031003097
:101BC400C03FC13F5E0886005F0887005231003085
:101BD400C03FC13F5E0886005F0887005431003073
:101BE400C03FC13F5E0886005F0887005631003061
:101BF400C03FC13F5E0886005F088700583100304F
:101C0400C03FC13F5E0886005F0887005A3100303C
:101C1400C03FC13F5E0886005F0887005C3100302A
:101C2400C03FC13FC92F5E0886005F0887004A3164
:101C340016000104031D3F2E5E0886005F0887001E
:101C44004331023001060319332E5E08033ED400EB
:101C540000305F3DD50054088600550887000230E7
:101C64003E2E5E08033ED40000305F3DD50054088C
:101C7400860055088700033081005E0886005F08EF
:101C840087004A310130810741310318810A5E0817
:101C940086005F0887004C310030C03FC13F5E08BA
:101CA40086005F0887004E310030C03FC13F5E08A8
:101CB40086005F08870050310030C03FC13F5E0896
:101CC40086005F08870052310030C03FC13F5E0884
:101CD40086005F08870054310030C03FC13F5E0872
:101CE40086005F08870056310030C03FC13F5E0860
:101CF40086005F08870058310030C03FC13F5E084E
:101D040086005F0887005A310030C03FC13F5E083B
:101D140086005F0887005C310030C03FC13FC92F97
:101D24005E0886005F0887004A310030C03FC13F2B
:101D34005E0886005F0887004C310030C03FC13F19
:101D44005E0886005F0887004E310030C03FC13F07
:101D54005E0886005F08870050310030C03FC13FF5
:101D64005E0886005F08870052310030C03FC13FE3
:101D74005E0886005F08870054310030C03FC13FD1
:101D84005E0886005F08870056310030C03FC13FBF
:101D94005E0886005F08870058310030C03FC13FAD
:101DA4005E0886005F0887005A310030C03FC13F9B
:101DB4005E0886005F0887005C310130810741318D
:101DC4000318810AC92F5E0886005F0887004A311C
:101DD4000030C03FC13F5E0886005F0887004C3179
:101DE4000030C03FC13F5E0886005F0887004E3167
:101DF4000030C03FC13F5E0886005F088700503155
:101E04000030C03FC13F5E0886005F088700523142
:101E14000030C03FC13F5E0886005F088700543130
:101E24000030C03FC13F5E0886005F08870056311E
:101E34000030C03FC13F5E0886005F08870058310C
:101E44000030C03FC13F5E0886005F0887005A31FA
:101E54000030C03FC13F5E0886005F0887005C31E8
:101E64000030C03FC13FC92F5D08003A03193B2F22
:101E7400E52E5C08003A0319922E013A0319152E37
:101E8400033A0319932D073A0319912B033A0319C3
:101E9400752C0E3A0319EA2C013A0319242B033A40
:101EA4000319002C063A0319C22AE52EC92F5E082D
:101EB40086005F08870047311600643AD400160094
:101EC400D404031D702F5E0886005F088700010894
:101ED400A7317D278831A6317126883120005E081C
:101EE40086005F08870047311600633AD400160065
:101EF400D404031D892FA6316E26883120005E0884
:101F040086005F0887000108A7310C27883120006C
:101F14005E0886005F088700473116000104031D30
:101F2400BD2F5E0886005F08870044310030C03F43
:101F3400C13F5E0886005F08870041310530C03F1D
:101F44000030C13F5E0886005F088700433181018D
:101F54005E0886005F088700463181015E08093EFD
:101F6400D40000305F3DD500540886005508870032
:101F740001308100D62F5E0886005F088700473154
:101F84000130810241310030813B7F31D62F5E0820
:101F940086005F08870049310108003A0319592F68
:101FA400013A0319D62FD62F923100228831003AF4
:101FB4000319080020005E0886005F088700493185
:101FC4000108031908005E0886005F088700443191
:101FD4000030C03FC13F01302100A8070030A93DB7
:101FE40020005E08063ED40000305F3DD500540852
:101FF400860055088700033081000800003400344F
:10200400003400340034003400340034003400342C
:10201400003400340034003400340034003400341C
:10202400003400340034003400340034003400340C
:1020340000340034003400340134003401340034FA
:1020440001340034013400340134003401340034E8
:1020540002340034023400340234003403340034D3
:1020640003340034033400340434003404340034BE
:1020740004340034053400340534003406340034A8
:102084000634003407340034073400340834003490
:102094000834003409340034093400340A34003478
:1020A4000B3400340B3400340C3400340D3400345D
:1020B4000E3400340E3400340F3400341034003441
:1020C4001134003412340034133400341334003423
:1020D4001434003415340034163400341734003406
:1020E400193400341A3400341B3400341C340034E2
:1020F4001D3400341E3400342034003421340034C0
:10210400223400342334003425340034263400349B
:1021140028340034293400342A3400342C34003474
:102124002E3400342F34003431340034323400344B
:102134003434003436340034373400343934003421
:102144003B3400343D3400343F34003441340034F3
:1021540042340034443400344634003448340034C7
:102164004B3400344D3400344F3400345134003493
:102174005334003455340034583400345A34003461
:102184005C3400345F34003461340034643400342B
:1021940066340034693400346B3400346E340034F3
:1021A40070340034733400347634003479340034B9
:1021B4007B3400347E34003481340034843400347D
:1021C400873400348A3400348D340034903400343D
:1021D40093340034963400349A3400349D340034FB
:1021E400A0340034A3340034A7340034AA340034B7
:1021F400AE340034B1340034B5340034B83400346F
:10220400BC340034BF340034C3340034C734003425
:10221400CA340034CE340034D2340034D6340034DA
:10222400DA340034DE340034E2340034E63400348A
:10223400EA340034EE340034F3340034F734003438
:10224400FB340034FF3400340434013408340134E2
:102254000D34013411340134163401341A34013488
:102264001F34013424340134283401342D3401342E
:1022740032340134373401343C34013441340134D0
:10228400463401344B340134503401345534013470
:102294005A3401345F340134653401346A3401340E
:1022A4006F340134753401347A34013480340134A8
:1022B400863401348B34013491340134973401343D
:1022C4009C340134A2340134A8340134AE340134D2
:1022D400B4340134BA340134C0340134C634013462
:1022E400CC340134D2340134D9340134DF340134F0
:1022F400E5340134EC340134F2340134F93401347A
:10230400FF340134063402340D34023413340234FD
:102314001A34023421340234283402342F3402347F
:10232400363402343D340234443402344B340234FF
:10233400523402345A34023461340234683402347C
:1023440070340234773402347F34023486340234F5
:102354008E340234953402349D340234A53402346C
:10236400AD340234B5340234BD340234C5340234DD
:10237400CD340234D5340234DD340234E53402344D
:10238400ED340234F6340234FE34023406340334B9
:102394000F3403341834033420340334293403341D
:1023A400313403343A340334433403344C34033483
:1023B400553403345E3403346734033470340334E3
:1023C40079340334823403348C3403349534033441
:1023D4009E340334A8340334B1340334BB3403349B
:1023E400C5340334CE340334D8340334E2340334F0
:1023F400EC340334F6340334FF34033420000D0E7C
:10240400890C013908002000390886003A08870041
:1024140042313230C03F0030C13F390886003A08AB
:10242400870044310030C03FC13F390886003A0874
:10243400870046310030C03FC13F390886003A0862
:10244400870048310030C03FC13F390886003A0850
:1024540087004A310030C03FC13F390886003A083E
:1024640087004C310030C03FC13F2100B201B301AD
:102474002000390886003A0887000108A631902612
:1024840092312000390886003A0887000108A631F5
:102494008A26080005302000CE000030CF004F0807
:1024A400A1004E08A000210033082000A300210051
:1024B40032082000A2009A314E22923120002008D6
:1024C4000907A03E860001308700403FD000413F0D
:1024D400D1005108AE005008AD004C0886004D08EC
:1024E40087000108A73154279231210032083304B0
:1024F400031D972A32355B3E860001308700403F3A
:102504002000B700413FB8004C0886004D08870002
:102514000108A631CC26923120004C0886004D08D3
:1025240087000108A63184260800210032355B3E6D
:10253400860001308700403F2000BA00413FBB00C5
:102544004C0886004D0887004C31403FBC00413F99
:10255400BD009331E623080020003A08BC00390886
:10256400BB003B0886003C0887000108A7318C2784
:10257400923120003B0886003C0887000108A63100
:102584009026923120003B0886003C088700010811
:10259400A6319E26923120003B0886003C08870025
:1025A4000108A6318A26923120003B0886003C08A7
:1025B400870042313230C03F0030C13F3B088600C3
:1025C4003C08870044310030C03FC13F3B088600CF
:1025D4003C08870046310030C03FC13F3B088600BD
:1025E4003C08870048310030C03FC13F3B088600AB
:1025F4003C0887004A310030C03FC13F3B08860099
:102604003C0887004C310030C03FC13F2100B2017B
:10261400B3010430B0000030B100080020003A08D3
:10262400BC003908BB003B0886003C088700010851
:10263400A7318C27933120003B0886003C08870093
:102644000108A6319026933120003B0886003C08FF
:1026540087000108A6319E26933120003B0886009E
:102664003C0887000108A6318A2693319831A320BB
:10267400933120003B0886003C0887004D318101DE
:102684003B0886003C08870041310030C03FC13F11
:102694003B0886003C08870043310030C03FC13FFF
:1026A4003B0886003C08870045310030C03FC13FED
:1026B4003B0886003C08870047310030C03FC13FDB
:1026C4003B0886003C08870049310030C03FC13FC9
:1026D4003B0886003C0887004B310030C03FC13FB7
:1026E400080020003B08F2003A08F1009931162155
:1026F400933172082000C9007108C8006830860050
:102704000130870041308400003085000530C0006E
:1027140016001A00C00B8A2B4908A1004808A00023
:102724003F08F2003E08F1003D08F4003C08F300C5
:102734009B313F23933172082000A3007108A2004B
:102744009A314E22933120002108C7002008C60088
:10275400CA01CB0100304B02043003194A020318AA
:10276400DA2B4908A1004808A0004A084607A2003D
:102774004B08473DA3009A314E22933120003A087A
:10278400200784003B08213D85000008C0004A085A
:10279400413E86008701400881000130CA070030AD
:1027A400CB3D00304B02043003194A02031CB32B07
:1027B4004130B7000030B800C330A631CC26933185
:1027C400C330A6318426080032302000C400003013
:1027D400C5003B08F2003A08F10099311621933103
:1027E40072082000C9007108C800633086000130F7
:1027F40087003F308400003085000530BE0016009D
:102804001A00BE0B012C4908A1004808A000450885
:10281400F2004408F1003D08F4003C08F3009B3149
:102824003F23933172082000A3007108A2009A315B
:102834004E22933120002108C7002008C600CA0197
:10284400CB0100304B02043003194A020318512C07
:102854004908A1004808A0004A084607A2004B08FE
:10286400473DA3009A314E22933120003A082007B5
:1028740084003B08213D85000008BE004A083F3E15
:10288400860087013E0881000130CA070030CB3D35
:1028940000304B02043003194A02031C2A2C3F3037
:1028A400B7000030B800C330A631CC269331C33012
:1028B400A631842608002000EE00EF0110306F02DC
:1028C400031808006E08203E860002308700403F4F
:1028D400E200413FE3000130E4000030E5006F0A0C
:1028E400752CE435E50D890B732C62086405E6004C
:1028F40063086505E700660867040319D32C98315B
:10290400BE20943172082000E9007108E8006F3598
:102914006E07E2006208860002308700403FE30051
:10292400413FE4006308860064088700403FEA00F2
:10293400413FEB006A09E2006B09E300E20A031974
:10294400E30A68086207EC006908633DED006F352F
:102954006E07E2006208860002308700403FE30011
:10296400413FE40063088600640887004A31403F21
:10297400E500413FE60066086D02031DC32C6508AF
:102984006C02031CD32C6F356E07E20062088600CC
:1029940002308700403FE000413FE100993152217D
:1029A400943101302000E2006208EF07602C20001F
:1029B4005308D7005208D600210034033504031904
:1029C4000E2D9A31AA222000D4005408D5005608AE
:1029D40086005708870044310130C03F0030C13FB2
:1029E400560886005708870046310130C03F003042
:1029F400C13F560886005708870048310130C03F60
:102A04000030C13F56088600570887004A3101301C
:102A1400C03F0030C13F08009A31AA2294312000FF
:102A2400D4005408D5003A30BA00A830BB00560888
:102A34008600570887004231403FBC00413FBD003B
:102A44009331E62394312000560886005708870006
:102A540042310130810741310318810A560886004A
:102A64005708870044310030C03FC13F56088600F4
:102A74005708870046310030C03FC13F56088600E2
:102A84005708870048310030C03FC13F56088600D0
:102A9400570887004A310030C03FC13F56088600BE
:102AA400570887004C310130810741310318810AEE
:102AB400080001302000A3000030A400A801A901EF
:102AC40024082902031D682D230828020318142E44
:102AD4001930A0002008F1002808A731DC2795311F
:102AE400AA3E2000A1002108A7001930A000200858
:102AF400F1002808A731DC279531143EAA3E860050
:102B040001308700010820002707A1002108860062
:102B14000130870001087906031DFD2D2708F10007
:102B24000130F20099311621953172082000A60077
:102B34007108A5001930A0002008F1002808A73169
:102B4400DC279531143EAA3E86000130870001300F
:102B5400810741310318810A19302000A0002008A0
:102B6400F1002808A731DC279531143EAA3E8600DF
:102B740001308700403F2000A100413FA200260809
:102B84002206031DC72D25082106031D0E2E19300C
:102B9400A0002008F1002808A731DC279531143E55
:102BA400AA3E8600013087000030C03FC13F193083
:102BB4002000A0002008F1002808A731DC27953167
:102BC400173EAA3E86000130870019302000A1007C
:102BD4002108F1002808A731DC27163EAA3E84000C
:102BE40001308500000884008501403F803F413F5B
:102BF400813F0130080019302000A0002008F100B6
:102C04002808A731DC279531143EAA3E86000130FE
:102C140087000030C03FC13F01302000A8070030CA
:102C2400A93D622D00300800C3309E3197269631AD
:102C340020309831DB209631CB30F1000030F200A7
:102C44009C311D249631BE30F1000030F2009C31DD
:102C54001D2496313A30F1000130F2009C311D24DC
:102C640096312D30F1000130F2009C311D24963153
:102C74002030F1000130F2009C311D249631C33024
:102C84002100E40064082700A000C3302100E40010
:102C940064082300D500C3302100E4006408240044
:102CA400DE00C3302100E40064082400D000C330F7
:102CB4002100E40064082400C200FC01FC0AA030E6
:102CC4002100CD000330CE006B30CF000730D000A0
:102CD4009A30D3000830D4000030D1000030D20044
:102CE4000A30D5000030D600D530C0000130C10014
:102CF400AE30C2001230C300A730C6000030C70097
:102D04000030C4000030C5000A30C8000030C900DB
:102D14005E302200BC000230BD00EC30BE001E302C
:102D2400BF00D930C2001430C3000030C0000030EE
:102D3400C1000A30C4000030C5005030AF0002307A
:102D4400B0001030B1001330B2009330B50002303F
:102D5400B6000030B3000030B4000A30B7000030D1
:102D6400B8004230A2000230A3004630A4001F3055
:102D7400A5005D30A8000430A9000030A600003092
:102D8400A7000A30AA000030AB002100D801D90105
:102D94000230B4000030B500CB302000BD0000305C
:102DA400BE002030883118209631BE302000BD008E
:102DB4000030BE0020308831182096313A3020008F
:102DC400BD000130BE0020308831182096312D30EE
:102DD4002000BD000130BE0020308831182096311B
:102DE40020302000BD000130BE0020308831182082
:102DF4009631203094315D249631FB2E003400341A
:102E0400003420341034103420340034103410349E
:102E1400A5342134A53460341034303400341234F1
:102E2400103408342034203485344534B1343034FB
:102E3400103410341034103410341034103410346E
:102E4400103410341034103410341034103410345E
:102E5400103410341034103410341034103410344E
:102E6400103410341034103410341034103410343E
:102E7400103410341034103410341034003400344E
:102E8400C03440340034443410341034B434353451
:102E9400103410341034103400340434083408343A
:102EA400023402341E341E341434143440340034D6
:102EB400103410344034003402340834A9346334F8
:102EC4008034403431347034B0346034903451340C
:102ED400B0343134B134313480346034B134713489
:102EE40090347134103410341034103408340834ED
:102EF40030341034023402341434E134A5347034E0
:102F040091347134B134113421342134B134503416
:102F14002134313401343134B134213491345134D5
:102F240024342434A1344034093419342134013490
:102F340081344B3489344334A134613411347134D1
:102F4400A934613419347134B03431340434243440
:102F5400A1344134033409348B3441340A340A34FF
:102F640004340A3422342834213421340834023419
:102F7400A03460340A340034203400341034103463
:102F840091347134B134113431341034B134503497
:102F94002134313401343134B13421349134513455
:102FA40024342434A1344034093419342134013410
:102FB40081344B3489344334A13461341134713451
:102FC400A934613419347134B034313404342434C0
:102FD400A1344134033409348B3441340A340A347F
:102FE40004340A34223428341034103404340434BD
:102FF4001034103410341034FF34FF34F4007208E9
:10300400F30074088600013087007308810071089A
:10301400F300740A860001308700730881000800F9
:10302400FF30F1050330F2052500131E2328063076
:10303400F135F20D890B1A2872089200710891007B
:10304400080072089200710891000800FF30F10531
:103054000330F2052500171E39280630F135F20D2C
:10306400890B3028720896007108950008007208D0
:1030740096007108950008007208F4007108F300C6
:10308400F436F30CF436F30C73082C009800710832
:103094000339F3000530F335FF3E031D4D28733526
:1030A4009700080021002235473E86000130870042
:1030B400403FF300413FF40022082304031966282B
:1030C4000130A2020030A33B73085E04F1007408CF
:1030D4005F04F2000800F7007708F5007508F600B1
:1030E4000130F3020030F43B730A0319740A031924
:1030F40008007108F500760886000130870075081D
:1031040081000130F5007508F6077228F501F60113
:10311400711C90287308F5077408F63D0130F335E7
:10312400F40D890B91280130F236F10C890B9628A5
:1031340071087204031D8A287608F2007508F100EC
:1031440008000630F3000030F4007308FF3E21004D
:10315400A200FF30743DA3002235473E86000130B3
:103164008700403FF100413FF2005E087104A00077
:103174005F087204A100080020001508F30073081A
:10318400FA001608F3007308FB007A08F300F40150
:103194007B08F500F6017508F600F501730875075C
:1031A400F8007408763DF9007908F2007808F10017
:1031B4000800F2007208203E8600023087000030CA
:1031C400C03FC13FF3011030730203180800733588
:1031D4007207F10071088600023087000030C03F9A
:1031E400C13F0130F1007108F307E52810302000D9
:1031F40097004D309800FF309600FF309500160878
:103204002100B900200015082100B8002000901208
:1032140021009016FF30F1000730F200A631782625
:103224009831A631652608007208F6007108F50089
:1032340075088400760885001200031926290130D8
:10324400F5070030F63D1A297109F3007209F400FC
:10325400F30A0319F40A75087307F1007608743D3C
:10326400F2000800FB007B08053E86000130870061
:1032740020002B08C03F2C08C13F7B08053E860078
:1032840001308700403FF100413FF2007B08073ED8
:103294009831002099317B08073EA731CB270800DD
:1032A400200060088600610887004231403FD20058
:1032B400413FD30060088600610887004831413FE0
:1032C4008A00403F0A0099319831BE2020006008EE
:1032D4008600610887007108C03F7208C13F08007A
:1032E4009E3142269931A631B8269931A6317426E9
:1032F4009931A63196269931A73123279931A631E0
:10330400EB269931A631F6269931A7310127993157
:10331400A631C2269931A731172799319831F8205F
:1033240008002000AB002B08073EA7319B279931EA
:103334002030F1000030F2000430F3000030F400DB
:1033440020002B0898316D2020002B08043E8600B5
:103354000130870081012B08053E8600013087007B
:103364000030C03FC13F080000340234003401344F
:1033740080340034403400342034003401340134C7
:103384000234023401340234013402340434083483
:103394000034003400340034003400340034003489
:1033A4000034003400340034D8340134003406309E
:1033B400F5000030F60021002235473E860001303A
:1033C4008700403FF700413FF8007508FF3EF300D7
:1033D400FF30763DF40074082302031DF3297308BB
:1033E40022020318F9290130A2070030A33D78080E
:1033F400F2007708F100080000340034203400346F
:1034040060340034E0340034E0340134E034033414
:103414004E34A8341734A8342034A8342834A834BB
:103424005334A8343434A8340D34A8342E34A83496
:103434002034203420342034003420342034203408
:10344400203400342000B500B6013108B300300840
:10345400B20036083207840033080318330A8500A3
:103464001200031908003108B3003008B20036080E
:103474003207840033080318330A85000008B400B7
:103484003408AA0035089D31F0259A310130200016
:10349400B2003208B607272A2000200821040319A5
:1034A400762AFA01FA0AA11B612A0130A035A10D7E
:1034B400890B582A0130F9007908FA07552A21089E
:1034C4002302031D672A20082202031C6D2A2008F8
:1034D400A2022108A33B0130A136A00C890B6E2A5D
:1034E4000130FA02031D612A2308A1002208A0006A
:1034F40008007208F3007308F9007108F3007308F8
:10350400F800FA01FB0107307B0203189A2A7908B4
:103514000139F3007308FA040310F90C0310FA0DCF
:103524000130F3007308FB0707307B02031C892A70
:103534007A08F300F4017808F500F6017508F6003E
:10354400F50173087504F10074087604F2000800AC
:103554000F30F1007108F30020000E0E890C0139C0
:10356400FF3AF1007108F3050C0C890C01390907C5
:10357400FF3AF1007108F3050C0E0139F100013036
:10358400F135FF3E031DC22A7135FF3AF20072087D
:10359400F3050C0E890C0139F1000230F135FF3EC0
:1035A400031DD02A7135FF3AF2007208F30573083F
:1035B400080000302000A3000030A2000030A10069
:1035C4000030A000711CEF2A75082000A0077608BF
:1035D400A13D7708A23D7808A33D0130F535F60DED
:1035E400F70DF80D890BF02A0130F436F30CF20CC8
:1035F400F10C890BF72A7408730472047104031D17
:10360400E42A20002308F4002208F3002108F20031
:103614002008F10008007108860072088700423112
:103624002C30C03F0130C13F71088600720887000A
:1036340044310030C03FC13F7108860072088700E2
:1036440046310030C03FC13F7108860072088700D0
:1036540048310030C03FC13F7108860072088700BE
:103664004A310030C03FC13F7108860072088700AC
:103674004C310030C03FC13F0800F701F801710828
:10368400720403196E2BF601F60AF21B532B013058
:10369400F135F20D890B4A2B0130F5007508F60758
:1036A400472B0130F735F80D890B542B720874023F
:1036B400031D5E2B71087302031C652B7108F30252
:1036C4007208F43B77140130F236F10C890B662B47
:1036D4000130F602031D532B7808F2007708F1003D
:1036E400080080340034C0340034E0340034F03452
:1036F4000034F8340034FC340034FE340034FF3435
:103704000034FE340034FC340034F8340034F03433
:103714000034E0340034C034003480340034803465
:1037240001348034033480340B3480341B348034CB
:103734003B3480347B348034FB3480347B348034B9
:103744003B3480341B3480340B3480340334803471
:1037540001348034003440340034203400341034D4
:1037640000340834003404340034023400340134A6
:103774000034023400340434003408340034103487
:1037840000342034003440340034803400340034B5
:10379400013400340234003408340034103400346A
:1037A4002034003440340034803400344034003455
:1037B400203400341034003408340034023400342B
:1037C40001340B2C20003C08BA003B08B9009231AC
:1037D400052201302100B4000030B50008002000AB
:1037E4003C08BA003B08B90092310522033021009D
:1037F400B4000030B500080020003C08BA003B08C3
:10380400B9009231052202302100B4000030B50025
:10381400080021003308003A0319112C1C2C32082B
:10382400013A0319E42B033A0319F12B013A031962
:10383400FE2B1C2C080071088600720887000030DB
:10384400C03FC13F710886007208870042310030D2
:10385400C03FC13F710886007208870044310030C0
:10386400C03FC13F710886007208870046310030AE
:10387400C03FC13F7108860072088700483100309C
:10388400C03FC13F71088600720887004A31FF308B
:10389400C03FFF30C13F71080C3EF3000030723D61
:1038A400F4007308860074088700FF308100080064
:1038B4002000A7002008A200A301A235A30DF03028
:1038C400A4002630A5002208240786002308253DED
:1038D4008700403FA800413FA900211C7C2C2908F7
:1038E400F2002808F1009A317B2272082000A90016
:1038F4007108A8002135FF3A013E083EA2002208C3
:10390400A6002908A20026082707A300230886008A
:1039140001308700220881002808A2002608013E01
:103924002707A300230886000130870022088100AE
:1039340008000E302000B6000030B7003708A100A0
:103944003608A0003108A3003008A2009A314E22A4
:103954009C312000200809073C3E86000330870084
:10396400403FB400413FB5000E30B6000030B70010
:103974003708A1003608A0003108A3003008A200CF
:103984009A314E229C31200020080907203E8600EF
:1039940003308700403FB200413FB3003208B40413
:1039A4003308B5043508AE003408AD00C330A73180
:1039B400542708000E302000B6000030B700370846
:1039C400A1003608A0003108A3003008A2009A31F3
:1039D4004E229C31200020080907BC3E860002309C
:1039E4008700403FB400413FB5000E30B6000030C0
:1039F400B7003708A1003608A0003108A30030083A
:103A0400A2009A314E229C31200020080907A03ED2
:103A1400860002308700403FB200413FB3003208C5
:103A2400B4043308B5043508AE003408AD00C3301F
:103A3400A731542708002000390886003A08870077
:103A440041310030C03FC13F390886003A08870041
:103A540043310030C03FC13F390886003A0887002F
:103A640045310030C03FC13F390886003A0887001D
:103A740047310030C03FC13F390886003A0887000B
:103A840049310030C03FC13F390886003A088700F9
:103A94004B310030C03FC13F390886003A088700E7
:103AA4000108A63190269D312000390886003A0885
:103AB40087000108A6318A26080021005D08F40069
:103AC4005C08F3005B08F2005A08F1004130F8008A
:103AD400C630F7004E30F6006D30F5009A31DB2227
:103AE4009D3174082100DD007308DC007208DB00DE
:103AF4007108DA003930DA073030DB3D0030DC3D64
:103B04000030DD3D5A082000A60021005B0820009B
:103B1400A70021005C082000A80021005D08200007
:103B2400A9001030AA00A937A80CA70CA60CAA0B50
:103B3400952DFF302605A4007F302705A500080039
:103B4400F700F8017208031908007708031DD22D45
:103B5400D72D7308031DBA2D78087707F40074086D
:103B64008600013087000108A631A6269D31CE2D9E
:103B740078087707F400740886000130870001088C
:103B8400A631A6269D31F50078087307F60076085D
:103B940086008701750881000130F4007408F80775
:103BA4007208780203180800AB2D73080319080083
:103BB40072087802031808000030A631A6269D3149
:103BC400F40078087307F500750886008701740807
:103BD40081000130F4007408F807DA2D2000AF00EA
:103BE4002F0A8600013087000108AB002F088600E9
:103BF400013087002B0881002F08023E8600013027
:103C040087000108AB002F0A8600013087002B08CB
:103C140081002F08033E8600013087000108AB00B5
:103C24002F08023E8600013087002B0881002A08F5
:103C3400AB002F08033E8600013087002B0881006B
:103C4400AE01AE0104302E02031808002E082F071F
:103C5400AB002B088600013087000108AC002C085B
:103C6400A0002E08AD002D08A1002F08073E9C31AE
:103C74005A249D3101302000AB002B08AE07242EBE
:103C840022008C0180308D001A308E0037302100E4
:103C94008C0030308D0060308E00403023008E0068
:103CA4008D0103308C0024008D018C018E012500D0
:103CB4008C018D018E0100308B1B0130F1008B13C0
:103CC40055303C008F00AA308F000F103D002108B2
:103CD400E0390D38A1003C002108E0390C38A1007E
:103CE4002008E0390E38A0003D002408E0390238ED
:103CF400A4002008E0390C38A0002308E039033878
:103D0400A3001E08E03918389E002208E03919384B
:103D1400A20055303C008F00AA308F000F14711C94
:103D2400952E8B1708008B1308002000AC009931E6
:103D340072219E31A631B8269E319831F8209E31E9
:103D4400A631C2269E31A73101279E319E314226DB
:103D54009E31A631EB269E31A631F6269E31A7313F
:103D640017279E31A73123279E31A63196269E31EF
:103D74008030F1000030F200983112209E31220090
:103D84008D17C030F1000030F200983128209E31A8
:103D94000030840091308500003FF100013FF200C3
:103DA40098313E209E310030840091308500003FE0
:103DB400F100013FF200883102209E3120002C08DE
:103DC4009931932120002C08113E86000130870090
:103DD4008101080020003A08BC003908BB003B08F8
:103DE40086003C0887000108A7318C279E312000FB
:103DF4003B0886003C0887000108A63190269E31C6
:103E040020003B0886003C0887000108A6319E2656
:103E14009E3120003B0886003C0887000108A6313B
:103E24008A269E3120003B0886003C0887004231E8
:103E34000030C03FC13F3B0886003C088700443146
:103E44000030C03FC13F3B0886003C088700463134
:103E54000030C03FC13F3B0886003C088700483122
:103E64000030C03FC13F3B0886003C0887004A3110
:103E74000030C03FC13F3B0886003C0887004C31FE
:103E84000030C03FC13F080020003A08BC00390898
:103E9400BB003B0886003C0887000108A7318C273B
:103EA4009F3120003B0886003C0887000108A631AA
:103EB40090269F3120003B0886003C0887000108BB
:103EC400A6319E269F3120003B0886003C088700CF
:103ED4000108A6318A269F3120003B0886003C0851
:103EE400870042312C30C03F0130C13F3B0886007F
:103EF4003C08870044310030C03FC13F3B08860086
:103F04003C08870046310030C03FC13F3B08860073
:103F14003C08870048310030C03FC13F3B08860061
:103F24003C0887004A310030C03FC13F3B0886004F
:103F34003C0887004C310030C03FC13F08002100DD
:103F440026082704031DC12F2635533E8600013061
:103F54008700403F2000B700413FB8004C0886006E
:103F64004D0887000108A631CC269F3120004C085B
:103F740086004D0887000108A63184260800200029
:103F84004C0886004D08870046310108031DE92FBF
:103F940021002635533E860001308700403F200033
:103FA400BA00413FBB004C0886004D0887005C31D5
:103FB400403FBC00413FBD0021002B082000BF0052
:103FC40021002A082000BE00933173230800210039
:103FD4002635533E860001308700403F2000BA005A
:103FE400413FBB004C0886004D0887005C31403FD0
:103FF400BC00413FBD009331E62308000134003486
:104004000A34003464340034E8340334103427347C
:1040140005340734073408342D342D342034203447
:104024002D342D34093407340734063420340B344A
:044034002034003400
:104CCA0020009717080020001F1508002800171554
:104CDA00080022008D17080022008D1308001630E4
:104CEA0021009700080072082100B7007108B60079
:104CFA000800FB007B08073EA731CB2708002000ED
:104D0A00AB002B08A6317E2608002000B800380820
:104D1A00A731BB2708002000AB002B08A7316F275B
:104D2A00080040302400940022309500013092009F
:104D3A000800F1007108113E860001308700011455
:104D4A000800F1002400951371089100141CAB2E81
:104D5A001108080020003108AE003008AD00C33049
:104D6A00A73154270800320099019B019D010630A2
:104D7A009F009E011C180800BF2E013020009F00D2
:104D8A004A309E009D019110A63168260800200035
:104D9A00B9003808B1003708B00039089A3124221E
:104DAA00080001340034003400341F34F8340A3463
:104DBA00A0344E34A83421003608370403190800F9
:104DCA0037088A0036080A00A63108008F30250005
:104DDA0093009201953091001F08FC3901389F0019
:104DEA0008008F30250097009601E03095001F08D3
:104DFA00F33904389F0008007B3028009700FF3001
:104E0A009600950120009210A6316B260800F20048
:104E1A00FB30F1007208113E8600013087007108EC
:104E2A008105080090302C0099007F309800C0302E
:104E3A0097001F08FC3902389F00080090302C00A8
:104E4A009C007F309B00C0309A001F08F339083855
:104E5A009F0008006400800101310130FE02003029
:104E6A00FF3B7F087E0403190034302FFE00120036
:104E7A001E000130FE020030FF3B7F087E0403194A
:104E8A0000343C2F2000901221003908200096009F
:104E9A002100380820009500A631E02608002000ED
:104EAA00AF007C08031D2E152E08AC002D08AB00A0
:104EBA002F08993134210800F200F1013A307202C8
:104ECA0003186D2F30307202031C6D2FF101F10AA5
:104EDA00710C0800FB000030F100F2007B08073E6D
:104EEA0098310020A7317B08073EA731CB2708005D
:104EFA00F1007108113E8600013087008118080010
:104F0A007108113E86000130870001150800F10082
:104F1A007108113E860001308700011808007108E7
:104F2A00113E86000130870081140800FB00003022
:104F3A00F100F2000A30F3000030F4007B089831E7
:104F4A006D20A7317B08A731CB2708009D315F254B
:104F5A00A73120002508B1002408B0003108AE00AE
:104F6A003008AD00C330A731542708002000B7002D
:104F7A005830B000A830B10037089A312422A7313E
:104F8A0020003708073EA731CB2708002000AA00D7
:104F9A000A30F9007908F2002030FA007A08F300A2
:104FAA002A089D31A22522008E178E130800F400CC
:104FBA00F301741CE42F7108F2007208F30703105E
:104FCA00F10D0310F40C7408031DDE2F730808009A
:104FDA002100A201A3012235473E86000130870045
:104FEA00403FF100413FF2005E087104A0005F08F3
:104FFA007204A100080055344E344C344F34433403
:10500A004B3449344E3447342E342E342E34003443
:10501A00503441345334533457344F345234443473
:10502A00203400344E3455344C344C3449344634EC
:10503A0059342034003444344534463443344F34EC
:10504A004E34203400344834413458342034203427
:10505A0000344534583449345434203400345334F9
:10506A004C344F345434203400342434243424341B
:10507A00203400344C344F3443344B3400344F34EE
:10508A00503445344E340034503445345734203487
:10509A0000344E3455344C344C3400344D34453499
:1050AA004E34553400342034203420342034003433
:1050BA0044344F3457344E34003420342034553479
:0C50CA0050340034253434346434003495
:020000040001F9
:08000E008CFFF3FFFFFFFFFF71
:00000001FF
