:1000000080311628EA34BB347E14803120007F080A
:10001000F0002100901E11282000901E1128B231FE
:10002000EA2270082000FF007E10090080311828A5
:1000300000308400A7308500F0308600263087002D
:100040000130FF000030B231DE2280310030840008
:1000500090308500C7308600003087000030FF00F8
:100060000F30B231DE228031220080310220803117
:10007000EB00803103208031EC0018308400B43074
:100080008500D1308600013087000030FF00173036
:10009000B231DE22803180308400AA3085002030E9
:1000A0008600023087000030FF004830B231DE2287
:1000B000803130308400B5308500CA30860002308F
:1000C00087000030FF002330B231DE228031C8309B
:1000D0008400AA308500203086000330870000307D
:1000E000FF004930B231DE2280315B308400AB301A
:1000F0008500A0308600033087000030FF004C30C0
:10010000B231DE22803114308400B73085002030D7
:100110008600043087000030FF003830B231DE2224
:10012000803185308400B73085002030860005306E
:1001300087000030FF003A30B231DE228031FC010E
:10014000A0308400003085002730FE000030FF0022
:10015000B231D222803120308400013085004B3012
:10016000FE000030FF00B231D2228031A030840086
:10017000013085003130FE000030FF00B231D22264
:100180008031A0308400023085002A30FE0000302B
:10019000FF00B231D2228031A030840004308500CB
:1001A0003D30FE000030FF00B231D2228031A0305D
:1001B0008400053085002830FE000030FF00B23199
:1001C000D2227E1020008631612E20005308E600E6
:1001D0005208E50021003A033B0403191E29B631F9
:1001E0004B2680312000D4005408E40065088600C6
:1001F000660887005F310130C03F0030C13F6508AD
:10020000213E86000030663D87000130C03F00304F
:10021000C13F6508233E86000030663D87000130FF
:10022000C03F0030C13F6508253E86000030663D76
:1002300087000130C03F0030C13F0800B6314B2677
:1002400080312000D4005408E40065080B3EF10022
:100250000030663DF2000030F300F4001430F50089
:100260000030F600B4312F2480312000650886006C
:10027000660887004331403FD400413FD50000303D
:1002800055026430031954020318512A6608B3005A
:100290006508B200A931AB2180313230F100033062
:1002A000F200B431D324803172082000AC00710810
:1002B000AB00A9316821803120002408D400D50189
:1002C0005408AD005508AE00B531EF25803120004F
:1002D0002B08D6006508073ED7000030663DD800E1
:1002E0005708860058088700560881003230F10010
:1002F0000330F200B431D324803172082000AC0006
:100300007108AB00A9316821803120002408D40095
:10031000D5015408AD005508AE00B531EF25803148
:1003200020002B08D6006508083ED7000030663D47
:10033000D8005708860058088700560881003230D8
:10034000F1000330F200B431D32480317208200070
:10035000AC007108AB00A93168218031200024086D
:10036000D400D5015408AD005508AE00B531EF25D5
:10037000803120002B08D6006508093ED7000030E8
:10038000663DD80057088600580887005608810047
:100390003230F1000330F200B431D32480317208DE
:1003A0002000AC007108AB00A93168218031200029
:1003B0002408D400D5015408AD005508AE00B5316D
:1003C000EF25803120002B08D60065080A3ED700B3
:1003D0000030663DD8005708860058088700560848
:1003E000810065080B3EAF000030663DB0001C3058
:1003F000B100BB30B200650886006608870047314F
:100400000108323E8600033087000108D400D50180
:100410005408B3005508B4006508860066088700D4
:1004200048310108323E8600033087000108D600BB
:10043000D7015608B5005708B6006508860066085B
:10044000870049310108323E8600033087000108E9
:10045000D800D9015808B7005908B80065088600C7
:10046000660887004A310108323E86000330870063
:100470000108DA00DB015A08B9005B08BA009931BB
:10048000C2218031200065080B3EBA000030663D75
:10049000BB000130BC000030BD00A231D22280314F
:1004A000272E200065088600660887004331403FFC
:1004B000D400413FD50000305502C8300319540222
:1004C0000318472B6608B3006508B200A931AB21B9
:1004D00080313230F1000330F200B431D324803166
:1004E00072082000AC007108AB00A931682180318E
:1004F00020002408D400D5015408AD005508AE00F2
:10050000B531EF25803120002B08D6006508083E64
:10051000D7000030663DD80057088600580887008D
:10052000560881003230F1000330F200B431D32498
:10053000803172082000AC007108AB00A93168213D
:10054000803120002408D400D5015408AD0055089E
:10055000AE00B531EF25803120002B08D6006508AC
:10056000093ED7000030663DD8005708860058087D
:100570008700560881003230F1000330F200B431B8
:10058000D324803172082000AC007108AB00A9317F
:100590006821803120002408D400D5015408AD0022
:1005A0005508AE00B531EF25803120002B08D6006C
:1005B00065080A3ED7000030663DD800570886001F
:1005C000580887005608810065080B3EAF000030D0
:1005D000663DB0001C30B100BB30B2007C35D13E6E
:1005E000860001308700403FD400413FD5005408C9
:1005F0008400550885000008D600D7015608B300CE
:100600005708B4006508860066088700483101086D
:10061000323E8600033087000108D800D90158080F
:10062000B5005908B600650886006608870049319C
:100630000108323E8600033087000108DA00DB0142
:100640005A08B7005B08B80065088600660887008E
:100650004A310108323E8600033087000108DC0081
:10066000DD015C08B9005D08BA009931C221803112
:10067000200065080B3EBA000030663DBB0001302B
:10068000BC000030BD00A231D2228031272E2000D4
:1006900065088600660887004331403FD400413F2B
:1006A000D500013055022C300319540203181A2CBE
:1006B0006608B3006508B200A931AB218031323041
:1006C000F1000330F200B431D324803172082000ED
:1006D000AC007108AB00A9316821803120002408EA
:1006E000D400D5015408AD005508AE00B531EF2552
:1006F000803120002B08D6006508093ED700003065
:10070000663DD800570886005808870056088100C3
:100710003230F1000330F200B431D324803172085A
:100720002000AC007108AB00A931682180312000A5
:100730002408D400D5015408AD005508AE00B531E9
:10074000EF25803120002B08D60065080A3ED7002F
:100750000030663DD80057088600580887005608C4
:10076000810065080B3EAF000030663DB0001C30D4
:10077000B100BB30B2007C35D13E8600013087002D
:10078000403FD400413FD5005408840055088500FF
:100790000008D600D7015608B3005708B4007C35CE
:1007A000D13E860001308700403FD800413FD9004C
:1007B00001305807840059080318590A85000008B9
:1007C000DA00DB015A08B5005B08B6006508860050
:1007D0006608870049310108323E860003308700F1
:1007E0000108DC00DD015C08B7005D08B8006508A1
:1007F0008600660887004A310108323E86000330D1
:1008000087000108DE00DF015E08B9005F08BA005A
:100810009931C2218031200065080B3EBA000030BA
:10082000663DBB000130BC000030BD00A231D222C9
:100830008031272E20006508860066088700433136
:10084000403FD400413FD50001305502903003199C
:1008500054020318CA2C6608B3006508B200A93117
:10086000AB2180313230F1000330F200B431D324B7
:10087000803172082000AC007108AB00A9316821FA
:10088000803120002408D400D5015408AD0055085B
:10089000AE00B531EF25803120002B08D600650869
:1008A0000A3ED7000030663DD80057088600580839
:1008B00087005608810065080B3EAF000030663D9A
:1008C000B0001C30B100BB30B2007C35D13E860098
:1008D00001308700403FD400413FD50054088400D8
:1008E000550885000008D600D7015608B300570800
:1008F000B4007C35D13E860001308700403FD800EF
:10090000413FD90001305807840059080318590A9B
:1009100085000008DA00DB015A08B5005B08B60064
:100920007C35D13E860001308700403FDC00413FEE
:10093000DD0002305C0784005D0803185D0A850055
:100940000008DE00DF015E08B7005F08B800650838
:100950008600660887004A310108323E860003306F
:1009600087000108E000E1016008B9006108BA00F1
:100970009931C2218031200065080B3EBA00003059
:10098000663DBB000130BC000030BD00A231D22268
:100990008031272E200065088600660887004331D5
:1009A000403FD400413FD50001305502F4300319D7
:1009B00054020318832D6608BE006508BD00B531DA
:1009C0009E25803132302000AB000030AC0065083D
:1009D0008600660887004331403FAD00413FAE00CE
:1009E000B531EF258031003020002C021A30031978
:1009F0002B0203180D2D65080B3EF1000030663DFB
:100A0000F2002030F3000030F4000430F500003034
:100A1000F600B4312F248031742D200065080B3E80
:100A2000AF000030663DB0001C30B100BB30B200FA
:100A30007C35D13E860001308700403FD400413FE5
:100A4000D50054088400550885000008D600D70159
:100A50005608B3005708B4007C35D13E86000130FB
:100A60008700403FD800413FD9000130580784003B
:100A700059080318590A85000008DA00DB015A08F2
:100A8000B5005B08B6007C35D13E8600013087009A
:100A9000403FDC00413FDD0002305C0784005D0820
:100AA00003185D0A85000008DE00DF015E08B7005C
:100AB0005F08B8007C35D13E860001308700403F9A
:100AC000E000413FE1000330600784006108031843
:100AD000610A85000008E200E3016208B9006308CA
:100AE000BA009931C2218031200065080B3EBA005E
:100AF0000030663DBB000130BC000030BD00A231BB
:100B0000D2228031272E20006608BE006508BD0075
:100B1000B5319E25803132302000AB000030AC0072
:100B200065088600660887004331403FAD00413FBD
:100B3000AE00B531EF258031003020002C021A3094
:100B400003192B020318B62D65080B3EF100003087
:100B5000663DF2002030F3000030F4000430F50070
:100B60000030F600B4312F248031CD2D20006508EF
:100B70000B3EAF000030663DB0000230B100BC302B
:100B8000B2007C35203E860003308700403FB30032
:100B9000413FB4009931C2218031200065080B3EED
:100BA000BA000030663DBB00650886006608870015
:100BB0004331403FBC00413FBD001430BE00003017
:100BC000BF00A2315F2280312000650886006608E0
:100BD000870043311600E83AD4001600033AD404E3
:100BE000031D272E2100BA01BB013D082000B000E3
:100BF00021003C082000AF00AC31472420006508EC
:100C00008600660887005F310130C03F0030C13F79
:100C10006508213E86000030663D87000130C03FF8
:100C20000030C13F6508233E86000030663D8700E6
:100C30000130C03F0030C13F6508253E86000030CE
:100C4000663D87000130C03F0030C13F08002000F2
:100C5000650886006608870043310130810741310D
:100C60000318810A65088600660887005F31003036
:100C7000C03FC13F6508213E86000030663D8700C9
:100C80000030C03FC13F6508233E86000030663D0E
:100C900087000030C03FC13F6508253E8600003018
:100CA000663D87000030C03FC13F6508273E860093
:100CB0000030663D87000130810741310318810A09
:100CC0000800B230AC31F0248631A030B4317D243C
:100CD00086315C30B7314C2786314F30B7314C27E5
:100CE00086314230B7314C2786313530B7314C2709
:100CF00086312830B7314C278631C430B7314C2784
:100D00008631B2302000EE006E082900BF00B230FC
:100D10002000EE006E082500BC00B2302000EE007E
:100D20006E082B00A000B2302000EE006E082500F7
:100D3000AE00B2302000EE006E082500A000B230F8
:100D40002000EE006E082900A0002100C401C40AA2
:100D5000BF302200DE000430DF006430E0000730E6
:100D6000E1001930E4000830E5000030E200003016
:100D7000E3000A30E6000030E700BC30D10002306A
:100D8000D2000230D3002E30D4008F30D7001B3079
:100D9000D8000030D5000030D6000A30D90000302D
:100DA000DA00A030C4000530C5006430C6002E3023
:100DB000C700E530CA000030CB000030C80000306A
:100DC000C9000A30CC000030CD00AE30B700023090
:100DD000B8002D30B9002F30BA008630BD001D306C
:100DE000BE000030BB000030BC000A30BF00003045
:100DF000C000A030AA000230AB004530AC002D305E
:100E0000AD000530B0001830B1000030AE00003049
:100E1000AF000A30B2000030B300A0302300C6009B
:100E20000430C7004730C8002430C900CB30CC00A4
:100E30001030CD000030CA000030CB000A30CE00A8
:100E40000030CF002100C501C6010230BA000030D9
:100E5000BB005C302000EE006E08BF00A030A33164
:100E6000492386314F302000EE006E08BF00A030CD
:100E7000A3314923863142302000EE006E08BF00C6
:100E8000A030A3314923863135302000EE006E08B2
:100E9000BF00A030A3314923863128302000EE0066
:100EA0006E08BF00A030A33149238631C430200032
:100EB000EE006E08BF00A030A33149238631A03078
:100EC000A331C32386315F2F20003A08BC003908C4
:100ED000BB003B0886003C0887000108B331222391
:100EE000873120003B0886003C08870001088731D5
:100EF000FA27873120003B0886003C08870001085C
:100F0000B2314B22873120003B0886003C08870025
:100F10000108B2313D22873120003B0886003C08A1
:100F2000870041312330C03F0030C13F3B0886007D
:100F30003C08870044310030C03FC13F3B08860079
:100F40003C0887004A310030C03FC13F3B08860063
:100F50003C0887004C310030C03FC13F3B08860051
:100F60003C0887004E310030C03FC13F3B0886003F
:100F70003C08870050310030C03FC13F3B0886002D
:100F80003C08870052310030C03FC13F3B0886001B
:100F90003C08870054310030C03FC13F3B08860009
:100FA0003C08870056310030C03FC13F3B088600F7
:100FB0003C0887005C310030C03FC13F2100B201D6
:100FC000B30120003B0886003C08870043318101C3
:100FD0002100A801A9011D30A6000030A700323071
:100FE000AE000030AF003230AC000030AD00B001D8
:100FF000B10108002000AB002B08B3310523080025
:1010000021002435203E860002308700403FF30057
:10101000413FF40024082504031912280130A402DA
:101020000030A53B73085204F10074085304F20029
:10103000080020005308DF005208DE0002302100C3
:101040003A063B040319C62820005E0886005F08A4
:1010500087004A310130C03F0030C13F5E08860042
:101060005F0887004C310130C03F0030C13F5E084F
:1010700086005F0887004E310130C03F0030C13F1D
:101080005E0886005F08870050310130C03F0030A5
:10109000C13F5E0886005F08870052310130C03FC3
:1010A0000030C13F5E0886005F0887005431013080
:1010B000C03F0030C13F5E0886005F0887005631A0
:1010C0000130C03F0030C13F08002100C501C6010A
:1010D00020005E0886005F08870044310030C03F72
:1010E000C13F5E08063ED40000305F3DD500540885
:1010F000860055088700053081005E0886005F087D
:1011000087004A310130C03F0030C13F5E08860091
:101110005F0887004C310130C03F0030C13F5E089E
:1011200086005F0887004E310130C03F0030C13F6C
:101130005E0886005F08870050310130C03F0030F4
:10114000C13F5E0886005F08870052310130C03F12
:101150000030C13F5E0886005F08870054310130CF
:10116000C03F0030C13F5E0886005F0887005631EF
:101170000130C03F0030C13F5E0886005F08870035
:101180005C310130C03F0030C13F080021004608FB
:10119000003A0319CC28C4294508003A0319C42988
:1011A000013A03196528C429C42920005E08860075
:1011B0005F088700413116000104031DB829210092
:1011C00033082000B100210032082000B000A8310F
:1011D000E520883101302100B2070030B33D200006
:1011E0005E0886005F08870041312330C03F003031
:1011F000C13F5E2A5E0886005F0887004131160005
:101200000104031DB829210033082000B10021008A
:1012100032082000B000A831A4208831013021001C
:10122000B2070030B33D20005E0886005F088700EB
:1012300041310530C03F0030C13F5E2A5E08860064
:101240005F088700413116000104031DB729AA3148
:101250003822883120005E0886005F08870041310F
:1012600021002E08C03F2F08C13F5E2A5E0886007D
:101270005F088700413116000104031DB7290430BF
:10128000210033063204031D49293235B200330DE3
:10129000B30033082000B100210032082000B00064
:1012A000B2315C228831210032083304031D5D29EC
:1012B0000130B2000030B3005E2A3235B200330D87
:1012C000B30020005E0886005F08870041312100DE
:1012D0002E08C03F2F08C13F5E2A5E0886005F08C7
:1012E0008700413116000104031DB729210033088E
:1012F0002000B100210032082000B000B331AC233F
:10130000883101302100B2070030B33D20005E0873
:1013100086005F088700413121002E08C03F2F085A
:10132000C13F5E2A5E0886005F08870041311600D3
:101330000104031DB729210033082000B10021005A
:1013400032082000B000AE31C826883101302100BB
:10135000B2070030B33D20005E0886005F088700BA
:10136000413121002E08C03F2F08C13F5E2A2000D6
:101370005E0886005F0887004131013081024131FB
:101380000030813B7F315E2A20005E0886005F08C6
:1013900087004331010884000630040203185E2AE6
:1013A000B0310435003E82005E2AE530B700BB3024
:1013B000B8005E0886005F0887000108B231792214
:1013C000883120005E0886005F0887000108B2317E
:1013D00037228831522A5630AF000030B000FE303C
:1013E000B100BB30B20021002B082000B400210066
:1013F0002A082000B3009931C221883156302000DC
:10140000B7000030B8005E0886005F08870001085A
:10141000B2317922883120005E0886005F0887009B
:101420000108B2313722883120005E0886005F084B
:10143000870044311600963AD4001600D404031DE8
:10144000532A5E0886005F08870044310030C03FA1
:10145000C13F5E08063ED40000305F3DD500540811
:1014600086005508870023308100532A2100550843
:101470002000BB00210054082000BA005E0886004E
:101480005F0887004431403FBC00413FBD00A231AE
:10149000D2228831522A5F08CD005E08CC00A231EA
:1014A0000022883120005E0886005F0887004431F2
:1014B0000130810741310318810A722A20005E0839
:1014C00086005F08870046310108003A03194B2A5D
:1014D000023A0319D529013A0319EB29063A0319EF
:1014E000362A4B2AB6314B2688312000D400D5014C
:1014F0005408DC005508DD00362F5E0886005F08C2
:101500008700523116000104031D8C2A5E088600F4
:101510005F088700463181015E0886005F0887000A
:101520004A310030C03FC13F5E0886005F08870037
:101530004C310030C03FC13F5E0886005F08870025
:101540004E310030C03FC13F5E0886005F08870013
:1015500050310030C03FC13F5E0886005F08870001
:1015600052310130810741310318810A5E0886003B
:101570005F08870054310030C03FC13F5E088600DD
:101580005F08870056310030C03FC13F5E088600CB
:101590005F08870058310030C03FC13F5E088600B9
:1015A0005F0887005A310030C03FC13F5E088600A7
:1015B0005F0887005C310030C03FC13FC92F5E0823
:1015C00086005F088700543116000104031DF82AC5
:1015D000033021002F02E93003192E02031CF42AE4
:1015E000E830AE000330AF000530AE070030AF3D4D
:1015F00020005E0886005F0887004A310030C03F47
:10160000C13F5E0886005F0887004C310030C03F54
:10161000C13F5E0886005F0887004E310030C03F42
:10162000C13F5E0886005F08870050310030C03F30
:10163000C13F5E0886005F08870052310030C03F1E
:10164000C13F5E0886005F08870054310130810782
:1016500041310318810A5E0886005F088700563111
:101660000030C03FC13F5E0886005F0887005831E8
:101670000030C03FC13F5E0886005F0887005A31D6
:101680000030C03FC13F5E0886005F0887005C31C4
:101690000030C03FC13FC92F5E0886005F08870049
:1016A000563116000104031D652B003021002F0266
:1016B000053003192E020318612B0530AE000030EF
:1016C000AF000530AE020030AF3B20005E08860060
:1016D0005F0887004A310030C03FC13F5E08860086
:1016E0005F0887004C310030C03FC13F5E08860074
:1016F0005F0887004E310130810741310318810AAC
:101700005E0886005F08870050310030C03FC13F4F
:101710005E0886005F08870052310030C03FC13F3D
:101720005E0886005F08870054310030C03FC13F2B
:101730005E0886005F08870056310130810741311D
:101740000318810A5E0886005F0887005831003060
:10175000C03FC13F5E0886005F0887005A310030F5
:10176000C03FC13F5E0886005F0887005C310030E3
:10177000C03FC13FC92F5E0886005F0887005A310D
:1017800016000104031DD82B210028082904031981
:10179000D82B00302D02973003192C02031CD42BB8
:1017A0009630AC000030AD000230AC070030AD3DEB
:1017B00020005E0886005F0887004A310030C03F85
:1017C000C13F5E0886005F0887004C310130810709
:1017D00041310318810A5E0886005F0887004E3198
:1017E0000030C03FC13F5E0886005F08870050316F
:1017F0000130810741310318810A5E0886005F08C5
:10180000870052310030C03FC13F5E0886005F084C
:10181000870054310030C03FC13F5E0886005F083A
:10182000870056310030C03FC13F5E0886005F0828
:10183000870058310030C03FC13F5E0886005F0816
:1018400087005A310130810741310318810A5E084F
:1018500086005F0887005C310030C03FC13FC92F60
:101860005E0886005F088700583116000104031DDA
:101870004D2C21002808290403194D2C00302D027D
:10188000053003192C020318492C0530AC00003038
:10189000AD000330AC020030AD3B20005E08860096
:1018A0005F0887004A310030C03FC13F5E088600B4
:1018B0005F0887004C310130810741310318810AEC
:1018C0005E0886005F0887004E3101308107413194
:1018D0000318810A5E0886005F08870050310030D7
:1018E000C03FC13F5E0886005F088700523100306C
:1018F000C03FC13F5E0886005F088700543100305A
:10190000C03FC13F5E0886005F0887005631003047
:10191000C03FC13F5E0886005F0887005831013034
:10192000810741310318810A5E0886005F0887003D
:101930005A310030C03FC13F5E0886005F08870013
:101940005C310030C03FC13FC92F5E0886005F0890
:101950008700503116000104031DFB2C5E08860031
:101960005F088700473116000104031DFB2C00307F
:10197000AD00AE005E0886005F0887000108B33145
:101980005223883120005E0886005F0887004431BA
:101990000030C03FC13F5E0886005F0887004731C6
:1019A0006430C03F0030C13F5E0886005F0887009A
:1019B00041310530C03F0030C13F5E08033ED400D6
:1019C00000305F3DD500540886005508870001307F
:1019D00081005E08063ED40000305F3DD50054080B
:1019E000860055088700023081005E0886005F0887
:1019F0008700493181015E0886005F0887004A310F
:101A00000030C03FC13F5E0886005F0887004C3150
:101A10000030C03FC13F5E0886005F0887004E313E
:101A20000030C03FC13F5E0886005F08870050312C
:101A30000130810741310318810A5E0886005F0882
:101A4000870052310030C03FC13F5E0886005F080A
:101A5000870054310030C03FC13F5E0886005F08F8
:101A6000870056310030C03FC13F5E0886005F08E6
:101A7000870058310030C03FC13F5E0886005F08D4
:101A800087005A310030C03FC13F5E0886005F08C2
:101A900087005C310030C03FC13FC92F5E0886001F
:101AA0005F0887004C3116000104031D7C2D5E0881
:101AB00086005F0887004631810121002608FF3E2D
:101AC0002000D400FF302100273D2000D500210058
:101AD000290820005506031D712D2100280820002B
:101AE0005406031D772D2100A801A9017C2D01308A
:101AF0002100A8070030A93D20005E0886005F088D
:101B000087004A310030C03FC13F5E0886005F0851
:101B100087004C310130810741310318810A5E088A
:101B200086005F0887004E310030C03FC13F5E082D
:101B300086005F08870050310030C03FC13F5E081B
:101B400086005F08870052310030C03FC13F5E0809
:101B500086005F08870054310030C03FC13F5E08F7
:101B600086005F08870056310030C03FC13F5E08E5
:101B700086005F08870058310030C03FC13F5E08D3
:101B800086005F0887005A310030C03FC13F5E08C1
:101B900086005F0887005C310030C03FC13FC92F1D
:101BA0005E0886005F0887004A3116000104031DA5
:101BB0003E2E003021003102053003193002031C93
:101BC000E32DB001B10130083104031DF42D2000D4
:101BD0005E08033ED40000305F3DD5005408860007
:101BE0005508870004308100210030033104031DB3
:101BF000062E20005E08033ED40000305F3DD50075
:101C00005408860055088700023081000230210008
:101C100030063104031D192E20005E08033ED40057
:101C200000305F3DD500540886005508870003301A
:101C300081000330210030063104031D262E2000D0
:101C40005E0886005F08870043318101043021006F
:101C500030063104031D392E20005E08033ED400F7
:101C600000305F3DD50054088600550887000530D8
:101C7000810001302100B0070030B13D20005E0836
:101C800086005F0887004A3101308107413103181F
:101C9000810A5E0886005F0887004C310030C03F33
:101CA000C13F5E0886005F0887004E310030C03FAC
:101CB000C13F5E0886005F08870050310030C03F9A
:101CC000C13F5E0886005F08870052310030C03F88
:101CD000C13F5E0886005F08870054310030C03F76
:101CE000C13F5E0886005F08870056310030C03F64
:101CF000C13F5E0886005F08870058310030C03F52
:101D0000C13F5E0886005F0887005A310030C03F3F
:101D1000C13F5E0886005F0887005C310030C03F2D
:101D2000C13FC92F5E0886005F0887004A31003036
:101D3000C03FC13F5E0886005F0887004C3100301D
:101D4000C03FC13F5E0886005F0887004E3100300B
:101D5000C03FC13F5E0886005F08870050310030F9
:101D6000C03FC13F5E0886005F08870052310030E7
:101D7000C03FC13F5E0886005F08870054310030D5
:101D8000C03FC13F5E0886005F08870056310030C3
:101D9000C03FC13F5E0886005F08870058310030B1
:101DA000C03FC13F5E0886005F0887005A3100309F
:101DB000C03FC13F5E0886005F0887005C3101308C
:101DC000810741310318810AC92F5E0886005F0828
:101DD00087004A310030C03FC13F5E0886005F087F
:101DE00087004C310030C03FC13F5E0886005F086D
:101DF00087004E310030C03FC13F5E0886005F085B
:101E0000870050310030C03FC13F5E0886005F0848
:101E1000870052310030C03FC13F5E0886005F0836
:101E2000870054310030C03FC13F5E0886005F0824
:101E3000870056310030C03FC13F5E0886005F0812
:101E4000870058310030C03FC13F5E0886005F0800
:101E500087005A310030C03FC13F5E0886005F08EE
:101E600087005C310030C03FC13FC92F5D08003A98
:101E700003193B2FE52E5C08003A0319922E013A14
:101E80000319D02D033A03194E2D073A03194C2B91
:101E9000033A0319302C0E3A0319A52C013A031901
:101EA000DF2A033A0319BB2B063A03197D2AE52ED4
:101EB000C92F5E0886005F08870047311600643A24
:101EC000D4001600D404031D702F5E0886005F083E
:101ED00087000108B33113238831B23124228831BD
:101EE00020005E0886005F08870047311600633ACD
:101EF000D4001600D404031D892FB2312122883169
:101F000020005E0886005F0887000108B231AF221A
:101F1000883120005E0886005F0887004731160080
:101F20000104031DBD2F5E0886005F088700443151
:101F30000030C03FC13F5E0886005F088700413126
:101F40000530C03F0030C13F5E0886005F08870053
:101F5000433181015E0886005F08870046318101B8
:101F60005E08093ED40000305F3DD500540886006D
:101F70005508870001308100D62F5E0886005F0873
:101F8000870047310130810241310030813B7F3190
:101F9000D62F5E0886005F08870049310108003AA5
:101FA0000319592F013A0319D62FD62F9831002043
:101FB0008831003A0319080020005E0886005F0897
:101FC000870049310108031908005E0886005F0890
:101FD000870044310030C03FC13F01302100AA07D3
:101FE0000030AB3D20005E08063ED40000305F3D6F
:101FF000D50054088600550887000330810008008A
:1020000020342034203420340034013400340034AF
:102010000034013400341F34F8344534BA3401300C
:102020002000A3000030A400A801A901240829026F
:10203000031D1C28230828020318C9281930A000F2
:102040002008F1002808B331632390314F3E20006F
:10205000A1002108A7001930A0002008F1002808DD
:10206000B33163239031143E4F3E86000230870027
:10207000010820002707A100210886000230870000
:1020800001087906031DB2282708F1000230F2008A
:10209000B431D324903172082000A6007108A50045
:1020A0001930A0002008F1002808B33163239031D3
:1020B000143E4F3E860002308700013081074131D7
:1020C0000318810A19302000A0002008F100280818
:1020D000B33163239031143E4F3E860002308700B7
:1020E000403F2000A100413FA20026082206031D18
:1020F0007B2825082106031DC3281930A0002008CD
:10210000F1002808B33163239031143E4F3E86001E
:10211000023087000030C03FC13F19302000A000CE
:102120002008F1002808B33163239031173E4F3E59
:1021300086000230870019302000A1002108F1003C
:102140002808B3316323163E4F3E840002308500D9
:102150000008840001308500403F803F413F813FBF
:102160000130080019302000A0002008F1002808E4
:10217000B33163239031143E4F3E86000230870016
:102180000030C03FC13F01302000A8070030A93D0A
:1021900016280030080020005308DB005208DA003F
:1021A000D8013230D4005408D900043021003A0656
:1021B0003B040319012920005A0886005B088700A8
:1021C00049310130C03F0030C13F5A0886005B08EA
:1021D00087004B310130C03F0030C13F5A088600B4
:1021E0005B0887004D310130C03F0030C13F5A08C5
:1021F00086005B0887004F310130C03F0030C13F8F
:10220000080020005A0886005B088700413101035E
:10221000031D39295A0886005B08870043311600E0
:102220000104031D2E29210021082000B1002100F6
:1022300020082000B000AE31C826903101302100C6
:10224000A0070030A13D20005A0886005B088700E7
:1022500043310A30C03F0030C13F39295A08860057
:102260005B08870043310130810241310030813BFE
:102270007F31B6314B2690312000D4005408D8006D
:10228000932F5A0886005B0887004931403FD400ED
:10229000413FD5005908D600D70155085706031D00
:1022A000532954085606031D6C295B08F8005A0888
:1022B000F7005808D4005408F900A5318A25903158
:1022C0002000D50055082100C20020005A088600D1
:1022D0005B088700423181015A0886005B0887004D
:1022E00049310130810741310318810A5A088600BB
:1022F0005B0887004B310030C03FC13F5A08860061
:102300005B0887004D310030C03FC13F5A0886004E
:102310005B0887004F310030C03FC13F5A0886003C
:102320005B08870051310030C03FC13F5A0886002A
:102330005B08870053310030C03FC13F5A08860018
:102340005B08870055310030C03FC13F5A08860006
:102350005B08870057310030C03FC13F5A088600F4
:102360005B08870059310030C03FC13F5A088600E2
:102370005B0887005B310030C03FC13F5A088600D0
:102380005B0887005D310030C03FC13F5A088600BE
:102390005B08870047312C30C03F0130C13FB42F6C
:1023A0005A0886005B0887004B31403FD400413F0C
:1023B000D5005908D600D70155085706031DE22954
:1023C00054085606031D012A5B08F8005A08F70056
:1023D0005808D4005408F900A5318A25903120000E
:1023E000D50055082100C20020005A08023ED40042
:1023F00000305B3DD5005408860055088700023048
:1024000081005A0886005B08870049310030C03FD0
:10241000C13F5A0886005B0887004B3101308107B5
:1024200041310318810A5A0886005B0887004D3144
:102430000030C03FC13F5A0886005B0887004F311B
:102440000030C03FC13F5A0886005B088700513109
:102450000030C03FC13F5A0886005B0887005331F7
:102460000030C03FC13F5A0886005B0887005531E5
:102470000030C03FC13F5A0886005B0887005731D3
:102480000030C03FC13F5A0886005B0887005931C1
:102490000030C03FC13F5A0886005B0887005B31AF
:1024A0000030C03FC13F5A0886005B0887005D319D
:1024B0000030C03FC13F5A0886005B0887004731A3
:1024C0002C30C03F0130C13FB42F5A0886005B0852
:1024D00087004D31403FD400413FD5005908D60018
:1024E000D70155085706031D772A54085606031DC1
:1024F000962A5B08F8005A08F7005808D4005408D8
:10250000F900A5318A2590312000D5005508210019
:10251000C20020005A08023ED40000305B3DD500C6
:102520005408860055088700033081005A08860049
:102530005B08870049310030C03FC13F5A08860020
:102540005B0887004B310030C03FC13F5A0886000E
:102550005B0887004D310130810741310318810A42
:102560005A0886005B0887004F310030C03FC13FEA
:102570005A0886005B08870051310030C03FC13FD8
:102580005A0886005B08870053310030C03FC13FC6
:102590005A0886005B08870055310030C03FC13FB4
:1025A0005A0886005B08870057310030C03FC13FA2
:1025B0005A0886005B08870059310030C03FC13F90
:1025C0005A0886005B0887005B310030C03FC13F7E
:1025D0005A0886005B0887005D310030C03FC13F6C
:1025E0005A0886005B08870047312C30C03F013015
:1025F000C13FB42F5A0886005B0887004F31403F27
:10260000D400413FD5005908D600D70155085706D8
:10261000031D0C2B54085606031D2B2B5B08F800DA
:102620005A08F7005808D4005408F900A5318A2543
:1026300090312000D50055082100C20020005A0822
:10264000023ED40000305B3DD5005408860055089A
:102650008700013081005A0886005B0887004931F5
:102660000030C03FC13F5A0886005B0887004B31ED
:102670000030C03FC13F5A0886005B0887004D31DB
:102680000030C03FC13F5A0886005B0887004F31C9
:102690000130810741310318810A5A0886005B081E
:1026A000870051310030C03FC13F5A0886005B08A7
:1026B000870053310030C03FC13F5A0886005B0895
:1026C000870055310030C03FC13F5A0886005B0883
:1026D000870057310030C03FC13F5A0886005B0871
:1026E000870059310030C03FC13F5A0886005B085F
:1026F00087005B310030C03FC13F5A0886005B084D
:1027000087005D310030C03FC13F5A0886005B083A
:10271000870047312C30C03F0130C13FB42F5A08E9
:1027200086005B0887005131403FD400413FD5000F
:102730005908D600D70155085706031DA12B540888
:102740005606031DC02B5B08F8005A08F7000C3032
:10275000D4005408F900A5318A2590312000D50015
:1027600055082100C20020005A08023ED400003063
:102770005B3DD5005408860055088700083081006D
:102780005A0886005B08870049310030C03FC13FCE
:102790005A0886005B0887004B310030C03FC13FBC
:1027A0005A0886005B0887004D310030C03FC13FAA
:1027B0005A0886005B0887004F310030C03FC13F98
:1027C0005A0886005B08870051310130810741318A
:1027D0000318810A5A0886005B08870053310030CD
:1027E000C03FC13F5A0886005B0887005531003062
:1027F000C03FC13F5A0886005B0887005731003050
:10280000C03FC13F5A0886005B088700593100303D
:10281000C03FC13F5A0886005B0887005B3100302B
:10282000C03FC13F5A0886005B0887005D31003019
:10283000C03FC13F5A0886005B08870047312C30F3
:10284000C03F0130C13FB42F5A0886005B088700A3
:102850005331403FD400413FD5005908D600D7013D
:1028600055085706031D362C54085606031D552CD3
:102870005B08F8005A08F7000930D4005408F90042
:10288000A5318A2590312000D50055082100C200CD
:1028900020005A08023ED40000305B3DD5005408A9
:1028A000860055088700053081005A0886005B08BD
:1028B000870049310030C03FC13F5A0886005B089D
:1028C00087004B310030C03FC13F5A0886005B088B
:1028D00087004D310030C03FC13F5A0886005B0879
:1028E00087004F310030C03FC13F5A0886005B0867
:1028F000870051310030C03FC13F5A0886005B0855
:10290000870053310130810741310318810A5A0889
:1029100086005B08870055310030C03FC13F5A0830
:1029200086005B08870057310030C03FC13F5A081E
:1029300086005B08870059310030C03FC13F5A080C
:1029400086005B0887005B310030C03FC13F5A08FA
:1029500086005B0887005D310030C03FC13F5A08E8
:1029600086005B08870047312C30C03F0130C13FF3
:10297000B42F5A0886005B0887005531403FD400C9
:10298000413FD5005908D600D70155085706031D09
:10299000CB2C54085606031DEA2C5B08F8005A0895
:1029A000F7000530D4005408F900A5318A2590318C
:1029B0002000D50055082100C20020005A08023E20
:1029C000D40000305B3DD5005408860055088700D0
:1029D000043081005A0886005B08870049310030C6
:1029E000C03FC13F5A0886005B0887004B3100306A
:1029F000C03FC13F5A0886005B0887004D31003058
:102A0000C03FC13F5A0886005B0887004F31003045
:102A1000C03FC13F5A0886005B0887005131003033
:102A2000C03FC13F5A0886005B0887005331003021
:102A3000C03FC13F5A0886005B088700553101300E
:102A4000810741310318810A5A0886005B08870014
:102A500057310030C03FC13F5A0886005B088700ED
:102A600059310030C03FC13F5A0886005B088700DB
:102A70005B310030C03FC13F5A0886005B088700C9
:102A80005D310030C03FC13F5A0886005B088700B7
:102A900047312C30C03F0130C13FB42F5A08860067
:102AA0005B0887005731403FD400413FD5005908AB
:102AB000D600D70155085706031D602D5408560649
:102AC000031D7F2D5B08F8005A08F7000630D4007C
:102AD0005408F900A5318A2590312000D500550809
:102AE0002100C20020005A08023ED40000305B3DA5
:102AF000D5005408860055088700073081005A0821
:102B000086005B08870049310030C03FC13F5A084A
:102B100086005B0887004B310030C03FC13F5A0838
:102B200086005B0887004D310030C03FC13F5A0826
:102B300086005B0887004F310030C03FC13F5A0814
:102B400086005B08870051310030C03FC13F5A0802
:102B500086005B08870053310030C03FC13F5A08F0
:102B600086005B08870055310030C03FC13F5A08DE
:102B700086005B0887005731013081074131031817
:102B8000810A5A0886005B08870059310030C03F2F
:102B9000C13F5A0886005B0887005B310030C03FA8
:102BA000C13F5A0886005B0887005D310030C03F96
:102BB000C13F5A0886005B08870047312C30C03F70
:102BC0000130C13FB42F5A0886005B088700593195
:102BD000403FD400413FD5005908D600D7015508E1
:102BE0005706031DF52D54085606031D142E5B08C9
:102BF000F8005A08F7000A30D4005408F900A5314B
:102C00008A2590312000D50055082100C2002000FF
:102C10005A08023ED40000305B3DD50054088600BF
:102C200055088700093081005A0886005B08870034
:102C300049310030C03FC13F5A0886005B08870019
:102C40004B310030C03FC13F5A0886005B08870007
:102C50004D310030C03FC13F5A0886005B088700F5
:102C60004F310030C03FC13F5A0886005B088700E3
:102C700051310030C03FC13F5A0886005B088700D1
:102C800053310030C03FC13F5A0886005B088700BF
:102C900055310030C03FC13F5A0886005B088700AD
:102CA00057310030C03FC13F5A0886005B0887009B
:102CB00059310130810741310318810A5A088600D1
:102CC0005B0887005B310030C03FC13F5A08860077
:102CD0005B0887005D310030C03FC13F5A08860065
:102CE0005B08870047312C30C03F0130C13FB42F13
:102CF0005A0886005B0887005B31403FD400413FA3
:102D0000D5005908D600D70155085706031D8A2E4D
:102D100054085606031DA92E5B08F8005A08F70050
:102D20000330D4005408F900A5318A2590312000E1
:102D3000D50055082100C20020005A08023ED400E8
:102D400000305B3DD50054088600550887000630EA
:102D500081005A0886005B08870049310030C03F77
:102D6000C13F5A0886005B0887004B310030C03FE6
:102D7000C13F5A0886005B0887004D310030C03FD4
:102D8000C13F5A0886005B0887004F310030C03FC2
:102D9000C13F5A0886005B08870051310030C03FB0
:102DA000C13F5A0886005B08870053310030C03F9E
:102DB000C13F5A0886005B08870055310030C03F8C
:102DC000C13F5A0886005B08870057310030C03F7A
:102DD000C13F5A0886005B08870059310030C03F68
:102DE000C13F5A0886005B0887005B3101308107CC
:102DF00041310318810A5A0886005B0887005D315B
:102E00000030C03FC13F5A0886005B088700473149
:102E10002C30C03F0130C13FB42F5A0886005B08F8
:102E200087005D310130810741310318810A5A085A
:102E300086005B08870049310030C03FC13F5A0817
:102E400086005B0887004B310030C03FC13F5A0805
:102E500086005B0887004D310030C03FC13F5A08F3
:102E600086005B0887004F310030C03FC13F5A08E1
:102E700086005B08870051310030C03FC13F5A08CF
:102E800086005B08870053310030C03FC13F5A08BD
:102E900086005B08870055310030C03FC13F5A08AB
:102EA00086005B08870057310030C03FC13F5A0899
:102EB00086005B08870059310030C03FC13F5A0887
:102EC00086005B0887005B310030C03FC13F2100B6
:102ED000420803197F2F20005A08023ED400003018
:102EE0005B3DD50054088600550887000B308100F3
:102EF0005A0886005B08870041318101B42F200009
:102F00005A0886005B088700473101308102413151
:102F10000030813B7F315B08CD005A08CC00A431E2
:102F2000E7249031B42F20005808013A03194129B1
:102F3000033A0319D029013A0319782E073A0319E5
:102F4000652A013A0319B92C033A03194E2D0E3A9A
:102F50000319FA2A013A0319242C033A0319E32D21
:102F6000063A03198F2B0D2F210042080319CB2F8E
:102F700020005A08023ED40000305B3DD5005408C2
:102F80008600550887000B3081005A0886005B08D0
:102F900087004131810120005A0886005B088700C4
:102FA00042310B300106031D08005A0886005B08F9
:102FB0008700433116000104031DF42F5A088600D0
:102FC0005B0887005D31403FB000413FB100A83150
:102FD000A42020005A0886005B0887004331143083
:102FE000C03F0030C13F08005A0886005B088700D8
:102FF00043310130810241310030813B7F31080093
:1030000020000D0E890C0139080020005308D9005A
:103010005208D800D601B6314B2698312000D40092
:103020005408D700A529580886005908870042315E
:1030300016000104031D2D28580886005908870032
:1030400042312C30C03F0130C13F5908F8005808C8
:10305000F700F901A631452698312000580886006E
:103060005908870044310030C03FC13F58088600EE
:103070005908870046310030C03FC13F58088600DC
:103080005908870048310030C03FC13F58088600CA
:10309000590887004A310030C03FC13F58088600B8
:1030A000590887004C310130810741310318810AEA
:1030B00058088600590887004231013081024131A9
:1030C0000030813B7F31B7295808860059088700B6
:1030D000443116000104031D7C285908F8005808E3
:1030E000F7005708D4005408F900A6314526983156
:1030F0002000D5005508D6005808860059088700DA
:1031000044310130810741310318810A5808860093
:103110005908870046310030C03FC13F580886003B
:103120005908870048310030C03FC13F5808860029
:10313000590887004A310030C03FC13F5808860017
:10314000590887004C310030C03FC13F5808860005
:103150005908870042312C30C03F0130C13FB729A8
:103160005808860059088700463116000104031DDF
:10317000C8285908F8005808F7005708D400540820
:10318000F900A631452698312000D5005508D60013
:10319000580886005908870044310030C03FC13FBD
:1031A00058088600590887004631013081074131AF
:1031B0000318810A580886005908870048310030F2
:1031C000C03FC13F58088600590887004A31003087
:1031D000C03FC13F58088600590887004C31003075
:1031E000C03FC13F580886005908870042312C3043
:1031F000C03F0130C13FB7295808860059088700F1
:10320000483116000104031D14295908F800580814
:10321000F7005708D4005408F900A6314526983124
:103220002000D5005508D6005808860059088700A8
:1032300044310030C03FC13F58088600590887001C
:1032400046310030C03FC13F58088600590887000A
:1032500048310130810741310318810A580886003E
:10326000590887004A310030C03FC13F58088600E6
:10327000590887004C310030C03FC13F58088600D4
:103280005908870042312C30C03F0130C13FB72977
:1032900058088600590887004A3116000104031DAA
:1032A00060295908F8005808F7005708D400540856
:1032B000F900A631452698312000D5005508D600E2
:1032C000580886005908870044310030C03FC13F8C
:1032D000580886005908870046310030C03FC13F7A
:1032E000580886005908870048310030C03FC13F68
:1032F00058088600590887004A310130810741315A
:103300000318810A58088600590887004C3100309C
:10331000C03FC13F580886005908870042312C3011
:10332000C03F0130C13FB7295908F8005808F700DD
:10333000F901A6314526983120005908F2005808B5
:10334000F100B631AE269831B72920005708003A6F
:1033500003191328013A03196428033A0319B02802
:10336000063A0319FC280C3A03194829942920002D
:103370005608031908005908F2005808F100B63140
:10338000AE26080033302000BB003B08C3003208E3
:10339000BC003108BB00B10A0319B20A3B08840023
:1033A0003C0885000008BD003D08CA004A08031912
:1033B000882B25304A060319E8292F088600300893
:1033C00087004A0881000130AF070030B03DC729AF
:1033D000C801C901C0013108840032088500000815
:1033E000B231F7229931031CA12A2000C801C9017A
:1033F0000A30F1000030F20020004908F4004808CB
:10340000F300B4314724993172082000C9007108D3
:10341000C80031088400320885000008D03EBB0097
:10342000FF3003180030BC003B08C8073C08C93D0A
:103430000130B1070030B23D310884003208850008
:103440000008B231F7229931031CA12AF829200083
:10345000430886008701403FC100413FC20002305F
:10346000BB003B08C30741084204031D3B2A6E30E2
:10347000C100BB30C200C601C70141084607840035
:103480004208473D8500120003194B2A0130C60748
:103490000030C73D3D2A49084702031D512A48080C
:1034A00046020318582A4608C8024708C93B5A2A48
:1034B000C801C901FF30C807FF30C93D480A0319D8
:1034C000490A0319822A2F08860030088700203015
:1034D00081000130AF070030B03D5A2A4108840016
:1034E000420885000008BB002F08860030088700CE
:1034F0003B0881000130C1070030C23D0130AF07F9
:103500000030B03D0130C6020030C73B460A031D03
:103510006E2A470A0319C7296E2A430886008701C5
:103520000108BB003B08CA000230BB003B08C307D0
:103530004A30C1000030C2000130C6000030C70070
:103540004B2A20003208BC003108BB00B10A031925
:10355000B20A3B0884003C0885000008CA00003A13
:103560000319882B633A03198D2A073A0319BF2AD6
:103570000D3A0319BF2A1A3A0319272A982A20005C
:10358000430886008701403FC400413FC500023028
:10359000BB003B08C307C51FD62A0330BB003B084E
:1035A000C004C409C509C40A0319C50ACA01CA0A64
:1035B00005304A060319FB2A4A08BB00BC01BB358B
:1035C000BC0D00303B078400A8303C3D8500003F27
:1035D000BD00013FBE003E084502031DF12A3D0823
:1035E0004402031CFB2A0130BB003B08CA0705301C
:1035F0004A06031DDC2A480849040319072B400822
:1036000003390319072BFF30C807FF30C93D4A08AB
:10361000BB00BC01BB1BBC033C08803ABD00490891
:10362000803A3D02031D162B48083B020318232B4A
:1036300020004A08BB00BC01BB1BBC033B08C802FE
:103640003C08C93B262B2000C801C9014808490491
:1036500003193C2B2F08860030088700203081009A
:103660000130AF070030B03DFF30C807FF30C93D23
:1036700048084904031D2A2B4008033903194A2B23
:103680002F088600300887002D3081000130AF07F9
:103690000030B03D4A08BB003B08BF00FF30BB0014
:1036A0003B08BF073F0A0319C7290A30AB000030A7
:1036B000AC003F08BB00BC01BB35BC0D00303B0774
:1036C0008400A8303C3D8500003FF100013FF2003E
:1036D0004508F4004408F300B631E0269931720839
:1036E0002000AE007108AD00B531EF259931200002
:1036F0002B08303EBD003D08CA002F088600300868
:1037000087004A0881000130AF070030B03D4E2BE2
:1037100020002F0886003008870081010800200063
:103720005308D8005208D70021003A083B04031977
:10373000132CB6314B269B312000D4005408D60000
:103740000D2C2100BA01BB0120005808BA0057080F
:10375000B900A931F1219B3121003D082000B000C2
:1037600021003C082000AF00AC3147249B312000F1
:10377000570886005808870044310130C03F0030A8
:10378000C13F570886005808870046310130C03FC6
:103790000030C13F57088600580887004831013083
:1037A000C03F0030C13F57088600580887004A31A3
:1037B0000130C03F0030C13F2100B601B7012000F9
:1037C0005808CD005708CC00AD31A02508002000D6
:1037D000570886005808870044310130C03F003048
:1037E000C13F570886005808870046310130C03F66
:1037F0000030C13F57088600580887004831013023
:10380000C03F0030C13F57088600580887004A3142
:103810000130C03F0030C13F080056080B3A031981
:10382000A12BE72B0800B6314B269B312000D4009A
:103830005408D600742D5708860058088700443174
:1038400016000104031D342C210036083704031D23
:10385000302C3408FF3EB600FF30353DB700342C25
:103860000130B6020030B73B20005808CD005708A1
:10387000CC00AD31A0259B312000570886005808A8
:10388000870044310130810741310318810A57080C
:1038900086005808870046310030C03FC13F5708B6
:1038A00086005808870048310030C03FC13F5708A4
:1038B0008600580887004A310030C03FC13F570892
:1038C0008600580887004C310030C03FC13F0800D7
:1038D0005708860058088700463116000104031D6A
:1038E000902C21003408FF3E2000D400FF3021003E
:1038F000353D2000D5002100370820005506031D66
:10390000852C2100360820005406031D8B2C210035
:10391000B601B701902C01302100B6070030B73D49
:1039200020005808CD005708CC00AD31A0259B31B0
:103930002000570886005808870044310030C03FF7
:10394000C13F57088600580887004631013081077B
:1039500041310318810A570886005808870048310A
:103960000030C03FC13F57088600580887004A31E1
:103970000030C03FC13F57088600580887004C31CF
:103980000030C03FC13F0800570886005808870034
:10399000483116000104031DD92C5808BA005708F5
:1039A000B900A931F1219B3102302100BA00003069
:1039B000BB002000570886005808870044310030BB
:1039C000C03FC13F57088600580887004631003085
:1039D000C03FC13F57088600580887004831013072
:1039E000810741310318810A57088600580887006B
:1039F0004A310030C03FC13F570886005808870051
:103A00004C310030C03FC13F0800570886005808BD
:103A100087004A3116000104031D152D5808BC000B
:103A20005708BB00AB3111239B312000570886009B
:103A30005808870044310030C03FC13F5708860016
:103A40005808870046310030C03FC13F5708860004
:103A50005808870048310030C03FC13F57088600F2
:103A6000580887004A310130810741310318810A23
:103A700057088600580887004C310030C03FC13FCE
:103A800008005808CD005708CC00AD31A0259B3167
:103A90002000570886005808870044310030C03F96
:103AA000C13F570886005808870046310030C03FA4
:103AB000C13F570886005808870048310030C03F92
:103AC000C13F57088600580887004A310030C03F80
:103AD000C13F57088600580887004C3101308107E4
:103AE00041310318810A08005608013A03191B2CBA
:103AF000033A0319682C063A0319C42C0C3A03192B
:103B0000052D033A0319412D412D080020005308CB
:103B1000D8005208D7002100C30103303A063B0405
:103B200003199F2E2000570886005808870043314C
:103B30000130C03F0030C13F570886005808870059
:103B400045310130C03F0030C13F5708860058085A
:103B5000870047310130C03F0030C13F5708860021
:103B60005808870049310130C03F0030C13F08008C
:103B70002100C4013D082000B00021003C082000C5
:103B8000AF00AC3147249D31A5302000BA00BA30D7
:103B9000BB0057088600580887004131403FBC00F1
:103BA000413FBD00A231D2229D314B302000AB00FD
:103BB0000030AC0057088600580887004131403F6C
:103BC000AD00413FAE00B531EF259D3120002B08FF
:103BD0002C04031DF52D883100209D312100520851
:103BE0007104A20053087204A30020005708860045
:103BF0005808870041311600773AD4001600013A80
:103C0000D404031D652E57080D3ED4000030583DE6
:103C1000D5005408860055088700023081005708F7
:103C200086005808870041310030C03FC13FB32EA5
:103C3000A730BA00BA30BB00570886005808870082
:103C40004131403FBC00413FBD00A231D2229D31F5
:103C50004B302000AB000030AC00570886005808FD
:103C600087004131403FAD00413FAE00B531EF2507
:103C70009D3120002B082C04031D482EB5315325FF
:103C80009D31210052087104A20053087204A30060
:103C90002000570886005808870041311600773AFF
:103CA000D4001600013AD404031D652E570886007F
:103CB000580887004D318101570886005808870051
:103CC00041310030C03FC13FB32E5708860058082D
:103CD000870041310130810741310318810AB32E39
:103CE0002100C401E0302000BA00BB30BB005708FF
:103CF0008600580887004131403FBC00413FBD006D
:103D0000A231D2229D31B33199239D31B32E2100AE
:103D1000C401C40ADB302000BA00BB30BB00570826
:103D20008600580887004131403FBC00413FBD003C
:103D3000A231D2229D31B43162249D31B32E2000B4
:103D400057088600580887004D310108003A0319CA
:103D5000872E013A0319182E033A0319702E013ADF
:103D60000319B82DB32E210023082000AE00210036
:103D700022082000AD005708860058088700010877
:103D8000B33152239D31B6314B269D312000D400F2
:103D90005408D600CF2F5808BA005708B900A931E7
:103DA00026219D312100BA01BB01DD2F20005708DB
:103DB000860058088700493116000104031DF02EC3
:103DC0005808F8005708F7000830D4005408F900E4
:103DD00090310F209D312000D50055082100C300EF
:103DE0002000570886005808870043310030C03F44
:103DF000C13F570886005808870045310030C03F52
:103E0000C13F570886005808870047310030C03F3F
:103E1000C13F5708860058088700493101308107A3
:103E200041310318810A57088600580887004B3132
:103E30000030C03FC13FDD2F57088600580887007B
:103E4000453116000104031D352F5808F8005708A6
:103E5000F7000230D4005408F90090310F209D3152
:103E60002000D50055082100C30020005708860017
:103E70005808870043310030C03FC13F57088600D3
:103E80005808870045310130810741310318810A04
:103E9000570886005808870047310030C03FC13FAF
:103EA000570886005808870049310030C03FC13F9D
:103EB00057088600580887004B310030C03FC13F8B
:103EC000DD2F57088600580887004331160001048B
:103ED000031D782F5808F8005708F700F901F90A70
:103EE00090310F209D312000D40054082100C300E0
:103EF00020005708860058088700433101308107A9
:103F000041310318810A5708860058088700453157
:103F10000030C03FC13F570886005808870047312E
:103F20000030C03FC13F570886005808870049311C
:103F30000030C03FC13F57088600580887004B310A
:103F40000030C03FC13FDD2F57088600580887006A
:103F500043310030C03FC13F5708860058088700F2
:103F600045310030C03FC13F5708860058088700E0
:103F700047310030C03FC13F5708860058088700CE
:103F800049310030C03FC13F5708860058088700BC
:103F90004B310130810741310318810ADD2F56086A
:103FA000013A0319612F033A03191C2F063A03192A
:103FB000CB2E0C3A0319D62EA42F21004303031D48
:103FC000080044080319F22F200057080D3ED400C2
:103FD0000030583DD500540886005508870003304E
:103FE00081000800200057080D3ED4000030583DE5
:103FF000D50054088600550887000130810008006C
:104000000034003400340034003400340034003410
:104010000034003400340034003400340034003400
:1040200000340034003400340034003400340034F0
:1040300000340034003400340034003401340034DF
:1040400001340034013400340134003401340034CC
:1040500001340034023400340234003402340034B9
:1040600003340034033400340334003404340034A3
:10407000043400340434003405340034053400348E
:104080000634003406340034073400340734003476
:10409000083400340834003409340034093400345E
:1040A0000A3400340B3400340B3400340C34003444
:1040B0000D3400340E3400340E3400340F34003428
:1040C000103400341134003412340034133400340A
:1040D00013340034143400341534003416340034EE
:1040E00017340034193400341A3400341B340034CB
:1040F0001C3400341D3400341E34003420340034A9
:104100002134003422340034233400342534003484
:104110002634003428340034293400342A3400345E
:104120002C3400342E3400342F3400343134003435
:10413000323400343434003436340034373400340C
:10414000393400343B3400343D3400343F340034DF
:1041500041340034423400344434003446340034B2
:10416000483400344B3400344D3400344F34003480
:10417000513400345334003455340034583400344E
:104180005A3400345C3400345F3400346134003419
:104190006434003466340034693400346B340034E1
:1041A0006E340034703400347334003476340034A8
:1041B000793400347B3400347E340034813400346C
:1041C00084340034873400348A3400348D3400342D
:1041D0009034003493340034963400349A340034EC
:1041E0009D340034A0340034A3340034A7340034A8
:1041F000AA340034AE340034B1340034B534003461
:10420000B8340034BC340034BF340034C334003418
:10421000C7340034CA340034CE340034D2340034CD
:10422000D6340034DA340034DE340034E23400347E
:10423000E6340034EA340034EE340034F33400342D
:10424000F7340034FB340034FF34003404340134D8
:10425000083401340D34013411340134163401347E
:104260001A3401341F340134243401342834013425
:104270002D34013432340134373401343C340134C8
:1042800041340134463401344B3401345034013468
:10429000553401345A3401345F3401346534013407
:1042A0006A3401346F340134753401347A340134A2
:1042B00080340134863401348B3401349134013438
:1042C000973401349C340134A2340134A8340134CD
:1042D000AE340134B4340134BA340134C03401345E
:1042E000C6340134CC340134D2340134D9340134ED
:1042F000DF340134E5340134EC340134F234013478
:10430000F9340134FF340134063402340D340234FC
:10431000133402341A34023421340234283402347F
:104320002F340234363402343D34023444340234FF
:104330004B340234523402345A340234613402347D
:104340006834023470340234773402347F340234F7
:10435000863402348E340234953402349D3402346F
:10436000A5340234AD340234B5340234BD340234E1
:10437000C5340234CD340234D5340234DD34023451
:10438000E5340234ED340234F6340234FE340234BF
:10439000063403340F340334183403342034033424
:1043A00029340334313403343A340334433403348A
:1043B0004C340334553403345E34033467340334EB
:1043C0007034033479340334823403348C3403344A
:1043D000953403349E340334A8340334B1340334A5
:1043E000BB340334C5340334CE340334D8340334FB
:1043F000E2340334EC340334F6340334FF3403344E
:10440000210028082904031D202A2835203E860083
:1044100005308700403F2000B700413FB8004C08FE
:1044200086004D0887000108B2317922A2312000B0
:104430004C0886004D0887000108B2313722080079
:1044400020004C0886004D08870046310108031DF6
:10445000482A21002835203E860005308700403F4D
:104460002000BA00413FBB004C0886004D08870081
:104470005C31403FBC00413FBD0021002D082000C1
:10448000BF0021002C082000BE00A2315F220800DE
:1044900021002835203E860005308700403F20005F
:1044A000BA00413FBB004C0886004D0887005C31D4
:1044B000403FBC00413FBD00A231D2220800200095
:1044C0003B08F2003A08F100B431D324A23172085B
:1044D0002000C9007108C800C7308600003087007E
:1044E00041308400003085000530C00016001A00FD
:1044F000C00B762A4908AC004808AB003F08F20020
:104500003E08F1003D08F4003C08F300B631E02617
:10451000A23172082000AE007108AD00B531EF2560
:10452000A23120002C08C7002B08C600CA01CB010D
:1045300000304B02043003194A020318C62A490806
:10454000AC004808AB004A084607AD004B08473DA1
:10455000AE00B531EF25A23120003A082B078400C8
:104560003B082C3D85000008C0004A08413E8600FB
:104570008701400881000130CA070030CB3D003080
:104580004B02043003194A02031C9F2A4130B70032
:104590000030B800B230B2317922A231B230B2313B
:1045A0003722080032302000C4000030C5003B082C
:1045B000F2003A08F100B431D324A231720820008D
:1045C000C9007108C800E3308600013087003F3021
:1045D0008400003085000530BE0016001A00BE0BB6
:1045E000ED2A4908AC004808AB004508F200440831
:1045F000F1003D08F4003C08F300B631E026A2319A
:1046000072082000AE007108AD00B531EF25A2316F
:1046100020002C08C7002B08C600CA01CB010030BF
:104620004B02043003194A0203183D2B4908AC0021
:104630004808AB004A084607AD004B08473DAE00AE
:10464000B531EF25A23120003A082B0784003B0842
:104650002C3D85000008BE004A083F3E86008701C9
:104660003E0881000130CA070030CB3D00304B02CC
:10467000043003194A02031C162B3F30B7000030E8
:10468000B800B230B2317922A231B230B231372221
:1046900008002000C600C701103047020318BB2BDA
:1046A0004608103E860001308700403FC000413F71
:1046B000C1000130C2000030C300470A612BC2357F
:1046C000C30D890B5F2B40084205C4004108430518
:1046D000C50044084504031DB32B3F08C00047082C
:1046E0004607C1004108860001308700400881006C
:1046F0000130C0000030C100470A802BC035C10D19
:10470000890B7E2B4608103E86000130870040084A
:1047100081044131410881043F08043E8600013094
:104720008700160001040319A82B3F08023E8600EB
:1047300001308700403FB900413FBA003F08043EC6
:10474000860001308700413F8A00403F0A00A331C4
:1047500020004708C0003F080C3E8600013087005B
:104760004008810008000130C0004008C707103031
:104770004702031C502B3F080C3E86000130870087
:104780008101810308002100DC00DD0110305D02A1
:10479000031808005C08103E860001308700403F87
:1047A0002000E800413FE9000130EA000030EB0062
:1047B00021005D0A2000DE2BEA35EB0D890BDC2B96
:1047C00068086A05EC0069086B05ED006C086D046B
:1047D0000319402CB4319824A33172082100D7006A
:1047E0007108D6005D085C072000E80068088600B4
:1047F000013087000108860001308700403F21001A
:10480000D800413FD90058092000E800210059098B
:104810002000E900E80A0319E90A210056082000EF
:1048200068072100DA0057082000693D2100DB00FD
:104830005D085C072000E8006808860001308700FA
:1048400001080A3E860001308700403FE900413FF1
:10485000EA006A0821005B02031D322C200069086F
:1048600021005A02031C402C5D085C072000E80070
:1048700068088600013087000108A8318320A33131
:1048800001302000E80068082100DD07C62B200069
:104890003A08BE003908BD003D0886003E08870082
:1048A0000108B3312223A43120003D0886003E08D0
:1048B000870001088731FA27A43120003D088600CF
:1048C0003E0887000108B2314B22A43120003D0888
:1048D00086003E0887000108B2313D22A431210044
:1048E000C20120003D08023EBB0000303E3DBC003E
:1048F0003B0886003C0887000A3081003D08013EE5
:10490000BB0000303E3DBC003B0886003C088700F1
:10491000013081002100A001A10120003D08860096
:104920003E08870049310030C03FC13F3D08860046
:104930003E0887004B310030C03FC13F3D08860034
:104940003E0887004D310030C03FC13F3D08860022
:104950003E0887004F310030C03FC13F3D08860010
:104960003E08870051310030C03FC13F3D088600FE
:104970003E08870053310030C03FC13F3D088600EC
:104980003E08870055310030C03FC13F3D088600DA
:104990003E08870057310030C03FC13F3D088600C8
:1049A0003E08870059310030C03FC13F3D088600B6
:1049B0003E0887005B310030C03FC13F3D088600A4
:1049C0003E0887005D310030C03FC13F0800210034
:1049D0004403031D192D2F302000BA00B830BB004E
:1049E0004C0886004D0887005D31403FBC00413FC8
:1049F000BD002830BE000030BF00A2315F22200081
:104A00004C08023ECE0000304D3DCF004E088600DF
:104A10004F0887000A3081004C08013ECE0000306C
:104A20004D3DCF004E0886004F08870001308100C1
:104A3000080020004C0886004D08870042310B30EA
:104A40000106031D322D8D30BA00B930BB004C0871
:104A500086004D0887005D31403FBC00413FBD00EE
:104A60000F30642D20004C0886004D08870042312D
:104A70000A3001060319552D4C0886004D088700A1
:104A800042310135D83E860003308700403FBA00EE
:104A9000413FBB004C0886004D0887005D31403F18
:104AA000BC00413FBD001430642DDD302000BA0051
:104AB000B930BB004C0886004D0887005D31403F8F
:104AC000BC00413FBD001E30BE000030BF00A2311F
:104AD0005F22A43120004C0886004D088700473132
:104AE00016000104031D08004C0886004D088700CD
:104AF00042310B300106031908004C08023ECE007B
:104B000000304D3DCF004E0886004F0887000A3028
:104B10008100080001302000A3000030A400A8019B
:104B2000A90124082902031D972D23082802031830
:104B3000432E1930A0002008F1002808B331632368
:104B4000A531D43E2000A1002108A7001930A00003
:104B50002008F1002808B3316323A531143ED43E68
:104B6000860002308700010820002707A1002108E5
:104B700086000230870001087906031D2C2E2708C5
:104B8000F1000230F200B431D324A53172082000C4
:104B9000A6007108A5001930A0002008F10028081F
:104BA000B3316323A531143ED43E86000230870022
:104BB0000130810741310318810A19302000A0001B
:104BC0002008F1002808B3316323A531143ED43EF8
:104BD000860002308700403F2000A100413FA20034
:104BE00026082206031DF62D25082106031D3D2E4D
:104BF0001930A0002008F1002808B3316323A53143
:104C0000143ED43E8600023087000030C03FC13FD2
:104C100019302000A0002008F1002808B3316323D8
:104C2000A531173ED43E860002308700193020009F
:104C3000A1002108F1002808B3316323163ED43EB9
:104C4000840002308500000884008501403F803FD9
:104C5000413F813F0130080019302000A0002008AA
:104C6000F1002808B3316323A531143ED43E8600F9
:104C7000023087000030C03FC13F01302000A8074C
:104C80000030A93D912D0030080001302000A30024
:104C90000030A400A801A90124082902031D522EF6
:104CA000230828020318FE2E1930A0002008F10066
:104CB0002808B3316323A631363E2000A100210825
:104CC000A7001930A0002008F1002808B3316323A1
:104CD000A631143E363E86000230870001082000CF
:104CE0002707A10021088600023087000108790605
:104CF000031DE72E2708F1000230F200B431D3245F
:104D0000A63172082000A6007108A5001930A00085
:104D10002008F1002808B3316323A631143E363E43
:104D20008600023087000130810741310318810A73
:104D300019302000A0002008F1002808B3316323B7
:104D4000A631143E363E860002308700403F2000E8
:104D5000A100413FA20026082206031DB12E25080E
:104D60002106031DF82E1930A0002008F1002808A4
:104D7000B3316323A631143E363E860002308700ED
:104D80000030C03FC13F19302000A0002008F100D2
:104D90002808B3316323A631173E363E8600023021
:104DA000870019302000A1002108F1002808B33144
:104DB0006323163E363E84000230850000088400DE
:104DC0008501403F803F413F813F0130080019305D
:104DD0002000A0002008F1002808B3316323A63189
:104DE000143E363E8600023087000030C03FC13F8F
:104DF00001302000A8070030A93D4C2E00300800EB
:104E000000340034003420341034103420340034A2
:104E100010341034A5342134A534603410343034C7
:104E200000341234103408342034203485344534AE
:104E3000B134303410341034103410341034103491
:104E40001034103410341034103410341034103442
:104E50001034103410341034103410341034103432
:104E60001034103410341034103410341034103422
:104E70001034103410341034103410341034103412
:104E800000340034C034403400344434103410341E
:104E9000B434353410341034103410340034043445
:104EA00008340834023402341E341E3414341434EA
:104EB00040340034103410344034003402340834A8
:104EC000A93463348034403431347034B0346034C5
:104ED00090345134B0343134B134313480346034AE
:104EE000B1347134903471341034103410341034BF
:104EF0000834083430341034023402341434E134C9
:104F0000A534703491347134B134113421342134E6
:104F1000B13450342134313401343134B13421349A
:104F20009134513424342434A134403409341934B4
:104F30002134013481344B3489344334A134613415
:104F400011347134A934613419347134B0343134CA
:104F500004342434A1344134033409348B344134CF
:104F60000A340A3404340A342234283421342134F3
:104F7000083402340A34003420340034103410343D
:104F800091347134B134113431341034B13450347B
:104F90002134313401343134B13421349134513439
:104FA00024342434A13440340934193421340134F4
:104FB00081344B3489344334A13461341134713435
:104FC000A934613419347134B034313404342434A4
:104FD000A1344134033409348B3441340A340A3463
:104FE00004340A34223428340834083404340434B1
:104FF0000234023410341034FF34FF3400340034EF
:10500000013400340A34003464340034E8340334A6
:105010001034273449344D3420344134463452342A
:105020004134493444342034493420344334413405
:105030004E34543420344C344534543420345934B0
:105040004F345534203444344F34203454344834AD
:1050500041345434203444344134563445342E34AD
:105060002E342E342034203449344D342034483406
:10507000453452344534203454344F34203443348E
:105080004834453457342034423455344234423461
:105090004C344534473455344D34203441344E3447
:1050A000443420344B34493443344B342034413479
:1050B000533453342E342E342E34203441344E3471
:1050C0004434203449344D34203441344C344C344D
:1050D00020344F345534543420344F344634203443
:1050E00042345534423442344C34453447345534D8
:1050F0004D342034203420342034203420342034E3
:105100002034003408002000E7006708023E8600D3
:1051100001308700403FD200413FD3006708083E7E
:10512000860001308700413F8A00403F0A00A831D5
:10513000B431982420006708860001308700710888
:10514000C03F7208C13F08000E302000B60000309A
:10515000B7003708AC003608AB003108AE003008A5
:10516000AD00B531EF25A83120002B0809073C3EE2
:10517000860004308700403FB400413FB5000E3048
:10518000B6000030B7003708AC003608AB00310875
:10519000AE003008AD00B531EF25A83120002B0856
:1051A0000907203E860004308700403FB200413F9F
:1051B000B3003208B4043308B5043508AE0034082F
:1051C000AD00B230B331522308000E302000B600DB
:1051D0000030B7003708AC003608AB003108AE002D
:1051E0003008AD00B531EF25A83120002B080907A4
:1051F000BC3E860003308700403FB400413FB5000D
:105200000E30B6000030B7003708AC003608AB00EF
:105210003108AE003008AD00B531EF25A8312000CF
:105220002B080907A03E860003308700403FB200EC
:10523000413FB3003208B4043308B5043508AE006A
:105240003408AD00B230B3315223080020003908D1
:1052500086003A08870041310030C03FC13F39081D
:1052600086003A08870043310030C03FC13F39080B
:1052700086003A08870045310030C03FC13F3908F9
:1052800086003A08870047310030C03FC13F3908E7
:1052900086003A08870049310030C03FC13F3908D5
:1052A00086003A0887004B310030C03FC13F3908C3
:1052B00086003A08870001088731FA27A9312000C3
:1052C000390886003A0887000108B2313D220800FB
:1052D00021004F08F4004E08F3004D08F2004C087E
:1052E000F1004130F800C630F7004E30F6006D3066
:1052F000F500B6317C26A93174082100CF0073086F
:10530000CE007208CD007108CC003930CC073030A7
:10531000CD3D0030CE3D0030CF3D4C082000A600F2
:1053200021004D082000A70021004E082000A80001
:1053300021004F082000A9001030AA00A937A80CAE
:10534000A70CA60CAA0B9E29FF302605A4007F30CF
:105350002705A500080020003308B7003208B60072
:105360003608860037088700453116000104031D02
:10537000E5290430210051065004031DC32950358E
:10538000D000510DD10051082000B100210050087B
:105390002000B000B2315C22A93121005008510434
:1053A000031DD6290130D0000030D1005035D00087
:1053B000510DD1002000360886003708870045319E
:1053C0000A30C03F0030C13F080036088600370869
:1053D000870045310130810241310030813B7F310E
:1053E00008002000390886003A0887004231323030
:1053F000C03F0030C13F390886003A088700443179
:105400000030C03FC13F390886003A088700463166
:105410000030C03FC13F390886003A088700483154
:105420000030C03FC13F390886003A0887004A3142
:105430000030C03FC13F390886003A0887004C3130
:105440000030C03FC13F2100B601B701200039083C
:1054500086003A08870001088731FA27A931200021
:10546000390886003A0887000108B2313D22080059
:1054700000302000AE000030AD00FF30AC00FF3047
:10548000AB00A9316821AA3120002408AF0025080B
:10549000B000890D893B8909B100B200AF31922774
:1054A000AA3120002C08BC002B08BB00FF30B30041
:1054B000FB30B4000030B5000030B6003B08B70048
:1054C0003C08B800B901BA013708B3043808B4047D
:1054D0003908B5043A08B604330A031D782A340A99
:1054E00035043604031D782A0030BB060430BC06A0
:1054F0003C08AE003B08AD00B230B3315223080087
:10550000003400342034003460340034E03400349B
:10551000E0340134E0340334EF34BB34A334BB341F
:10552000F734BA346634BB349D34BB3401340134AF
:1055300002340234013402340134023404340834B5
:1055400000340034003400340034003400340034BB
:105550000034003400340034C534013400340834DD
:105560000234083401340034003400340034003490
:10557000003400340034003400340034003400348B
:105580000034003400340034003469340134003411
:105590004E34BB344634BB340A34BB34E234BA3400
:1055A000D734BA343E34BB34BF34BA349834BA3406
:1055B0001334BB34413442344334443445344634E8
:1055C0004734483449344A344B344C344D344E34E7
:1055D0004F34503451345234533454345534563497
:1055E0005734583459345A343034313432343334F3
:1055F0003434353436343734383439343C343E344A
:1056000021342434253426342D3423342A342B34C5
:105610002D342E3440343B343A34273422342F3462
:105620005C34462B20003C08BA003B08B900A93185
:10563000F12101302100BA000030BB000800200039
:105640003C08BA003B08B900A931F1210330210020
:10565000BA000030BB00080020003C08BA003B083C
:10566000B900A931F12102302100BA000030BB009D
:10567000080020003C08BA003B08B900A931F1211C
:1056800004302100BA000030BB00080021003708B8
:10569000003A03194C2B5A2B3608013A0319122BE6
:1056A000033A03191F2B013A0319392B073A03193F
:1056B0002C2B5A2B08008034003440340034203422
:1056C000003410340034083400340434003402341C
:1056D000003401340034023400340434003408341B
:1056E000003410340034203400344034003480342A
:1056F00000340034013400340234003408340034FF
:105700001034003420340034403400348034003409
:105710004034003420340034103400340834003471
:105720000234003401348A34BB347534BB34013460
:10573000BB347C34BB34A934BB34ED34BA3491343B
:10574000BB342E34BB348334BB343634BB34F70023
:10575000F8017208031908007708031DD72BDC2B0A
:105760007308031DBF2B78087707F40074088600C0
:10577000013087000108B2315322AB31D32B7808B6
:105780007707F40074088600013087000108B23101
:105790005322AB31F50078087307F60076088600CF
:1057A0008701750881000130F4007408F807720859
:1057B000780203180800B02B730803190800720858
:1057C0007802031808000030B2315322AB31F400E4
:1057D00078087307F5007508860087017408810052
:1057E0000130F4007408F807DF2B2000AF002F0A07
:1057F0008600013087000108AB002F0886000130C9
:1058000087002B0881002F08023E860001308700A8
:105810000108AB002F0A8600013087002B088100A9
:105820002F08033E8600013087000108AB002F08D7
:10583000023E8600013087002B0881002A08AB0059
:105840002F08033E8600013087002B088100AE013F
:10585000AE0104302E02031808002E082F07AB00FB
:105860002B088600013087000108AC002C08A0003E
:105870002E08AD002D08A1002F08073EB731BF2725
:10588000AB3101302000AB002B08AE07292C2000E3
:105890003008B5002F08B40035082100BD002000F5
:1058A00034082100BC002000340886003508870039
:1058B00043310030C03FC13F3408860035088700BF
:1058C00045310030C03FC13F34080B3EF10000308D
:1058D000353DF2000030F300F4001430F5000030E4
:1058E000F600B4312F24AC3121004408031D902C64
:1058F00009302000AB000030AC00A9316821AC3188
:1059000020002408B100B2013108AD003208AE0019
:10591000B531EF25AC3120002B08B3003308942CAF
:1059200008302000B1003108FC0001302100D00017
:105930000030D100080022008C0180308D001A3028
:105940008E00373021008C0030308D0060308E00AA
:10595000403023008E008D0103308C0024008D0127
:105960008C018E0125008C018D018E0100308B1B76
:105970000130F1008B1355303C008F00AA308F00AE
:105980000F103D002108E0390D38A1003C0021082E
:10599000E0390C38A1002008E0390E38A0003D00A5
:1059A0002408E0390238A4002008E0390C38A000AF
:1059B0002308E0390338A3001E08E03918389E0098
:1059C0002208E0391938A20055303C008F00AA3077
:1059D0008F000F14711CEE2C8B1708008B1308001E
:1059E0002000AC00B5310F25AC31B2316522AC31AD
:1059F000B431B524AC31B2316F22AC31B231A42212
:105A0000AC31AC319B24AC31B2318E22AC31B231ED
:105A10009922AC31B231BA22AC31B231C622AC31AA
:105A2000B2314322AC318030F1000030F200B331AA
:105A3000C023AC3122008D17C030F1000030F200DD
:105A4000B331D623AC3100308400A1308500003F53
:105A5000F100013FF200B331EC23AC31003084009F
:105A6000A1308500003FF100013FF200B431022473
:105A7000AC3120002C08B531782520002C08113ECF
:105A80008600013087008101080020003A08BC0030
:105A90003908BB003B0886003C0887000108B33189
:105AA0002223AD3120003B0886003C088700010816
:105AB0008731FA27AD3120003B0886003C0887007B
:105AC0000108B2314B22AD3120003B0886003C0872
:105AD00087000108B2313D22AD3120003B0886002D
