:04000000803116280D
:1000060008007E14803120007F08F0002100901E39
:1000160011282000901E11289931532170082000C4
:10002600FF007E10090080311828003084009730C8
:100036008500F0308600263087000130FF00003052
:10004600993147218031E230840098308500E530CF
:100056008600003087000030FF000A3099314721C2
:100066008031ED3084009B308500203086000130E1
:1000760087000030FF00213099314721803131302F
:1000860084009C308500A030860001308700003057
:10009600FF002330993147218031FC3084009A30AB
:1000A6008500A0308600023087000030FF001C303B
:1000B600993147218031FF3084009D308500203002
:1000C6008600033087000030FF0038309931472121
:1000D6008031E03084009A308500A03086000330FD
:1000E60087000030FF001C30993147218031FC0128
:1000F600A0308400003085004530FE000030FF004F
:1001060099313B21803141308400013085001A301D
:10011600FE000030FF0099313B218031C33084005E
:10012600013085002030FE000030FF0099313B2170
:10013600803120308400023085004C30FE000030D3
:10014600FF0099313B218031BC30840002308500AC
:100156001A30FE000030FF0099313B217E1020004E
:100166009631162E20005308DF005208DE000230BA
:100176002100320633040319622920005E08860036
:100186005F0887004A310130C03F0030C13F5E083A
:1001960086005F0887004C310130C03F0030C13F08
:1001A6005E0886005F0887004E310130C03F003090
:1001B600C13F5E0886005F08870050310130C03FAE
:1001C6000030C13F5E0886005F088700523101306B
:1001D600C03F0030C13F5E0886005F08870054318B
:1001E6000130C03F0030C13F5E0886005F088700CF
:1001F60056310130C03F0030C13F08002100E30105
:10020600E40120005E0886005F0887004431003064
:10021600C03FC13F5E08063ED40000305F3DD500BA
:100226005408860055088700053081005E08860060
:100236005F0887004A310130C03F0030C13F5E0889
:1002460086005F0887004C310130C03F0030C13F57
:100256005E0886005F0887004E310130C03F0030DF
:10026600C13F5E0886005F08870050310130C03FFD
:100276000030C13F5E0886005F08870052310130BA
:10028600C03F0030C13F5E0886005F0887005431DA
:100296000130C03F0030C13F5E0886005F0887001E
:1002A60056310130C03F0030C13F5E0886005F080E
:1002B600870058310130C03F0030C13F080021009F
:1002C6006408003A03196829232A6308003A0319C7
:1002D600232A013A03190129232A232A20005E082A
:1002E60086005F088700413116000104031D172AA6
:1002F60021002D082000B10021002C082000B000AC
:100306009E31F326803101302100AC070030AD3D2F
:1003160020005E0886005F08870041312330C03F19
:100326000030C13FBE2A5E0886005F088700413163
:1003360016000104031D172A21002D082000B10014
:1003460021002C082000B0009E31B22680310130F9
:100356002100AC070030AD3D20005E0886005F0836
:10036600870041310530C03F0030C13FBE2A5E08DC
:1003760086005F088700413116000104031DD2295B
:100386009931B721803120005E0886005F0887001A
:10039600413121002A08C03F2B08C13FDE29200039
:1003A6005E0886005F0887004131013081024131D5
:1003B6000030813B7F3120005E0886005F088700A1
:1003C600413116000104031D162A043021002D06B2
:1003D6002C04031DF2292C35AC002D0DAD002D0883
:1003E6002000B10021002C082000B0009831BB206D
:1003F600803121002C082D04031D062A0130AC0093
:100406000030AD00BE2A2C35AC002D0DAD0020000D
:100416005E0886005F088700413121002A08C03F38
:100426002B08C13FBE2A20005E0886005F088700B1
:1004360041310130810241310030813B7F31BE2A9A
:1004460020005E0886005F08870043310108003AF5
:1004560003197129013A03199629033A0319BA298E
:10046600013A0319DE29BE2ABE2A6530B700A0303C
:10047600B8005E0886005F08870001089831D8201A
:10048600803120005E0886005F08870001089831E9
:1004960090208031B22A8330A400A030A50021002C
:1004A60029082000A700210028082000A6005630B1
:1004B60089313C21803156302000B7000030B80029
:1004C6005E0886005F08870001089831D8208031D1
:1004D60020005E0886005F0887000108983190209A
:1004E600803120005E0886005F08870044311600D0
:1004F600963AD4001600D404031DB32A5E0886007B
:100506005F08870044310030C03FC13F5E08063EA9
:10051600D40000305F3DD50054088600550887009A
:1005260023308100B32A21006C082000BB00210083
:100536006B082000BA005E0886005F088700443119
:10054600403FBC00413FBD00933164238031B22A55
:100556005F08CD005E08CC009D31C82580312000A3
:100566005E0886005F08870044310130810741310B
:100576000318810AD22A20005E0886005F088700D9
:1005860046310108003A0319AB2A023A0319382A00
:10059600013A03194E2A063A0319962AAB2A9C31C8
:1005A600FF2480312000D400D5015408DC00550812
:1005B600DD00E52D5E0886005F08870052311600D3
:1005C6000104031DEC2A5E0886005F088700463199
:1005D60081015E0886005F0887004A310030C03F0F
:1005E600C13F5E0886005F0887004C310030C03F7F
:1005F600C13F5E0886005F0887004E310030C03F6D
:10060600C13F5E0886005F08870050310030C03F5A
:10061600C13F5E0886005F088700523101308107BE
:1006260041310318810A5E0886005F08870054314D
:100636000030C03FC13F5E0886005F088700563124
:100646000030C03FC13F5E0886005F088700583112
:100656000030C03FC13F722E5E0886005F088700EB
:10066600543116000104031D482B033021002B02D0
:10067600E93003192A02031C442BE830AA00033090
:10068600AB000530AA070030AB3D20005E088600AF
:100696005F0887004A310030C03FC13F5E088600D0
:1006A6005F0887004C310030C03FC13F5E088600BE
:1006B6005F0887004E310030C03FC13F5E088600AC
:1006C6005F08870050310030C03FC13F5E0886009A
:1006D6005F08870052310030C03FC13F5E08860088
:1006E6005F08870054310130810741310318810AC0
:1006F6005E0886005F08870056310030C03FC13F64
:100706005E0886005F08870058310030C03FC13F51
:10071600722E5E0886005F088700563116000104B7
:10072600031DA52B003021002B02053003192A02D8
:100736000318A12B0530AA000030AB000530AA0231
:100746000030AB3B20005E0886005F0887004A3118
:100756000030C03FC13F5E0886005F0887004C310D
:100766000030C03FC13F5E0886005F0887004E31FB
:100776000030C03FC13F5E0886005F0887005031E9
:100786000030C03FC13F5E0886005F0887005231D7
:100796000030C03FC13F5E0886005F0887005431C5
:1007A6000030C03FC13F5E0886005F0887005631B3
:1007B6000130810741310318810A5E0886005F080F
:1007C600870058310030C03FC13F722E5E08860058
:1007D6005F088700503116000104031D3F2C5E0898
:1007E60086005F088700473116000104031D3F2C71
:1007F6000030AD00AE005E0886005F088700010885
:1008060099316021803120005E0886005F088700EC
:1008160044310030C03FC13F5E0886005F08870054
:1008260047316430C03F0030C13F5E0886005F0834
:10083600870041310530C03F0030C13F5E08033EAE
:10084600D40000305F3DD500540886005508870067
:10085600013081005E08063ED40000305F3DD500C1
:100866005408860055088700023081005E0886001D
:100876005F088700493181015E0886005F088700AE
:100886004A310030C03FC13F5E0886005F088700DE
:100896004C310030C03FC13F5E0886005F088700CC
:1008A6004E310030C03FC13F5E0886005F088700BA
:1008B60050310130810741310318810A5E088600F4
:1008C6005F08870052310030C03FC13F5E08860096
:1008D6005F08870054310030C03FC13F5E08860084
:1008E6005F08870056310030C03FC13F5E08860072
:1008F6005F08870058310030C03FC13F722E5E0846
:1009060086005F0887004C3116000104031DB02CD9
:100916005E0886005F0887004631810121002408B1
:10092600FF3E2000D400FF302100253D2000D500E9
:100936002100270820005506031DA52C21002608A6
:1009460020005406031DAB2C2100A601A701B02CE4
:1009560001302100A6070030A73D20005E08860072
:100966005F0887004A310030C03FC13F5E088600FD
:100976005F0887004C310130810741310318810A35
:100986005E0886005F0887004E310030C03FC13FD9
:100996005E0886005F08870050310030C03FC13FC7
:1009A6005E0886005F08870052310030C03FC13FB5
:1009B6005E0886005F08870054310030C03FC13FA3
:1009C6005E0886005F08870056310030C03FC13F91
:1009D6005E0886005F08870058310030C03FC13F7F
:1009E600722E5E0886005F0887004A3116000104F1
:1009F600031D1E2D5E0886005F0887004331023006
:100A060001060319122D5E08033ED40000305F3D37
:100A1600D500540886005508870002301D2D5E0853
:100A2600033ED40000305F3DD500540886005508CB
:100A36008700033081005E0886005F0887004A3120
:100A46000130810741310318810A5E0886005F087C
:100A560087004C310030C03FC13F5E0886005F080A
:100A660087004E310030C03FC13F5E0886005F08F8
:100A7600870050310030C03FC13F5E0886005F08E6
:100A8600870052310030C03FC13F5E0886005F08D4
:100A9600870054310030C03FC13F5E0886005F08C2
:100AA600870056310030C03FC13F5E0886005F08B0
:100AB600870058310030C03FC13F722E5E08860065
:100AC6005F0887004A310030C03FC13F5E0886009C
:100AD6005F0887004C310030C03FC13F5E0886008A
:100AE6005F0887004E310030C03FC13F5E08860078
:100AF6005F08870050310030C03FC13F5E08860066
:100B06005F08870052310030C03FC13F5E08860053
:100B16005F08870054310030C03FC13F5E08860041
:100B26005F08870056310030C03FC13F5E0886002F
:100B36005F08870058310130810741310318810A67
:100B4600722E5E0886005F0887004A310030C03F7B
:100B5600C13F5E0886005F0887004C310030C03F09
:100B6600C13F5E0886005F0887004E310030C03FF7
:100B7600C13F5E0886005F08870050310030C03FE5
:100B8600C13F5E0886005F08870052310030C03FD3
:100B9600C13F5E0886005F08870054310030C03FC1
:100BA600C13F5E0886005F08870056310030C03FAF
:100BB600C13F5E0886005F08870058310030C03F9D
:100BC600C13F722E5D08003A0319EA2DA42D5C0878
:100BD600003A0319612D013A0319F42C033A03195B
:100BE600822C073A03198C2B0D3A0319E92B013A8B
:100BF60003192F2B053A0319DD2AA42D722E5E0840
:100C060086005F08870047311600643AD400160054
:100C1600D404031D192E5E0886005F0887000108AC
:100C26009931892180318831A920803120005E08E0
:100C360086005F08870047311600633AD400160025
:100C4600D404031D322E98317820803120005E08AE
:100C560086005F088700010899311821803120003D
:100C66005E0886005F088700473116000104031DF1
:100C7600662E5E0886005F08870044310030C03F5C
:100C8600C13F5E0886005F08870041310530C03FDE
:100C96000030C13F5E0886005F088700433181014E
:100CA6005E0886005F088700463181015E08093EBE
:100CB600D40000305F3DD5005408860055088700F3
:100CC600013081007F2E5E0886005F08870047316D
:100CD6000130810241310030813B7F317F2E5E0839
:100CE60086005F08870049310108003A0319022E81
:100CF600013A03197F2E7F2E98317F208031003AEA
:100D06000319080020005E0886005F088700493145
:100D16000108031908005E0886005F088700443151
:100D26000030C03FC13F01302100A8070030A93D77
:100D360020005E08063ED40000305F3DD500540812
:100D4600860055088700033081000800003400340F
:100D560000340034003400340034003400340034ED
:100D660000340034003400340034003400340034DD
:100D760000340034003400340034003400340034CD
:100D860000340034003400340134003401340034BB
:100D960001340034013400340134003401340034A9
:100DA6000234003402340034023400340334003494
:100DB600033400340334003404340034043400347F
:100DC6000434003405340034053400340634003469
:100DD6000634003407340034073400340834003451
:100DE6000834003409340034093400340A34003439
:100DF6000B3400340B3400340C3400340D3400341E
:100E06000E3400340E3400340F3400341034003401
:100E160011340034123400341334003413340034E3
:100E260014340034153400341634003417340034C6
:100E3600193400341A3400341B3400341C340034A2
:100E46001D3400341E340034203400342134003480
:100E5600223400342334003425340034263400345C
:100E660028340034293400342A3400342C34003435
:100E76002E3400342F34003431340034323400340C
:100E860034340034363400343734003439340034E2
:100E96003B3400343D3400343F34003441340034B4
:100EA6004234003444340034463400344834003488
:100EB6004B3400344D3400344F3400345134003454
:100EC6005334003455340034583400345A34003422
:100ED6005C3400345F3400346134003464340034EC
:100EE60066340034693400346B3400346E340034B4
:100EF600703400347334003476340034793400347A
:100F06007B3400347E34003481340034843400343D
:100F1600873400348A3400348D34003490340034FD
:100F260093340034963400349A3400349D340034BB
:100F3600A0340034A3340034A7340034AA34003477
:100F4600AE340034B1340034B5340034B83400342F
:100F5600BC340034BF340034C3340034C7340034E6
:100F6600CA340034CE340034D2340034D63400349B
:100F7600DA340034DE340034E2340034E63400344B
:100F8600EA340034EE340034F3340034F7340034F9
:100F9600FB340034FF3400340434013408340134A3
:100FA6000D34013411340134163401341A34013449
:100FB6001F34013424340134283401342D340134EF
:100FC60032340134373401343C3401344134013491
:100FD600463401344B340134503401345534013431
:100FE6005A3401345F340134653401346A340134CF
:100FF6006F340134753401347A3401348034013469
:10100600863401348B3401349134013497340134FD
:101016009C340134A2340134A8340134AE34013492
:10102600B4340134BA340134C0340134C634013422
:10103600CC340134D2340134D9340134DF340134B0
:10104600E5340134EC340134F2340134F93401343A
:10105600FF340134063402340D34023413340234BE
:101066001A34023421340234283402342F34023440
:10107600363402343D340234443402344B340234C0
:10108600523402345A34023461340234683402343D
:1010960070340234773402347F34023486340234B6
:1010A6008E340234953402349D340234A53402342D
:1010B600AD340234B5340234BD340234C53402349E
:1010C600CD340234D5340234DD340234E53402340E
:1010D600ED340234F6340234FE340234063403347A
:1010E6000F340334183403342034033429340334DE
:1010F600313403343A340334433403344C34033444
:10110600553403345E3403346734033470340334A3
:1011160079340334823403348C3403349534033401
:101126009E340334A8340334B1340334BB3403345B
:10113600C5340334CE340334D8340334E2340334B0
:10114600EC340334F6340334FF34033422008D13B5
:10115600080020003A08BC003908BB003B0886009E
:101166003C088700010899319821883120003B0806
:1011760086003C088700010898319C2088312000B1
:101186003B0886003C08870001089831AA20883170
:1011960020003B0886003C0887000108983196200D
:1011A600883120003B0886003C0887004131233007
:1011B600C03F0030C13F3B0886003C0887004431F1
:1011C6000030C03FC13F3B0886003C0887004A31DB
:1011D6000030C03FC13F3B0886003C0887004C31C9
:1011E6000030C03FC13F3B0886003C0887004E31B7
:1011F6000030C03FC13F3B0886003C0887005031A5
:101206000030C03FC13F3B0886003C088700523192
:101216000030C03FC13F3B0886003C088700543180
:101226000030C03FC13F3B0886003C08870056316E
:101236000030C03FC13F3B0886003C08870058315C
:101246000030C03FC13F2100AC01AD0120003B088A
:1012560086003C088700433181012100A601A701D1
:101266000430A4000030A5003230AA000030AB00E4
:1012760008002000B1002630A8002808AC00200095
:101286002508A9002408A800A40A0319A50A280805
:101296008400290885000008AA002A08B40034083A
:1012A6000319872A25303406031965293408A8004E
:1012B600310886008701280881000130A800280827
:1012C600B1074229B201B301AE0124088400250802
:1012D6008500000899316D218931031CA32920005E
:1012E600B201B3010A30F1000030F20020003308E9
:1012F600F4003208F3009A31AA22893172082000DC
:10130600B3007108B200240884002508850000088F
:10131600D03EA800FF3003180030A9002808B20705
:101326002908B33D0130A4070030A53D24088400F8
:1013360025088500000899316D2189310318752922
:1013460020002508A9002408A800A40A0319A50A54
:1013560028088400290885000008B400003A03190B
:10136600872A643A0319BB290D3A0319BB29422976
:1013760020002C0886008701403FAF00413FB000A7
:101386000230A8002808AC07B01FD2290330A800F5
:101396002808AE04AF09B009AF0A0319B00AB401B0
:1013A600B40A053034060319F7293408A800A90140
:1013B600A835A90D003028078400A030293D8500F6
:1013C600003FAA00013FAB002B083002031DED29A8
:1013D6002A082F02031CF7290130A8002808B407A1
:1013E60005303406031DD829320833040319032AAD
:1013F6002E0803390319032AFF30B207FF30B33D25
:101406003408A800A901A81BA9032908803AAA0044
:101416003308803A2A02031D122A320828020318CA
:101426001F2A20003408A800A901A81BA903280820
:10143600B2022908B33B222A2000B201B3013208C6
:1014460033040319392A2030A800310886008701A1
:10145600280881000130A8002808B107FF30B2072C
:10146600FF30B33D32083304031D262A2E08033904
:101476000319482A2D30A80031088600870128085C
:1014860081000130A8002808B1073408A800280800
:10149600AD00FF30A8002808AD072D0A0319422920
:1014A6000A30A0000030A1002D08A800A901A83527
:1014B600A90D003028078400A030293D8500003F93
:1014C600F100013FF2003008F4002F08F3009D31CF
:1014D6009425893172082000A3007108A2009C316E
:1014E600A324893120002008303EAA002A08B4002F
:1014F6003408A800310886008701280881000130D9
:10150600A8002808B1074C2A200031088600870168
:101516008101080020005308D9005208D800D601DE
:101526009C31FF248A312000D4005408D7002D2C8A
:101536005808860059088700423116000104031D29
:10154600B52A580886005908870042312C30C03F1A
:101556000130C13F5908F8005808F700F9019531E4
:101566005B258A31200058088600590887004431D7
:101576000030C03FC13F58088600590887004631F1
:101586000030C03FC13F58088600590887004831DF
:101596000030C03FC13F58088600590887004A31CD
:1015A6000030C03FC13F58088600590887004C31BB
:1015B6000130810741310318810A5808860059080D
:1015C600870042310130810241310030813B7F3159
:1015D6003F2C58088600590887004431160001043C
:1015E600031D042B5908F8005808F7005708D400C3
:1015F6005408F90095315B258A312000D50055083D
:10160600D600580886005908870044310130810702
:1016160041310318810A5808860059088700463167
:101626000030C03FC13F580886005908870048313E
:101636000030C03FC13F58088600590887004A312C
:101646000030C03FC13F58088600590887004C311A
:101656000030C03FC13F5808860059088700423114
:101666002C30C03F0130C13F3F2C58088600590836
:101676008700463116000104031D502B5908F80057
:101686005808F7005708D4005408F90095315B252F
:101696008A312000D5005508D6005808860059081A
:1016A600870044310030C03FC13F580886005908C2
:1016B600870046310130810741310318810A5808F5
:1016C60086005908870048310030C03FC13F58089E
:1016D6008600590887004A310030C03FC13F58088C
:1016E6008600590887004C310030C03FC13F58087A
:1016F60086005908870042312C30C03F0130C13F77
:101706003F2C580886005908870048311600010406
:10171600031D9C2B5908F8005808F7005708D400F9
:101726005408F90095315B258A312000D50055080B
:10173600D600580886005908870044310030C03F5B
:10174600C13F580886005908870046310030C03F1F
:10175600C13F580886005908870048310130810783
:1017660041310318810A58088600590887004A3112
:101776000030C03FC13F58088600590887004C31E9
:101786000030C03FC13F58088600590887004231E3
:101796002C30C03F0130C13F3F2C58088600590805
:1017A60087004A3116000104031DE82B5908F8008A
:1017B6005808F7005708D4005408F90095315B25FE
:1017C6008A312000D5005508D600580886005908E9
:1017D600870044310030C03FC13F58088600590891
:1017E600870046310030C03FC13F5808860059087F
:1017F600870048310030C03FC13F5808860059086D
:1018060087004A310130810741310318810A58089F
:101816008600590887004C310030C03FC13F580848
:1018260086005908870042312C30C03F0130C13F45
:101836003F2C5908F8005808F700F90195315B2547
:101846008A3120005908F2005808F1009D316225BE
:101856008A313F2C20005708003A03199B2A013A87
:101866000319EC2A033A0319382B063A0319842B79
:101876000C3A0319D02B1C2C20005608031908001B
:101886005908F2005808F1009D3162250800200031
:101896005308D8005208D70003302100320633041B
:1018A6000319522D20005708860058088700433137
:1018B6000130C03F0030C13F5708860058088700F6
:1018C60045310130C03F0030C13F570886005808F7
:1018D600870047310130C03F0030C13F57088600BE
:1018E6005808870049310130C03F0030C13F080029
:1018F600FC011C30BA00A030BB005708860058080F
:1019060087004131403FBC00413FBD009331642315
:101916008C314B302000A0000030A1005708860013
:10192600580887004131403FA200413FA3009C3147
:10193600A3248C31200020082104031DAC2C9A31ED
:1019460076228C31210069087104A0006A087204AD
:10195600A10020005708860058088700413116006C
:10196600773AD4001600013AD404031D1C2D5708FB
:101976000D3ED4000030583DD50054088600550869
:1019860087000230810057088600580887004131D9
:101996000030C03FC13F662D1E30BA00A030BB00EC
:1019A60057088600580887004131403FBC00413F38
:1019B600BD00933164238C314B302000A0000030F1
:1019C600A10057088600580887004131403FA20011
:1019D600413FA3009C31A3248C3120002008210420
:1019E600031DFF2C9C3154248C312100690871049D
:1019F600A0006A087204A100200057088600580853
:101A0600870041311600773AD4001600013AD40413
:101A1600031D1C2D57088600580887004D3181018B
:101A2600570886005808870041310030C03FC13F43
:101A3600662D570886005808870041310130810716
:101A460041310318810A662DFC016030BA00A030CE
:101A5600BB0057088600580887004131403FBC004C
:101A6600413FBD00933164238C319A310B228C3176
:101A7600662DFC01FC0A5B30BA00A030BB0057089B
:101A86008600580887004131403FBC00413FBD00F9
:101A9600933164238C319A31C5228C31662D200016
:101AA60057088600580887004D310108003A031987
:101AB6003C2D013A0319CF2C033A0319272D013A7D
:101AC60003197B2C662D210021082000AE00210081
:101AD60020082000AD005708860058088700010836
:101AE600993160218C319C31FF248C312000D40047
:101AF6005408D6000B2E5808BA005708B9009F3173
:101B060034272100B201B3010800200057088600DF
:101B160058088700493116000104031DB52D5708E2
:101B260086005808870041310030C03FC13F7C081D
:101B36000319A92D57080D3ED4000030583DD50095
:101B460054088600550887000330B42D57080D3E0B
:101B5600D4000030583DD50054088600550887004B
:101B6600013081005708860058088700433100304D
:101B7600C03FC13F570886005808870045310030EE
:101B8600C03FC13F570886005808870047310030DC
:101B9600C03FC13F570886005808870049310130C9
:101BA600810741310318810A5708860058088700C3
:101BB6004B310030C03FC13F080057088600580827
:101BC600870043310030C03FC13F570886005808A0
:101BD600870045310030C03FC13F5708860058088E
:101BE600870047310030C03FC13F5708860058087C
:101BF600870049310030C03FC13F5708860058086A
:101C060087004B310130810741310318810A0800F2
:101C16005608043A03197E2D0C3A0319882DE02D37
:101C2600080020005308D8005208D70021003208C7
:101C3600330403198D2E9C31FF248E312000D400ED
:101C46005408D600872E2100B201B301200058089F
:101C5600BA005708B9009F31B9278E3120005708BE
:101C660086005808870044310130C03F0030C13F2C
:101C7600570886005808870046310130C03F0030BB
:101C8600C13F570886005808870048310130C03FD9
:101C96000030C13F57088600580887004A31013096
:101CA600C03F0030C13F2100B001B10120005808FB
:101CB600CD005708CC0092313D220800200057087D
:101CC60086005808870044310130C03F0030C13FCC
:101CD600570886005808870046310130C03F00305B
:101CE600C13F570886005808870048310130C03F79
:101CF6000030C13F57088600580887004A31013036
:101D0600C03F0030C13F080056080B3A0319262E83
:101D1600612E08009C31FF248E312000D400540827
:101D2600D600EE2F57088600580887004431160063
:101D36000104031DAE2E210030083104031DAA2E16
:101D46002E08FF3EB000FF302F3DB100AE2E013011
:101D5600B0020030B13B20005808CD005708CC0037
:101D660092313D228E3120005708860058088700A0
:101D760044310130810741310318810A5708860032
:101D86005808870046310030C03FC13F57088600DB
:101D96005808870048310030C03FC13F57088600C9
:101DA600580887004A310030C03FC13F57088600B7
:101DB600580887004C310030C03FC13F0800570823
:101DC600860058088700463116000104031D0A2FB5
:101DD60021002E08FF3E2000D400FF3021002F3DB9
:101DE6002000D5002100310820005506031DFF2ED6
:101DF6002100300820005406031D052F2100B001E4
:101E0600B1010A2F01302100B0070030B13D20009A
:101E16005808CD005708CC0092313D228E31200063
:101E2600570886005808870044310030C03FC13F3C
:101E3600570886005808870046310130810741312E
:101E46000318810A57088600580887004831003071
:101E5600C03FC13F57088600580887004A31003006
:101E6600C03FC13F57088600580887004C310030F4
:101E7600C03FC13F08005708860058088700483110
:101E860016000104031D532F5808BA005708B9005D
:101E96009F31B9278E3102302100B2000030B300E5
:101EA6002000570886005808870044310030C03F9C
:101EB600C13F570886005808870046310030C03FAA
:101EC600C13F57088600580887004831013081070E
:101ED60041310318810A57088600580887004A319D
:101EE6000030C03FC13F57088600580887004C3174
:101EF6000030C03FC13F08005708860058088700D9
:101F06004A3116000104031D8F2F5808BC005708DC
:101F1600BB009E3137268E312000570886005808B0
:101F2600870044310030C03FC13F5708860058083B
:101F3600870046310030C03FC13F57088600580829
:101F4600870048310030C03FC13F57088600580817
:101F560087004A310130810741310318810A570849
:101F66008600580887004C310030C03FC13F08004A
:101F76005808CD005708CC0092313D228E31200002
:101F8600570886005808870044310030C03FC13FDB
:101F9600570886005808870046310030C03FC13FC9
:101FA600570886005808870048310030C03FC13FB7
:101FB60057088600580887004A310030C03FC13FA5
:101FC60057088600580887004C3101308107413197
:101FD6000318810A08005608013A0319952E033A98
:101FE6000319E22E063A03193E2F0C3A03197F2FE6
:0A1FF600033A0319BB2FBB2F0800AC
:1020020071088600720887000030C03FC13F710826
:1020120086007208870042310030C03FC13F71081C
:1020220086007208870044310030C03FC13F71080A
:1020320086007208870046310030C03FC13F7108F8
:1020420086007208870048310030C03FC13F7108E6
:102052008600720887004A31FF30C03FFF30C13F1F
:1020620071080C3EF3000030723DF40073088600E4
:1020720074088700FF3081000800F700F801720839
:10208200031908007708031D6E2873287308031DBF
:10209200562878087707F400740886000130870014
:1020A20001089831B22090316A2878087707F40045
:1020B200740886000130870001089831B2209031FF
:1020C200F50078087307F600760886008701750820
:1020D20081000130F4007408F807720878020318CE
:1020E20008004728730803190800720878020318C9
:1020F200080000309831B2209031F400780873075C
:10210200F500750886008701740881000130F4002B
:102112007408F80776282000AF002F0A86000130E5
:1021220087000108AB002F088600013087002B08CA
:1021320081002F08023E8600013087000108AB00B3
:102142002F0A8600013087002B0881002F08033EEA
:102152008600013087000108AB002F08023E86008E
:10216200013087002B0881002A08AB002F08033EAC
:102172008600013087002B088100AE01AE010430D9
:102182002E02031808002E082F07AB002B0886002A
:10219200013087000108AC002C08A0002E08AD0019
:1021A2002D08A1002F08073E9E3171269031013083
:1021B2002000AB002B08AE07C02822008C01803023
:1021C2008D001A308E00373021008C0030308D00A7
:1021D20060308E00403023008E008D0103308C0071
:1021E20024008D018C018E0125008C018D018E0150
:1021F20000308B1B0130F1008B1355303C008F00F7
:10220200AA308F000F103D002108E0390D38A100DF
:102212003C002108E0390C38A1002008E0390E38D2
:10222200A0003D002408E0390238A4002008E0396B
:102232000C38A0002308E0390338A3001E08E03957
:1022420018389E002208E0391938A20055303C00A7
:102252008F00AA308F000F14711C31298B170800D0
:102262008B1308002000AC009B31CC2391319831B4
:10227200C42091319B31522391319831CE2091313A
:1022820099310D2191319031DE2091319831F72031
:102292009131993102219131993123219131993131
:1022A2002F2191319831A22091318030F1000030FC
:1022B200F2009A311E22913122008D17C030F100B6
:1022C2000030F2009A3134229131A93084008730F3
:1022D2008500003FF100013FF2009A314A2291311C
:1022E200A930840087308500003FF100013FF200F1
:1022F2009A316022913120002C089C310E2420005A
:102302002C08113E86000130870081010800200060
:102312003A08BC003908BB003B0886003C0887002D
:10232200010899319821913120003B0886003C0830
:102332008700010898319C20913120003B088600DB
:102342003C08870001089831AA20913120003B08FF
:1023520086003C08870001089831962091312000C0
:102362003B0886003C08870042310030C03FC13F35
:102372003B0886003C08870044310030C03FC13F23
:102382003B0886003C08870046310030C03FC13F11
:102392003B0886003C08870048310030C03FC13FFF
:1023A2003B0886003C0887004A310030C03FC13FED
:1023B2003B0886003C0887004C310030C03FC13FDB
:1023C200080020003A08BC003908BB003B08860020
:1023D2003C088700010899319821913120003B087F
:1023E20086003C088700010898319C20913120002A
:1023F2003B0886003C08870001089831AA209131E9
:1024020020003B0886003C0887000108983196208E
:10241200913120003B0886003C08870042312C3075
:10242200C03F0130C13F3B0886003C088700443171
:102432000030C03FC13F3B0886003C088700463160
:102442000030C03FC13F3B0886003C08870048314E
:102452000030C03FC13F3B0886003C0887004A313C
:102462000030C03FC13F3B0886003C0887004C312A
:102472000030C03FC13F080005302000CE000030D0
:10248200CF004F08A1004E08A00021003108200013
:10249200A300210030082000A2009C31A324923125
:1024A200200020080907A03E860001308700403F37
:1024B200D000413FD1005108AE005008AD004C0899
:1024C20086004D0887000108993160219231210070
:1024D20030083104031D882A3035343E860001302D
:1024E2008700403F2000B700413FB8004C088600FB
:1024F2004D08870001089831D820923120004C08FD
:1025020086004D08870001089831902008002100BC
:102512003035343E860001308700403F2000BA004B
:10252200413FBB004C0886004D0887004C31403FBC
:10253200BC00413FBD0093316423080020003A08EB
:10254200BC003908BB003B0886003C088700010834
:1025520099319821923120003B0886003C0887007F
:10256200010898319C20923120003B0886003C08EB
:10257200870001089831AA20923120003B0886008A
:102582003C088700010898319620923120003B08D0
:1025920086003C08870042313230C03F0030C13FE4
:1025A2003B0886003C08870044310030C03FC13FF1
:1025B2003B0886003C08870046310030C03FC13FDF
:1025C2003B0886003C08870048310030C03FC13FCD
:1025D2003B0886003C0887004A310030C03FC13FBB
:1025E2003B0886003C0887004C310030C03FC13FA9
:1025F2002100B001B1010430AE000030AF0008008C
:1026020020003A08BC003908BB003B0886003C08A1
:102612008700010899319821933120003B088600F8
:102622003C088700010898319C20933120003B0828
:1026320086003C08870001089831AA2093312000C7
:102642003B0886003C0887000108983196209331A8
:102652009A31C522933120003B0886003C0887004E
:102662004D3181013B0886003C0887004131003032
:10267200C03FC13F3B0886003C0887004331003021
:10268200C03FC13F3B0886003C088700453100300F
:10269200C03FC13F3B0886003C08870047310030FD
:1026A200C03FC13F3B0886003C08870049310030EB
:1026B200C03FC13F3B0886003C0887004B310030D9
:1026C200C03FC13F080032302000C4000030C500C6
:1026D2003B08F2003A08F1009B31702393317208F3
:1026E2002000C9007108C8003C3086000130870014
:1026F2003F308400003085000530BE0016001A000D
:10270200BE0B7F2B4908A1004808A0004508F20033
:102712004408F1003D08F4003C08F3009D31942583
:10272200933172082000A3007108A2009C31A324F7
:10273200933120002108C7002008C600CA01CB013E
:1027420000304B02043003194A020318CF2B490808
:10275200A1004808A0004A084607A2004B08473DCE
:10276200A3009C31A324933120003A08200784005F
:102772003B08213D85000008BE004A083F3E860016
:1027820087013E0881000130CA070030CB3D00308E
:102792004B02043003194A02031CA82B3F30B70036
:1027A2000030B800C3309831D8209331C33098310B
:1027B200902008002000EE00EF0110306F02031895
:1027C20008006E08203E860002308700403FE2008B
:1027D200413FE3000130E4000030E5006F0AF32BD3
:1027E200E435E50D890BF12B62086405E600630808
:1027F2006505E700660867040319512C9B3118230D
:10280200933172082000E9007108E8006F356E0705
:10281200E2006208860002308700403FE300413F49
:10282200E4006308860064088700403FEA00413FF5
:10283200EB006A09E2006B09E300E20A0319E30A0A
:1028420068086207EC006908633DED006F356E07AA
:10285200E2006208860002308700403FE300413F09
:10286200E40063088600640887004A31403FE500BF
:10287200413FE60066086D02031D412C65086C02AB
:10288200031C512C6F356E07E2006208860002308D
:102892008700403FE000413FE1009B31AC23933190
:1028A20001302000E2006208EF07DE2B200053080F
:1028B200D7005208D60021003203330403198C2CAE
:1028C2009C31FF242000D4005408D500560886000D
:1028D2005708870044310130C03F0030C13F5608DD
:1028E20086005708870046310130C03F0030C13FA3
:1028F200560886005708870048310130C03F003033
:10290200C13F56088600570887004A310130C03F50
:102912000030C13F08009C31FF2494312000D400D4
:102922005408D5005630BA00A030BB0056088600C5
:10293200570887004231403FBC00413FBD00933100
:1029420064239431200056088600570887004231DC
:102952000130810741310318810A56088600570861
:10296200870044310030C03FC13F560886005708F7
:10297200870046310030C03FC13F560886005708E5
:10298200870048310030C03FC13F560886005708D3
:1029920087004A310030C03FC13F560886005708C1
:1029A20087004C310130810741310318810A080048
:1029B2002000C500C6011030460203184E2D4508FE
:1029C200203E860002308700403FBF00413FC000EA
:1029D2000130C1000030C200460AF12CC135C20DDF
:1029E200890BEF2C3F084105C30040084205C40093
:1029F20043084404031D462D46354507BF003F08E2
:102A02008600023087003D08C03F3E08C13F0130CA
:102A1200BF000030C000460A102DBF35C00D890B23
:102A22000E2D4508203E8600023087003F088104B3
:102A32004131400881043D0886003E088700443148
:102A4200160001040319382D3D0886003E08870050
:102A52004231403FB900413FBA003D0886003E087E
:102A620087004431413F8A00403F0A0095312000EF
:102A72003D080C3EBF0000303E3DC0003F088600CE
:102A8200400887004608810008000130BF003F0867
:102A9200C60710304602031CE02C3D080C3EBF0066
:102AA20000303E3DC0003F08860040088700FF30EE
:102AB2008100080001302000A3000030A400A8011A
:102AC200A90124082902031D682D230828020318DE
:102AD200142E1930A0002008F10028089931E821AD
:102AE2009531AA3E2000A1002108A7001930A000BC
:102AF2002008F10028089931E8219531143EAA3EB8
:102B0200860001308700010820002707A100210864
:102B120086000130870001087906031DFD2D270874
:102B2200F1000130F2009B317023953172082000D0
:102B3200A6007108A5001930A0002008F10028089D
:102B42009931E8219531143EAA3E86000130870072
:102B52000130810741310318810A19302000A00099
:102B62002008F10028089931E8219531143EAA3E47
:102B7200860001308700403F2000A100413FA200B3
:102B820026082206031DC72D25082106031D0E2E29
:102B92001930A0002008F10028089931E821953168
:102BA200143EAA3E8600013087000030C03FC13F7C
:102BB20019302000A0002008F10028089931E821EE
:102BC2009531173EAA3E8600013087001930200059
:102BD200A1002108F10028089931E821163EAA3EF9
:102BE200840001308500000884008501403F803F59
:102BF200413F813F0130080019302000A000200829
:102C0200F10028089931E8219531143EAA3E860048
:102C1200013087000030C03FC13F01302000A807CB
:102C22000030A93D622D00300800C33091313321BC
:102C3200963120309B3135239631D630F100003069
:102C4200F200903101209631C930F1000030F200DB
:102C5200903101209631BC30F1000030F200903109
:102C6200012096314E30F1000130F2009031012006
:102C720096314130F1000130F2009031012096315D
:102C8200C3302100EF006F082500BC00C3302100D3
:102C9200EF006F082300D500C3302100EF006F085A
:102CA2002400DE00C3302100EF006F082400D000B2
:102CB200C3302100EF006F082400C200FC01FC0AAF
:102CC200BC302100D8000230D900AC30DA00083024
:102CD200DB00B530DE000030DF000030DC00003009
:102CE200DD000A30E0000030E100D530CB000130D9
:102CF200CC009F30CD001230CE001430D1000E3007
:102D0200D2000030CF000030D0000A30D3000030B3
:102D1200D4005E30BE000230BF008830C0001130E7
:102D2200C1005730C4001430C5000030C20000306A
:102D3200C3000A30C6000030C70050302200D00065
:102D42000230D1000130D2001330D3004A30D60015
:102D52000C30D7000030D4000030D5000A30D80043
:102D62000030D9004230C3000230C400E230C50056
:102D72001130C6008D30C9000A30CA000030C700C9
:102D82000030C8000A30CB000030CC002100E30143
:102D9200E4010230B2000030B300D6302000BD00A2
:102DA2000030BE0020309431D9249631C930200041
:102DB200BD000030BE0020309431D9249631BC30A1
:102DC2002000BD000030BE0020309431D92496315D
:102DD2004E302000BD000130BE0020309431D92495
:102DE200963141302000BD000130BE0020309431C8
:102DF200D924963120309331DB239631FB2E0034D7
:102E020000340034203410341034203400341034B0
:102E12001034A5342134A5346034103430340034F5
:102E22001234103408342034203485344534B1341B
:102E32003034103410341034103410341034103450
:102E42001034103410341034103410341034103460
:102E52001034103410341034103410341034103450
:102E62001034103410341034103410341034103440
:102E72001034103410341034103410341034003440
:102E82000034C03440340034443410341034B43488
:102E9200353410341034103410340034043408340F
:102EA2000834023402341E341E34143414344034D0
:102EB2000034103410344034003402340834A9345D
:102EC20063348034403431347034B03460349034FC
:102ED2005134B0343134B134313480346034B134AB
:102EE2007134903471341034103410341034083486
:102EF200083430341034023402341434E134A5344A
:102F0200703491347134B134113421342134B134F8
:102F120050342134313401343134B13421349134D8
:102F2200513424342434A134403409341934213442
:102F3200013481344B3489344334A1346134113443
:102F42007134A934613419347134B03431340434F5
:102F52002434A1344134033409348B3441340A34E7
:102F62000A3404340A342234283421342134083413
:102F72000234A03460340A34003420340034103473
:102F8200103491347134B134113431341034B134D9
:102F920050342134313401343134B1342134913458
:102FA200513424342434A1344034093419342134C2
:102FB200013481344B3489344334A13461341134C3
:102FC2007134A934613419347134B0343134043475
:102FD2002434A1344134033409348B3441340A3467
:102FE2000A3404340A3422342834103410340434B9
:0E2FF20004341034103410341034FF34FF3423
:1030DE0020009717080020001F150800280017155C
:1030EE00080022008D1708001630210097000800F6
:1030FE0020000D0E890C0139080072082100B50060
:10310E007108B4000800FB007B08073E9931D721F7
:10311E0008002000AB002B0898318A200800200000
:10312E00B80038089931C72108002000AB002B08E1
:10313E0099317B2108004030240094002230950004
:10314E00013092000800F1007108113E8600013036
:10315E00870001140800F1002400951371089100F6
:10316E00141CB7281108080020003108AE003008E2
:10317E00AD00C330993160210800320099019B01E6
:10318E009D0106309F009E011C180800CB280130BF
:10319E0020009F004A309E009D01911098317220B0
:1031AE0008002000B9003808B1003708B00039080F
:1031BE009C317924080001340034003400341F346B
:1031CE00F8340A34A0346A34A034210034083504AB
:1031DE000319080035088A0034080A0098310800DF
:1031EE008F30250093009201953091001F08FC3915
:1031FE0001389F0008008F30250097009601E030BF
:10320E0095001F08F33904389F0008007B30280012
:10321E009700FF309600950120009210983175208E
:10322E000800F200FB30F1007208113E86000130FA
:10323E00870071088105080090302C0099007F30BE
:10324E009800C03097001F08FC3902389F00080014
:10325E0090302C009C007F309B00C0309A001F08DD
:10326E00F33908389F0008006400800101310130F5
:10327E00FE020030FF3B7F087E04031900343C2918
:10328E00FE0012001E000130FE020030FF3B7F08E0
:10329E007E040319003448292000901221003708BB
:1032AE002000960021003608200095009831EC2071
:1032BE0008002000AF007C08031D2E152E08AC0060
:1032CE002D08AB002F089B318E230800F200F10170
:1032DE003A3072020318792930307202031C7929B0
:1032EE00F101F10A710C0800FB000030F100F20050
:1032FE007B08073E9931F92199317B08073E9931B8
:10330E00D7210800F1007108113E860001308700B8
:10331E00811808007108113E8600013087000115E2
:10332E000800F1007108113E860001308700011877
:10333E0008007108113E86000130870081140800D4
:10334E00FB000030F100F2000A30F3000030F40010
:10335E007B089A318F2299317B089931D721080049
:10336E009F317627993120002508B1002408B0003E
:10337E003108AE003008AD00C3309931602108002D
:10338E002000B7007430B000A030B10037089C3177
:10339E007924993120003708073E9931D72108004A
:1033AE002000AA000A30F9007908F2002030FA0055
:1033BE007A08F3002A0890313E2022008E178E13D1
:1033CE000800F400F301741CF0297108F200720871
:1033DE00F3070310F10D0310F40C7408031DEA2912
:1033EE0073080800F4007208F300740886000130B8
:1033FE008700730881007108F300740A860001309B
:10340E0087007308810008002100A201A301223564
:10341E00203E860001308700403FF100413FF20020
:10342E0069087104A0006A087204A1000800FF3048
:10343E00F1050330F2052500131E2F2A0630F13553
:10344E00F20D890B262A720892007108910008006D
:10345E0072089200710891000800FF30F1050330E8
:10346E00F2052500171E452A0630F135F20D890B9F
:10347E003C2A7208960071089500080072089600A2
:10348E007108950008007208F4007108F300F43614
:10349E00F30CF436F30C73082C0098007108033902
:1034AE00F3000530F335FF3E031D592A733597009F
:1034BE0008007208F4007108F300F436F30CF436C9
:1034CE00F30C73082C009B0071080339F3000530D0
:1034DE00F335FF3E031D6F2A73359A000800210055
:1034EE002235203E860001308700403FF300413FE9
:1034FE00F400220823040319882A0130A2020030A6
:10350E00A33B73086904F10074086A04F200080012
:10351E00F7007708F5007508F6000130F302003069
:10352E00F43B730A0319740A031908007108F500B5
:10353E007608860001308700750881000130F5009D
:10354E007508F607942AF501F601711CB22A730864
:10355E00F5077408F63D0130F335F40D890BB32AE7
:10356E000130F236F10C890BB82A71087204031D72
:10357E00AC2A7608F2007508F10008000630F30058
:10358E000030F4007308FF3E2100A200FF30743DAE
:10359E00A3002235203E860001308700403FF10017
:1035AE00413FF20069087104A0006A087204A1008C
:1035BE00080080340034C0340034E0340034F03479
:1035CE000034F8340034FC340034FE340034FF345C
:1035DE000034FE340034FC340034F8340034F0345B
:1035EE000034E0340034C03400348034003400340D
:1035FE000134003402340034083400341034003402
:10360E0020340034403400348034003440340034EC
:10361E0020340034103400340834003402340034C2
:10362E00013420001508F3007308FA001608F300A1
:10363E007308FB007A08F300F4017B08F500F6012D
:10364E007508F600F50173087507F8007408763DE5
:10365E00F9007908F2007808F1000800F20072080B
:10366E00203E8600023087000030C03FC13FF3018C
:10367E00103073020318080073357207F1007108D9
:10368E008600023087000030C03FC13F0130F1009C
:10369E007108F3073F2B1030200097004D30980033
:1036AE00FF309600FF30950016082100B70020006D
:1036BE0015082100B600200090122100901603304C
:1036CE00F1000030F200983184209B3198316F2048
:1036DE0008007208F6007108F50075088400760877
:1036EE00850012000319802B0130F5070030F63DDE
:1036FE00742B7109F3007209F400F30A0319F40A2A
:10370E0075087307F1007608743DF2000800FB009F
:10371E007B08053E86000130870020002B08C03F45
:10372E002C08C13F7B08053E860001308700403FD4
:10373E00F100413FF2007B08073E9931F9219B31A0
:10374E007B08073E9931D7210800200060088600CB
:10375E00610887004231403FD200413FD3006008EC
:10376E008600610887004831413F8A00403F0A00C9
:10377E009B319B311823200060088600610887006A
:10378E007108C03F7208C13F08009031DE209B31A6
:10379E009831C4209B3198317B209B319831A220E7
:1037AE009B3199312F219B319831F7209B319931E3
:1037BE0002219B3199310D219B319831CE209B31C5
:1037CE00993123219B319B31522308000034003460
:1037DE002034003460340034E0340034E0340134FA
:1037EE00E03403346A34A0343334A0343C34A0348F
:1037FE004434A0346F34A0345034A0342934A0346F
:10380E004A34A034203420342034203400342000B4
:10381E00AB002B08073E9931A7219C312030F100D7
:10382E000030F2000430F3000030F40020002B08CA
:10383E009A318F2220002B08043E8600013087002B
:10384E0081012B08053E8600013087000030C03F05
:10385E00C13F080000340234003401348034003497
:10386E004034003420340034013401340234023444
:10387E000134023401340234043408340034003488
:10388E00003400340034003400340034003400348A
:10389E0000340034E334013400340630F5000030D7
:1038AE00F60021002235203E860001308700403F81
:1038BE00F700413FF8007508FF3EF300FF30763DFC
:1038CE00F40074082302031D6E2C730822020318E1
:1038DE00742C0130A2070030A33D7808F20077085F
:1038EE00F10008002000B500B6013108B300300821
:1038FE00B20036083207840033080318330A8500F5
:10390E001200031908003108B3003008B20036085F
:10391E003207840033080318330A85000008B40008
:10392E003408AA00350890318C209C3101302000DB
:10393E00B2003208B6077C2C20002008210403199F
:10394E00CB2CFA01FA0AA11BB62C0130A035A10D21
:10395E00890BAD2C0130F9007908FA07AA2C210841
:10396E002302031DBC2C20082202031CC22C20089B
:10397E00A2022108A33B0130A136A00C890BC32C57
:10398E000130FA02031DB62C2308A1002208A00064
:10399E0008007208F3007308F9007108F300730849
:1039AE00F800FA01FB0107307B020318EF2C7908AF
:1039BE000139F3007308FA040310F90C0310FA0D21
:1039CE000130F3007308FB0707307B02031CDE2C6B
:1039DE007A08F300F4017808F500F6017508F60090
:1039EE00F50173087504F10074087604F2000800FE
:1039FE000F30F1007108F30020000E0E890C013912
:103A0E00FF3AF1007108F3050C0C890C0139090716
:103A1E00FF3AF1007108F3050C0E0139F100013087
:103A2E00F135FF3E031D172D7135FF3AF200720876
:103A3E00F3050C0E890C0139F1000230F135FF3E11
:103A4E00031D252D7135FF3AF2007208F305730838
:103A5E00080000302000A3000030A2000030A100BA
:103A6E000030A000711C442D75082000A0077608B8
:103A7E00A13D7708A23D7808A33D0130F535F60D3E
:103A8E00F70DF80D890B452D0130F436F30CF20CC1
:103A9E00F10C890B4C2D7408730472047104031D10
:103AAE00392D20002308F4002208F3002108F2002B
:103ABE002008F10008007108860072088700423164
:103ACE002C30C03F0130C13F71088600720887005C
:103ADE0044310030C03FC13F710886007208870034
:103AEE0046310030C03FC13F710886007208870022
:103AFE0048310030C03FC13F710886007208870010
:103B0E004A310030C03FC13F7108860072088700FD
:103B1E004C310030C03FC13F0800F701F801710879
:103B2E0072040319C32DF601F60AF21BA82D0130FB
:103B3E00F135F20D890B9F2D0130F5007508F60752
:103B4E009C2D0130F735F80D890BA92D72087402E2
:103B5E00031DB32D71087302031CBA2D7108F302F5
:103B6E007208F43B77140130F236F10C890BBB2D41
:103B7E000130F602031DA82D7808F2007708F10037
:103B8E000800210026082704031DE82D26352C3EAB
:103B9E00860001308700403F2000B700413FB8004B
:103BAE004C0886004D08870001089831D8209D31B9
:103BBE0020004C0886004D0887000108983190209F
:103BCE000800210026352C3E860001308700403F3C
:103BDE002000BA00413FBB004C0886004D0887000C
:103BEE005831403FBC00413FBD0093316423080073
:103BFE0080340034803401348034033480340B3408
:103C0E0080341B3480343B3480347B348034FB343A
:103C1E0080347B3480343B3480341B3480340B341A
:103C2E008034033480340134803400344034003422
:103C3E00203400341034003408340034043400349A
:103C4E0002340034013400340234003404340034BD
:103C5E00083400341034003420340034403400343E
:103C6E005F2E20003C08BA003B08B9009F31B927EF
:103C7E0001302100B2000030B300080020003C08E3
:103C8E00BA003B08B9009F31B92703302100B200BA
:103C9E000030B300080020003C08BA003B08B90011
:103CAE009F31B92702302100B2000030B300080066
:103CBE0021003108003A0319652E702E3008013AA2
:103CCE000319382E033A0319452E013A0319522EC1
:103CDE00702E08002000A7002008A200A301A23524
:103CEE00A30DF030A4002630A5002208240786007C
:103CFE002308253D8700403FA800413FA900211C15
:103D0E00932E2908F2002808F1009C31D024720865
:103D1E002000A9007108A8002135FF3A013E083E97
:103D2E00A2002208A6002908A20026082707A30041
:103D3E002308860001308700220881002808A2008F
:103D4E002608013E2707A3002308860001308700BE
:103D5E002208810008000E302000B6000030B700A7
:103D6E003708A1003608A0003108A3003008A200D1
:103D7E009C31A3249E31200020080907203E860096
:103D8E0003308700403FB400413FB5000E30B6000F
:103D9E000030B7003708A1003608A0003108A30094
:103DAE003008A2009C31A3249E3120002008090770
:103DBE00A03E860003308700403FB200413FB30073
:103DCE003208B4043308B5043508AE003408AD002B
:103DDE00C3309931602108000E302000B60000304B
:103DEE00B7003708A1003608A0003108A30030083C
:103DFE00A2009C31A3249E31200020080907A03E7A
:103E0E00860002308700403FB400413FB5000E30BF
:103E1E00B6000030B7003708A1003608A000310800
:103E2E00A3003008A2009C31A3249E31200020085C
:103E3E0009073C3E860003308700403FB200413FF9
:103E4E00B3003208B4043308B5043508AE003408A4
:103E5E00AD00C3309931602108002000390886007A
:103E6E003A08870041310030C03FC13F3908860013
:103E7E003A08870043310030C03FC13F3908860001
:103E8E003A08870045310030C03FC13F39088600EF
:103E9E003A08870047310030C03FC13F39088600DD
:103EAE003A08870049310030C03FC13F39088600CB
:103EBE003A0887004B310030C03FC13F39088600B9
:103ECE003A088700010898319C209F31200039085C
:103EDE0086003A08870001089831962008002100D4
:103EEE006808F4006708F3006608F2006508F10040
:103EFE004130F800C630F7004E30F6006D30F50058
:103F0E009D3130259F3174082100E8007308E700C9
:103F1E007208E6007108E5003930E5073030E63DFD
:103F2E000030E73D0030E83D65082000A600210086
:103F3E0066082000A700210067082000A8002100C5
:103F4E0068082000A9001030AA00A937A80CA70CF9
:103F5E00A60CAA0BAC2FFF302605A4007F30270538
:103F6E00A50008002000390886003A088700423173
:103F7E003230C03F0030C13F390886003A08870012
:103F8E0044310030C03FC13F390886003A088700EF
:103F9E0046310030C03FC13F390886003A088700DD
:103FAE0048310030C03FC13F390886003A088700CB
:103FBE004A310030C03FC13F390886003A088700B9
:103FCE004C310030C03FC13F2100B001B101200093
:103FDE00390886003A088700010898319C209F31E5
:103FEE002000390886003A0887000108983196208B
:103FFE000800013400340A34003464340034E834E8
:10400E0003341034273405340734073408342D3480
:10401E002D34203420342D342D3409340734073414
:10402E00063420340B342034003455344E344C34A2
:10403E004F3443344B3449344E3447342E342E34BB
:10404E002E340034503441345334533457344F34B7
:10405E0052344434203400344E3455344C344C34C1
:10406E0049344634593420340034443445344634CB
:10407E0043344F344E3420340034483441345834B1
:10408E0020342034003445345834493454342034E8
:10409E00003453344C344F345434203400342434EC
:1040AE0024342434203400344C344F3443344B34D1
:1040BE0000344F34503445344E340034503445348B
:1040CE005734203400344E3455344C344C34003490
:1040DE004D3445344E34553400342034203420349D
:1040EE002034003444344F3457344E3400342034AA
:1040FE002034553450340034253434346434003490
:020000040001F9
:08000E008CFFF3FFFFFFFFFF71
:00000001FF
